{
	"CrowdFunding.sol": {
		"main": {
			"abi": [
				{
					"inputs": [
						{
							"internalType": "uint256",
							"name": "_goal",
							"type": "uint256"
						},
						{
							"internalType": "uint256",
							"name": "_timePeriod",
							"type": "uint256"
						}
					],
					"stateMutability": "nonpayable",
					"type": "constructor"
				},
				{
					"inputs": [],
					"name": "contribution",
					"outputs": [],
					"stateMutability": "payable",
					"type": "function"
				},
				{
					"inputs": [
						{
							"internalType": "address",
							"name": "",
							"type": "address"
						}
					],
					"name": "funders",
					"outputs": [
						{
							"internalType": "uint256",
							"name": "",
							"type": "uint256"
						}
					],
					"stateMutability": "view",
					"type": "function"
				},
				{
					"inputs": [],
					"name": "fundsRaised",
					"outputs": [
						{
							"internalType": "uint256",
							"name": "",
							"type": "uint256"
						}
					],
					"stateMutability": "view",
					"type": "function"
				},
				{
					"inputs": [],
					"name": "getRefund",
					"outputs": [],
					"stateMutability": "nonpayable",
					"type": "function"
				},
				{
					"inputs": [],
					"name": "goal",
					"outputs": [
						{
							"internalType": "uint256",
							"name": "",
							"type": "uint256"
						}
					],
					"stateMutability": "view",
					"type": "function"
				},
				{
					"inputs": [],
					"name": "minAmount",
					"outputs": [
						{
							"internalType": "uint256",
							"name": "",
							"type": "uint256"
						}
					],
					"stateMutability": "view",
					"type": "function"
				},
				{
					"inputs": [],
					"name": "noOfFounders",
					"outputs": [
						{
							"internalType": "uint256",
							"name": "",
							"type": "uint256"
						}
					],
					"stateMutability": "view",
					"type": "function"
				},
				{
					"inputs": [],
					"name": "owner",
					"outputs": [
						{
							"internalType": "address",
							"name": "",
							"type": "address"
						}
					],
					"stateMutability": "view",
					"type": "function"
				},
				{
					"inputs": [],
					"name": "timePeriod",
					"outputs": [
						{
							"internalType": "uint256",
							"name": "",
							"type": "uint256"
						}
					],
					"stateMutability": "view",
					"type": "function"
				},
				{
					"stateMutability": "payable",
					"type": "receive"
				}
			],
			"devdoc": {
				"kind": "dev",
				"methods": {},
				"version": 1
			},
			"evm": {
				"assembly": "    /* \"CrowdFunding.sol\":59:1327  contract main {\r... */\n  mstore(0x40, 0x80)\n    /* \"CrowdFunding.sol\":311:496  constructor(uint _goal, uint _timePeriod){\r... */\n  callvalue\n  dup1\n  iszero\n  tag_1\n  jumpi\n  0x00\n  dup1\n  revert\ntag_1:\n  pop\n  mload(0x40)\n  sub(codesize, bytecodeSize)\n  dup1\n  bytecodeSize\n  dup4\n  codecopy\n  dup2\n  dup2\n  add\n  0x40\n  mstore\n  dup2\n  add\n  swap1\n  tag_2\n  swap2\n  swap1\n  tag_3\n  jump\t// in\ntag_2:\n    /* \"CrowdFunding.sol\":370:375  _goal */\n  dup2\n    /* \"CrowdFunding.sol\":363:367  goal */\n  0x02\n    /* \"CrowdFunding.sol\":363:375  goal = _goal */\n  dup2\n  swap1\n  sstore\n  pop\n    /* \"CrowdFunding.sol\":417:428  _timePeriod */\n  dup1\n    /* \"CrowdFunding.sol\":399:414  block.timestamp */\n  timestamp\n    /* \"CrowdFunding.sol\":399:428  block.timestamp + _timePeriod */\n  tag_6\n  swap2\n  swap1\n  tag_7\n  jump\t// in\ntag_6:\n    /* \"CrowdFunding.sol\":386:396  timePeriod */\n  0x06\n    /* \"CrowdFunding.sol\":386:428  timePeriod = block.timestamp + _timePeriod */\n  dup2\n  swap1\n  sstore\n  pop\n    /* \"CrowdFunding.sol\":447:457  msg.sender */\n  caller\n    /* \"CrowdFunding.sol\":439:444  owner */\n  0x00\n  dup1\n    /* \"CrowdFunding.sol\":439:457  owner = msg.sender */\n  0x0100\n  exp\n  dup2\n  sload\n  dup2\n  0xffffffffffffffffffffffffffffffffffffffff\n  mul\n  not\n  and\n  swap1\n  dup4\n  0xffffffffffffffffffffffffffffffffffffffff\n  and\n  mul\n  or\n  swap1\n  sstore\n  pop\n    /* \"CrowdFunding.sol\":480:488  1000 wei */\n  0x03e8\n    /* \"CrowdFunding.sol\":468:477  minAmount */\n  0x03\n    /* \"CrowdFunding.sol\":468:488  minAmount = 1000 wei */\n  dup2\n  swap1\n  sstore\n  pop\n    /* \"CrowdFunding.sol\":311:496  constructor(uint _goal, uint _timePeriod){\r... */\n  pop\n  pop\n    /* \"CrowdFunding.sol\":59:1327  contract main {\r... */\n  jump(tag_8)\n    /* \"#utility.yul\":7:150   */\ntag_10:\n    /* \"#utility.yul\":64:69   */\n  0x00\n    /* \"#utility.yul\":95:101   */\n  dup2\n    /* \"#utility.yul\":89:102   */\n  mload\n    /* \"#utility.yul\":80:102   */\n  swap1\n  pop\n    /* \"#utility.yul\":111:144   */\n  tag_12\n    /* \"#utility.yul\":138:143   */\n  dup2\n    /* \"#utility.yul\":111:144   */\n  tag_13\n  jump\t// in\ntag_12:\n    /* \"#utility.yul\":7:150   */\n  swap3\n  swap2\n  pop\n  pop\n  jump\t// out\n    /* \"#utility.yul\":156:663   */\ntag_3:\n    /* \"#utility.yul\":235:241   */\n  0x00\n    /* \"#utility.yul\":243:249   */\n  dup1\n    /* \"#utility.yul\":292:294   */\n  0x40\n    /* \"#utility.yul\":280:289   */\n  dup4\n    /* \"#utility.yul\":271:278   */\n  dup6\n    /* \"#utility.yul\":267:290   */\n  sub\n    /* \"#utility.yul\":263:295   */\n  slt\n    /* \"#utility.yul\":260:379   */\n  iszero\n  tag_15\n  jumpi\n    /* \"#utility.yul\":298:377   */\n  tag_16\n  tag_17\n  jump\t// in\ntag_16:\n    /* \"#utility.yul\":260:379   */\ntag_15:\n    /* \"#utility.yul\":418:419   */\n  0x00\n    /* \"#utility.yul\":443:507   */\n  tag_18\n    /* \"#utility.yul\":499:506   */\n  dup6\n    /* \"#utility.yul\":490:496   */\n  dup3\n    /* \"#utility.yul\":479:488   */\n  dup7\n    /* \"#utility.yul\":475:497   */\n  add\n    /* \"#utility.yul\":443:507   */\n  tag_10\n  jump\t// in\ntag_18:\n    /* \"#utility.yul\":433:507   */\n  swap3\n  pop\n    /* \"#utility.yul\":389:517   */\n  pop\n    /* \"#utility.yul\":556:558   */\n  0x20\n    /* \"#utility.yul\":582:646   */\n  tag_19\n    /* \"#utility.yul\":638:645   */\n  dup6\n    /* \"#utility.yul\":629:635   */\n  dup3\n    /* \"#utility.yul\":618:627   */\n  dup7\n    /* \"#utility.yul\":614:636   */\n  add\n    /* \"#utility.yul\":582:646   */\n  tag_10\n  jump\t// in\ntag_19:\n    /* \"#utility.yul\":572:646   */\n  swap2\n  pop\n    /* \"#utility.yul\":527:656   */\n  pop\n    /* \"#utility.yul\":156:663   */\n  swap3\n  pop\n  swap3\n  swap1\n  pop\n  jump\t// out\n    /* \"#utility.yul\":750:1055   */\ntag_7:\n    /* \"#utility.yul\":790:793   */\n  0x00\n    /* \"#utility.yul\":809:829   */\n  tag_23\n    /* \"#utility.yul\":827:828   */\n  dup3\n    /* \"#utility.yul\":809:829   */\n  tag_24\n  jump\t// in\ntag_23:\n    /* \"#utility.yul\":804:829   */\n  swap2\n  pop\n    /* \"#utility.yul\":843:863   */\n  tag_25\n    /* \"#utility.yul\":861:862   */\n  dup4\n    /* \"#utility.yul\":843:863   */\n  tag_24\n  jump\t// in\ntag_25:\n    /* \"#utility.yul\":838:863   */\n  swap3\n  pop\n    /* \"#utility.yul\":997:998   */\n  dup3\n    /* \"#utility.yul\":929:995   */\n  0xffffffffffffffffffffffffffffffffffffffffffffffffffffffffffffffff\n    /* \"#utility.yul\":925:999   */\n  sub\n    /* \"#utility.yul\":922:923   */\n  dup3\n    /* \"#utility.yul\":919:1000   */\n  gt\n    /* \"#utility.yul\":916:1023   */\n  iszero\n  tag_26\n  jumpi\n    /* \"#utility.yul\":1003:1021   */\n  tag_27\n  tag_28\n  jump\t// in\ntag_27:\n    /* \"#utility.yul\":916:1023   */\ntag_26:\n    /* \"#utility.yul\":1047:1048   */\n  dup3\n    /* \"#utility.yul\":1044:1045   */\n  dup3\n    /* \"#utility.yul\":1040:1049   */\n  add\n    /* \"#utility.yul\":1033:1049   */\n  swap1\n  pop\n    /* \"#utility.yul\":750:1055   */\n  swap3\n  swap2\n  pop\n  pop\n  jump\t// out\n    /* \"#utility.yul\":1061:1138   */\ntag_24:\n    /* \"#utility.yul\":1098:1105   */\n  0x00\n    /* \"#utility.yul\":1127:1132   */\n  dup2\n    /* \"#utility.yul\":1116:1132   */\n  swap1\n  pop\n    /* \"#utility.yul\":1061:1138   */\n  swap2\n  swap1\n  pop\n  jump\t// out\n    /* \"#utility.yul\":1144:1324   */\ntag_28:\n    /* \"#utility.yul\":1192:1269   */\n  0x4e487b7100000000000000000000000000000000000000000000000000000000\n    /* \"#utility.yul\":1189:1190   */\n  0x00\n    /* \"#utility.yul\":1182:1270   */\n  mstore\n    /* \"#utility.yul\":1289:1293   */\n  0x11\n    /* \"#utility.yul\":1286:1287   */\n  0x04\n    /* \"#utility.yul\":1279:1294   */\n  mstore\n    /* \"#utility.yul\":1313:1317   */\n  0x24\n    /* \"#utility.yul\":1310:1311   */\n  0x00\n    /* \"#utility.yul\":1303:1318   */\n  revert\n    /* \"#utility.yul\":1453:1570   */\ntag_17:\n    /* \"#utility.yul\":1562:1563   */\n  0x00\n    /* \"#utility.yul\":1559:1560   */\n  dup1\n    /* \"#utility.yul\":1552:1564   */\n  revert\n    /* \"#utility.yul\":1576:1698   */\ntag_13:\n    /* \"#utility.yul\":1649:1673   */\n  tag_35\n    /* \"#utility.yul\":1667:1672   */\n  dup2\n    /* \"#utility.yul\":1649:1673   */\n  tag_24\n  jump\t// in\ntag_35:\n    /* \"#utility.yul\":1642:1647   */\n  dup2\n    /* \"#utility.yul\":1639:1674   */\n  eq\n    /* \"#utility.yul\":1629:1692   */\n  tag_36\n  jumpi\n    /* \"#utility.yul\":1688:1689   */\n  0x00\n    /* \"#utility.yul\":1685:1686   */\n  dup1\n    /* \"#utility.yul\":1678:1690   */\n  revert\n    /* \"#utility.yul\":1629:1692   */\ntag_36:\n    /* \"#utility.yul\":1576:1698   */\n  pop\n  jump\t// out\n    /* \"CrowdFunding.sol\":59:1327  contract main {\r... */\ntag_8:\n  dataSize(sub_0)\n  dup1\n  dataOffset(sub_0)\n  0x00\n  codecopy\n  0x00\n  return\nstop\n\nsub_0: assembly {\n        /* \"CrowdFunding.sol\":59:1327  contract main {\r... */\n      mstore(0x40, 0x80)\n      jumpi(tag_1, lt(calldatasize, 0x04))\n      shr(0xe0, calldataload(0x00))\n      dup1\n      0x6681b9fd\n      gt\n      tag_12\n      jumpi\n      dup1\n      0x6681b9fd\n      eq\n      tag_7\n      jumpi\n      dup1\n      0x8da5cb5b\n      eq\n      tag_8\n      jumpi\n      dup1\n      0x9b2cb5d8\n      eq\n      tag_9\n      jumpi\n      dup1\n      0xb2d5ae44\n      eq\n      tag_10\n      jumpi\n      dup1\n      0xe89b7c55\n      eq\n      tag_11\n      jumpi\n      jump(tag_2)\n    tag_12:\n      dup1\n      0x031b3677\n      eq\n      tag_3\n      jumpi\n      dup1\n      0x3e79d1e1\n      eq\n      tag_4\n      jumpi\n      dup1\n      0x40193883\n      eq\n      tag_5\n      jumpi\n      dup1\n      0x50520b1f\n      eq\n      tag_6\n      jumpi\n      jump(tag_2)\n    tag_1:\n      jumpi(tag_2, calldatasize)\n      stop\n    tag_2:\n      0x00\n      dup1\n      revert\n        /* \"CrowdFunding.sol\":109:149  mapping (address => uint) public funders */\n    tag_3:\n      callvalue\n      dup1\n      iszero\n      tag_15\n      jumpi\n      0x00\n      dup1\n      revert\n    tag_15:\n      pop\n      tag_16\n      0x04\n      dup1\n      calldatasize\n      sub\n      dup2\n      add\n      swap1\n      tag_17\n      swap2\n      swap1\n      tag_18\n      jump\t// in\n    tag_17:\n      tag_19\n      jump\t// in\n    tag_16:\n      mload(0x40)\n      tag_20\n      swap2\n      swap1\n      tag_21\n      jump\t// in\n    tag_20:\n      mload(0x40)\n      dup1\n      swap2\n      sub\n      swap1\n      return\n        /* \"CrowdFunding.sol\":268:290  uint public timePeriod */\n    tag_4:\n      callvalue\n      dup1\n      iszero\n      tag_22\n      jumpi\n      0x00\n      dup1\n      revert\n    tag_22:\n      pop\n      tag_23\n      tag_24\n      jump\t// in\n    tag_23:\n      mload(0x40)\n      tag_25\n      swap2\n      swap1\n      tag_21\n      jump\t// in\n    tag_25:\n      mload(0x40)\n      dup1\n      swap2\n      sub\n      swap1\n      return\n        /* \"CrowdFunding.sol\":156:172  uint public goal */\n    tag_5:\n      callvalue\n      dup1\n      iszero\n      tag_26\n      jumpi\n      0x00\n      dup1\n      revert\n    tag_26:\n      pop\n      tag_27\n      tag_28\n      jump\t// in\n    tag_27:\n      mload(0x40)\n      tag_29\n      swap2\n      swap1\n      tag_21\n      jump\t// in\n    tag_29:\n      mload(0x40)\n      dup1\n      swap2\n      sub\n      swap1\n      return\n        /* \"CrowdFunding.sol\":647:1011  function contribution() public payable{\r... */\n    tag_6:\n      tag_30\n      tag_31\n      jump\t// in\n    tag_30:\n      stop\n        /* \"CrowdFunding.sol\":238:261  uint public fundsRaised */\n    tag_7:\n      callvalue\n      dup1\n      iszero\n      tag_32\n      jumpi\n      0x00\n      dup1\n      revert\n    tag_32:\n      pop\n      tag_33\n      tag_34\n      jump\t// in\n    tag_33:\n      mload(0x40)\n      tag_35\n      swap2\n      swap1\n      tag_21\n      jump\t// in\n    tag_35:\n      mload(0x40)\n      dup1\n      swap2\n      sub\n      swap1\n      return\n        /* \"CrowdFunding.sol\":82:102  address public owner */\n    tag_8:\n      callvalue\n      dup1\n      iszero\n      tag_36\n      jumpi\n      0x00\n      dup1\n      revert\n    tag_36:\n      pop\n      tag_37\n      tag_38\n      jump\t// in\n    tag_37:\n      mload(0x40)\n      tag_39\n      swap2\n      swap1\n      tag_40\n      jump\t// in\n    tag_39:\n      mload(0x40)\n      dup1\n      swap2\n      sub\n      swap1\n      return\n        /* \"CrowdFunding.sol\":179:200  uint public minAmount */\n    tag_9:\n      callvalue\n      dup1\n      iszero\n      tag_41\n      jumpi\n      0x00\n      dup1\n      revert\n    tag_41:\n      pop\n      tag_42\n      tag_43\n      jump\t// in\n    tag_42:\n      mload(0x40)\n      tag_44\n      swap2\n      swap1\n      tag_21\n      jump\t// in\n    tag_44:\n      mload(0x40)\n      dup1\n      swap2\n      sub\n      swap1\n      return\n        /* \"CrowdFunding.sol\":1019:1322  function getRefund() public {\r... */\n    tag_10:\n      callvalue\n      dup1\n      iszero\n      tag_45\n      jumpi\n      0x00\n      dup1\n      revert\n    tag_45:\n      pop\n      tag_46\n      tag_47\n      jump\t// in\n    tag_46:\n      stop\n        /* \"CrowdFunding.sol\":207:231  uint public noOfFounders */\n    tag_11:\n      callvalue\n      dup1\n      iszero\n      tag_48\n      jumpi\n      0x00\n      dup1\n      revert\n    tag_48:\n      pop\n      tag_49\n      tag_50\n      jump\t// in\n    tag_49:\n      mload(0x40)\n      tag_51\n      swap2\n      swap1\n      tag_21\n      jump\t// in\n    tag_51:\n      mload(0x40)\n      dup1\n      swap2\n      sub\n      swap1\n      return\n        /* \"CrowdFunding.sol\":109:149  mapping (address => uint) public funders */\n    tag_19:\n      mstore(0x20, 0x01)\n      dup1\n      0x00\n      mstore\n      keccak256(0x00, 0x40)\n      0x00\n      swap2\n      pop\n      swap1\n      pop\n      sload\n      dup2\n      jump\t// out\n        /* \"CrowdFunding.sol\":268:290  uint public timePeriod */\n    tag_24:\n      sload(0x06)\n      dup2\n      jump\t// out\n        /* \"CrowdFunding.sol\":156:172  uint public goal */\n    tag_28:\n      sload(0x02)\n      dup2\n      jump\t// out\n        /* \"CrowdFunding.sol\":647:1011  function contribution() public payable{\r... */\n    tag_31:\n        /* \"CrowdFunding.sol\":722:732  timePeriod */\n      sload(0x06)\n        /* \"CrowdFunding.sol\":704:719  block.timestamp */\n      timestamp\n        /* \"CrowdFunding.sol\":704:732  block.timestamp < timePeriod */\n      lt\n        /* \"CrowdFunding.sol\":696:753  require(block.timestamp < timePeriod, \"Funding is over!\") */\n      tag_53\n      jumpi\n      mload(0x40)\n      0x08c379a000000000000000000000000000000000000000000000000000000000\n      dup2\n      mstore\n      0x04\n      add\n      tag_54\n      swap1\n      tag_55\n      jump\t// in\n    tag_54:\n      mload(0x40)\n      dup1\n      swap2\n      sub\n      swap1\n      revert\n    tag_53:\n        /* \"CrowdFunding.sol\":785:794  minAmount */\n      sload(0x03)\n        /* \"CrowdFunding.sol\":772:781  msg.value */\n      callvalue\n        /* \"CrowdFunding.sol\":772:794  msg.value >= minAmount */\n      lt\n      iszero\n        /* \"CrowdFunding.sol\":764:834  require(msg.value >= minAmount, \"Minimum amount criteria not satisfy\") */\n      tag_56\n      jumpi\n      mload(0x40)\n      0x08c379a000000000000000000000000000000000000000000000000000000000\n      dup2\n      mstore\n      0x04\n      add\n      tag_57\n      swap1\n      tag_58\n      jump\t// in\n    tag_57:\n      mload(0x40)\n      dup1\n      swap2\n      sub\n      swap1\n      revert\n    tag_56:\n        /* \"CrowdFunding.sol\":873:874  0 */\n      0x00\n        /* \"CrowdFunding.sol\":850:857  funders */\n      0x01\n        /* \"CrowdFunding.sol\":850:869  funders[msg.sender] */\n      0x00\n        /* \"CrowdFunding.sol\":858:868  msg.sender */\n      caller\n        /* \"CrowdFunding.sol\":850:869  funders[msg.sender] */\n      0xffffffffffffffffffffffffffffffffffffffff\n      and\n      0xffffffffffffffffffffffffffffffffffffffff\n      and\n      dup2\n      mstore\n      0x20\n      add\n      swap1\n      dup2\n      mstore\n      0x20\n      add\n      0x00\n      keccak256\n      sload\n        /* \"CrowdFunding.sol\":850:874  funders[msg.sender] == 0 */\n      eq\n        /* \"CrowdFunding.sol\":847:916  if(funders[msg.sender] == 0){\r... */\n      iszero\n      tag_59\n      jumpi\n        /* \"CrowdFunding.sol\":890:902  noOfFounders */\n      0x04\n      0x00\n        /* \"CrowdFunding.sol\":890:904  noOfFounders++ */\n      dup2\n      sload\n      dup1\n      swap3\n      swap2\n      swap1\n      tag_60\n      swap1\n      tag_61\n      jump\t// in\n    tag_60:\n      swap2\n      swap1\n      pop\n      sstore\n      pop\n        /* \"CrowdFunding.sol\":847:916  if(funders[msg.sender] == 0){\r... */\n    tag_59:\n        /* \"CrowdFunding.sol\":959:968  msg.value */\n      callvalue\n        /* \"CrowdFunding.sol\":936:943  funders */\n      0x01\n        /* \"CrowdFunding.sol\":936:955  funders[msg.sender] */\n      0x00\n        /* \"CrowdFunding.sol\":944:954  msg.sender */\n      caller\n        /* \"CrowdFunding.sol\":936:955  funders[msg.sender] */\n      0xffffffffffffffffffffffffffffffffffffffff\n      and\n      0xffffffffffffffffffffffffffffffffffffffff\n      and\n      dup2\n      mstore\n      0x20\n      add\n      swap1\n      dup2\n      mstore\n      0x20\n      add\n      0x00\n      keccak256\n      0x00\n        /* \"CrowdFunding.sol\":936:968  funders[msg.sender] += msg.value */\n      dup3\n      dup3\n      sload\n      tag_62\n      swap2\n      swap1\n      tag_63\n      jump\t// in\n    tag_62:\n      swap3\n      pop\n      pop\n      dup2\n      swap1\n      sstore\n      pop\n        /* \"CrowdFunding.sol\":994:1003  msg.value */\n      callvalue\n        /* \"CrowdFunding.sol\":979:990  fundsRaised */\n      0x05\n      0x00\n        /* \"CrowdFunding.sol\":979:1003  fundsRaised += msg.value */\n      dup3\n      dup3\n      sload\n      tag_64\n      swap2\n      swap1\n      tag_63\n      jump\t// in\n    tag_64:\n      swap3\n      pop\n      pop\n      dup2\n      swap1\n      sstore\n      pop\n        /* \"CrowdFunding.sol\":647:1011  function contribution() public payable{\r... */\n      jump\t// out\n        /* \"CrowdFunding.sol\":238:261  uint public fundsRaised */\n    tag_34:\n      sload(0x05)\n      dup2\n      jump\t// out\n        /* \"CrowdFunding.sol\":82:102  address public owner */\n    tag_38:\n      0x00\n      dup1\n      sload\n      swap1\n      0x0100\n      exp\n      swap1\n      div\n      0xffffffffffffffffffffffffffffffffffffffff\n      and\n      dup2\n      jump\t// out\n        /* \"CrowdFunding.sol\":179:200  uint public minAmount */\n    tag_43:\n      sload(0x03)\n      dup2\n      jump\t// out\n        /* \"CrowdFunding.sol\":1019:1322  function getRefund() public {\r... */\n    tag_47:\n        /* \"CrowdFunding.sol\":1084:1094  timePeriod */\n      sload(0x06)\n        /* \"CrowdFunding.sol\":1066:1081  block.timestamp */\n      timestamp\n        /* \"CrowdFunding.sol\":1066:1094  block.timestamp > timePeriod */\n      gt\n        /* \"CrowdFunding.sol\":1058:1119  require(block.timestamp > timePeriod, \"Funding is still on!\") */\n      tag_66\n      jumpi\n      mload(0x40)\n      0x08c379a000000000000000000000000000000000000000000000000000000000\n      dup2\n      mstore\n      0x04\n      add\n      tag_67\n      swap1\n      tag_68\n      jump\t// in\n    tag_67:\n      mload(0x40)\n      dup1\n      swap2\n      sub\n      swap1\n      revert\n    tag_66:\n        /* \"CrowdFunding.sol\":1152:1156  goal */\n      sload(0x02)\n        /* \"CrowdFunding.sol\":1138:1149  fundsRaised */\n      sload(0x05)\n        /* \"CrowdFunding.sol\":1138:1156  fundsRaised < goal */\n      lt\n        /* \"CrowdFunding.sol\":1130:1183  require(fundsRaised < goal, \"Funding was successful\") */\n      tag_69\n      jumpi\n      mload(0x40)\n      0x08c379a000000000000000000000000000000000000000000000000000000000\n      dup2\n      mstore\n      0x04\n      add\n      tag_70\n      swap1\n      tag_71\n      jump\t// in\n    tag_70:\n      mload(0x40)\n      dup1\n      swap2\n      sub\n      swap1\n      revert\n    tag_69:\n        /* \"CrowdFunding.sol\":1224:1225  0 */\n      0x00\n        /* \"CrowdFunding.sol\":1202:1209  funders */\n      0x01\n        /* \"CrowdFunding.sol\":1202:1221  funders[msg.sender] */\n      0x00\n        /* \"CrowdFunding.sol\":1210:1220  msg.sender */\n      caller\n        /* \"CrowdFunding.sol\":1202:1221  funders[msg.sender] */\n      0xffffffffffffffffffffffffffffffffffffffff\n      and\n      0xffffffffffffffffffffffffffffffffffffffff\n      and\n      dup2\n      mstore\n      0x20\n      add\n      swap1\n      dup2\n      mstore\n      0x20\n      add\n      0x00\n      keccak256\n      sload\n        /* \"CrowdFunding.sol\":1202:1225  funders[msg.sender] > 0 */\n      gt\n        /* \"CrowdFunding.sol\":1194:1242  require(funders[msg.sender] > 0, \"Not a funder\") */\n      tag_72\n      jumpi\n      mload(0x40)\n      0x08c379a000000000000000000000000000000000000000000000000000000000\n      dup2\n      mstore\n      0x04\n      add\n      tag_73\n      swap1\n      tag_74\n      jump\t// in\n    tag_73:\n      mload(0x40)\n      dup1\n      swap2\n      sub\n      swap1\n      revert\n    tag_72:\n        /* \"CrowdFunding.sol\":1263:1273  msg.sender */\n      caller\n        /* \"CrowdFunding.sol\":1255:1283  payable(msg.sender).transfer */\n      0xffffffffffffffffffffffffffffffffffffffff\n      and\n        /* \"CrowdFunding.sol\":1255:1304  payable(msg.sender).transfer(funders[msg.sender]) */\n      0x08fc\n        /* \"CrowdFunding.sol\":1284:1291  funders */\n      0x01\n        /* \"CrowdFunding.sol\":1284:1303  funders[msg.sender] */\n      0x00\n        /* \"CrowdFunding.sol\":1292:1302  msg.sender */\n      caller\n        /* \"CrowdFunding.sol\":1284:1303  funders[msg.sender] */\n      0xffffffffffffffffffffffffffffffffffffffff\n      and\n      0xffffffffffffffffffffffffffffffffffffffff\n      and\n      dup2\n      mstore\n      0x20\n      add\n      swap1\n      dup2\n      mstore\n      0x20\n      add\n      0x00\n      keccak256\n      sload\n        /* \"CrowdFunding.sol\":1255:1304  payable(msg.sender).transfer(funders[msg.sender]) */\n      swap1\n      dup2\n      iszero\n      mul\n      swap1\n      mload(0x40)\n      0x00\n      mload(0x40)\n      dup1\n      dup4\n      sub\n      dup2\n      dup6\n      dup9\n      dup9\n      call\n      swap4\n      pop\n      pop\n      pop\n      pop\n      iszero\n      dup1\n      iszero\n      tag_76\n      jumpi\n      returndatasize\n      0x00\n      dup1\n      returndatacopy\n      revert(0x00, returndatasize)\n    tag_76:\n      pop\n        /* \"CrowdFunding.sol\":1019:1322  function getRefund() public {\r... */\n      jump\t// out\n        /* \"CrowdFunding.sol\":207:231  uint public noOfFounders */\n    tag_50:\n      sload(0x04)\n      dup2\n      jump\t// out\n        /* \"#utility.yul\":7:146   */\n    tag_78:\n        /* \"#utility.yul\":53:58   */\n      0x00\n        /* \"#utility.yul\":91:97   */\n      dup2\n        /* \"#utility.yul\":78:98   */\n      calldataload\n        /* \"#utility.yul\":69:98   */\n      swap1\n      pop\n        /* \"#utility.yul\":107:140   */\n      tag_80\n        /* \"#utility.yul\":134:139   */\n      dup2\n        /* \"#utility.yul\":107:140   */\n      tag_81\n      jump\t// in\n    tag_80:\n        /* \"#utility.yul\":7:146   */\n      swap3\n      swap2\n      pop\n      pop\n      jump\t// out\n        /* \"#utility.yul\":152:481   */\n    tag_18:\n        /* \"#utility.yul\":211:217   */\n      0x00\n        /* \"#utility.yul\":260:262   */\n      0x20\n        /* \"#utility.yul\":248:257   */\n      dup3\n        /* \"#utility.yul\":239:246   */\n      dup5\n        /* \"#utility.yul\":235:258   */\n      sub\n        /* \"#utility.yul\":231:263   */\n      slt\n        /* \"#utility.yul\":228:347   */\n      iszero\n      tag_83\n      jumpi\n        /* \"#utility.yul\":266:345   */\n      tag_84\n      tag_85\n      jump\t// in\n    tag_84:\n        /* \"#utility.yul\":228:347   */\n    tag_83:\n        /* \"#utility.yul\":386:387   */\n      0x00\n        /* \"#utility.yul\":411:464   */\n      tag_86\n        /* \"#utility.yul\":456:463   */\n      dup5\n        /* \"#utility.yul\":447:453   */\n      dup3\n        /* \"#utility.yul\":436:445   */\n      dup6\n        /* \"#utility.yul\":432:454   */\n      add\n        /* \"#utility.yul\":411:464   */\n      tag_78\n      jump\t// in\n    tag_86:\n        /* \"#utility.yul\":401:464   */\n      swap2\n      pop\n        /* \"#utility.yul\":357:474   */\n      pop\n        /* \"#utility.yul\":152:481   */\n      swap3\n      swap2\n      pop\n      pop\n      jump\t// out\n        /* \"#utility.yul\":487:605   */\n    tag_87:\n        /* \"#utility.yul\":574:598   */\n      tag_89\n        /* \"#utility.yul\":592:597   */\n      dup2\n        /* \"#utility.yul\":574:598   */\n      tag_90\n      jump\t// in\n    tag_89:\n        /* \"#utility.yul\":569:572   */\n      dup3\n        /* \"#utility.yul\":562:599   */\n      mstore\n        /* \"#utility.yul\":487:605   */\n      pop\n      pop\n      jump\t// out\n        /* \"#utility.yul\":611:977   */\n    tag_91:\n        /* \"#utility.yul\":753:756   */\n      0x00\n        /* \"#utility.yul\":774:841   */\n      tag_93\n        /* \"#utility.yul\":838:840   */\n      0x16\n        /* \"#utility.yul\":833:836   */\n      dup4\n        /* \"#utility.yul\":774:841   */\n      tag_94\n      jump\t// in\n    tag_93:\n        /* \"#utility.yul\":767:841   */\n      swap2\n      pop\n        /* \"#utility.yul\":850:943   */\n      tag_95\n        /* \"#utility.yul\":939:942   */\n      dup3\n        /* \"#utility.yul\":850:943   */\n      tag_96\n      jump\t// in\n    tag_95:\n        /* \"#utility.yul\":968:970   */\n      0x20\n        /* \"#utility.yul\":963:966   */\n      dup3\n        /* \"#utility.yul\":959:971   */\n      add\n        /* \"#utility.yul\":952:971   */\n      swap1\n      pop\n        /* \"#utility.yul\":611:977   */\n      swap2\n      swap1\n      pop\n      jump\t// out\n        /* \"#utility.yul\":983:1349   */\n    tag_97:\n        /* \"#utility.yul\":1125:1128   */\n      0x00\n        /* \"#utility.yul\":1146:1213   */\n      tag_99\n        /* \"#utility.yul\":1210:1212   */\n      0x10\n        /* \"#utility.yul\":1205:1208   */\n      dup4\n        /* \"#utility.yul\":1146:1213   */\n      tag_94\n      jump\t// in\n    tag_99:\n        /* \"#utility.yul\":1139:1213   */\n      swap2\n      pop\n        /* \"#utility.yul\":1222:1315   */\n      tag_100\n        /* \"#utility.yul\":1311:1314   */\n      dup3\n        /* \"#utility.yul\":1222:1315   */\n      tag_101\n      jump\t// in\n    tag_100:\n        /* \"#utility.yul\":1340:1342   */\n      0x20\n        /* \"#utility.yul\":1335:1338   */\n      dup3\n        /* \"#utility.yul\":1331:1343   */\n      add\n        /* \"#utility.yul\":1324:1343   */\n      swap1\n      pop\n        /* \"#utility.yul\":983:1349   */\n      swap2\n      swap1\n      pop\n      jump\t// out\n        /* \"#utility.yul\":1355:1721   */\n    tag_102:\n        /* \"#utility.yul\":1497:1500   */\n      0x00\n        /* \"#utility.yul\":1518:1585   */\n      tag_104\n        /* \"#utility.yul\":1582:1584   */\n      0x14\n        /* \"#utility.yul\":1577:1580   */\n      dup4\n        /* \"#utility.yul\":1518:1585   */\n      tag_94\n      jump\t// in\n    tag_104:\n        /* \"#utility.yul\":1511:1585   */\n      swap2\n      pop\n        /* \"#utility.yul\":1594:1687   */\n      tag_105\n        /* \"#utility.yul\":1683:1686   */\n      dup3\n        /* \"#utility.yul\":1594:1687   */\n      tag_106\n      jump\t// in\n    tag_105:\n        /* \"#utility.yul\":1712:1714   */\n      0x20\n        /* \"#utility.yul\":1707:1710   */\n      dup3\n        /* \"#utility.yul\":1703:1715   */\n      add\n        /* \"#utility.yul\":1696:1715   */\n      swap1\n      pop\n        /* \"#utility.yul\":1355:1721   */\n      swap2\n      swap1\n      pop\n      jump\t// out\n        /* \"#utility.yul\":1727:2093   */\n    tag_107:\n        /* \"#utility.yul\":1869:1872   */\n      0x00\n        /* \"#utility.yul\":1890:1957   */\n      tag_109\n        /* \"#utility.yul\":1954:1956   */\n      0x0c\n        /* \"#utility.yul\":1949:1952   */\n      dup4\n        /* \"#utility.yul\":1890:1957   */\n      tag_94\n      jump\t// in\n    tag_109:\n        /* \"#utility.yul\":1883:1957   */\n      swap2\n      pop\n        /* \"#utility.yul\":1966:2059   */\n      tag_110\n        /* \"#utility.yul\":2055:2058   */\n      dup3\n        /* \"#utility.yul\":1966:2059   */\n      tag_111\n      jump\t// in\n    tag_110:\n        /* \"#utility.yul\":2084:2086   */\n      0x20\n        /* \"#utility.yul\":2079:2082   */\n      dup3\n        /* \"#utility.yul\":2075:2087   */\n      add\n        /* \"#utility.yul\":2068:2087   */\n      swap1\n      pop\n        /* \"#utility.yul\":1727:2093   */\n      swap2\n      swap1\n      pop\n      jump\t// out\n        /* \"#utility.yul\":2099:2465   */\n    tag_112:\n        /* \"#utility.yul\":2241:2244   */\n      0x00\n        /* \"#utility.yul\":2262:2329   */\n      tag_114\n        /* \"#utility.yul\":2326:2328   */\n      0x23\n        /* \"#utility.yul\":2321:2324   */\n      dup4\n        /* \"#utility.yul\":2262:2329   */\n      tag_94\n      jump\t// in\n    tag_114:\n        /* \"#utility.yul\":2255:2329   */\n      swap2\n      pop\n        /* \"#utility.yul\":2338:2431   */\n      tag_115\n        /* \"#utility.yul\":2427:2430   */\n      dup3\n        /* \"#utility.yul\":2338:2431   */\n      tag_116\n      jump\t// in\n    tag_115:\n        /* \"#utility.yul\":2456:2458   */\n      0x40\n        /* \"#utility.yul\":2451:2454   */\n      dup3\n        /* \"#utility.yul\":2447:2459   */\n      add\n        /* \"#utility.yul\":2440:2459   */\n      swap1\n      pop\n        /* \"#utility.yul\":2099:2465   */\n      swap2\n      swap1\n      pop\n      jump\t// out\n        /* \"#utility.yul\":2471:2589   */\n    tag_117:\n        /* \"#utility.yul\":2558:2582   */\n      tag_119\n        /* \"#utility.yul\":2576:2581   */\n      dup2\n        /* \"#utility.yul\":2558:2582   */\n      tag_120\n      jump\t// in\n    tag_119:\n        /* \"#utility.yul\":2553:2556   */\n      dup3\n        /* \"#utility.yul\":2546:2583   */\n      mstore\n        /* \"#utility.yul\":2471:2589   */\n      pop\n      pop\n      jump\t// out\n        /* \"#utility.yul\":2595:2817   */\n    tag_40:\n        /* \"#utility.yul\":2688:2692   */\n      0x00\n        /* \"#utility.yul\":2726:2728   */\n      0x20\n        /* \"#utility.yul\":2715:2724   */\n      dup3\n        /* \"#utility.yul\":2711:2729   */\n      add\n        /* \"#utility.yul\":2703:2729   */\n      swap1\n      pop\n        /* \"#utility.yul\":2739:2810   */\n      tag_122\n        /* \"#utility.yul\":2807:2808   */\n      0x00\n        /* \"#utility.yul\":2796:2805   */\n      dup4\n        /* \"#utility.yul\":2792:2809   */\n      add\n        /* \"#utility.yul\":2783:2789   */\n      dup5\n        /* \"#utility.yul\":2739:2810   */\n      tag_87\n      jump\t// in\n    tag_122:\n        /* \"#utility.yul\":2595:2817   */\n      swap3\n      swap2\n      pop\n      pop\n      jump\t// out\n        /* \"#utility.yul\":2823:3242   */\n    tag_71:\n        /* \"#utility.yul\":2989:2993   */\n      0x00\n        /* \"#utility.yul\":3027:3029   */\n      0x20\n        /* \"#utility.yul\":3016:3025   */\n      dup3\n        /* \"#utility.yul\":3012:3030   */\n      add\n        /* \"#utility.yul\":3004:3030   */\n      swap1\n      pop\n        /* \"#utility.yul\":3076:3085   */\n      dup2\n        /* \"#utility.yul\":3070:3074   */\n      dup2\n        /* \"#utility.yul\":3066:3086   */\n      sub\n        /* \"#utility.yul\":3062:3063   */\n      0x00\n        /* \"#utility.yul\":3051:3060   */\n      dup4\n        /* \"#utility.yul\":3047:3064   */\n      add\n        /* \"#utility.yul\":3040:3087   */\n      mstore\n        /* \"#utility.yul\":3104:3235   */\n      tag_124\n        /* \"#utility.yul\":3230:3234   */\n      dup2\n        /* \"#utility.yul\":3104:3235   */\n      tag_91\n      jump\t// in\n    tag_124:\n        /* \"#utility.yul\":3096:3235   */\n      swap1\n      pop\n        /* \"#utility.yul\":2823:3242   */\n      swap2\n      swap1\n      pop\n      jump\t// out\n        /* \"#utility.yul\":3248:3667   */\n    tag_55:\n        /* \"#utility.yul\":3414:3418   */\n      0x00\n        /* \"#utility.yul\":3452:3454   */\n      0x20\n        /* \"#utility.yul\":3441:3450   */\n      dup3\n        /* \"#utility.yul\":3437:3455   */\n      add\n        /* \"#utility.yul\":3429:3455   */\n      swap1\n      pop\n        /* \"#utility.yul\":3501:3510   */\n      dup2\n        /* \"#utility.yul\":3495:3499   */\n      dup2\n        /* \"#utility.yul\":3491:3511   */\n      sub\n        /* \"#utility.yul\":3487:3488   */\n      0x00\n        /* \"#utility.yul\":3476:3485   */\n      dup4\n        /* \"#utility.yul\":3472:3489   */\n      add\n        /* \"#utility.yul\":3465:3512   */\n      mstore\n        /* \"#utility.yul\":3529:3660   */\n      tag_126\n        /* \"#utility.yul\":3655:3659   */\n      dup2\n        /* \"#utility.yul\":3529:3660   */\n      tag_97\n      jump\t// in\n    tag_126:\n        /* \"#utility.yul\":3521:3660   */\n      swap1\n      pop\n        /* \"#utility.yul\":3248:3667   */\n      swap2\n      swap1\n      pop\n      jump\t// out\n        /* \"#utility.yul\":3673:4092   */\n    tag_68:\n        /* \"#utility.yul\":3839:3843   */\n      0x00\n        /* \"#utility.yul\":3877:3879   */\n      0x20\n        /* \"#utility.yul\":3866:3875   */\n      dup3\n        /* \"#utility.yul\":3862:3880   */\n      add\n        /* \"#utility.yul\":3854:3880   */\n      swap1\n      pop\n        /* \"#utility.yul\":3926:3935   */\n      dup2\n        /* \"#utility.yul\":3920:3924   */\n      dup2\n        /* \"#utility.yul\":3916:3936   */\n      sub\n        /* \"#utility.yul\":3912:3913   */\n      0x00\n        /* \"#utility.yul\":3901:3910   */\n      dup4\n        /* \"#utility.yul\":3897:3914   */\n      add\n        /* \"#utility.yul\":3890:3937   */\n      mstore\n        /* \"#utility.yul\":3954:4085   */\n      tag_128\n        /* \"#utility.yul\":4080:4084   */\n      dup2\n        /* \"#utility.yul\":3954:4085   */\n      tag_102\n      jump\t// in\n    tag_128:\n        /* \"#utility.yul\":3946:4085   */\n      swap1\n      pop\n        /* \"#utility.yul\":3673:4092   */\n      swap2\n      swap1\n      pop\n      jump\t// out\n        /* \"#utility.yul\":4098:4517   */\n    tag_74:\n        /* \"#utility.yul\":4264:4268   */\n      0x00\n        /* \"#utility.yul\":4302:4304   */\n      0x20\n        /* \"#utility.yul\":4291:4300   */\n      dup3\n        /* \"#utility.yul\":4287:4305   */\n      add\n        /* \"#utility.yul\":4279:4305   */\n      swap1\n      pop\n        /* \"#utility.yul\":4351:4360   */\n      dup2\n        /* \"#utility.yul\":4345:4349   */\n      dup2\n        /* \"#utility.yul\":4341:4361   */\n      sub\n        /* \"#utility.yul\":4337:4338   */\n      0x00\n        /* \"#utility.yul\":4326:4335   */\n      dup4\n        /* \"#utility.yul\":4322:4339   */\n      add\n        /* \"#utility.yul\":4315:4362   */\n      mstore\n        /* \"#utility.yul\":4379:4510   */\n      tag_130\n        /* \"#utility.yul\":4505:4509   */\n      dup2\n        /* \"#utility.yul\":4379:4510   */\n      tag_107\n      jump\t// in\n    tag_130:\n        /* \"#utility.yul\":4371:4510   */\n      swap1\n      pop\n        /* \"#utility.yul\":4098:4517   */\n      swap2\n      swap1\n      pop\n      jump\t// out\n        /* \"#utility.yul\":4523:4942   */\n    tag_58:\n        /* \"#utility.yul\":4689:4693   */\n      0x00\n        /* \"#utility.yul\":4727:4729   */\n      0x20\n        /* \"#utility.yul\":4716:4725   */\n      dup3\n        /* \"#utility.yul\":4712:4730   */\n      add\n        /* \"#utility.yul\":4704:4730   */\n      swap1\n      pop\n        /* \"#utility.yul\":4776:4785   */\n      dup2\n        /* \"#utility.yul\":4770:4774   */\n      dup2\n        /* \"#utility.yul\":4766:4786   */\n      sub\n        /* \"#utility.yul\":4762:4763   */\n      0x00\n        /* \"#utility.yul\":4751:4760   */\n      dup4\n        /* \"#utility.yul\":4747:4764   */\n      add\n        /* \"#utility.yul\":4740:4787   */\n      mstore\n        /* \"#utility.yul\":4804:4935   */\n      tag_132\n        /* \"#utility.yul\":4930:4934   */\n      dup2\n        /* \"#utility.yul\":4804:4935   */\n      tag_112\n      jump\t// in\n    tag_132:\n        /* \"#utility.yul\":4796:4935   */\n      swap1\n      pop\n        /* \"#utility.yul\":4523:4942   */\n      swap2\n      swap1\n      pop\n      jump\t// out\n        /* \"#utility.yul\":4948:5170   */\n    tag_21:\n        /* \"#utility.yul\":5041:5045   */\n      0x00\n        /* \"#utility.yul\":5079:5081   */\n      0x20\n        /* \"#utility.yul\":5068:5077   */\n      dup3\n        /* \"#utility.yul\":5064:5082   */\n      add\n        /* \"#utility.yul\":5056:5082   */\n      swap1\n      pop\n        /* \"#utility.yul\":5092:5163   */\n      tag_134\n        /* \"#utility.yul\":5160:5161   */\n      0x00\n        /* \"#utility.yul\":5149:5158   */\n      dup4\n        /* \"#utility.yul\":5145:5162   */\n      add\n        /* \"#utility.yul\":5136:5142   */\n      dup5\n        /* \"#utility.yul\":5092:5163   */\n      tag_117\n      jump\t// in\n    tag_134:\n        /* \"#utility.yul\":4948:5170   */\n      swap3\n      swap2\n      pop\n      pop\n      jump\t// out\n        /* \"#utility.yul\":5257:5426   */\n    tag_94:\n        /* \"#utility.yul\":5341:5352   */\n      0x00\n        /* \"#utility.yul\":5375:5381   */\n      dup3\n        /* \"#utility.yul\":5370:5373   */\n      dup3\n        /* \"#utility.yul\":5363:5382   */\n      mstore\n        /* \"#utility.yul\":5415:5419   */\n      0x20\n        /* \"#utility.yul\":5410:5413   */\n      dup3\n        /* \"#utility.yul\":5406:5420   */\n      add\n        /* \"#utility.yul\":5391:5420   */\n      swap1\n      pop\n        /* \"#utility.yul\":5257:5426   */\n      swap3\n      swap2\n      pop\n      pop\n      jump\t// out\n        /* \"#utility.yul\":5432:5737   */\n    tag_63:\n        /* \"#utility.yul\":5472:5475   */\n      0x00\n        /* \"#utility.yul\":5491:5511   */\n      tag_139\n        /* \"#utility.yul\":5509:5510   */\n      dup3\n        /* \"#utility.yul\":5491:5511   */\n      tag_120\n      jump\t// in\n    tag_139:\n        /* \"#utility.yul\":5486:5511   */\n      swap2\n      pop\n        /* \"#utility.yul\":5525:5545   */\n      tag_140\n        /* \"#utility.yul\":5543:5544   */\n      dup4\n        /* \"#utility.yul\":5525:5545   */\n      tag_120\n      jump\t// in\n    tag_140:\n        /* \"#utility.yul\":5520:5545   */\n      swap3\n      pop\n        /* \"#utility.yul\":5679:5680   */\n      dup3\n        /* \"#utility.yul\":5611:5677   */\n      0xffffffffffffffffffffffffffffffffffffffffffffffffffffffffffffffff\n        /* \"#utility.yul\":5607:5681   */\n      sub\n        /* \"#utility.yul\":5604:5605   */\n      dup3\n        /* \"#utility.yul\":5601:5682   */\n      gt\n        /* \"#utility.yul\":5598:5705   */\n      iszero\n      tag_141\n      jumpi\n        /* \"#utility.yul\":5685:5703   */\n      tag_142\n      tag_143\n      jump\t// in\n    tag_142:\n        /* \"#utility.yul\":5598:5705   */\n    tag_141:\n        /* \"#utility.yul\":5729:5730   */\n      dup3\n        /* \"#utility.yul\":5726:5727   */\n      dup3\n        /* \"#utility.yul\":5722:5731   */\n      add\n        /* \"#utility.yul\":5715:5731   */\n      swap1\n      pop\n        /* \"#utility.yul\":5432:5737   */\n      swap3\n      swap2\n      pop\n      pop\n      jump\t// out\n        /* \"#utility.yul\":5743:5839   */\n    tag_90:\n        /* \"#utility.yul\":5780:5787   */\n      0x00\n        /* \"#utility.yul\":5809:5833   */\n      tag_145\n        /* \"#utility.yul\":5827:5832   */\n      dup3\n        /* \"#utility.yul\":5809:5833   */\n      tag_146\n      jump\t// in\n    tag_145:\n        /* \"#utility.yul\":5798:5833   */\n      swap1\n      pop\n        /* \"#utility.yul\":5743:5839   */\n      swap2\n      swap1\n      pop\n      jump\t// out\n        /* \"#utility.yul\":5845:5971   */\n    tag_146:\n        /* \"#utility.yul\":5882:5889   */\n      0x00\n        /* \"#utility.yul\":5922:5964   */\n      0xffffffffffffffffffffffffffffffffffffffff\n        /* \"#utility.yul\":5915:5920   */\n      dup3\n        /* \"#utility.yul\":5911:5965   */\n      and\n        /* \"#utility.yul\":5900:5965   */\n      swap1\n      pop\n        /* \"#utility.yul\":5845:5971   */\n      swap2\n      swap1\n      pop\n      jump\t// out\n        /* \"#utility.yul\":5977:6054   */\n    tag_120:\n        /* \"#utility.yul\":6014:6021   */\n      0x00\n        /* \"#utility.yul\":6043:6048   */\n      dup2\n        /* \"#utility.yul\":6032:6048   */\n      swap1\n      pop\n        /* \"#utility.yul\":5977:6054   */\n      swap2\n      swap1\n      pop\n      jump\t// out\n        /* \"#utility.yul\":6060:6293   */\n    tag_61:\n        /* \"#utility.yul\":6099:6102   */\n      0x00\n        /* \"#utility.yul\":6122:6146   */\n      tag_150\n        /* \"#utility.yul\":6140:6145   */\n      dup3\n        /* \"#utility.yul\":6122:6146   */\n      tag_120\n      jump\t// in\n    tag_150:\n        /* \"#utility.yul\":6113:6146   */\n      swap2\n      pop\n        /* \"#utility.yul\":6168:6234   */\n      0xffffffffffffffffffffffffffffffffffffffffffffffffffffffffffffffff\n        /* \"#utility.yul\":6161:6166   */\n      dup3\n        /* \"#utility.yul\":6158:6235   */\n      eq\n        /* \"#utility.yul\":6155:6258   */\n      iszero\n      tag_151\n      jumpi\n        /* \"#utility.yul\":6238:6256   */\n      tag_152\n      tag_143\n      jump\t// in\n    tag_152:\n        /* \"#utility.yul\":6155:6258   */\n    tag_151:\n        /* \"#utility.yul\":6285:6286   */\n      0x01\n        /* \"#utility.yul\":6278:6283   */\n      dup3\n        /* \"#utility.yul\":6274:6287   */\n      add\n        /* \"#utility.yul\":6267:6287   */\n      swap1\n      pop\n        /* \"#utility.yul\":6060:6293   */\n      swap2\n      swap1\n      pop\n      jump\t// out\n        /* \"#utility.yul\":6299:6479   */\n    tag_143:\n        /* \"#utility.yul\":6347:6424   */\n      0x4e487b7100000000000000000000000000000000000000000000000000000000\n        /* \"#utility.yul\":6344:6345   */\n      0x00\n        /* \"#utility.yul\":6337:6425   */\n      mstore\n        /* \"#utility.yul\":6444:6448   */\n      0x11\n        /* \"#utility.yul\":6441:6442   */\n      0x04\n        /* \"#utility.yul\":6434:6449   */\n      mstore\n        /* \"#utility.yul\":6468:6472   */\n      0x24\n        /* \"#utility.yul\":6465:6466   */\n      0x00\n        /* \"#utility.yul\":6458:6473   */\n      revert\n        /* \"#utility.yul\":6608:6725   */\n    tag_85:\n        /* \"#utility.yul\":6717:6718   */\n      0x00\n        /* \"#utility.yul\":6714:6715   */\n      dup1\n        /* \"#utility.yul\":6707:6719   */\n      revert\n        /* \"#utility.yul\":6731:6903   */\n    tag_96:\n        /* \"#utility.yul\":6871:6895   */\n      0x46756e64696e6720776173207375636365737366756c00000000000000000000\n        /* \"#utility.yul\":6867:6868   */\n      0x00\n        /* \"#utility.yul\":6859:6865   */\n      dup3\n        /* \"#utility.yul\":6855:6869   */\n      add\n        /* \"#utility.yul\":6848:6896   */\n      mstore\n        /* \"#utility.yul\":6731:6903   */\n      pop\n      jump\t// out\n        /* \"#utility.yul\":6909:7075   */\n    tag_101:\n        /* \"#utility.yul\":7049:7067   */\n      0x46756e64696e67206973206f7665722100000000000000000000000000000000\n        /* \"#utility.yul\":7045:7046   */\n      0x00\n        /* \"#utility.yul\":7037:7043   */\n      dup3\n        /* \"#utility.yul\":7033:7047   */\n      add\n        /* \"#utility.yul\":7026:7068   */\n      mstore\n        /* \"#utility.yul\":6909:7075   */\n      pop\n      jump\t// out\n        /* \"#utility.yul\":7081:7251   */\n    tag_106:\n        /* \"#utility.yul\":7221:7243   */\n      0x46756e64696e67206973207374696c6c206f6e21000000000000000000000000\n        /* \"#utility.yul\":7217:7218   */\n      0x00\n        /* \"#utility.yul\":7209:7215   */\n      dup3\n        /* \"#utility.yul\":7205:7219   */\n      add\n        /* \"#utility.yul\":7198:7244   */\n      mstore\n        /* \"#utility.yul\":7081:7251   */\n      pop\n      jump\t// out\n        /* \"#utility.yul\":7257:7419   */\n    tag_111:\n        /* \"#utility.yul\":7397:7411   */\n      0x4e6f7420612066756e6465720000000000000000000000000000000000000000\n        /* \"#utility.yul\":7393:7394   */\n      0x00\n        /* \"#utility.yul\":7385:7391   */\n      dup3\n        /* \"#utility.yul\":7381:7395   */\n      add\n        /* \"#utility.yul\":7374:7412   */\n      mstore\n        /* \"#utility.yul\":7257:7419   */\n      pop\n      jump\t// out\n        /* \"#utility.yul\":7425:7647   */\n    tag_116:\n        /* \"#utility.yul\":7565:7599   */\n      0x4d696e696d756d20616d6f756e74206372697465726961206e6f742073617469\n        /* \"#utility.yul\":7561:7562   */\n      0x00\n        /* \"#utility.yul\":7553:7559   */\n      dup3\n        /* \"#utility.yul\":7549:7563   */\n      add\n        /* \"#utility.yul\":7542:7600   */\n      mstore\n        /* \"#utility.yul\":7634:7639   */\n      0x7366790000000000000000000000000000000000000000000000000000000000\n        /* \"#utility.yul\":7629:7631   */\n      0x20\n        /* \"#utility.yul\":7621:7627   */\n      dup3\n        /* \"#utility.yul\":7617:7632   */\n      add\n        /* \"#utility.yul\":7610:7640   */\n      mstore\n        /* \"#utility.yul\":7425:7647   */\n      pop\n      jump\t// out\n        /* \"#utility.yul\":7653:7775   */\n    tag_81:\n        /* \"#utility.yul\":7726:7750   */\n      tag_163\n        /* \"#utility.yul\":7744:7749   */\n      dup2\n        /* \"#utility.yul\":7726:7750   */\n      tag_90\n      jump\t// in\n    tag_163:\n        /* \"#utility.yul\":7719:7724   */\n      dup2\n        /* \"#utility.yul\":7716:7751   */\n      eq\n        /* \"#utility.yul\":7706:7769   */\n      tag_164\n      jumpi\n        /* \"#utility.yul\":7765:7766   */\n      0x00\n        /* \"#utility.yul\":7762:7763   */\n      dup1\n        /* \"#utility.yul\":7755:7767   */\n      revert\n        /* \"#utility.yul\":7706:7769   */\n    tag_164:\n        /* \"#utility.yul\":7653:7775   */\n      pop\n      jump\t// out\n\n    auxdata: 0xa26469706673582212206df13871838ddc6ebfe1f275fdd665f793785ce9860ed7fb61f2f4488eca299564736f6c63430008070033\n}\n",
				"bytecode": {
					"linkReferences": {},
					"object": "608060405234801561001057600080fd5b50604051610b2e380380610b2e833981810160405281019061003291906100b0565b81600281905550804261004591906100f0565b600681905550336000806101000a81548173ffffffffffffffffffffffffffffffffffffffff021916908373ffffffffffffffffffffffffffffffffffffffff1602179055506103e8600381905550505061019b565b6000815190506100aa81610184565b92915050565b600080604083850312156100c7576100c661017f565b5b60006100d58582860161009b565b92505060206100e68582860161009b565b9150509250929050565b60006100fb82610146565b915061010683610146565b9250827fffffffffffffffffffffffffffffffffffffffffffffffffffffffffffffffff0382111561013b5761013a610150565b5b828201905092915050565b6000819050919050565b7f4e487b7100000000000000000000000000000000000000000000000000000000600052601160045260246000fd5b600080fd5b61018d81610146565b811461019857600080fd5b50565b610984806101aa6000396000f3fe60806040526004361061008a5760003560e01c80636681b9fd116100595780636681b9fd146101335780638da5cb5b1461015e5780639b2cb5d814610189578063b2d5ae44146101b4578063e89b7c55146101cb57610091565b8063031b3677146100965780633e79d1e1146100d357806340193883146100fe57806350520b1f1461012957610091565b3661009157005b600080fd5b3480156100a257600080fd5b506100bd60048036038101906100b89190610554565b6101f6565b6040516100ca9190610709565b60405180910390f35b3480156100df57600080fd5b506100e861020e565b6040516100f59190610709565b60405180910390f35b34801561010a57600080fd5b50610113610214565b6040516101209190610709565b60405180910390f35b61013161021a565b005b34801561013f57600080fd5b50610148610375565b6040516101559190610709565b60405180910390f35b34801561016a57600080fd5b5061017361037b565b604051610180919061064e565b60405180910390f35b34801561019557600080fd5b5061019e61039f565b6040516101ab9190610709565b60405180910390f35b3480156101c057600080fd5b506101c96103a5565b005b3480156101d757600080fd5b506101e0610539565b6040516101ed9190610709565b60405180910390f35b60016020528060005260406000206000915090505481565b60065481565b60025481565b600654421061025e576040517f08c379a000000000000000000000000000000000000000000000000000000000815260040161025590610689565b60405180910390fd5b6003543410156102a3576040517f08c379a000000000000000000000000000000000000000000000000000000000815260040161029a906106e9565b60405180910390fd5b6000600160003373ffffffffffffffffffffffffffffffffffffffff1673ffffffffffffffffffffffffffffffffffffffff16815260200190815260200160002054141561030457600460008154809291906102fe906107c7565b91905055505b34600160003373ffffffffffffffffffffffffffffffffffffffff1673ffffffffffffffffffffffffffffffffffffffff16815260200190815260200160002060008282546103539190610735565b92505081905550346005600082825461036c9190610735565b92505081905550565b60055481565b60008054906101000a900473ffffffffffffffffffffffffffffffffffffffff1681565b60035481565b60065442116103e9576040517f08c379a00000000000000000000000000000000000000000000000000000000081526004016103e0906106a9565b60405180910390fd5b6002546005541061042f576040517f08c379a000000000000000000000000000000000000000000000000000000000815260040161042690610669565b60405180910390fd5b6000600160003373ffffffffffffffffffffffffffffffffffffffff1673ffffffffffffffffffffffffffffffffffffffff16815260200190815260200160002054116104b1576040517f08c379a00000000000000000000000000000000000000000000000000000000081526004016104a8906106c9565b60405180910390fd5b3373ffffffffffffffffffffffffffffffffffffffff166108fc600160003373ffffffffffffffffffffffffffffffffffffffff1673ffffffffffffffffffffffffffffffffffffffff168152602001908152602001600020549081150290604051600060405180830381858888f19350505050158015610536573d6000803e3d6000fd5b50565b60045481565b60008135905061054e81610937565b92915050565b60006020828403121561056a5761056961083f565b5b60006105788482850161053f565b91505092915050565b61058a8161078b565b82525050565b600061059d601683610724565b91506105a882610844565b602082019050919050565b60006105c0601083610724565b91506105cb8261086d565b602082019050919050565b60006105e3601483610724565b91506105ee82610896565b602082019050919050565b6000610606600c83610724565b9150610611826108bf565b602082019050919050565b6000610629602383610724565b9150610634826108e8565b604082019050919050565b610648816107bd565b82525050565b60006020820190506106636000830184610581565b92915050565b6000602082019050818103600083015261068281610590565b9050919050565b600060208201905081810360008301526106a2816105b3565b9050919050565b600060208201905081810360008301526106c2816105d6565b9050919050565b600060208201905081810360008301526106e2816105f9565b9050919050565b600060208201905081810360008301526107028161061c565b9050919050565b600060208201905061071e600083018461063f565b92915050565b600082825260208201905092915050565b6000610740826107bd565b915061074b836107bd565b9250827fffffffffffffffffffffffffffffffffffffffffffffffffffffffffffffffff038211156107805761077f610810565b5b828201905092915050565b60006107968261079d565b9050919050565b600073ffffffffffffffffffffffffffffffffffffffff82169050919050565b6000819050919050565b60006107d2826107bd565b91507fffffffffffffffffffffffffffffffffffffffffffffffffffffffffffffffff82141561080557610804610810565b5b600182019050919050565b7f4e487b7100000000000000000000000000000000000000000000000000000000600052601160045260246000fd5b600080fd5b7f46756e64696e6720776173207375636365737366756c00000000000000000000600082015250565b7f46756e64696e67206973206f7665722100000000000000000000000000000000600082015250565b7f46756e64696e67206973207374696c6c206f6e21000000000000000000000000600082015250565b7f4e6f7420612066756e6465720000000000000000000000000000000000000000600082015250565b7f4d696e696d756d20616d6f756e74206372697465726961206e6f74207361746960008201527f7366790000000000000000000000000000000000000000000000000000000000602082015250565b6109408161078b565b811461094b57600080fd5b5056fea26469706673582212206df13871838ddc6ebfe1f275fdd665f793785ce9860ed7fb61f2f4488eca299564736f6c63430008070033",
					"opcodes": "PUSH1 0x80 PUSH1 0x40 MSTORE CALLVALUE DUP1 ISZERO PUSH2 0x10 JUMPI PUSH1 0x0 DUP1 REVERT JUMPDEST POP PUSH1 0x40 MLOAD PUSH2 0xB2E CODESIZE SUB DUP1 PUSH2 0xB2E DUP4 CODECOPY DUP2 DUP2 ADD PUSH1 0x40 MSTORE DUP2 ADD SWAP1 PUSH2 0x32 SWAP2 SWAP1 PUSH2 0xB0 JUMP JUMPDEST DUP2 PUSH1 0x2 DUP2 SWAP1 SSTORE POP DUP1 TIMESTAMP PUSH2 0x45 SWAP2 SWAP1 PUSH2 0xF0 JUMP JUMPDEST PUSH1 0x6 DUP2 SWAP1 SSTORE POP CALLER PUSH1 0x0 DUP1 PUSH2 0x100 EXP DUP2 SLOAD DUP2 PUSH20 0xFFFFFFFFFFFFFFFFFFFFFFFFFFFFFFFFFFFFFFFF MUL NOT AND SWAP1 DUP4 PUSH20 0xFFFFFFFFFFFFFFFFFFFFFFFFFFFFFFFFFFFFFFFF AND MUL OR SWAP1 SSTORE POP PUSH2 0x3E8 PUSH1 0x3 DUP2 SWAP1 SSTORE POP POP POP PUSH2 0x19B JUMP JUMPDEST PUSH1 0x0 DUP2 MLOAD SWAP1 POP PUSH2 0xAA DUP2 PUSH2 0x184 JUMP JUMPDEST SWAP3 SWAP2 POP POP JUMP JUMPDEST PUSH1 0x0 DUP1 PUSH1 0x40 DUP4 DUP6 SUB SLT ISZERO PUSH2 0xC7 JUMPI PUSH2 0xC6 PUSH2 0x17F JUMP JUMPDEST JUMPDEST PUSH1 0x0 PUSH2 0xD5 DUP6 DUP3 DUP7 ADD PUSH2 0x9B JUMP JUMPDEST SWAP3 POP POP PUSH1 0x20 PUSH2 0xE6 DUP6 DUP3 DUP7 ADD PUSH2 0x9B JUMP JUMPDEST SWAP2 POP POP SWAP3 POP SWAP3 SWAP1 POP JUMP JUMPDEST PUSH1 0x0 PUSH2 0xFB DUP3 PUSH2 0x146 JUMP JUMPDEST SWAP2 POP PUSH2 0x106 DUP4 PUSH2 0x146 JUMP JUMPDEST SWAP3 POP DUP3 PUSH32 0xFFFFFFFFFFFFFFFFFFFFFFFFFFFFFFFFFFFFFFFFFFFFFFFFFFFFFFFFFFFFFFFF SUB DUP3 GT ISZERO PUSH2 0x13B JUMPI PUSH2 0x13A PUSH2 0x150 JUMP JUMPDEST JUMPDEST DUP3 DUP3 ADD SWAP1 POP SWAP3 SWAP2 POP POP JUMP JUMPDEST PUSH1 0x0 DUP2 SWAP1 POP SWAP2 SWAP1 POP JUMP JUMPDEST PUSH32 0x4E487B7100000000000000000000000000000000000000000000000000000000 PUSH1 0x0 MSTORE PUSH1 0x11 PUSH1 0x4 MSTORE PUSH1 0x24 PUSH1 0x0 REVERT JUMPDEST PUSH1 0x0 DUP1 REVERT JUMPDEST PUSH2 0x18D DUP2 PUSH2 0x146 JUMP JUMPDEST DUP2 EQ PUSH2 0x198 JUMPI PUSH1 0x0 DUP1 REVERT JUMPDEST POP JUMP JUMPDEST PUSH2 0x984 DUP1 PUSH2 0x1AA PUSH1 0x0 CODECOPY PUSH1 0x0 RETURN INVALID PUSH1 0x80 PUSH1 0x40 MSTORE PUSH1 0x4 CALLDATASIZE LT PUSH2 0x8A JUMPI PUSH1 0x0 CALLDATALOAD PUSH1 0xE0 SHR DUP1 PUSH4 0x6681B9FD GT PUSH2 0x59 JUMPI DUP1 PUSH4 0x6681B9FD EQ PUSH2 0x133 JUMPI DUP1 PUSH4 0x8DA5CB5B EQ PUSH2 0x15E JUMPI DUP1 PUSH4 0x9B2CB5D8 EQ PUSH2 0x189 JUMPI DUP1 PUSH4 0xB2D5AE44 EQ PUSH2 0x1B4 JUMPI DUP1 PUSH4 0xE89B7C55 EQ PUSH2 0x1CB JUMPI PUSH2 0x91 JUMP JUMPDEST DUP1 PUSH4 0x31B3677 EQ PUSH2 0x96 JUMPI DUP1 PUSH4 0x3E79D1E1 EQ PUSH2 0xD3 JUMPI DUP1 PUSH4 0x40193883 EQ PUSH2 0xFE JUMPI DUP1 PUSH4 0x50520B1F EQ PUSH2 0x129 JUMPI PUSH2 0x91 JUMP JUMPDEST CALLDATASIZE PUSH2 0x91 JUMPI STOP JUMPDEST PUSH1 0x0 DUP1 REVERT JUMPDEST CALLVALUE DUP1 ISZERO PUSH2 0xA2 JUMPI PUSH1 0x0 DUP1 REVERT JUMPDEST POP PUSH2 0xBD PUSH1 0x4 DUP1 CALLDATASIZE SUB DUP2 ADD SWAP1 PUSH2 0xB8 SWAP2 SWAP1 PUSH2 0x554 JUMP JUMPDEST PUSH2 0x1F6 JUMP JUMPDEST PUSH1 0x40 MLOAD PUSH2 0xCA SWAP2 SWAP1 PUSH2 0x709 JUMP JUMPDEST PUSH1 0x40 MLOAD DUP1 SWAP2 SUB SWAP1 RETURN JUMPDEST CALLVALUE DUP1 ISZERO PUSH2 0xDF JUMPI PUSH1 0x0 DUP1 REVERT JUMPDEST POP PUSH2 0xE8 PUSH2 0x20E JUMP JUMPDEST PUSH1 0x40 MLOAD PUSH2 0xF5 SWAP2 SWAP1 PUSH2 0x709 JUMP JUMPDEST PUSH1 0x40 MLOAD DUP1 SWAP2 SUB SWAP1 RETURN JUMPDEST CALLVALUE DUP1 ISZERO PUSH2 0x10A JUMPI PUSH1 0x0 DUP1 REVERT JUMPDEST POP PUSH2 0x113 PUSH2 0x214 JUMP JUMPDEST PUSH1 0x40 MLOAD PUSH2 0x120 SWAP2 SWAP1 PUSH2 0x709 JUMP JUMPDEST PUSH1 0x40 MLOAD DUP1 SWAP2 SUB SWAP1 RETURN JUMPDEST PUSH2 0x131 PUSH2 0x21A JUMP JUMPDEST STOP JUMPDEST CALLVALUE DUP1 ISZERO PUSH2 0x13F JUMPI PUSH1 0x0 DUP1 REVERT JUMPDEST POP PUSH2 0x148 PUSH2 0x375 JUMP JUMPDEST PUSH1 0x40 MLOAD PUSH2 0x155 SWAP2 SWAP1 PUSH2 0x709 JUMP JUMPDEST PUSH1 0x40 MLOAD DUP1 SWAP2 SUB SWAP1 RETURN JUMPDEST CALLVALUE DUP1 ISZERO PUSH2 0x16A JUMPI PUSH1 0x0 DUP1 REVERT JUMPDEST POP PUSH2 0x173 PUSH2 0x37B JUMP JUMPDEST PUSH1 0x40 MLOAD PUSH2 0x180 SWAP2 SWAP1 PUSH2 0x64E JUMP JUMPDEST PUSH1 0x40 MLOAD DUP1 SWAP2 SUB SWAP1 RETURN JUMPDEST CALLVALUE DUP1 ISZERO PUSH2 0x195 JUMPI PUSH1 0x0 DUP1 REVERT JUMPDEST POP PUSH2 0x19E PUSH2 0x39F JUMP JUMPDEST PUSH1 0x40 MLOAD PUSH2 0x1AB SWAP2 SWAP1 PUSH2 0x709 JUMP JUMPDEST PUSH1 0x40 MLOAD DUP1 SWAP2 SUB SWAP1 RETURN JUMPDEST CALLVALUE DUP1 ISZERO PUSH2 0x1C0 JUMPI PUSH1 0x0 DUP1 REVERT JUMPDEST POP PUSH2 0x1C9 PUSH2 0x3A5 JUMP JUMPDEST STOP JUMPDEST CALLVALUE DUP1 ISZERO PUSH2 0x1D7 JUMPI PUSH1 0x0 DUP1 REVERT JUMPDEST POP PUSH2 0x1E0 PUSH2 0x539 JUMP JUMPDEST PUSH1 0x40 MLOAD PUSH2 0x1ED SWAP2 SWAP1 PUSH2 0x709 JUMP JUMPDEST PUSH1 0x40 MLOAD DUP1 SWAP2 SUB SWAP1 RETURN JUMPDEST PUSH1 0x1 PUSH1 0x20 MSTORE DUP1 PUSH1 0x0 MSTORE PUSH1 0x40 PUSH1 0x0 KECCAK256 PUSH1 0x0 SWAP2 POP SWAP1 POP SLOAD DUP2 JUMP JUMPDEST PUSH1 0x6 SLOAD DUP2 JUMP JUMPDEST PUSH1 0x2 SLOAD DUP2 JUMP JUMPDEST PUSH1 0x6 SLOAD TIMESTAMP LT PUSH2 0x25E JUMPI PUSH1 0x40 MLOAD PUSH32 0x8C379A000000000000000000000000000000000000000000000000000000000 DUP2 MSTORE PUSH1 0x4 ADD PUSH2 0x255 SWAP1 PUSH2 0x689 JUMP JUMPDEST PUSH1 0x40 MLOAD DUP1 SWAP2 SUB SWAP1 REVERT JUMPDEST PUSH1 0x3 SLOAD CALLVALUE LT ISZERO PUSH2 0x2A3 JUMPI PUSH1 0x40 MLOAD PUSH32 0x8C379A000000000000000000000000000000000000000000000000000000000 DUP2 MSTORE PUSH1 0x4 ADD PUSH2 0x29A SWAP1 PUSH2 0x6E9 JUMP JUMPDEST PUSH1 0x40 MLOAD DUP1 SWAP2 SUB SWAP1 REVERT JUMPDEST PUSH1 0x0 PUSH1 0x1 PUSH1 0x0 CALLER PUSH20 0xFFFFFFFFFFFFFFFFFFFFFFFFFFFFFFFFFFFFFFFF AND PUSH20 0xFFFFFFFFFFFFFFFFFFFFFFFFFFFFFFFFFFFFFFFF AND DUP2 MSTORE PUSH1 0x20 ADD SWAP1 DUP2 MSTORE PUSH1 0x20 ADD PUSH1 0x0 KECCAK256 SLOAD EQ ISZERO PUSH2 0x304 JUMPI PUSH1 0x4 PUSH1 0x0 DUP2 SLOAD DUP1 SWAP3 SWAP2 SWAP1 PUSH2 0x2FE SWAP1 PUSH2 0x7C7 JUMP JUMPDEST SWAP2 SWAP1 POP SSTORE POP JUMPDEST CALLVALUE PUSH1 0x1 PUSH1 0x0 CALLER PUSH20 0xFFFFFFFFFFFFFFFFFFFFFFFFFFFFFFFFFFFFFFFF AND PUSH20 0xFFFFFFFFFFFFFFFFFFFFFFFFFFFFFFFFFFFFFFFF AND DUP2 MSTORE PUSH1 0x20 ADD SWAP1 DUP2 MSTORE PUSH1 0x20 ADD PUSH1 0x0 KECCAK256 PUSH1 0x0 DUP3 DUP3 SLOAD PUSH2 0x353 SWAP2 SWAP1 PUSH2 0x735 JUMP JUMPDEST SWAP3 POP POP DUP2 SWAP1 SSTORE POP CALLVALUE PUSH1 0x5 PUSH1 0x0 DUP3 DUP3 SLOAD PUSH2 0x36C SWAP2 SWAP1 PUSH2 0x735 JUMP JUMPDEST SWAP3 POP POP DUP2 SWAP1 SSTORE POP JUMP JUMPDEST PUSH1 0x5 SLOAD DUP2 JUMP JUMPDEST PUSH1 0x0 DUP1 SLOAD SWAP1 PUSH2 0x100 EXP SWAP1 DIV PUSH20 0xFFFFFFFFFFFFFFFFFFFFFFFFFFFFFFFFFFFFFFFF AND DUP2 JUMP JUMPDEST PUSH1 0x3 SLOAD DUP2 JUMP JUMPDEST PUSH1 0x6 SLOAD TIMESTAMP GT PUSH2 0x3E9 JUMPI PUSH1 0x40 MLOAD PUSH32 0x8C379A000000000000000000000000000000000000000000000000000000000 DUP2 MSTORE PUSH1 0x4 ADD PUSH2 0x3E0 SWAP1 PUSH2 0x6A9 JUMP JUMPDEST PUSH1 0x40 MLOAD DUP1 SWAP2 SUB SWAP1 REVERT JUMPDEST PUSH1 0x2 SLOAD PUSH1 0x5 SLOAD LT PUSH2 0x42F JUMPI PUSH1 0x40 MLOAD PUSH32 0x8C379A000000000000000000000000000000000000000000000000000000000 DUP2 MSTORE PUSH1 0x4 ADD PUSH2 0x426 SWAP1 PUSH2 0x669 JUMP JUMPDEST PUSH1 0x40 MLOAD DUP1 SWAP2 SUB SWAP1 REVERT JUMPDEST PUSH1 0x0 PUSH1 0x1 PUSH1 0x0 CALLER PUSH20 0xFFFFFFFFFFFFFFFFFFFFFFFFFFFFFFFFFFFFFFFF AND PUSH20 0xFFFFFFFFFFFFFFFFFFFFFFFFFFFFFFFFFFFFFFFF AND DUP2 MSTORE PUSH1 0x20 ADD SWAP1 DUP2 MSTORE PUSH1 0x20 ADD PUSH1 0x0 KECCAK256 SLOAD GT PUSH2 0x4B1 JUMPI PUSH1 0x40 MLOAD PUSH32 0x8C379A000000000000000000000000000000000000000000000000000000000 DUP2 MSTORE PUSH1 0x4 ADD PUSH2 0x4A8 SWAP1 PUSH2 0x6C9 JUMP JUMPDEST PUSH1 0x40 MLOAD DUP1 SWAP2 SUB SWAP1 REVERT JUMPDEST CALLER PUSH20 0xFFFFFFFFFFFFFFFFFFFFFFFFFFFFFFFFFFFFFFFF AND PUSH2 0x8FC PUSH1 0x1 PUSH1 0x0 CALLER PUSH20 0xFFFFFFFFFFFFFFFFFFFFFFFFFFFFFFFFFFFFFFFF AND PUSH20 0xFFFFFFFFFFFFFFFFFFFFFFFFFFFFFFFFFFFFFFFF AND DUP2 MSTORE PUSH1 0x20 ADD SWAP1 DUP2 MSTORE PUSH1 0x20 ADD PUSH1 0x0 KECCAK256 SLOAD SWAP1 DUP2 ISZERO MUL SWAP1 PUSH1 0x40 MLOAD PUSH1 0x0 PUSH1 0x40 MLOAD DUP1 DUP4 SUB DUP2 DUP6 DUP9 DUP9 CALL SWAP4 POP POP POP POP ISZERO DUP1 ISZERO PUSH2 0x536 JUMPI RETURNDATASIZE PUSH1 0x0 DUP1 RETURNDATACOPY RETURNDATASIZE PUSH1 0x0 REVERT JUMPDEST POP JUMP JUMPDEST PUSH1 0x4 SLOAD DUP2 JUMP JUMPDEST PUSH1 0x0 DUP2 CALLDATALOAD SWAP1 POP PUSH2 0x54E DUP2 PUSH2 0x937 JUMP JUMPDEST SWAP3 SWAP2 POP POP JUMP JUMPDEST PUSH1 0x0 PUSH1 0x20 DUP3 DUP5 SUB SLT ISZERO PUSH2 0x56A JUMPI PUSH2 0x569 PUSH2 0x83F JUMP JUMPDEST JUMPDEST PUSH1 0x0 PUSH2 0x578 DUP5 DUP3 DUP6 ADD PUSH2 0x53F JUMP JUMPDEST SWAP2 POP POP SWAP3 SWAP2 POP POP JUMP JUMPDEST PUSH2 0x58A DUP2 PUSH2 0x78B JUMP JUMPDEST DUP3 MSTORE POP POP JUMP JUMPDEST PUSH1 0x0 PUSH2 0x59D PUSH1 0x16 DUP4 PUSH2 0x724 JUMP JUMPDEST SWAP2 POP PUSH2 0x5A8 DUP3 PUSH2 0x844 JUMP JUMPDEST PUSH1 0x20 DUP3 ADD SWAP1 POP SWAP2 SWAP1 POP JUMP JUMPDEST PUSH1 0x0 PUSH2 0x5C0 PUSH1 0x10 DUP4 PUSH2 0x724 JUMP JUMPDEST SWAP2 POP PUSH2 0x5CB DUP3 PUSH2 0x86D JUMP JUMPDEST PUSH1 0x20 DUP3 ADD SWAP1 POP SWAP2 SWAP1 POP JUMP JUMPDEST PUSH1 0x0 PUSH2 0x5E3 PUSH1 0x14 DUP4 PUSH2 0x724 JUMP JUMPDEST SWAP2 POP PUSH2 0x5EE DUP3 PUSH2 0x896 JUMP JUMPDEST PUSH1 0x20 DUP3 ADD SWAP1 POP SWAP2 SWAP1 POP JUMP JUMPDEST PUSH1 0x0 PUSH2 0x606 PUSH1 0xC DUP4 PUSH2 0x724 JUMP JUMPDEST SWAP2 POP PUSH2 0x611 DUP3 PUSH2 0x8BF JUMP JUMPDEST PUSH1 0x20 DUP3 ADD SWAP1 POP SWAP2 SWAP1 POP JUMP JUMPDEST PUSH1 0x0 PUSH2 0x629 PUSH1 0x23 DUP4 PUSH2 0x724 JUMP JUMPDEST SWAP2 POP PUSH2 0x634 DUP3 PUSH2 0x8E8 JUMP JUMPDEST PUSH1 0x40 DUP3 ADD SWAP1 POP SWAP2 SWAP1 POP JUMP JUMPDEST PUSH2 0x648 DUP2 PUSH2 0x7BD JUMP JUMPDEST DUP3 MSTORE POP POP JUMP JUMPDEST PUSH1 0x0 PUSH1 0x20 DUP3 ADD SWAP1 POP PUSH2 0x663 PUSH1 0x0 DUP4 ADD DUP5 PUSH2 0x581 JUMP JUMPDEST SWAP3 SWAP2 POP POP JUMP JUMPDEST PUSH1 0x0 PUSH1 0x20 DUP3 ADD SWAP1 POP DUP2 DUP2 SUB PUSH1 0x0 DUP4 ADD MSTORE PUSH2 0x682 DUP2 PUSH2 0x590 JUMP JUMPDEST SWAP1 POP SWAP2 SWAP1 POP JUMP JUMPDEST PUSH1 0x0 PUSH1 0x20 DUP3 ADD SWAP1 POP DUP2 DUP2 SUB PUSH1 0x0 DUP4 ADD MSTORE PUSH2 0x6A2 DUP2 PUSH2 0x5B3 JUMP JUMPDEST SWAP1 POP SWAP2 SWAP1 POP JUMP JUMPDEST PUSH1 0x0 PUSH1 0x20 DUP3 ADD SWAP1 POP DUP2 DUP2 SUB PUSH1 0x0 DUP4 ADD MSTORE PUSH2 0x6C2 DUP2 PUSH2 0x5D6 JUMP JUMPDEST SWAP1 POP SWAP2 SWAP1 POP JUMP JUMPDEST PUSH1 0x0 PUSH1 0x20 DUP3 ADD SWAP1 POP DUP2 DUP2 SUB PUSH1 0x0 DUP4 ADD MSTORE PUSH2 0x6E2 DUP2 PUSH2 0x5F9 JUMP JUMPDEST SWAP1 POP SWAP2 SWAP1 POP JUMP JUMPDEST PUSH1 0x0 PUSH1 0x20 DUP3 ADD SWAP1 POP DUP2 DUP2 SUB PUSH1 0x0 DUP4 ADD MSTORE PUSH2 0x702 DUP2 PUSH2 0x61C JUMP JUMPDEST SWAP1 POP SWAP2 SWAP1 POP JUMP JUMPDEST PUSH1 0x0 PUSH1 0x20 DUP3 ADD SWAP1 POP PUSH2 0x71E PUSH1 0x0 DUP4 ADD DUP5 PUSH2 0x63F JUMP JUMPDEST SWAP3 SWAP2 POP POP JUMP JUMPDEST PUSH1 0x0 DUP3 DUP3 MSTORE PUSH1 0x20 DUP3 ADD SWAP1 POP SWAP3 SWAP2 POP POP JUMP JUMPDEST PUSH1 0x0 PUSH2 0x740 DUP3 PUSH2 0x7BD JUMP JUMPDEST SWAP2 POP PUSH2 0x74B DUP4 PUSH2 0x7BD JUMP JUMPDEST SWAP3 POP DUP3 PUSH32 0xFFFFFFFFFFFFFFFFFFFFFFFFFFFFFFFFFFFFFFFFFFFFFFFFFFFFFFFFFFFFFFFF SUB DUP3 GT ISZERO PUSH2 0x780 JUMPI PUSH2 0x77F PUSH2 0x810 JUMP JUMPDEST JUMPDEST DUP3 DUP3 ADD SWAP1 POP SWAP3 SWAP2 POP POP JUMP JUMPDEST PUSH1 0x0 PUSH2 0x796 DUP3 PUSH2 0x79D JUMP JUMPDEST SWAP1 POP SWAP2 SWAP1 POP JUMP JUMPDEST PUSH1 0x0 PUSH20 0xFFFFFFFFFFFFFFFFFFFFFFFFFFFFFFFFFFFFFFFF DUP3 AND SWAP1 POP SWAP2 SWAP1 POP JUMP JUMPDEST PUSH1 0x0 DUP2 SWAP1 POP SWAP2 SWAP1 POP JUMP JUMPDEST PUSH1 0x0 PUSH2 0x7D2 DUP3 PUSH2 0x7BD JUMP JUMPDEST SWAP2 POP PUSH32 0xFFFFFFFFFFFFFFFFFFFFFFFFFFFFFFFFFFFFFFFFFFFFFFFFFFFFFFFFFFFFFFFF DUP3 EQ ISZERO PUSH2 0x805 JUMPI PUSH2 0x804 PUSH2 0x810 JUMP JUMPDEST JUMPDEST PUSH1 0x1 DUP3 ADD SWAP1 POP SWAP2 SWAP1 POP JUMP JUMPDEST PUSH32 0x4E487B7100000000000000000000000000000000000000000000000000000000 PUSH1 0x0 MSTORE PUSH1 0x11 PUSH1 0x4 MSTORE PUSH1 0x24 PUSH1 0x0 REVERT JUMPDEST PUSH1 0x0 DUP1 REVERT JUMPDEST PUSH32 0x46756E64696E6720776173207375636365737366756C00000000000000000000 PUSH1 0x0 DUP3 ADD MSTORE POP JUMP JUMPDEST PUSH32 0x46756E64696E67206973206F7665722100000000000000000000000000000000 PUSH1 0x0 DUP3 ADD MSTORE POP JUMP JUMPDEST PUSH32 0x46756E64696E67206973207374696C6C206F6E21000000000000000000000000 PUSH1 0x0 DUP3 ADD MSTORE POP JUMP JUMPDEST PUSH32 0x4E6F7420612066756E6465720000000000000000000000000000000000000000 PUSH1 0x0 DUP3 ADD MSTORE POP JUMP JUMPDEST PUSH32 0x4D696E696D756D20616D6F756E74206372697465726961206E6F742073617469 PUSH1 0x0 DUP3 ADD MSTORE PUSH32 0x7366790000000000000000000000000000000000000000000000000000000000 PUSH1 0x20 DUP3 ADD MSTORE POP JUMP JUMPDEST PUSH2 0x940 DUP2 PUSH2 0x78B JUMP JUMPDEST DUP2 EQ PUSH2 0x94B JUMPI PUSH1 0x0 DUP1 REVERT JUMPDEST POP JUMP INVALID LOG2 PUSH5 0x6970667358 0x22 SLT KECCAK256 PUSH14 0xF13871838DDC6EBFE1F275FDD665 0xF7 SWAP4 PUSH25 0x5CE9860ED7FB61F2F4488ECA299564736F6C63430008070033 "
				},
				"gasEstimates": {
					"creation": {
						"codeDepositCost": "487200",
						"executionCost": "infinite",
						"totalCost": "infinite"
					},
					"external": {
						"contribution()": "infinite",
						"funders(address)": "2815",
						"fundsRaised()": "2429",
						"getRefund()": "infinite",
						"goal()": "2474",
						"minAmount()": "2473",
						"noOfFounders()": "2517",
						"owner()": "2533",
						"timePeriod()": "2452"
					}
				},
				"methodIdentifiers": {
					"contribution()": "50520b1f",
					"funders(address)": "031b3677",
					"fundsRaised()": "6681b9fd",
					"getRefund()": "b2d5ae44",
					"goal()": "40193883",
					"minAmount()": "9b2cb5d8",
					"noOfFounders()": "e89b7c55",
					"owner()": "8da5cb5b",
					"timePeriod()": "3e79d1e1"
				}
			},
			"storageLayout": {
				"storage": [
					{
						"astId": 3,
						"contract": "CrowdFunding.sol:main",
						"label": "owner",
						"offset": 0,
						"slot": "0",
						"type": "t_address"
					},
					{
						"astId": 7,
						"contract": "CrowdFunding.sol:main",
						"label": "funders",
						"offset": 0,
						"slot": "1",
						"type": "t_mapping(t_address,t_uint256)"
					},
					{
						"astId": 9,
						"contract": "CrowdFunding.sol:main",
						"label": "goal",
						"offset": 0,
						"slot": "2",
						"type": "t_uint256"
					},
					{
						"astId": 11,
						"contract": "CrowdFunding.sol:main",
						"label": "minAmount",
						"offset": 0,
						"slot": "3",
						"type": "t_uint256"
					},
					{
						"astId": 13,
						"contract": "CrowdFunding.sol:main",
						"label": "noOfFounders",
						"offset": 0,
						"slot": "4",
						"type": "t_uint256"
					},
					{
						"astId": 15,
						"contract": "CrowdFunding.sol:main",
						"label": "fundsRaised",
						"offset": 0,
						"slot": "5",
						"type": "t_uint256"
					},
					{
						"astId": 17,
						"contract": "CrowdFunding.sol:main",
						"label": "timePeriod",
						"offset": 0,
						"slot": "6",
						"type": "t_uint256"
					}
				],
				"types": {
					"t_address": {
						"encoding": "inplace",
						"label": "address",
						"numberOfBytes": "20"
					},
					"t_mapping(t_address,t_uint256)": {
						"encoding": "mapping",
						"key": "t_address",
						"label": "mapping(address => uint256)",
						"numberOfBytes": "32",
						"value": "t_uint256"
					},
					"t_uint256": {
						"encoding": "inplace",
						"label": "uint256",
						"numberOfBytes": "32"
					}
				}
			},
			"userdoc": {
				"kind": "user",
				"methods": {},
				"version": 1
			}
		}
	}
}