{
	"CrowdFunding.sol": {
		"main": {
			"abi": [
				{
					"inputs": [
						{
							"internalType": "uint256",
							"name": "_goal",
							"type": "uint256"
						},
						{
							"internalType": "uint256",
							"name": "_timePeriod",
							"type": "uint256"
						}
					],
					"stateMutability": "nonpayable",
					"type": "constructor"
				},
				{
					"inputs": [
						{
							"internalType": "uint256",
							"name": "",
							"type": "uint256"
						}
					],
					"name": "AllRequests",
					"outputs": [
						{
							"internalType": "string",
							"name": "description",
							"type": "string"
						},
						{
							"internalType": "uint256",
							"name": "amount",
							"type": "uint256"
						},
						{
							"internalType": "address payable",
							"name": "receiver",
							"type": "address"
						},
						{
							"internalType": "uint256",
							"name": "noOfVotes",
							"type": "uint256"
						},
						{
							"internalType": "bool",
							"name": "completed",
							"type": "bool"
						}
					],
					"stateMutability": "view",
					"type": "function"
				},
				{
					"inputs": [],
					"name": "contribution",
					"outputs": [],
					"stateMutability": "payable",
					"type": "function"
				},
				{
					"inputs": [
						{
							"internalType": "string",
							"name": "_description",
							"type": "string"
						},
						{
							"internalType": "uint256",
							"name": "_amount",
							"type": "uint256"
						},
						{
							"internalType": "address payable",
							"name": "receiver",
							"type": "address"
						}
					],
					"name": "createRequests",
					"outputs": [],
					"stateMutability": "nonpayable",
					"type": "function"
				},
				{
					"inputs": [
						{
							"internalType": "address",
							"name": "",
							"type": "address"
						}
					],
					"name": "funders",
					"outputs": [
						{
							"internalType": "uint256",
							"name": "",
							"type": "uint256"
						}
					],
					"stateMutability": "view",
					"type": "function"
				},
				{
					"inputs": [],
					"name": "fundsRaised",
					"outputs": [
						{
							"internalType": "uint256",
							"name": "",
							"type": "uint256"
						}
					],
					"stateMutability": "view",
					"type": "function"
				},
				{
					"inputs": [],
					"name": "getRefund",
					"outputs": [],
					"stateMutability": "nonpayable",
					"type": "function"
				},
				{
					"inputs": [],
					"name": "goal",
					"outputs": [
						{
							"internalType": "uint256",
							"name": "",
							"type": "uint256"
						}
					],
					"stateMutability": "view",
					"type": "function"
				},
				{
					"inputs": [],
					"name": "minAmount",
					"outputs": [
						{
							"internalType": "uint256",
							"name": "",
							"type": "uint256"
						}
					],
					"stateMutability": "view",
					"type": "function"
				},
				{
					"inputs": [],
					"name": "noOfFounders",
					"outputs": [
						{
							"internalType": "uint256",
							"name": "",
							"type": "uint256"
						}
					],
					"stateMutability": "view",
					"type": "function"
				},
				{
					"inputs": [],
					"name": "numReq",
					"outputs": [
						{
							"internalType": "uint256",
							"name": "",
							"type": "uint256"
						}
					],
					"stateMutability": "view",
					"type": "function"
				},
				{
					"inputs": [],
					"name": "owner",
					"outputs": [
						{
							"internalType": "address",
							"name": "",
							"type": "address"
						}
					],
					"stateMutability": "view",
					"type": "function"
				},
				{
					"inputs": [],
					"name": "timePeriod",
					"outputs": [
						{
							"internalType": "uint256",
							"name": "",
							"type": "uint256"
						}
					],
					"stateMutability": "view",
					"type": "function"
				},
				{
					"stateMutability": "payable",
					"type": "receive"
				}
			],
			"devdoc": {
				"kind": "dev",
				"methods": {},
				"version": 1
			},
			"evm": {
				"assembly": "    /* \"CrowdFunding.sol\":59:1807  contract main {\r... */\n  mstore(0x40, 0x80)\n    /* \"CrowdFunding.sol\":311:496  constructor(uint _goal, uint _timePeriod){\r... */\n  callvalue\n  dup1\n  iszero\n  tag_1\n  jumpi\n  0x00\n  dup1\n  revert\ntag_1:\n  pop\n  mload(0x40)\n  sub(codesize, bytecodeSize)\n  dup1\n  bytecodeSize\n  dup4\n  codecopy\n  dup2\n  dup2\n  add\n  0x40\n  mstore\n  dup2\n  add\n  swap1\n  tag_2\n  swap2\n  swap1\n  tag_3\n  jump\t// in\ntag_2:\n    /* \"CrowdFunding.sol\":370:375  _goal */\n  dup2\n    /* \"CrowdFunding.sol\":363:367  goal */\n  0x02\n    /* \"CrowdFunding.sol\":363:375  goal = _goal */\n  dup2\n  swap1\n  sstore\n  pop\n    /* \"CrowdFunding.sol\":417:428  _timePeriod */\n  dup1\n    /* \"CrowdFunding.sol\":399:414  block.timestamp */\n  timestamp\n    /* \"CrowdFunding.sol\":399:428  block.timestamp + _timePeriod */\n  tag_6\n  swap2\n  swap1\n  tag_7\n  jump\t// in\ntag_6:\n    /* \"CrowdFunding.sol\":386:396  timePeriod */\n  0x06\n    /* \"CrowdFunding.sol\":386:428  timePeriod = block.timestamp + _timePeriod */\n  dup2\n  swap1\n  sstore\n  pop\n    /* \"CrowdFunding.sol\":447:457  msg.sender */\n  caller\n    /* \"CrowdFunding.sol\":439:444  owner */\n  0x00\n  dup1\n    /* \"CrowdFunding.sol\":439:457  owner = msg.sender */\n  0x0100\n  exp\n  dup2\n  sload\n  dup2\n  0xffffffffffffffffffffffffffffffffffffffff\n  mul\n  not\n  and\n  swap1\n  dup4\n  0xffffffffffffffffffffffffffffffffffffffff\n  and\n  mul\n  or\n  swap1\n  sstore\n  pop\n    /* \"CrowdFunding.sol\":480:488  1000 wei */\n  0x03e8\n    /* \"CrowdFunding.sol\":468:477  minAmount */\n  0x03\n    /* \"CrowdFunding.sol\":468:488  minAmount = 1000 wei */\n  dup2\n  swap1\n  sstore\n  pop\n    /* \"CrowdFunding.sol\":311:496  constructor(uint _goal, uint _timePeriod){\r... */\n  pop\n  pop\n    /* \"CrowdFunding.sol\":59:1807  contract main {\r... */\n  jump(tag_8)\n    /* \"#utility.yul\":7:150   */\ntag_10:\n    /* \"#utility.yul\":64:69   */\n  0x00\n    /* \"#utility.yul\":95:101   */\n  dup2\n    /* \"#utility.yul\":89:102   */\n  mload\n    /* \"#utility.yul\":80:102   */\n  swap1\n  pop\n    /* \"#utility.yul\":111:144   */\n  tag_12\n    /* \"#utility.yul\":138:143   */\n  dup2\n    /* \"#utility.yul\":111:144   */\n  tag_13\n  jump\t// in\ntag_12:\n    /* \"#utility.yul\":7:150   */\n  swap3\n  swap2\n  pop\n  pop\n  jump\t// out\n    /* \"#utility.yul\":156:663   */\ntag_3:\n    /* \"#utility.yul\":235:241   */\n  0x00\n    /* \"#utility.yul\":243:249   */\n  dup1\n    /* \"#utility.yul\":292:294   */\n  0x40\n    /* \"#utility.yul\":280:289   */\n  dup4\n    /* \"#utility.yul\":271:278   */\n  dup6\n    /* \"#utility.yul\":267:290   */\n  sub\n    /* \"#utility.yul\":263:295   */\n  slt\n    /* \"#utility.yul\":260:379   */\n  iszero\n  tag_15\n  jumpi\n    /* \"#utility.yul\":298:377   */\n  tag_16\n  tag_17\n  jump\t// in\ntag_16:\n    /* \"#utility.yul\":260:379   */\ntag_15:\n    /* \"#utility.yul\":418:419   */\n  0x00\n    /* \"#utility.yul\":443:507   */\n  tag_18\n    /* \"#utility.yul\":499:506   */\n  dup6\n    /* \"#utility.yul\":490:496   */\n  dup3\n    /* \"#utility.yul\":479:488   */\n  dup7\n    /* \"#utility.yul\":475:497   */\n  add\n    /* \"#utility.yul\":443:507   */\n  tag_10\n  jump\t// in\ntag_18:\n    /* \"#utility.yul\":433:507   */\n  swap3\n  pop\n    /* \"#utility.yul\":389:517   */\n  pop\n    /* \"#utility.yul\":556:558   */\n  0x20\n    /* \"#utility.yul\":582:646   */\n  tag_19\n    /* \"#utility.yul\":638:645   */\n  dup6\n    /* \"#utility.yul\":629:635   */\n  dup3\n    /* \"#utility.yul\":618:627   */\n  dup7\n    /* \"#utility.yul\":614:636   */\n  add\n    /* \"#utility.yul\":582:646   */\n  tag_10\n  jump\t// in\ntag_19:\n    /* \"#utility.yul\":572:646   */\n  swap2\n  pop\n    /* \"#utility.yul\":527:656   */\n  pop\n    /* \"#utility.yul\":156:663   */\n  swap3\n  pop\n  swap3\n  swap1\n  pop\n  jump\t// out\n    /* \"#utility.yul\":750:1055   */\ntag_7:\n    /* \"#utility.yul\":790:793   */\n  0x00\n    /* \"#utility.yul\":809:829   */\n  tag_23\n    /* \"#utility.yul\":827:828   */\n  dup3\n    /* \"#utility.yul\":809:829   */\n  tag_24\n  jump\t// in\ntag_23:\n    /* \"#utility.yul\":804:829   */\n  swap2\n  pop\n    /* \"#utility.yul\":843:863   */\n  tag_25\n    /* \"#utility.yul\":861:862   */\n  dup4\n    /* \"#utility.yul\":843:863   */\n  tag_24\n  jump\t// in\ntag_25:\n    /* \"#utility.yul\":838:863   */\n  swap3\n  pop\n    /* \"#utility.yul\":997:998   */\n  dup3\n    /* \"#utility.yul\":929:995   */\n  0xffffffffffffffffffffffffffffffffffffffffffffffffffffffffffffffff\n    /* \"#utility.yul\":925:999   */\n  sub\n    /* \"#utility.yul\":922:923   */\n  dup3\n    /* \"#utility.yul\":919:1000   */\n  gt\n    /* \"#utility.yul\":916:1023   */\n  iszero\n  tag_26\n  jumpi\n    /* \"#utility.yul\":1003:1021   */\n  tag_27\n  tag_28\n  jump\t// in\ntag_27:\n    /* \"#utility.yul\":916:1023   */\ntag_26:\n    /* \"#utility.yul\":1047:1048   */\n  dup3\n    /* \"#utility.yul\":1044:1045   */\n  dup3\n    /* \"#utility.yul\":1040:1049   */\n  add\n    /* \"#utility.yul\":1033:1049   */\n  swap1\n  pop\n    /* \"#utility.yul\":750:1055   */\n  swap3\n  swap2\n  pop\n  pop\n  jump\t// out\n    /* \"#utility.yul\":1061:1138   */\ntag_24:\n    /* \"#utility.yul\":1098:1105   */\n  0x00\n    /* \"#utility.yul\":1127:1132   */\n  dup2\n    /* \"#utility.yul\":1116:1132   */\n  swap1\n  pop\n    /* \"#utility.yul\":1061:1138   */\n  swap2\n  swap1\n  pop\n  jump\t// out\n    /* \"#utility.yul\":1144:1324   */\ntag_28:\n    /* \"#utility.yul\":1192:1269   */\n  0x4e487b7100000000000000000000000000000000000000000000000000000000\n    /* \"#utility.yul\":1189:1190   */\n  0x00\n    /* \"#utility.yul\":1182:1270   */\n  mstore\n    /* \"#utility.yul\":1289:1293   */\n  0x11\n    /* \"#utility.yul\":1286:1287   */\n  0x04\n    /* \"#utility.yul\":1279:1294   */\n  mstore\n    /* \"#utility.yul\":1313:1317   */\n  0x24\n    /* \"#utility.yul\":1310:1311   */\n  0x00\n    /* \"#utility.yul\":1303:1318   */\n  revert\n    /* \"#utility.yul\":1453:1570   */\ntag_17:\n    /* \"#utility.yul\":1562:1563   */\n  0x00\n    /* \"#utility.yul\":1559:1560   */\n  dup1\n    /* \"#utility.yul\":1552:1564   */\n  revert\n    /* \"#utility.yul\":1576:1698   */\ntag_13:\n    /* \"#utility.yul\":1649:1673   */\n  tag_35\n    /* \"#utility.yul\":1667:1672   */\n  dup2\n    /* \"#utility.yul\":1649:1673   */\n  tag_24\n  jump\t// in\ntag_35:\n    /* \"#utility.yul\":1642:1647   */\n  dup2\n    /* \"#utility.yul\":1639:1674   */\n  eq\n    /* \"#utility.yul\":1629:1692   */\n  tag_36\n  jumpi\n    /* \"#utility.yul\":1688:1689   */\n  0x00\n    /* \"#utility.yul\":1685:1686   */\n  dup1\n    /* \"#utility.yul\":1678:1690   */\n  revert\n    /* \"#utility.yul\":1629:1692   */\ntag_36:\n    /* \"#utility.yul\":1576:1698   */\n  pop\n  jump\t// out\n    /* \"CrowdFunding.sol\":59:1807  contract main {\r... */\ntag_8:\n  dataSize(sub_0)\n  dup1\n  dataOffset(sub_0)\n  0x00\n  codecopy\n  0x00\n  return\nstop\n\nsub_0: assembly {\n        /* \"CrowdFunding.sol\":59:1807  contract main {\r... */\n      mstore(0x40, 0x80)\n      jumpi(tag_1, lt(calldatasize, 0x04))\n      shr(0xe0, calldataload(0x00))\n      dup1\n      0x50520b1f\n      gt\n      tag_15\n      jumpi\n      dup1\n      0x50520b1f\n      eq\n      tag_9\n      jumpi\n      dup1\n      0x6681b9fd\n      eq\n      tag_10\n      jumpi\n      dup1\n      0x8da5cb5b\n      eq\n      tag_11\n      jumpi\n      dup1\n      0x9b2cb5d8\n      eq\n      tag_12\n      jumpi\n      dup1\n      0xb2d5ae44\n      eq\n      tag_13\n      jumpi\n      dup1\n      0xe89b7c55\n      eq\n      tag_14\n      jumpi\n      jump(tag_2)\n    tag_15:\n      dup1\n      0x0114bd3f\n      eq\n      tag_3\n      jumpi\n      dup1\n      0x031b3677\n      eq\n      tag_4\n      jumpi\n      dup1\n      0x277c3da4\n      eq\n      tag_5\n      jumpi\n      dup1\n      0x3c2ed32d\n      eq\n      tag_6\n      jumpi\n      dup1\n      0x3e79d1e1\n      eq\n      tag_7\n      jumpi\n      dup1\n      0x40193883\n      eq\n      tag_8\n      jumpi\n      jump(tag_2)\n    tag_1:\n      jumpi(tag_2, calldatasize)\n      stop\n    tag_2:\n      0x00\n      dup1\n      revert\n        /* \"CrowdFunding.sol\":1607:1652  mapping (uint => Requests) public AllRequests */\n    tag_3:\n      callvalue\n      dup1\n      iszero\n      tag_18\n      jumpi\n      0x00\n      dup1\n      revert\n    tag_18:\n      pop\n      tag_19\n      0x04\n      dup1\n      calldatasize\n      sub\n      dup2\n      add\n      swap1\n      tag_20\n      swap2\n      swap1\n      tag_21\n      jump\t// in\n    tag_20:\n      tag_22\n      jump\t// in\n    tag_19:\n      mload(0x40)\n      tag_23\n      swap6\n      swap5\n      swap4\n      swap3\n      swap2\n      swap1\n      tag_24\n      jump\t// in\n    tag_23:\n      mload(0x40)\n      dup1\n      swap2\n      sub\n      swap1\n      return\n        /* \"CrowdFunding.sol\":109:149  mapping (address => uint) public funders */\n    tag_4:\n      callvalue\n      dup1\n      iszero\n      tag_25\n      jumpi\n      0x00\n      dup1\n      revert\n    tag_25:\n      pop\n      tag_26\n      0x04\n      dup1\n      calldatasize\n      sub\n      dup2\n      add\n      swap1\n      tag_27\n      swap2\n      swap1\n      tag_28\n      jump\t// in\n    tag_27:\n      tag_29\n      jump\t// in\n    tag_26:\n      mload(0x40)\n      tag_30\n      swap2\n      swap1\n      tag_31\n      jump\t// in\n    tag_30:\n      mload(0x40)\n      dup1\n      swap2\n      sub\n      swap1\n      return\n        /* \"CrowdFunding.sol\":1686:1802  function createRequests(string memory _description, uint _amount, address payable receiver) public{\r... */\n    tag_5:\n      callvalue\n      dup1\n      iszero\n      tag_32\n      jumpi\n      0x00\n      dup1\n      revert\n    tag_32:\n      pop\n      tag_33\n      0x04\n      dup1\n      calldatasize\n      sub\n      dup2\n      add\n      swap1\n      tag_34\n      swap2\n      swap1\n      tag_35\n      jump\t// in\n    tag_34:\n      tag_36\n      jump\t// in\n    tag_33:\n      stop\n        /* \"CrowdFunding.sol\":1659:1677  uint public numReq */\n    tag_6:\n      callvalue\n      dup1\n      iszero\n      tag_37\n      jumpi\n      0x00\n      dup1\n      revert\n    tag_37:\n      pop\n      tag_38\n      tag_39\n      jump\t// in\n    tag_38:\n      mload(0x40)\n      tag_40\n      swap2\n      swap1\n      tag_31\n      jump\t// in\n    tag_40:\n      mload(0x40)\n      dup1\n      swap2\n      sub\n      swap1\n      return\n        /* \"CrowdFunding.sol\":268:290  uint public timePeriod */\n    tag_7:\n      callvalue\n      dup1\n      iszero\n      tag_41\n      jumpi\n      0x00\n      dup1\n      revert\n    tag_41:\n      pop\n      tag_42\n      tag_43\n      jump\t// in\n    tag_42:\n      mload(0x40)\n      tag_44\n      swap2\n      swap1\n      tag_31\n      jump\t// in\n    tag_44:\n      mload(0x40)\n      dup1\n      swap2\n      sub\n      swap1\n      return\n        /* \"CrowdFunding.sol\":156:172  uint public goal */\n    tag_8:\n      callvalue\n      dup1\n      iszero\n      tag_45\n      jumpi\n      0x00\n      dup1\n      revert\n    tag_45:\n      pop\n      tag_46\n      tag_47\n      jump\t// in\n    tag_46:\n      mload(0x40)\n      tag_48\n      swap2\n      swap1\n      tag_31\n      jump\t// in\n    tag_48:\n      mload(0x40)\n      dup1\n      swap2\n      sub\n      swap1\n      return\n        /* \"CrowdFunding.sol\":647:1011  function contribution() public payable{\r... */\n    tag_9:\n      tag_49\n      tag_50\n      jump\t// in\n    tag_49:\n      stop\n        /* \"CrowdFunding.sol\":238:261  uint public fundsRaised */\n    tag_10:\n      callvalue\n      dup1\n      iszero\n      tag_51\n      jumpi\n      0x00\n      dup1\n      revert\n    tag_51:\n      pop\n      tag_52\n      tag_53\n      jump\t// in\n    tag_52:\n      mload(0x40)\n      tag_54\n      swap2\n      swap1\n      tag_31\n      jump\t// in\n    tag_54:\n      mload(0x40)\n      dup1\n      swap2\n      sub\n      swap1\n      return\n        /* \"CrowdFunding.sol\":82:102  address public owner */\n    tag_11:\n      callvalue\n      dup1\n      iszero\n      tag_55\n      jumpi\n      0x00\n      dup1\n      revert\n    tag_55:\n      pop\n      tag_56\n      tag_57\n      jump\t// in\n    tag_56:\n      mload(0x40)\n      tag_58\n      swap2\n      swap1\n      tag_59\n      jump\t// in\n    tag_58:\n      mload(0x40)\n      dup1\n      swap2\n      sub\n      swap1\n      return\n        /* \"CrowdFunding.sol\":179:200  uint public minAmount */\n    tag_12:\n      callvalue\n      dup1\n      iszero\n      tag_60\n      jumpi\n      0x00\n      dup1\n      revert\n    tag_60:\n      pop\n      tag_61\n      tag_62\n      jump\t// in\n    tag_61:\n      mload(0x40)\n      tag_63\n      swap2\n      swap1\n      tag_31\n      jump\t// in\n    tag_63:\n      mload(0x40)\n      dup1\n      swap2\n      sub\n      swap1\n      return\n        /* \"CrowdFunding.sol\":1019:1391  function getRefund() public {\r... */\n    tag_13:\n      callvalue\n      dup1\n      iszero\n      tag_64\n      jumpi\n      0x00\n      dup1\n      revert\n    tag_64:\n      pop\n      tag_65\n      tag_66\n      jump\t// in\n    tag_65:\n      stop\n        /* \"CrowdFunding.sol\":207:231  uint public noOfFounders */\n    tag_14:\n      callvalue\n      dup1\n      iszero\n      tag_67\n      jumpi\n      0x00\n      dup1\n      revert\n    tag_67:\n      pop\n      tag_68\n      tag_69\n      jump\t// in\n    tag_68:\n      mload(0x40)\n      tag_70\n      swap2\n      swap1\n      tag_31\n      jump\t// in\n    tag_70:\n      mload(0x40)\n      dup1\n      swap2\n      sub\n      swap1\n      return\n        /* \"CrowdFunding.sol\":1607:1652  mapping (uint => Requests) public AllRequests */\n    tag_22:\n      mstore(0x20, 0x07)\n      dup1\n      0x00\n      mstore\n      keccak256(0x00, 0x40)\n      0x00\n      swap2\n      pop\n      swap1\n      pop\n      dup1\n      0x00\n      add\n      dup1\n      sload\n      tag_71\n      swap1\n      tag_72\n      jump\t// in\n    tag_71:\n      dup1\n      0x1f\n      add\n      0x20\n      dup1\n      swap2\n      div\n      mul\n      0x20\n      add\n      mload(0x40)\n      swap1\n      dup2\n      add\n      0x40\n      mstore\n      dup1\n      swap3\n      swap2\n      swap1\n      dup2\n      dup2\n      mstore\n      0x20\n      add\n      dup3\n      dup1\n      sload\n      tag_73\n      swap1\n      tag_72\n      jump\t// in\n    tag_73:\n      dup1\n      iszero\n      tag_74\n      jumpi\n      dup1\n      0x1f\n      lt\n      tag_75\n      jumpi\n      0x0100\n      dup1\n      dup4\n      sload\n      div\n      mul\n      dup4\n      mstore\n      swap2\n      0x20\n      add\n      swap2\n      jump(tag_74)\n    tag_75:\n      dup3\n      add\n      swap2\n      swap1\n      0x00\n      mstore\n      keccak256(0x00, 0x20)\n      swap1\n    tag_76:\n      dup2\n      sload\n      dup2\n      mstore\n      swap1\n      0x01\n      add\n      swap1\n      0x20\n      add\n      dup1\n      dup4\n      gt\n      tag_76\n      jumpi\n      dup3\n      swap1\n      sub\n      0x1f\n      and\n      dup3\n      add\n      swap2\n    tag_74:\n      pop\n      pop\n      pop\n      pop\n      pop\n      swap1\n      dup1\n      0x01\n      add\n      sload\n      swap1\n      dup1\n      0x02\n      add\n      0x00\n      swap1\n      sload\n      swap1\n      0x0100\n      exp\n      swap1\n      div\n      0xffffffffffffffffffffffffffffffffffffffff\n      and\n      swap1\n      dup1\n      0x03\n      add\n      sload\n      swap1\n      dup1\n      0x05\n      add\n      0x00\n      swap1\n      sload\n      swap1\n      0x0100\n      exp\n      swap1\n      div\n      0xff\n      and\n      swap1\n      pop\n      dup6\n      jump\t// out\n        /* \"CrowdFunding.sol\":109:149  mapping (address => uint) public funders */\n    tag_29:\n      mstore(0x20, 0x01)\n      dup1\n      0x00\n      mstore\n      keccak256(0x00, 0x40)\n      0x00\n      swap2\n      pop\n      swap1\n      pop\n      sload\n      dup2\n      jump\t// out\n        /* \"CrowdFunding.sol\":1686:1802  function createRequests(string memory _description, uint _amount, address payable receiver) public{\r... */\n    tag_36:\n      pop\n      pop\n      pop\n      jump\t// out\n        /* \"CrowdFunding.sol\":1659:1677  uint public numReq */\n    tag_39:\n      sload(0x08)\n      dup2\n      jump\t// out\n        /* \"CrowdFunding.sol\":268:290  uint public timePeriod */\n    tag_43:\n      sload(0x06)\n      dup2\n      jump\t// out\n        /* \"CrowdFunding.sol\":156:172  uint public goal */\n    tag_47:\n      sload(0x02)\n      dup2\n      jump\t// out\n        /* \"CrowdFunding.sol\":647:1011  function contribution() public payable{\r... */\n    tag_50:\n        /* \"CrowdFunding.sol\":722:732  timePeriod */\n      sload(0x06)\n        /* \"CrowdFunding.sol\":704:719  block.timestamp */\n      timestamp\n        /* \"CrowdFunding.sol\":704:732  block.timestamp < timePeriod */\n      lt\n        /* \"CrowdFunding.sol\":696:753  require(block.timestamp < timePeriod, \"Funding is over!\") */\n      tag_79\n      jumpi\n      mload(0x40)\n      0x08c379a000000000000000000000000000000000000000000000000000000000\n      dup2\n      mstore\n      0x04\n      add\n      tag_80\n      swap1\n      tag_81\n      jump\t// in\n    tag_80:\n      mload(0x40)\n      dup1\n      swap2\n      sub\n      swap1\n      revert\n    tag_79:\n        /* \"CrowdFunding.sol\":785:794  minAmount */\n      sload(0x03)\n        /* \"CrowdFunding.sol\":772:781  msg.value */\n      callvalue\n        /* \"CrowdFunding.sol\":772:794  msg.value >= minAmount */\n      lt\n      iszero\n        /* \"CrowdFunding.sol\":764:834  require(msg.value >= minAmount, \"Minimum amount criteria not satisfy\") */\n      tag_82\n      jumpi\n      mload(0x40)\n      0x08c379a000000000000000000000000000000000000000000000000000000000\n      dup2\n      mstore\n      0x04\n      add\n      tag_83\n      swap1\n      tag_84\n      jump\t// in\n    tag_83:\n      mload(0x40)\n      dup1\n      swap2\n      sub\n      swap1\n      revert\n    tag_82:\n        /* \"CrowdFunding.sol\":873:874  0 */\n      0x00\n        /* \"CrowdFunding.sol\":850:857  funders */\n      0x01\n        /* \"CrowdFunding.sol\":850:869  funders[msg.sender] */\n      0x00\n        /* \"CrowdFunding.sol\":858:868  msg.sender */\n      caller\n        /* \"CrowdFunding.sol\":850:869  funders[msg.sender] */\n      0xffffffffffffffffffffffffffffffffffffffff\n      and\n      0xffffffffffffffffffffffffffffffffffffffff\n      and\n      dup2\n      mstore\n      0x20\n      add\n      swap1\n      dup2\n      mstore\n      0x20\n      add\n      0x00\n      keccak256\n      sload\n        /* \"CrowdFunding.sol\":850:874  funders[msg.sender] == 0 */\n      eq\n        /* \"CrowdFunding.sol\":847:916  if(funders[msg.sender] == 0){\r... */\n      iszero\n      tag_85\n      jumpi\n        /* \"CrowdFunding.sol\":890:902  noOfFounders */\n      0x04\n      0x00\n        /* \"CrowdFunding.sol\":890:904  noOfFounders++ */\n      dup2\n      sload\n      dup1\n      swap3\n      swap2\n      swap1\n      tag_86\n      swap1\n      tag_87\n      jump\t// in\n    tag_86:\n      swap2\n      swap1\n      pop\n      sstore\n      pop\n        /* \"CrowdFunding.sol\":847:916  if(funders[msg.sender] == 0){\r... */\n    tag_85:\n        /* \"CrowdFunding.sol\":959:968  msg.value */\n      callvalue\n        /* \"CrowdFunding.sol\":936:943  funders */\n      0x01\n        /* \"CrowdFunding.sol\":936:955  funders[msg.sender] */\n      0x00\n        /* \"CrowdFunding.sol\":944:954  msg.sender */\n      caller\n        /* \"CrowdFunding.sol\":936:955  funders[msg.sender] */\n      0xffffffffffffffffffffffffffffffffffffffff\n      and\n      0xffffffffffffffffffffffffffffffffffffffff\n      and\n      dup2\n      mstore\n      0x20\n      add\n      swap1\n      dup2\n      mstore\n      0x20\n      add\n      0x00\n      keccak256\n      0x00\n        /* \"CrowdFunding.sol\":936:968  funders[msg.sender] += msg.value */\n      dup3\n      dup3\n      sload\n      tag_88\n      swap2\n      swap1\n      tag_89\n      jump\t// in\n    tag_88:\n      swap3\n      pop\n      pop\n      dup2\n      swap1\n      sstore\n      pop\n        /* \"CrowdFunding.sol\":994:1003  msg.value */\n      callvalue\n        /* \"CrowdFunding.sol\":979:990  fundsRaised */\n      0x05\n      0x00\n        /* \"CrowdFunding.sol\":979:1003  fundsRaised += msg.value */\n      dup3\n      dup3\n      sload\n      tag_90\n      swap2\n      swap1\n      tag_89\n      jump\t// in\n    tag_90:\n      swap3\n      pop\n      pop\n      dup2\n      swap1\n      sstore\n      pop\n        /* \"CrowdFunding.sol\":647:1011  function contribution() public payable{\r... */\n      jump\t// out\n        /* \"CrowdFunding.sol\":238:261  uint public fundsRaised */\n    tag_53:\n      sload(0x05)\n      dup2\n      jump\t// out\n        /* \"CrowdFunding.sol\":82:102  address public owner */\n    tag_57:\n      0x00\n      dup1\n      sload\n      swap1\n      0x0100\n      exp\n      swap1\n      div\n      0xffffffffffffffffffffffffffffffffffffffff\n      and\n      dup2\n      jump\t// out\n        /* \"CrowdFunding.sol\":179:200  uint public minAmount */\n    tag_62:\n      sload(0x03)\n      dup2\n      jump\t// out\n        /* \"CrowdFunding.sol\":1019:1391  function getRefund() public {\r... */\n    tag_66:\n        /* \"CrowdFunding.sol\":1084:1094  timePeriod */\n      sload(0x06)\n        /* \"CrowdFunding.sol\":1066:1081  block.timestamp */\n      timestamp\n        /* \"CrowdFunding.sol\":1066:1094  block.timestamp > timePeriod */\n      gt\n        /* \"CrowdFunding.sol\":1058:1119  require(block.timestamp > timePeriod, \"Funding is still on!\") */\n      tag_92\n      jumpi\n      mload(0x40)\n      0x08c379a000000000000000000000000000000000000000000000000000000000\n      dup2\n      mstore\n      0x04\n      add\n      tag_93\n      swap1\n      tag_94\n      jump\t// in\n    tag_93:\n      mload(0x40)\n      dup1\n      swap2\n      sub\n      swap1\n      revert\n    tag_92:\n        /* \"CrowdFunding.sol\":1152:1156  goal */\n      sload(0x02)\n        /* \"CrowdFunding.sol\":1138:1149  fundsRaised */\n      sload(0x05)\n        /* \"CrowdFunding.sol\":1138:1156  fundsRaised < goal */\n      lt\n        /* \"CrowdFunding.sol\":1130:1183  require(fundsRaised < goal, \"Funding was successful\") */\n      tag_95\n      jumpi\n      mload(0x40)\n      0x08c379a000000000000000000000000000000000000000000000000000000000\n      dup2\n      mstore\n      0x04\n      add\n      tag_96\n      swap1\n      tag_97\n      jump\t// in\n    tag_96:\n      mload(0x40)\n      dup1\n      swap2\n      sub\n      swap1\n      revert\n    tag_95:\n        /* \"CrowdFunding.sol\":1224:1225  0 */\n      0x00\n        /* \"CrowdFunding.sol\":1202:1209  funders */\n      0x01\n        /* \"CrowdFunding.sol\":1202:1221  funders[msg.sender] */\n      0x00\n        /* \"CrowdFunding.sol\":1210:1220  msg.sender */\n      caller\n        /* \"CrowdFunding.sol\":1202:1221  funders[msg.sender] */\n      0xffffffffffffffffffffffffffffffffffffffff\n      and\n      0xffffffffffffffffffffffffffffffffffffffff\n      and\n      dup2\n      mstore\n      0x20\n      add\n      swap1\n      dup2\n      mstore\n      0x20\n      add\n      0x00\n      keccak256\n      sload\n        /* \"CrowdFunding.sol\":1202:1225  funders[msg.sender] > 0 */\n      gt\n        /* \"CrowdFunding.sol\":1194:1242  require(funders[msg.sender] > 0, \"Not a funder\") */\n      tag_98\n      jumpi\n      mload(0x40)\n      0x08c379a000000000000000000000000000000000000000000000000000000000\n      dup2\n      mstore\n      0x04\n      add\n      tag_99\n      swap1\n      tag_100\n      jump\t// in\n    tag_99:\n      mload(0x40)\n      dup1\n      swap2\n      sub\n      swap1\n      revert\n    tag_98:\n        /* \"CrowdFunding.sol\":1263:1273  msg.sender */\n      caller\n        /* \"CrowdFunding.sol\":1255:1283  payable(msg.sender).transfer */\n      0xffffffffffffffffffffffffffffffffffffffff\n      and\n        /* \"CrowdFunding.sol\":1255:1304  payable(msg.sender).transfer(funders[msg.sender]) */\n      0x08fc\n        /* \"CrowdFunding.sol\":1284:1291  funders */\n      0x01\n        /* \"CrowdFunding.sol\":1284:1303  funders[msg.sender] */\n      0x00\n        /* \"CrowdFunding.sol\":1292:1302  msg.sender */\n      caller\n        /* \"CrowdFunding.sol\":1284:1303  funders[msg.sender] */\n      0xffffffffffffffffffffffffffffffffffffffff\n      and\n      0xffffffffffffffffffffffffffffffffffffffff\n      and\n      dup2\n      mstore\n      0x20\n      add\n      swap1\n      dup2\n      mstore\n      0x20\n      add\n      0x00\n      keccak256\n      sload\n        /* \"CrowdFunding.sol\":1255:1304  payable(msg.sender).transfer(funders[msg.sender]) */\n      swap1\n      dup2\n      iszero\n      mul\n      swap1\n      mload(0x40)\n      0x00\n      mload(0x40)\n      dup1\n      dup4\n      sub\n      dup2\n      dup6\n      dup9\n      dup9\n      call\n      swap4\n      pop\n      pop\n      pop\n      pop\n      iszero\n      dup1\n      iszero\n      tag_102\n      jumpi\n      returndatasize\n      0x00\n      dup1\n      returndatacopy\n      revert(0x00, returndatasize)\n    tag_102:\n      pop\n        /* \"CrowdFunding.sol\":1330:1337  funders */\n      0x01\n        /* \"CrowdFunding.sol\":1330:1349  funders[msg.sender] */\n      0x00\n        /* \"CrowdFunding.sol\":1338:1348  msg.sender */\n      caller\n        /* \"CrowdFunding.sol\":1330:1349  funders[msg.sender] */\n      0xffffffffffffffffffffffffffffffffffffffff\n      and\n      0xffffffffffffffffffffffffffffffffffffffff\n      and\n      dup2\n      mstore\n      0x20\n      add\n      swap1\n      dup2\n      mstore\n      0x20\n      add\n      0x00\n      keccak256\n      sload\n        /* \"CrowdFunding.sol\":1315:1326  fundsRaised */\n      0x05\n      0x00\n        /* \"CrowdFunding.sol\":1315:1349  fundsRaised -= funders[msg.sender] */\n      dup3\n      dup3\n      sload\n      tag_103\n      swap2\n      swap1\n      tag_104\n      jump\t// in\n    tag_103:\n      swap3\n      pop\n      pop\n      dup2\n      swap1\n      sstore\n      pop\n        /* \"CrowdFunding.sol\":1382:1383  0 */\n      0x00\n        /* \"CrowdFunding.sol\":1360:1367  funders */\n      0x01\n        /* \"CrowdFunding.sol\":1360:1379  funders[msg.sender] */\n      0x00\n        /* \"CrowdFunding.sol\":1368:1378  msg.sender */\n      caller\n        /* \"CrowdFunding.sol\":1360:1379  funders[msg.sender] */\n      0xffffffffffffffffffffffffffffffffffffffff\n      and\n      0xffffffffffffffffffffffffffffffffffffffff\n      and\n      dup2\n      mstore\n      0x20\n      add\n      swap1\n      dup2\n      mstore\n      0x20\n      add\n      0x00\n      keccak256\n        /* \"CrowdFunding.sol\":1360:1383  funders[msg.sender] = 0 */\n      dup2\n      swap1\n      sstore\n      pop\n        /* \"CrowdFunding.sol\":1019:1391  function getRefund() public {\r... */\n      jump\t// out\n        /* \"CrowdFunding.sol\":207:231  uint public noOfFounders */\n    tag_69:\n      sload(0x04)\n      dup2\n      jump\t// out\n        /* \"#utility.yul\":7:419   */\n    tag_106:\n        /* \"#utility.yul\":85:90   */\n      0x00\n        /* \"#utility.yul\":110:176   */\n      tag_108\n        /* \"#utility.yul\":126:175   */\n      tag_109\n        /* \"#utility.yul\":168:174   */\n      dup5\n        /* \"#utility.yul\":126:175   */\n      tag_110\n      jump\t// in\n    tag_109:\n        /* \"#utility.yul\":110:176   */\n      tag_111\n      jump\t// in\n    tag_108:\n        /* \"#utility.yul\":101:176   */\n      swap1\n      pop\n        /* \"#utility.yul\":199:205   */\n      dup3\n        /* \"#utility.yul\":192:197   */\n      dup2\n        /* \"#utility.yul\":185:206   */\n      mstore\n        /* \"#utility.yul\":237:241   */\n      0x20\n        /* \"#utility.yul\":230:235   */\n      dup2\n        /* \"#utility.yul\":226:242   */\n      add\n        /* \"#utility.yul\":275:278   */\n      dup5\n        /* \"#utility.yul\":266:272   */\n      dup5\n        /* \"#utility.yul\":261:264   */\n      dup5\n        /* \"#utility.yul\":257:273   */\n      add\n        /* \"#utility.yul\":254:279   */\n      gt\n        /* \"#utility.yul\":251:363   */\n      iszero\n      tag_112\n      jumpi\n        /* \"#utility.yul\":282:361   */\n      tag_113\n      tag_114\n      jump\t// in\n    tag_113:\n        /* \"#utility.yul\":251:363   */\n    tag_112:\n        /* \"#utility.yul\":372:413   */\n      tag_115\n        /* \"#utility.yul\":406:412   */\n      dup5\n        /* \"#utility.yul\":401:404   */\n      dup3\n        /* \"#utility.yul\":396:399   */\n      dup6\n        /* \"#utility.yul\":372:413   */\n      tag_116\n      jump\t// in\n    tag_115:\n        /* \"#utility.yul\":91:419   */\n      pop\n        /* \"#utility.yul\":7:419   */\n      swap4\n      swap3\n      pop\n      pop\n      pop\n      jump\t// out\n        /* \"#utility.yul\":425:564   */\n    tag_117:\n        /* \"#utility.yul\":471:476   */\n      0x00\n        /* \"#utility.yul\":509:515   */\n      dup2\n        /* \"#utility.yul\":496:516   */\n      calldataload\n        /* \"#utility.yul\":487:516   */\n      swap1\n      pop\n        /* \"#utility.yul\":525:558   */\n      tag_119\n        /* \"#utility.yul\":552:557   */\n      dup2\n        /* \"#utility.yul\":525:558   */\n      tag_120\n      jump\t// in\n    tag_119:\n        /* \"#utility.yul\":425:564   */\n      swap3\n      swap2\n      pop\n      pop\n      jump\t// out\n        /* \"#utility.yul\":570:725   */\n    tag_121:\n        /* \"#utility.yul\":624:629   */\n      0x00\n        /* \"#utility.yul\":662:668   */\n      dup2\n        /* \"#utility.yul\":649:669   */\n      calldataload\n        /* \"#utility.yul\":640:669   */\n      swap1\n      pop\n        /* \"#utility.yul\":678:719   */\n      tag_123\n        /* \"#utility.yul\":713:718   */\n      dup2\n        /* \"#utility.yul\":678:719   */\n      tag_124\n      jump\t// in\n    tag_123:\n        /* \"#utility.yul\":570:725   */\n      swap3\n      swap2\n      pop\n      pop\n      jump\t// out\n        /* \"#utility.yul\":745:1085   */\n    tag_125:\n        /* \"#utility.yul\":801:806   */\n      0x00\n        /* \"#utility.yul\":850:853   */\n      dup3\n        /* \"#utility.yul\":843:847   */\n      0x1f\n        /* \"#utility.yul\":835:841   */\n      dup4\n        /* \"#utility.yul\":831:848   */\n      add\n        /* \"#utility.yul\":827:854   */\n      slt\n        /* \"#utility.yul\":817:939   */\n      tag_127\n      jumpi\n        /* \"#utility.yul\":858:937   */\n      tag_128\n      tag_129\n      jump\t// in\n    tag_128:\n        /* \"#utility.yul\":817:939   */\n    tag_127:\n        /* \"#utility.yul\":975:981   */\n      dup2\n        /* \"#utility.yul\":962:982   */\n      calldataload\n        /* \"#utility.yul\":1000:1079   */\n      tag_130\n        /* \"#utility.yul\":1075:1078   */\n      dup5\n        /* \"#utility.yul\":1067:1073   */\n      dup3\n        /* \"#utility.yul\":1060:1064   */\n      0x20\n        /* \"#utility.yul\":1052:1058   */\n      dup7\n        /* \"#utility.yul\":1048:1065   */\n      add\n        /* \"#utility.yul\":1000:1079   */\n      tag_106\n      jump\t// in\n    tag_130:\n        /* \"#utility.yul\":991:1079   */\n      swap2\n      pop\n        /* \"#utility.yul\":807:1085   */\n      pop\n        /* \"#utility.yul\":745:1085   */\n      swap3\n      swap2\n      pop\n      pop\n      jump\t// out\n        /* \"#utility.yul\":1091:1230   */\n    tag_131:\n        /* \"#utility.yul\":1137:1142   */\n      0x00\n        /* \"#utility.yul\":1175:1181   */\n      dup2\n        /* \"#utility.yul\":1162:1182   */\n      calldataload\n        /* \"#utility.yul\":1153:1182   */\n      swap1\n      pop\n        /* \"#utility.yul\":1191:1224   */\n      tag_133\n        /* \"#utility.yul\":1218:1223   */\n      dup2\n        /* \"#utility.yul\":1191:1224   */\n      tag_134\n      jump\t// in\n    tag_133:\n        /* \"#utility.yul\":1091:1230   */\n      swap3\n      swap2\n      pop\n      pop\n      jump\t// out\n        /* \"#utility.yul\":1236:1565   */\n    tag_28:\n        /* \"#utility.yul\":1295:1301   */\n      0x00\n        /* \"#utility.yul\":1344:1346   */\n      0x20\n        /* \"#utility.yul\":1332:1341   */\n      dup3\n        /* \"#utility.yul\":1323:1330   */\n      dup5\n        /* \"#utility.yul\":1319:1342   */\n      sub\n        /* \"#utility.yul\":1315:1347   */\n      slt\n        /* \"#utility.yul\":1312:1431   */\n      iszero\n      tag_136\n      jumpi\n        /* \"#utility.yul\":1350:1429   */\n      tag_137\n      tag_138\n      jump\t// in\n    tag_137:\n        /* \"#utility.yul\":1312:1431   */\n    tag_136:\n        /* \"#utility.yul\":1470:1471   */\n      0x00\n        /* \"#utility.yul\":1495:1548   */\n      tag_139\n        /* \"#utility.yul\":1540:1547   */\n      dup5\n        /* \"#utility.yul\":1531:1537   */\n      dup3\n        /* \"#utility.yul\":1520:1529   */\n      dup6\n        /* \"#utility.yul\":1516:1538   */\n      add\n        /* \"#utility.yul\":1495:1548   */\n      tag_117\n      jump\t// in\n    tag_139:\n        /* \"#utility.yul\":1485:1548   */\n      swap2\n      pop\n        /* \"#utility.yul\":1441:1558   */\n      pop\n        /* \"#utility.yul\":1236:1565   */\n      swap3\n      swap2\n      pop\n      pop\n      jump\t// out\n        /* \"#utility.yul\":1571:2386   */\n    tag_35:\n        /* \"#utility.yul\":1666:1672   */\n      0x00\n        /* \"#utility.yul\":1674:1680   */\n      dup1\n        /* \"#utility.yul\":1682:1688   */\n      0x00\n        /* \"#utility.yul\":1731:1733   */\n      0x60\n        /* \"#utility.yul\":1719:1728   */\n      dup5\n        /* \"#utility.yul\":1710:1717   */\n      dup7\n        /* \"#utility.yul\":1706:1729   */\n      sub\n        /* \"#utility.yul\":1702:1734   */\n      slt\n        /* \"#utility.yul\":1699:1818   */\n      iszero\n      tag_141\n      jumpi\n        /* \"#utility.yul\":1737:1816   */\n      tag_142\n      tag_138\n      jump\t// in\n    tag_142:\n        /* \"#utility.yul\":1699:1818   */\n    tag_141:\n        /* \"#utility.yul\":1885:1886   */\n      0x00\n        /* \"#utility.yul\":1874:1883   */\n      dup5\n        /* \"#utility.yul\":1870:1887   */\n      add\n        /* \"#utility.yul\":1857:1888   */\n      calldataload\n        /* \"#utility.yul\":1915:1933   */\n      0xffffffffffffffff\n        /* \"#utility.yul\":1907:1913   */\n      dup2\n        /* \"#utility.yul\":1904:1934   */\n      gt\n        /* \"#utility.yul\":1901:2018   */\n      iszero\n      tag_143\n      jumpi\n        /* \"#utility.yul\":1937:2016   */\n      tag_144\n      tag_145\n      jump\t// in\n    tag_144:\n        /* \"#utility.yul\":1901:2018   */\n    tag_143:\n        /* \"#utility.yul\":2042:2105   */\n      tag_146\n        /* \"#utility.yul\":2097:2104   */\n      dup7\n        /* \"#utility.yul\":2088:2094   */\n      dup3\n        /* \"#utility.yul\":2077:2086   */\n      dup8\n        /* \"#utility.yul\":2073:2095   */\n      add\n        /* \"#utility.yul\":2042:2105   */\n      tag_125\n      jump\t// in\n    tag_146:\n        /* \"#utility.yul\":2032:2105   */\n      swap4\n      pop\n        /* \"#utility.yul\":1828:2115   */\n      pop\n        /* \"#utility.yul\":2154:2156   */\n      0x20\n        /* \"#utility.yul\":2180:2233   */\n      tag_147\n        /* \"#utility.yul\":2225:2232   */\n      dup7\n        /* \"#utility.yul\":2216:2222   */\n      dup3\n        /* \"#utility.yul\":2205:2214   */\n      dup8\n        /* \"#utility.yul\":2201:2223   */\n      add\n        /* \"#utility.yul\":2180:2233   */\n      tag_131\n      jump\t// in\n    tag_147:\n        /* \"#utility.yul\":2170:2233   */\n      swap3\n      pop\n        /* \"#utility.yul\":2125:2243   */\n      pop\n        /* \"#utility.yul\":2282:2284   */\n      0x40\n        /* \"#utility.yul\":2308:2369   */\n      tag_148\n        /* \"#utility.yul\":2361:2368   */\n      dup7\n        /* \"#utility.yul\":2352:2358   */\n      dup3\n        /* \"#utility.yul\":2341:2350   */\n      dup8\n        /* \"#utility.yul\":2337:2359   */\n      add\n        /* \"#utility.yul\":2308:2369   */\n      tag_121\n      jump\t// in\n    tag_148:\n        /* \"#utility.yul\":2298:2369   */\n      swap2\n      pop\n        /* \"#utility.yul\":2253:2379   */\n      pop\n        /* \"#utility.yul\":1571:2386   */\n      swap3\n      pop\n      swap3\n      pop\n      swap3\n      jump\t// out\n        /* \"#utility.yul\":2392:2721   */\n    tag_21:\n        /* \"#utility.yul\":2451:2457   */\n      0x00\n        /* \"#utility.yul\":2500:2502   */\n      0x20\n        /* \"#utility.yul\":2488:2497   */\n      dup3\n        /* \"#utility.yul\":2479:2486   */\n      dup5\n        /* \"#utility.yul\":2475:2498   */\n      sub\n        /* \"#utility.yul\":2471:2503   */\n      slt\n        /* \"#utility.yul\":2468:2587   */\n      iszero\n      tag_150\n      jumpi\n        /* \"#utility.yul\":2506:2585   */\n      tag_151\n      tag_138\n      jump\t// in\n    tag_151:\n        /* \"#utility.yul\":2468:2587   */\n    tag_150:\n        /* \"#utility.yul\":2626:2627   */\n      0x00\n        /* \"#utility.yul\":2651:2704   */\n      tag_152\n        /* \"#utility.yul\":2696:2703   */\n      dup5\n        /* \"#utility.yul\":2687:2693   */\n      dup3\n        /* \"#utility.yul\":2676:2685   */\n      dup6\n        /* \"#utility.yul\":2672:2694   */\n      add\n        /* \"#utility.yul\":2651:2704   */\n      tag_131\n      jump\t// in\n    tag_152:\n        /* \"#utility.yul\":2641:2704   */\n      swap2\n      pop\n        /* \"#utility.yul\":2597:2714   */\n      pop\n        /* \"#utility.yul\":2392:2721   */\n      swap3\n      swap2\n      pop\n      pop\n      jump\t// out\n        /* \"#utility.yul\":2727:2869   */\n    tag_153:\n        /* \"#utility.yul\":2830:2862   */\n      tag_155\n        /* \"#utility.yul\":2856:2861   */\n      dup2\n        /* \"#utility.yul\":2830:2862   */\n      tag_156\n      jump\t// in\n    tag_155:\n        /* \"#utility.yul\":2825:2828   */\n      dup3\n        /* \"#utility.yul\":2818:2863   */\n      mstore\n        /* \"#utility.yul\":2727:2869   */\n      pop\n      pop\n      jump\t// out\n        /* \"#utility.yul\":2875:2993   */\n    tag_157:\n        /* \"#utility.yul\":2962:2986   */\n      tag_159\n        /* \"#utility.yul\":2980:2985   */\n      dup2\n        /* \"#utility.yul\":2962:2986   */\n      tag_160\n      jump\t// in\n    tag_159:\n        /* \"#utility.yul\":2957:2960   */\n      dup3\n        /* \"#utility.yul\":2950:2987   */\n      mstore\n        /* \"#utility.yul\":2875:2993   */\n      pop\n      pop\n      jump\t// out\n        /* \"#utility.yul\":2999:3108   */\n    tag_161:\n        /* \"#utility.yul\":3080:3101   */\n      tag_163\n        /* \"#utility.yul\":3095:3100   */\n      dup2\n        /* \"#utility.yul\":3080:3101   */\n      tag_164\n      jump\t// in\n    tag_163:\n        /* \"#utility.yul\":3075:3078   */\n      dup3\n        /* \"#utility.yul\":3068:3102   */\n      mstore\n        /* \"#utility.yul\":2999:3108   */\n      pop\n      pop\n      jump\t// out\n        /* \"#utility.yul\":3114:3478   */\n    tag_165:\n        /* \"#utility.yul\":3202:3205   */\n      0x00\n        /* \"#utility.yul\":3230:3269   */\n      tag_167\n        /* \"#utility.yul\":3263:3268   */\n      dup3\n        /* \"#utility.yul\":3230:3269   */\n      tag_168\n      jump\t// in\n    tag_167:\n        /* \"#utility.yul\":3285:3356   */\n      tag_169\n        /* \"#utility.yul\":3349:3355   */\n      dup2\n        /* \"#utility.yul\":3344:3347   */\n      dup6\n        /* \"#utility.yul\":3285:3356   */\n      tag_170\n      jump\t// in\n    tag_169:\n        /* \"#utility.yul\":3278:3356   */\n      swap4\n      pop\n        /* \"#utility.yul\":3365:3417   */\n      tag_171\n        /* \"#utility.yul\":3410:3416   */\n      dup2\n        /* \"#utility.yul\":3405:3408   */\n      dup6\n        /* \"#utility.yul\":3398:3402   */\n      0x20\n        /* \"#utility.yul\":3391:3396   */\n      dup7\n        /* \"#utility.yul\":3387:3403   */\n      add\n        /* \"#utility.yul\":3365:3417   */\n      tag_172\n      jump\t// in\n    tag_171:\n        /* \"#utility.yul\":3442:3471   */\n      tag_173\n        /* \"#utility.yul\":3464:3470   */\n      dup2\n        /* \"#utility.yul\":3442:3471   */\n      tag_174\n      jump\t// in\n    tag_173:\n        /* \"#utility.yul\":3437:3440   */\n      dup5\n        /* \"#utility.yul\":3433:3472   */\n      add\n        /* \"#utility.yul\":3426:3472   */\n      swap2\n      pop\n        /* \"#utility.yul\":3206:3478   */\n      pop\n        /* \"#utility.yul\":3114:3478   */\n      swap3\n      swap2\n      pop\n      pop\n      jump\t// out\n        /* \"#utility.yul\":3484:3850   */\n    tag_175:\n        /* \"#utility.yul\":3626:3629   */\n      0x00\n        /* \"#utility.yul\":3647:3714   */\n      tag_177\n        /* \"#utility.yul\":3711:3713   */\n      0x16\n        /* \"#utility.yul\":3706:3709   */\n      dup4\n        /* \"#utility.yul\":3647:3714   */\n      tag_170\n      jump\t// in\n    tag_177:\n        /* \"#utility.yul\":3640:3714   */\n      swap2\n      pop\n        /* \"#utility.yul\":3723:3816   */\n      tag_178\n        /* \"#utility.yul\":3812:3815   */\n      dup3\n        /* \"#utility.yul\":3723:3816   */\n      tag_179\n      jump\t// in\n    tag_178:\n        /* \"#utility.yul\":3841:3843   */\n      0x20\n        /* \"#utility.yul\":3836:3839   */\n      dup3\n        /* \"#utility.yul\":3832:3844   */\n      add\n        /* \"#utility.yul\":3825:3844   */\n      swap1\n      pop\n        /* \"#utility.yul\":3484:3850   */\n      swap2\n      swap1\n      pop\n      jump\t// out\n        /* \"#utility.yul\":3856:4222   */\n    tag_180:\n        /* \"#utility.yul\":3998:4001   */\n      0x00\n        /* \"#utility.yul\":4019:4086   */\n      tag_182\n        /* \"#utility.yul\":4083:4085   */\n      0x10\n        /* \"#utility.yul\":4078:4081   */\n      dup4\n        /* \"#utility.yul\":4019:4086   */\n      tag_170\n      jump\t// in\n    tag_182:\n        /* \"#utility.yul\":4012:4086   */\n      swap2\n      pop\n        /* \"#utility.yul\":4095:4188   */\n      tag_183\n        /* \"#utility.yul\":4184:4187   */\n      dup3\n        /* \"#utility.yul\":4095:4188   */\n      tag_184\n      jump\t// in\n    tag_183:\n        /* \"#utility.yul\":4213:4215   */\n      0x20\n        /* \"#utility.yul\":4208:4211   */\n      dup3\n        /* \"#utility.yul\":4204:4216   */\n      add\n        /* \"#utility.yul\":4197:4216   */\n      swap1\n      pop\n        /* \"#utility.yul\":3856:4222   */\n      swap2\n      swap1\n      pop\n      jump\t// out\n        /* \"#utility.yul\":4228:4594   */\n    tag_185:\n        /* \"#utility.yul\":4370:4373   */\n      0x00\n        /* \"#utility.yul\":4391:4458   */\n      tag_187\n        /* \"#utility.yul\":4455:4457   */\n      0x14\n        /* \"#utility.yul\":4450:4453   */\n      dup4\n        /* \"#utility.yul\":4391:4458   */\n      tag_170\n      jump\t// in\n    tag_187:\n        /* \"#utility.yul\":4384:4458   */\n      swap2\n      pop\n        /* \"#utility.yul\":4467:4560   */\n      tag_188\n        /* \"#utility.yul\":4556:4559   */\n      dup3\n        /* \"#utility.yul\":4467:4560   */\n      tag_189\n      jump\t// in\n    tag_188:\n        /* \"#utility.yul\":4585:4587   */\n      0x20\n        /* \"#utility.yul\":4580:4583   */\n      dup3\n        /* \"#utility.yul\":4576:4588   */\n      add\n        /* \"#utility.yul\":4569:4588   */\n      swap1\n      pop\n        /* \"#utility.yul\":4228:4594   */\n      swap2\n      swap1\n      pop\n      jump\t// out\n        /* \"#utility.yul\":4600:4966   */\n    tag_190:\n        /* \"#utility.yul\":4742:4745   */\n      0x00\n        /* \"#utility.yul\":4763:4830   */\n      tag_192\n        /* \"#utility.yul\":4827:4829   */\n      0x0c\n        /* \"#utility.yul\":4822:4825   */\n      dup4\n        /* \"#utility.yul\":4763:4830   */\n      tag_170\n      jump\t// in\n    tag_192:\n        /* \"#utility.yul\":4756:4830   */\n      swap2\n      pop\n        /* \"#utility.yul\":4839:4932   */\n      tag_193\n        /* \"#utility.yul\":4928:4931   */\n      dup3\n        /* \"#utility.yul\":4839:4932   */\n      tag_194\n      jump\t// in\n    tag_193:\n        /* \"#utility.yul\":4957:4959   */\n      0x20\n        /* \"#utility.yul\":4952:4955   */\n      dup3\n        /* \"#utility.yul\":4948:4960   */\n      add\n        /* \"#utility.yul\":4941:4960   */\n      swap1\n      pop\n        /* \"#utility.yul\":4600:4966   */\n      swap2\n      swap1\n      pop\n      jump\t// out\n        /* \"#utility.yul\":4972:5338   */\n    tag_195:\n        /* \"#utility.yul\":5114:5117   */\n      0x00\n        /* \"#utility.yul\":5135:5202   */\n      tag_197\n        /* \"#utility.yul\":5199:5201   */\n      0x23\n        /* \"#utility.yul\":5194:5197   */\n      dup4\n        /* \"#utility.yul\":5135:5202   */\n      tag_170\n      jump\t// in\n    tag_197:\n        /* \"#utility.yul\":5128:5202   */\n      swap2\n      pop\n        /* \"#utility.yul\":5211:5304   */\n      tag_198\n        /* \"#utility.yul\":5300:5303   */\n      dup3\n        /* \"#utility.yul\":5211:5304   */\n      tag_199\n      jump\t// in\n    tag_198:\n        /* \"#utility.yul\":5329:5331   */\n      0x40\n        /* \"#utility.yul\":5324:5327   */\n      dup3\n        /* \"#utility.yul\":5320:5332   */\n      add\n        /* \"#utility.yul\":5313:5332   */\n      swap1\n      pop\n        /* \"#utility.yul\":4972:5338   */\n      swap2\n      swap1\n      pop\n      jump\t// out\n        /* \"#utility.yul\":5344:5462   */\n    tag_200:\n        /* \"#utility.yul\":5431:5455   */\n      tag_202\n        /* \"#utility.yul\":5449:5454   */\n      dup2\n        /* \"#utility.yul\":5431:5455   */\n      tag_203\n      jump\t// in\n    tag_202:\n        /* \"#utility.yul\":5426:5429   */\n      dup3\n        /* \"#utility.yul\":5419:5456   */\n      mstore\n        /* \"#utility.yul\":5344:5462   */\n      pop\n      pop\n      jump\t// out\n        /* \"#utility.yul\":5468:5690   */\n    tag_59:\n        /* \"#utility.yul\":5561:5565   */\n      0x00\n        /* \"#utility.yul\":5599:5601   */\n      0x20\n        /* \"#utility.yul\":5588:5597   */\n      dup3\n        /* \"#utility.yul\":5584:5602   */\n      add\n        /* \"#utility.yul\":5576:5602   */\n      swap1\n      pop\n        /* \"#utility.yul\":5612:5683   */\n      tag_205\n        /* \"#utility.yul\":5680:5681   */\n      0x00\n        /* \"#utility.yul\":5669:5678   */\n      dup4\n        /* \"#utility.yul\":5665:5682   */\n      add\n        /* \"#utility.yul\":5656:5662   */\n      dup5\n        /* \"#utility.yul\":5612:5683   */\n      tag_157\n      jump\t// in\n    tag_205:\n        /* \"#utility.yul\":5468:5690   */\n      swap3\n      swap2\n      pop\n      pop\n      jump\t// out\n        /* \"#utility.yul\":5696:6471   */\n    tag_24:\n        /* \"#utility.yul\":5931:5935   */\n      0x00\n        /* \"#utility.yul\":5969:5972   */\n      0xa0\n        /* \"#utility.yul\":5958:5967   */\n      dup3\n        /* \"#utility.yul\":5954:5973   */\n      add\n        /* \"#utility.yul\":5946:5973   */\n      swap1\n      pop\n        /* \"#utility.yul\":6019:6028   */\n      dup2\n        /* \"#utility.yul\":6013:6017   */\n      dup2\n        /* \"#utility.yul\":6009:6029   */\n      sub\n        /* \"#utility.yul\":6005:6006   */\n      0x00\n        /* \"#utility.yul\":5994:6003   */\n      dup4\n        /* \"#utility.yul\":5990:6007   */\n      add\n        /* \"#utility.yul\":5983:6030   */\n      mstore\n        /* \"#utility.yul\":6047:6125   */\n      tag_207\n        /* \"#utility.yul\":6120:6124   */\n      dup2\n        /* \"#utility.yul\":6111:6117   */\n      dup9\n        /* \"#utility.yul\":6047:6125   */\n      tag_165\n      jump\t// in\n    tag_207:\n        /* \"#utility.yul\":6039:6125   */\n      swap1\n      pop\n        /* \"#utility.yul\":6135:6207   */\n      tag_208\n        /* \"#utility.yul\":6203:6205   */\n      0x20\n        /* \"#utility.yul\":6192:6201   */\n      dup4\n        /* \"#utility.yul\":6188:6206   */\n      add\n        /* \"#utility.yul\":6179:6185   */\n      dup8\n        /* \"#utility.yul\":6135:6207   */\n      tag_200\n      jump\t// in\n    tag_208:\n        /* \"#utility.yul\":6217:6305   */\n      tag_209\n        /* \"#utility.yul\":6301:6303   */\n      0x40\n        /* \"#utility.yul\":6290:6299   */\n      dup4\n        /* \"#utility.yul\":6286:6304   */\n      add\n        /* \"#utility.yul\":6277:6283   */\n      dup7\n        /* \"#utility.yul\":6217:6305   */\n      tag_153\n      jump\t// in\n    tag_209:\n        /* \"#utility.yul\":6315:6387   */\n      tag_210\n        /* \"#utility.yul\":6383:6385   */\n      0x60\n        /* \"#utility.yul\":6372:6381   */\n      dup4\n        /* \"#utility.yul\":6368:6386   */\n      add\n        /* \"#utility.yul\":6359:6365   */\n      dup6\n        /* \"#utility.yul\":6315:6387   */\n      tag_200\n      jump\t// in\n    tag_210:\n        /* \"#utility.yul\":6397:6464   */\n      tag_211\n        /* \"#utility.yul\":6459:6462   */\n      0x80\n        /* \"#utility.yul\":6448:6457   */\n      dup4\n        /* \"#utility.yul\":6444:6463   */\n      add\n        /* \"#utility.yul\":6435:6441   */\n      dup5\n        /* \"#utility.yul\":6397:6464   */\n      tag_161\n      jump\t// in\n    tag_211:\n        /* \"#utility.yul\":5696:6471   */\n      swap7\n      swap6\n      pop\n      pop\n      pop\n      pop\n      pop\n      pop\n      jump\t// out\n        /* \"#utility.yul\":6477:6896   */\n    tag_97:\n        /* \"#utility.yul\":6643:6647   */\n      0x00\n        /* \"#utility.yul\":6681:6683   */\n      0x20\n        /* \"#utility.yul\":6670:6679   */\n      dup3\n        /* \"#utility.yul\":6666:6684   */\n      add\n        /* \"#utility.yul\":6658:6684   */\n      swap1\n      pop\n        /* \"#utility.yul\":6730:6739   */\n      dup2\n        /* \"#utility.yul\":6724:6728   */\n      dup2\n        /* \"#utility.yul\":6720:6740   */\n      sub\n        /* \"#utility.yul\":6716:6717   */\n      0x00\n        /* \"#utility.yul\":6705:6714   */\n      dup4\n        /* \"#utility.yul\":6701:6718   */\n      add\n        /* \"#utility.yul\":6694:6741   */\n      mstore\n        /* \"#utility.yul\":6758:6889   */\n      tag_213\n        /* \"#utility.yul\":6884:6888   */\n      dup2\n        /* \"#utility.yul\":6758:6889   */\n      tag_175\n      jump\t// in\n    tag_213:\n        /* \"#utility.yul\":6750:6889   */\n      swap1\n      pop\n        /* \"#utility.yul\":6477:6896   */\n      swap2\n      swap1\n      pop\n      jump\t// out\n        /* \"#utility.yul\":6902:7321   */\n    tag_81:\n        /* \"#utility.yul\":7068:7072   */\n      0x00\n        /* \"#utility.yul\":7106:7108   */\n      0x20\n        /* \"#utility.yul\":7095:7104   */\n      dup3\n        /* \"#utility.yul\":7091:7109   */\n      add\n        /* \"#utility.yul\":7083:7109   */\n      swap1\n      pop\n        /* \"#utility.yul\":7155:7164   */\n      dup2\n        /* \"#utility.yul\":7149:7153   */\n      dup2\n        /* \"#utility.yul\":7145:7165   */\n      sub\n        /* \"#utility.yul\":7141:7142   */\n      0x00\n        /* \"#utility.yul\":7130:7139   */\n      dup4\n        /* \"#utility.yul\":7126:7143   */\n      add\n        /* \"#utility.yul\":7119:7166   */\n      mstore\n        /* \"#utility.yul\":7183:7314   */\n      tag_215\n        /* \"#utility.yul\":7309:7313   */\n      dup2\n        /* \"#utility.yul\":7183:7314   */\n      tag_180\n      jump\t// in\n    tag_215:\n        /* \"#utility.yul\":7175:7314   */\n      swap1\n      pop\n        /* \"#utility.yul\":6902:7321   */\n      swap2\n      swap1\n      pop\n      jump\t// out\n        /* \"#utility.yul\":7327:7746   */\n    tag_94:\n        /* \"#utility.yul\":7493:7497   */\n      0x00\n        /* \"#utility.yul\":7531:7533   */\n      0x20\n        /* \"#utility.yul\":7520:7529   */\n      dup3\n        /* \"#utility.yul\":7516:7534   */\n      add\n        /* \"#utility.yul\":7508:7534   */\n      swap1\n      pop\n        /* \"#utility.yul\":7580:7589   */\n      dup2\n        /* \"#utility.yul\":7574:7578   */\n      dup2\n        /* \"#utility.yul\":7570:7590   */\n      sub\n        /* \"#utility.yul\":7566:7567   */\n      0x00\n        /* \"#utility.yul\":7555:7564   */\n      dup4\n        /* \"#utility.yul\":7551:7568   */\n      add\n        /* \"#utility.yul\":7544:7591   */\n      mstore\n        /* \"#utility.yul\":7608:7739   */\n      tag_217\n        /* \"#utility.yul\":7734:7738   */\n      dup2\n        /* \"#utility.yul\":7608:7739   */\n      tag_185\n      jump\t// in\n    tag_217:\n        /* \"#utility.yul\":7600:7739   */\n      swap1\n      pop\n        /* \"#utility.yul\":7327:7746   */\n      swap2\n      swap1\n      pop\n      jump\t// out\n        /* \"#utility.yul\":7752:8171   */\n    tag_100:\n        /* \"#utility.yul\":7918:7922   */\n      0x00\n        /* \"#utility.yul\":7956:7958   */\n      0x20\n        /* \"#utility.yul\":7945:7954   */\n      dup3\n        /* \"#utility.yul\":7941:7959   */\n      add\n        /* \"#utility.yul\":7933:7959   */\n      swap1\n      pop\n        /* \"#utility.yul\":8005:8014   */\n      dup2\n        /* \"#utility.yul\":7999:8003   */\n      dup2\n        /* \"#utility.yul\":7995:8015   */\n      sub\n        /* \"#utility.yul\":7991:7992   */\n      0x00\n        /* \"#utility.yul\":7980:7989   */\n      dup4\n        /* \"#utility.yul\":7976:7993   */\n      add\n        /* \"#utility.yul\":7969:8016   */\n      mstore\n        /* \"#utility.yul\":8033:8164   */\n      tag_219\n        /* \"#utility.yul\":8159:8163   */\n      dup2\n        /* \"#utility.yul\":8033:8164   */\n      tag_190\n      jump\t// in\n    tag_219:\n        /* \"#utility.yul\":8025:8164   */\n      swap1\n      pop\n        /* \"#utility.yul\":7752:8171   */\n      swap2\n      swap1\n      pop\n      jump\t// out\n        /* \"#utility.yul\":8177:8596   */\n    tag_84:\n        /* \"#utility.yul\":8343:8347   */\n      0x00\n        /* \"#utility.yul\":8381:8383   */\n      0x20\n        /* \"#utility.yul\":8370:8379   */\n      dup3\n        /* \"#utility.yul\":8366:8384   */\n      add\n        /* \"#utility.yul\":8358:8384   */\n      swap1\n      pop\n        /* \"#utility.yul\":8430:8439   */\n      dup2\n        /* \"#utility.yul\":8424:8428   */\n      dup2\n        /* \"#utility.yul\":8420:8440   */\n      sub\n        /* \"#utility.yul\":8416:8417   */\n      0x00\n        /* \"#utility.yul\":8405:8414   */\n      dup4\n        /* \"#utility.yul\":8401:8418   */\n      add\n        /* \"#utility.yul\":8394:8441   */\n      mstore\n        /* \"#utility.yul\":8458:8589   */\n      tag_221\n        /* \"#utility.yul\":8584:8588   */\n      dup2\n        /* \"#utility.yul\":8458:8589   */\n      tag_195\n      jump\t// in\n    tag_221:\n        /* \"#utility.yul\":8450:8589   */\n      swap1\n      pop\n        /* \"#utility.yul\":8177:8596   */\n      swap2\n      swap1\n      pop\n      jump\t// out\n        /* \"#utility.yul\":8602:8824   */\n    tag_31:\n        /* \"#utility.yul\":8695:8699   */\n      0x00\n        /* \"#utility.yul\":8733:8735   */\n      0x20\n        /* \"#utility.yul\":8722:8731   */\n      dup3\n        /* \"#utility.yul\":8718:8736   */\n      add\n        /* \"#utility.yul\":8710:8736   */\n      swap1\n      pop\n        /* \"#utility.yul\":8746:8817   */\n      tag_223\n        /* \"#utility.yul\":8814:8815   */\n      0x00\n        /* \"#utility.yul\":8803:8812   */\n      dup4\n        /* \"#utility.yul\":8799:8816   */\n      add\n        /* \"#utility.yul\":8790:8796   */\n      dup5\n        /* \"#utility.yul\":8746:8817   */\n      tag_200\n      jump\t// in\n    tag_223:\n        /* \"#utility.yul\":8602:8824   */\n      swap3\n      swap2\n      pop\n      pop\n      jump\t// out\n        /* \"#utility.yul\":8830:8959   */\n    tag_111:\n        /* \"#utility.yul\":8864:8870   */\n      0x00\n        /* \"#utility.yul\":8891:8911   */\n      tag_225\n      tag_226\n      jump\t// in\n    tag_225:\n        /* \"#utility.yul\":8881:8911   */\n      swap1\n      pop\n        /* \"#utility.yul\":8920:8953   */\n      tag_227\n        /* \"#utility.yul\":8948:8952   */\n      dup3\n        /* \"#utility.yul\":8940:8946   */\n      dup3\n        /* \"#utility.yul\":8920:8953   */\n      tag_228\n      jump\t// in\n    tag_227:\n        /* \"#utility.yul\":8830:8959   */\n      swap2\n      swap1\n      pop\n      jump\t// out\n        /* \"#utility.yul\":8965:9040   */\n    tag_226:\n        /* \"#utility.yul\":8998:9004   */\n      0x00\n        /* \"#utility.yul\":9031:9033   */\n      0x40\n        /* \"#utility.yul\":9025:9034   */\n      mload\n        /* \"#utility.yul\":9015:9034   */\n      swap1\n      pop\n        /* \"#utility.yul\":8965:9040   */\n      swap1\n      jump\t// out\n        /* \"#utility.yul\":9046:9354   */\n    tag_110:\n        /* \"#utility.yul\":9108:9112   */\n      0x00\n        /* \"#utility.yul\":9198:9216   */\n      0xffffffffffffffff\n        /* \"#utility.yul\":9190:9196   */\n      dup3\n        /* \"#utility.yul\":9187:9217   */\n      gt\n        /* \"#utility.yul\":9184:9240   */\n      iszero\n      tag_231\n      jumpi\n        /* \"#utility.yul\":9220:9238   */\n      tag_232\n      tag_233\n      jump\t// in\n    tag_232:\n        /* \"#utility.yul\":9184:9240   */\n    tag_231:\n        /* \"#utility.yul\":9258:9287   */\n      tag_234\n        /* \"#utility.yul\":9280:9286   */\n      dup3\n        /* \"#utility.yul\":9258:9287   */\n      tag_174\n      jump\t// in\n    tag_234:\n        /* \"#utility.yul\":9250:9287   */\n      swap1\n      pop\n        /* \"#utility.yul\":9342:9346   */\n      0x20\n        /* \"#utility.yul\":9336:9340   */\n      dup2\n        /* \"#utility.yul\":9332:9347   */\n      add\n        /* \"#utility.yul\":9324:9347   */\n      swap1\n      pop\n        /* \"#utility.yul\":9046:9354   */\n      swap2\n      swap1\n      pop\n      jump\t// out\n        /* \"#utility.yul\":9360:9459   */\n    tag_168:\n        /* \"#utility.yul\":9412:9418   */\n      0x00\n        /* \"#utility.yul\":9446:9451   */\n      dup2\n        /* \"#utility.yul\":9440:9452   */\n      mload\n        /* \"#utility.yul\":9430:9452   */\n      swap1\n      pop\n        /* \"#utility.yul\":9360:9459   */\n      swap2\n      swap1\n      pop\n      jump\t// out\n        /* \"#utility.yul\":9465:9634   */\n    tag_170:\n        /* \"#utility.yul\":9549:9560   */\n      0x00\n        /* \"#utility.yul\":9583:9589   */\n      dup3\n        /* \"#utility.yul\":9578:9581   */\n      dup3\n        /* \"#utility.yul\":9571:9590   */\n      mstore\n        /* \"#utility.yul\":9623:9627   */\n      0x20\n        /* \"#utility.yul\":9618:9621   */\n      dup3\n        /* \"#utility.yul\":9614:9628   */\n      add\n        /* \"#utility.yul\":9599:9628   */\n      swap1\n      pop\n        /* \"#utility.yul\":9465:9634   */\n      swap3\n      swap2\n      pop\n      pop\n      jump\t// out\n        /* \"#utility.yul\":9640:9945   */\n    tag_89:\n        /* \"#utility.yul\":9680:9683   */\n      0x00\n        /* \"#utility.yul\":9699:9719   */\n      tag_238\n        /* \"#utility.yul\":9717:9718   */\n      dup3\n        /* \"#utility.yul\":9699:9719   */\n      tag_203\n      jump\t// in\n    tag_238:\n        /* \"#utility.yul\":9694:9719   */\n      swap2\n      pop\n        /* \"#utility.yul\":9733:9753   */\n      tag_239\n        /* \"#utility.yul\":9751:9752   */\n      dup4\n        /* \"#utility.yul\":9733:9753   */\n      tag_203\n      jump\t// in\n    tag_239:\n        /* \"#utility.yul\":9728:9753   */\n      swap3\n      pop\n        /* \"#utility.yul\":9887:9888   */\n      dup3\n        /* \"#utility.yul\":9819:9885   */\n      0xffffffffffffffffffffffffffffffffffffffffffffffffffffffffffffffff\n        /* \"#utility.yul\":9815:9889   */\n      sub\n        /* \"#utility.yul\":9812:9813   */\n      dup3\n        /* \"#utility.yul\":9809:9890   */\n      gt\n        /* \"#utility.yul\":9806:9913   */\n      iszero\n      tag_240\n      jumpi\n        /* \"#utility.yul\":9893:9911   */\n      tag_241\n      tag_242\n      jump\t// in\n    tag_241:\n        /* \"#utility.yul\":9806:9913   */\n    tag_240:\n        /* \"#utility.yul\":9937:9938   */\n      dup3\n        /* \"#utility.yul\":9934:9935   */\n      dup3\n        /* \"#utility.yul\":9930:9939   */\n      add\n        /* \"#utility.yul\":9923:9939   */\n      swap1\n      pop\n        /* \"#utility.yul\":9640:9945   */\n      swap3\n      swap2\n      pop\n      pop\n      jump\t// out\n        /* \"#utility.yul\":9951:10142   */\n    tag_104:\n        /* \"#utility.yul\":9991:9995   */\n      0x00\n        /* \"#utility.yul\":10011:10031   */\n      tag_244\n        /* \"#utility.yul\":10029:10030   */\n      dup3\n        /* \"#utility.yul\":10011:10031   */\n      tag_203\n      jump\t// in\n    tag_244:\n        /* \"#utility.yul\":10006:10031   */\n      swap2\n      pop\n        /* \"#utility.yul\":10045:10065   */\n      tag_245\n        /* \"#utility.yul\":10063:10064   */\n      dup4\n        /* \"#utility.yul\":10045:10065   */\n      tag_203\n      jump\t// in\n    tag_245:\n        /* \"#utility.yul\":10040:10065   */\n      swap3\n      pop\n        /* \"#utility.yul\":10084:10085   */\n      dup3\n        /* \"#utility.yul\":10081:10082   */\n      dup3\n        /* \"#utility.yul\":10078:10086   */\n      lt\n        /* \"#utility.yul\":10075:10109   */\n      iszero\n      tag_246\n      jumpi\n        /* \"#utility.yul\":10089:10107   */\n      tag_247\n      tag_242\n      jump\t// in\n    tag_247:\n        /* \"#utility.yul\":10075:10109   */\n    tag_246:\n        /* \"#utility.yul\":10134:10135   */\n      dup3\n        /* \"#utility.yul\":10131:10132   */\n      dup3\n        /* \"#utility.yul\":10127:10136   */\n      sub\n        /* \"#utility.yul\":10119:10136   */\n      swap1\n      pop\n        /* \"#utility.yul\":9951:10142   */\n      swap3\n      swap2\n      pop\n      pop\n      jump\t// out\n        /* \"#utility.yul\":10148:10244   */\n    tag_160:\n        /* \"#utility.yul\":10185:10192   */\n      0x00\n        /* \"#utility.yul\":10214:10238   */\n      tag_249\n        /* \"#utility.yul\":10232:10237   */\n      dup3\n        /* \"#utility.yul\":10214:10238   */\n      tag_250\n      jump\t// in\n    tag_249:\n        /* \"#utility.yul\":10203:10238   */\n      swap1\n      pop\n        /* \"#utility.yul\":10148:10244   */\n      swap2\n      swap1\n      pop\n      jump\t// out\n        /* \"#utility.yul\":10250:10354   */\n    tag_156:\n        /* \"#utility.yul\":10295:10302   */\n      0x00\n        /* \"#utility.yul\":10324:10348   */\n      tag_252\n        /* \"#utility.yul\":10342:10347   */\n      dup3\n        /* \"#utility.yul\":10324:10348   */\n      tag_250\n      jump\t// in\n    tag_252:\n        /* \"#utility.yul\":10313:10348   */\n      swap1\n      pop\n        /* \"#utility.yul\":10250:10354   */\n      swap2\n      swap1\n      pop\n      jump\t// out\n        /* \"#utility.yul\":10360:10450   */\n    tag_164:\n        /* \"#utility.yul\":10394:10401   */\n      0x00\n        /* \"#utility.yul\":10437:10442   */\n      dup2\n        /* \"#utility.yul\":10430:10443   */\n      iszero\n        /* \"#utility.yul\":10423:10444   */\n      iszero\n        /* \"#utility.yul\":10412:10444   */\n      swap1\n      pop\n        /* \"#utility.yul\":10360:10450   */\n      swap2\n      swap1\n      pop\n      jump\t// out\n        /* \"#utility.yul\":10456:10582   */\n    tag_250:\n        /* \"#utility.yul\":10493:10500   */\n      0x00\n        /* \"#utility.yul\":10533:10575   */\n      0xffffffffffffffffffffffffffffffffffffffff\n        /* \"#utility.yul\":10526:10531   */\n      dup3\n        /* \"#utility.yul\":10522:10576   */\n      and\n        /* \"#utility.yul\":10511:10576   */\n      swap1\n      pop\n        /* \"#utility.yul\":10456:10582   */\n      swap2\n      swap1\n      pop\n      jump\t// out\n        /* \"#utility.yul\":10588:10665   */\n    tag_203:\n        /* \"#utility.yul\":10625:10632   */\n      0x00\n        /* \"#utility.yul\":10654:10659   */\n      dup2\n        /* \"#utility.yul\":10643:10659   */\n      swap1\n      pop\n        /* \"#utility.yul\":10588:10665   */\n      swap2\n      swap1\n      pop\n      jump\t// out\n        /* \"#utility.yul\":10671:10825   */\n    tag_116:\n        /* \"#utility.yul\":10755:10761   */\n      dup3\n        /* \"#utility.yul\":10750:10753   */\n      dup2\n        /* \"#utility.yul\":10745:10748   */\n      dup4\n        /* \"#utility.yul\":10732:10762   */\n      calldatacopy\n        /* \"#utility.yul\":10817:10818   */\n      0x00\n        /* \"#utility.yul\":10808:10814   */\n      dup4\n        /* \"#utility.yul\":10803:10806   */\n      dup4\n        /* \"#utility.yul\":10799:10815   */\n      add\n        /* \"#utility.yul\":10792:10819   */\n      mstore\n        /* \"#utility.yul\":10671:10825   */\n      pop\n      pop\n      pop\n      jump\t// out\n        /* \"#utility.yul\":10831:11138   */\n    tag_172:\n        /* \"#utility.yul\":10899:10900   */\n      0x00\n        /* \"#utility.yul\":10909:11022   */\n    tag_258:\n        /* \"#utility.yul\":10923:10929   */\n      dup4\n        /* \"#utility.yul\":10920:10921   */\n      dup2\n        /* \"#utility.yul\":10917:10930   */\n      lt\n        /* \"#utility.yul\":10909:11022   */\n      iszero\n      tag_260\n      jumpi\n        /* \"#utility.yul\":11008:11009   */\n      dup1\n        /* \"#utility.yul\":11003:11006   */\n      dup3\n        /* \"#utility.yul\":10999:11010   */\n      add\n        /* \"#utility.yul\":10993:11011   */\n      mload\n        /* \"#utility.yul\":10989:10990   */\n      dup2\n        /* \"#utility.yul\":10984:10987   */\n      dup5\n        /* \"#utility.yul\":10980:10991   */\n      add\n        /* \"#utility.yul\":10973:11012   */\n      mstore\n        /* \"#utility.yul\":10945:10947   */\n      0x20\n        /* \"#utility.yul\":10942:10943   */\n      dup2\n        /* \"#utility.yul\":10938:10948   */\n      add\n        /* \"#utility.yul\":10933:10948   */\n      swap1\n      pop\n        /* \"#utility.yul\":10909:11022   */\n      jump(tag_258)\n    tag_260:\n        /* \"#utility.yul\":11040:11046   */\n      dup4\n        /* \"#utility.yul\":11037:11038   */\n      dup2\n        /* \"#utility.yul\":11034:11047   */\n      gt\n        /* \"#utility.yul\":11031:11132   */\n      iszero\n      tag_261\n      jumpi\n        /* \"#utility.yul\":11120:11121   */\n      0x00\n        /* \"#utility.yul\":11111:11117   */\n      dup5\n        /* \"#utility.yul\":11106:11109   */\n      dup5\n        /* \"#utility.yul\":11102:11118   */\n      add\n        /* \"#utility.yul\":11095:11122   */\n      mstore\n        /* \"#utility.yul\":11031:11132   */\n    tag_261:\n        /* \"#utility.yul\":10880:11138   */\n      pop\n        /* \"#utility.yul\":10831:11138   */\n      pop\n      pop\n      pop\n      jump\t// out\n        /* \"#utility.yul\":11144:11464   */\n    tag_72:\n        /* \"#utility.yul\":11188:11194   */\n      0x00\n        /* \"#utility.yul\":11225:11226   */\n      0x02\n        /* \"#utility.yul\":11219:11223   */\n      dup3\n        /* \"#utility.yul\":11215:11227   */\n      div\n        /* \"#utility.yul\":11205:11227   */\n      swap1\n      pop\n        /* \"#utility.yul\":11272:11273   */\n      0x01\n        /* \"#utility.yul\":11266:11270   */\n      dup3\n        /* \"#utility.yul\":11262:11274   */\n      and\n        /* \"#utility.yul\":11293:11311   */\n      dup1\n        /* \"#utility.yul\":11283:11364   */\n      tag_263\n      jumpi\n        /* \"#utility.yul\":11349:11353   */\n      0x7f\n        /* \"#utility.yul\":11341:11347   */\n      dup3\n        /* \"#utility.yul\":11337:11354   */\n      and\n        /* \"#utility.yul\":11327:11354   */\n      swap2\n      pop\n        /* \"#utility.yul\":11283:11364   */\n    tag_263:\n        /* \"#utility.yul\":11411:11413   */\n      0x20\n        /* \"#utility.yul\":11403:11409   */\n      dup3\n        /* \"#utility.yul\":11400:11414   */\n      lt\n        /* \"#utility.yul\":11380:11398   */\n      dup2\n        /* \"#utility.yul\":11377:11415   */\n      eq\n        /* \"#utility.yul\":11374:11458   */\n      iszero\n      tag_264\n      jumpi\n        /* \"#utility.yul\":11430:11448   */\n      tag_265\n      tag_266\n      jump\t// in\n    tag_265:\n        /* \"#utility.yul\":11374:11458   */\n    tag_264:\n        /* \"#utility.yul\":11195:11464   */\n      pop\n        /* \"#utility.yul\":11144:11464   */\n      swap2\n      swap1\n      pop\n      jump\t// out\n        /* \"#utility.yul\":11470:11751   */\n    tag_228:\n        /* \"#utility.yul\":11553:11580   */\n      tag_268\n        /* \"#utility.yul\":11575:11579   */\n      dup3\n        /* \"#utility.yul\":11553:11580   */\n      tag_174\n      jump\t// in\n    tag_268:\n        /* \"#utility.yul\":11545:11551   */\n      dup2\n        /* \"#utility.yul\":11541:11581   */\n      add\n        /* \"#utility.yul\":11683:11689   */\n      dup2\n        /* \"#utility.yul\":11671:11681   */\n      dup2\n        /* \"#utility.yul\":11668:11690   */\n      lt\n        /* \"#utility.yul\":11647:11665   */\n      0xffffffffffffffff\n        /* \"#utility.yul\":11635:11645   */\n      dup3\n        /* \"#utility.yul\":11632:11666   */\n      gt\n        /* \"#utility.yul\":11629:11691   */\n      or\n        /* \"#utility.yul\":11626:11714   */\n      iszero\n      tag_269\n      jumpi\n        /* \"#utility.yul\":11694:11712   */\n      tag_270\n      tag_233\n      jump\t// in\n    tag_270:\n        /* \"#utility.yul\":11626:11714   */\n    tag_269:\n        /* \"#utility.yul\":11734:11744   */\n      dup1\n        /* \"#utility.yul\":11730:11732   */\n      0x40\n        /* \"#utility.yul\":11723:11745   */\n      mstore\n        /* \"#utility.yul\":11513:11751   */\n      pop\n        /* \"#utility.yul\":11470:11751   */\n      pop\n      pop\n      jump\t// out\n        /* \"#utility.yul\":11757:11990   */\n    tag_87:\n        /* \"#utility.yul\":11796:11799   */\n      0x00\n        /* \"#utility.yul\":11819:11843   */\n      tag_272\n        /* \"#utility.yul\":11837:11842   */\n      dup3\n        /* \"#utility.yul\":11819:11843   */\n      tag_203\n      jump\t// in\n    tag_272:\n        /* \"#utility.yul\":11810:11843   */\n      swap2\n      pop\n        /* \"#utility.yul\":11865:11931   */\n      0xffffffffffffffffffffffffffffffffffffffffffffffffffffffffffffffff\n        /* \"#utility.yul\":11858:11863   */\n      dup3\n        /* \"#utility.yul\":11855:11932   */\n      eq\n        /* \"#utility.yul\":11852:11955   */\n      iszero\n      tag_273\n      jumpi\n        /* \"#utility.yul\":11935:11953   */\n      tag_274\n      tag_242\n      jump\t// in\n    tag_274:\n        /* \"#utility.yul\":11852:11955   */\n    tag_273:\n        /* \"#utility.yul\":11982:11983   */\n      0x01\n        /* \"#utility.yul\":11975:11980   */\n      dup3\n        /* \"#utility.yul\":11971:11984   */\n      add\n        /* \"#utility.yul\":11964:11984   */\n      swap1\n      pop\n        /* \"#utility.yul\":11757:11990   */\n      swap2\n      swap1\n      pop\n      jump\t// out\n        /* \"#utility.yul\":11996:12176   */\n    tag_242:\n        /* \"#utility.yul\":12044:12121   */\n      0x4e487b7100000000000000000000000000000000000000000000000000000000\n        /* \"#utility.yul\":12041:12042   */\n      0x00\n        /* \"#utility.yul\":12034:12122   */\n      mstore\n        /* \"#utility.yul\":12141:12145   */\n      0x11\n        /* \"#utility.yul\":12138:12139   */\n      0x04\n        /* \"#utility.yul\":12131:12146   */\n      mstore\n        /* \"#utility.yul\":12165:12169   */\n      0x24\n        /* \"#utility.yul\":12162:12163   */\n      0x00\n        /* \"#utility.yul\":12155:12170   */\n      revert\n        /* \"#utility.yul\":12182:12362   */\n    tag_266:\n        /* \"#utility.yul\":12230:12307   */\n      0x4e487b7100000000000000000000000000000000000000000000000000000000\n        /* \"#utility.yul\":12227:12228   */\n      0x00\n        /* \"#utility.yul\":12220:12308   */\n      mstore\n        /* \"#utility.yul\":12327:12331   */\n      0x22\n        /* \"#utility.yul\":12324:12325   */\n      0x04\n        /* \"#utility.yul\":12317:12332   */\n      mstore\n        /* \"#utility.yul\":12351:12355   */\n      0x24\n        /* \"#utility.yul\":12348:12349   */\n      0x00\n        /* \"#utility.yul\":12341:12356   */\n      revert\n        /* \"#utility.yul\":12368:12548   */\n    tag_233:\n        /* \"#utility.yul\":12416:12493   */\n      0x4e487b7100000000000000000000000000000000000000000000000000000000\n        /* \"#utility.yul\":12413:12414   */\n      0x00\n        /* \"#utility.yul\":12406:12494   */\n      mstore\n        /* \"#utility.yul\":12513:12517   */\n      0x41\n        /* \"#utility.yul\":12510:12511   */\n      0x04\n        /* \"#utility.yul\":12503:12518   */\n      mstore\n        /* \"#utility.yul\":12537:12541   */\n      0x24\n        /* \"#utility.yul\":12534:12535   */\n      0x00\n        /* \"#utility.yul\":12527:12542   */\n      revert\n        /* \"#utility.yul\":12554:12671   */\n    tag_129:\n        /* \"#utility.yul\":12663:12664   */\n      0x00\n        /* \"#utility.yul\":12660:12661   */\n      dup1\n        /* \"#utility.yul\":12653:12665   */\n      revert\n        /* \"#utility.yul\":12677:12794   */\n    tag_114:\n        /* \"#utility.yul\":12786:12787   */\n      0x00\n        /* \"#utility.yul\":12783:12784   */\n      dup1\n        /* \"#utility.yul\":12776:12788   */\n      revert\n        /* \"#utility.yul\":12800:12917   */\n    tag_145:\n        /* \"#utility.yul\":12909:12910   */\n      0x00\n        /* \"#utility.yul\":12906:12907   */\n      dup1\n        /* \"#utility.yul\":12899:12911   */\n      revert\n        /* \"#utility.yul\":12923:13040   */\n    tag_138:\n        /* \"#utility.yul\":13032:13033   */\n      0x00\n        /* \"#utility.yul\":13029:13030   */\n      dup1\n        /* \"#utility.yul\":13022:13034   */\n      revert\n        /* \"#utility.yul\":13046:13148   */\n    tag_174:\n        /* \"#utility.yul\":13087:13093   */\n      0x00\n        /* \"#utility.yul\":13138:13140   */\n      0x1f\n        /* \"#utility.yul\":13134:13141   */\n      not\n        /* \"#utility.yul\":13129:13131   */\n      0x1f\n        /* \"#utility.yul\":13122:13127   */\n      dup4\n        /* \"#utility.yul\":13118:13132   */\n      add\n        /* \"#utility.yul\":13114:13142   */\n      and\n        /* \"#utility.yul\":13104:13142   */\n      swap1\n      pop\n        /* \"#utility.yul\":13046:13148   */\n      swap2\n      swap1\n      pop\n      jump\t// out\n        /* \"#utility.yul\":13154:13326   */\n    tag_179:\n        /* \"#utility.yul\":13294:13318   */\n      0x46756e64696e6720776173207375636365737366756c00000000000000000000\n        /* \"#utility.yul\":13290:13291   */\n      0x00\n        /* \"#utility.yul\":13282:13288   */\n      dup3\n        /* \"#utility.yul\":13278:13292   */\n      add\n        /* \"#utility.yul\":13271:13319   */\n      mstore\n        /* \"#utility.yul\":13154:13326   */\n      pop\n      jump\t// out\n        /* \"#utility.yul\":13332:13498   */\n    tag_184:\n        /* \"#utility.yul\":13472:13490   */\n      0x46756e64696e67206973206f7665722100000000000000000000000000000000\n        /* \"#utility.yul\":13468:13469   */\n      0x00\n        /* \"#utility.yul\":13460:13466   */\n      dup3\n        /* \"#utility.yul\":13456:13470   */\n      add\n        /* \"#utility.yul\":13449:13491   */\n      mstore\n        /* \"#utility.yul\":13332:13498   */\n      pop\n      jump\t// out\n        /* \"#utility.yul\":13504:13674   */\n    tag_189:\n        /* \"#utility.yul\":13644:13666   */\n      0x46756e64696e67206973207374696c6c206f6e21000000000000000000000000\n        /* \"#utility.yul\":13640:13641   */\n      0x00\n        /* \"#utility.yul\":13632:13638   */\n      dup3\n        /* \"#utility.yul\":13628:13642   */\n      add\n        /* \"#utility.yul\":13621:13667   */\n      mstore\n        /* \"#utility.yul\":13504:13674   */\n      pop\n      jump\t// out\n        /* \"#utility.yul\":13680:13842   */\n    tag_194:\n        /* \"#utility.yul\":13820:13834   */\n      0x4e6f7420612066756e6465720000000000000000000000000000000000000000\n        /* \"#utility.yul\":13816:13817   */\n      0x00\n        /* \"#utility.yul\":13808:13814   */\n      dup3\n        /* \"#utility.yul\":13804:13818   */\n      add\n        /* \"#utility.yul\":13797:13835   */\n      mstore\n        /* \"#utility.yul\":13680:13842   */\n      pop\n      jump\t// out\n        /* \"#utility.yul\":13848:14070   */\n    tag_199:\n        /* \"#utility.yul\":13988:14022   */\n      0x4d696e696d756d20616d6f756e74206372697465726961206e6f742073617469\n        /* \"#utility.yul\":13984:13985   */\n      0x00\n        /* \"#utility.yul\":13976:13982   */\n      dup3\n        /* \"#utility.yul\":13972:13986   */\n      add\n        /* \"#utility.yul\":13965:14023   */\n      mstore\n        /* \"#utility.yul\":14057:14062   */\n      0x7366790000000000000000000000000000000000000000000000000000000000\n        /* \"#utility.yul\":14052:14054   */\n      0x20\n        /* \"#utility.yul\":14044:14050   */\n      dup3\n        /* \"#utility.yul\":14040:14055   */\n      add\n        /* \"#utility.yul\":14033:14063   */\n      mstore\n        /* \"#utility.yul\":13848:14070   */\n      pop\n      jump\t// out\n        /* \"#utility.yul\":14076:14198   */\n    tag_120:\n        /* \"#utility.yul\":14149:14173   */\n      tag_289\n        /* \"#utility.yul\":14167:14172   */\n      dup2\n        /* \"#utility.yul\":14149:14173   */\n      tag_160\n      jump\t// in\n    tag_289:\n        /* \"#utility.yul\":14142:14147   */\n      dup2\n        /* \"#utility.yul\":14139:14174   */\n      eq\n        /* \"#utility.yul\":14129:14192   */\n      tag_290\n      jumpi\n        /* \"#utility.yul\":14188:14189   */\n      0x00\n        /* \"#utility.yul\":14185:14186   */\n      dup1\n        /* \"#utility.yul\":14178:14190   */\n      revert\n        /* \"#utility.yul\":14129:14192   */\n    tag_290:\n        /* \"#utility.yul\":14076:14198   */\n      pop\n      jump\t// out\n        /* \"#utility.yul\":14204:14342   */\n    tag_124:\n        /* \"#utility.yul\":14285:14317   */\n      tag_292\n        /* \"#utility.yul\":14311:14316   */\n      dup2\n        /* \"#utility.yul\":14285:14317   */\n      tag_156\n      jump\t// in\n    tag_292:\n        /* \"#utility.yul\":14278:14283   */\n      dup2\n        /* \"#utility.yul\":14275:14318   */\n      eq\n        /* \"#utility.yul\":14265:14336   */\n      tag_293\n      jumpi\n        /* \"#utility.yul\":14332:14333   */\n      0x00\n        /* \"#utility.yul\":14329:14330   */\n      dup1\n        /* \"#utility.yul\":14322:14334   */\n      revert\n        /* \"#utility.yul\":14265:14336   */\n    tag_293:\n        /* \"#utility.yul\":14204:14342   */\n      pop\n      jump\t// out\n        /* \"#utility.yul\":14348:14470   */\n    tag_134:\n        /* \"#utility.yul\":14421:14445   */\n      tag_295\n        /* \"#utility.yul\":14439:14444   */\n      dup2\n        /* \"#utility.yul\":14421:14445   */\n      tag_203\n      jump\t// in\n    tag_295:\n        /* \"#utility.yul\":14414:14419   */\n      dup2\n        /* \"#utility.yul\":14411:14446   */\n      eq\n        /* \"#utility.yul\":14401:14464   */\n      tag_296\n      jumpi\n        /* \"#utility.yul\":14460:14461   */\n      0x00\n        /* \"#utility.yul\":14457:14458   */\n      dup1\n        /* \"#utility.yul\":14450:14462   */\n      revert\n        /* \"#utility.yul\":14401:14464   */\n    tag_296:\n        /* \"#utility.yul\":14348:14470   */\n      pop\n      jump\t// out\n\n    auxdata: 0xa2646970667358221220086d09abcb757635223f9d19057f632a2200f93e2f1e0a3eef7cdf0504b674c564736f6c63430008070033\n}\n",
				"bytecode": {
					"linkReferences": {},
					"object": "60806040523480156200001157600080fd5b506040516200117e3803806200117e8339818101604052810190620000379190620000ba565b8160028190555080426200004c919062000101565b600681905550336000806101000a81548173ffffffffffffffffffffffffffffffffffffffff021916908373ffffffffffffffffffffffffffffffffffffffff1602179055506103e86003819055505050620001b6565b600081519050620000b4816200019c565b92915050565b60008060408385031215620000d457620000d362000197565b5b6000620000e485828601620000a3565b9250506020620000f785828601620000a3565b9150509250929050565b60006200010e826200015e565b91506200011b836200015e565b9250827fffffffffffffffffffffffffffffffffffffffffffffffffffffffffffffffff0382111562000153576200015262000168565b5b828201905092915050565b6000819050919050565b7f4e487b7100000000000000000000000000000000000000000000000000000000600052601160045260246000fd5b600080fd5b620001a7816200015e565b8114620001b357600080fd5b50565b610fb880620001c66000396000f3fe6080604052600436106100ab5760003560e01c806350520b1f1161006457806350520b1f146101df5780636681b9fd146101e95780638da5cb5b146102145780639b2cb5d81461023f578063b2d5ae441461026a578063e89b7c5514610281576100b2565b80630114bd3f146100b7578063031b3677146100f8578063277c3da4146101355780633c2ed32d1461015e5780633e79d1e11461018957806340193883146101b4576100b2565b366100b257005b600080fd5b3480156100c357600080fd5b506100de60048036038101906100d991906108d3565b6102ac565b6040516100ef959493929190610a3f565b60405180910390f35b34801561010457600080fd5b5061011f600480360381019061011a9190610837565b610397565b60405161012c9190610b39565b60405180910390f35b34801561014157600080fd5b5061015c60048036038101906101579190610864565b6103af565b005b34801561016a57600080fd5b506101736103b4565b6040516101809190610b39565b60405180910390f35b34801561019557600080fd5b5061019e6103ba565b6040516101ab9190610b39565b60405180910390f35b3480156101c057600080fd5b506101c96103c0565b6040516101d69190610b39565b60405180910390f35b6101e76103c6565b005b3480156101f557600080fd5b506101fe610521565b60405161020b9190610b39565b60405180910390f35b34801561022057600080fd5b50610229610527565b6040516102369190610a24565b60405180910390f35b34801561024b57600080fd5b5061025461054b565b6040516102619190610b39565b60405180910390f35b34801561027657600080fd5b5061027f610551565b005b34801561028d57600080fd5b50610296610782565b6040516102a39190610b39565b60405180910390f35b60076020528060005260406000206000915090508060000180546102cf90610cec565b80601f01602080910402602001604051908101604052809291908181526020018280546102fb90610cec565b80156103485780601f1061031d57610100808354040283529160200191610348565b820191906000526020600020905b81548152906001019060200180831161032b57829003601f168201915b5050505050908060010154908060020160009054906101000a900473ffffffffffffffffffffffffffffffffffffffff16908060030154908060050160009054906101000a900460ff16905085565b60016020528060005260406000206000915090505481565b505050565b60085481565b60065481565b60025481565b600654421061040a576040517f08c379a000000000000000000000000000000000000000000000000000000000815260040161040190610ab9565b60405180910390fd5b60035434101561044f576040517f08c379a000000000000000000000000000000000000000000000000000000000815260040161044690610b19565b60405180910390fd5b6000600160003373ffffffffffffffffffffffffffffffffffffffff1673ffffffffffffffffffffffffffffffffffffffff1681526020019081526020016000205414156104b057600460008154809291906104aa90610d4f565b91905055505b34600160003373ffffffffffffffffffffffffffffffffffffffff1673ffffffffffffffffffffffffffffffffffffffff16815260200190815260200160002060008282546104ff9190610bc6565b9250508190555034600560008282546105189190610bc6565b92505081905550565b60055481565b60008054906101000a900473ffffffffffffffffffffffffffffffffffffffff1681565b60035481565b6006544211610595576040517f08c379a000000000000000000000000000000000000000000000000000000000815260040161058c90610ad9565b60405180910390fd5b600254600554106105db576040517f08c379a00000000000000000000000000000000000000000000000000000000081526004016105d290610a99565b60405180910390fd5b6000600160003373ffffffffffffffffffffffffffffffffffffffff1673ffffffffffffffffffffffffffffffffffffffff168152602001908152602001600020541161065d576040517f08c379a000000000000000000000000000000000000000000000000000000000815260040161065490610af9565b60405180910390fd5b3373ffffffffffffffffffffffffffffffffffffffff166108fc600160003373ffffffffffffffffffffffffffffffffffffffff1673ffffffffffffffffffffffffffffffffffffffff168152602001908152602001600020549081150290604051600060405180830381858888f193505050501580156106e2573d6000803e3d6000fd5b50600160003373ffffffffffffffffffffffffffffffffffffffff1673ffffffffffffffffffffffffffffffffffffffff16815260200190815260200160002054600560008282546107349190610c1c565b925050819055506000600160003373ffffffffffffffffffffffffffffffffffffffff1673ffffffffffffffffffffffffffffffffffffffff16815260200190815260200160002081905550565b60045481565b600061079b61079684610b79565b610b54565b9050828152602081018484840111156107b7576107b6610e2a565b5b6107c2848285610caa565b509392505050565b6000813590506107d981610f3d565b92915050565b6000813590506107ee81610f54565b92915050565b600082601f83011261080957610808610e25565b5b8135610819848260208601610788565b91505092915050565b60008135905061083181610f6b565b92915050565b60006020828403121561084d5761084c610e34565b5b600061085b848285016107ca565b91505092915050565b60008060006060848603121561087d5761087c610e34565b5b600084013567ffffffffffffffff81111561089b5761089a610e2f565b5b6108a7868287016107f4565b93505060206108b886828701610822565b92505060406108c9868287016107df565b9150509250925092565b6000602082840312156108e9576108e8610e34565b5b60006108f784828501610822565b91505092915050565b61090981610c62565b82525050565b61091881610c50565b82525050565b61092781610c74565b82525050565b600061093882610baa565b6109428185610bb5565b9350610952818560208601610cb9565b61095b81610e39565b840191505092915050565b6000610973601683610bb5565b915061097e82610e4a565b602082019050919050565b6000610996601083610bb5565b91506109a182610e73565b602082019050919050565b60006109b9601483610bb5565b91506109c482610e9c565b602082019050919050565b60006109dc600c83610bb5565b91506109e782610ec5565b602082019050919050565b60006109ff602383610bb5565b9150610a0a82610eee565b604082019050919050565b610a1e81610ca0565b82525050565b6000602082019050610a39600083018461090f565b92915050565b600060a0820190508181036000830152610a59818861092d565b9050610a686020830187610a15565b610a756040830186610900565b610a826060830185610a15565b610a8f608083018461091e565b9695505050505050565b60006020820190508181036000830152610ab281610966565b9050919050565b60006020820190508181036000830152610ad281610989565b9050919050565b60006020820190508181036000830152610af2816109ac565b9050919050565b60006020820190508181036000830152610b12816109cf565b9050919050565b60006020820190508181036000830152610b32816109f2565b9050919050565b6000602082019050610b4e6000830184610a15565b92915050565b6000610b5e610b6f565b9050610b6a8282610d1e565b919050565b6000604051905090565b600067ffffffffffffffff821115610b9457610b93610df6565b5b610b9d82610e39565b9050602081019050919050565b600081519050919050565b600082825260208201905092915050565b6000610bd182610ca0565b9150610bdc83610ca0565b9250827fffffffffffffffffffffffffffffffffffffffffffffffffffffffffffffffff03821115610c1157610c10610d98565b5b828201905092915050565b6000610c2782610ca0565b9150610c3283610ca0565b925082821015610c4557610c44610d98565b5b828203905092915050565b6000610c5b82610c80565b9050919050565b6000610c6d82610c80565b9050919050565b60008115159050919050565b600073ffffffffffffffffffffffffffffffffffffffff82169050919050565b6000819050919050565b82818337600083830152505050565b60005b83811015610cd7578082015181840152602081019050610cbc565b83811115610ce6576000848401525b50505050565b60006002820490506001821680610d0457607f821691505b60208210811415610d1857610d17610dc7565b5b50919050565b610d2782610e39565b810181811067ffffffffffffffff82111715610d4657610d45610df6565b5b80604052505050565b6000610d5a82610ca0565b91507fffffffffffffffffffffffffffffffffffffffffffffffffffffffffffffffff821415610d8d57610d8c610d98565b5b600182019050919050565b7f4e487b7100000000000000000000000000000000000000000000000000000000600052601160045260246000fd5b7f4e487b7100000000000000000000000000000000000000000000000000000000600052602260045260246000fd5b7f4e487b7100000000000000000000000000000000000000000000000000000000600052604160045260246000fd5b600080fd5b600080fd5b600080fd5b600080fd5b6000601f19601f8301169050919050565b7f46756e64696e6720776173207375636365737366756c00000000000000000000600082015250565b7f46756e64696e67206973206f7665722100000000000000000000000000000000600082015250565b7f46756e64696e67206973207374696c6c206f6e21000000000000000000000000600082015250565b7f4e6f7420612066756e6465720000000000000000000000000000000000000000600082015250565b7f4d696e696d756d20616d6f756e74206372697465726961206e6f74207361746960008201527f7366790000000000000000000000000000000000000000000000000000000000602082015250565b610f4681610c50565b8114610f5157600080fd5b50565b610f5d81610c62565b8114610f6857600080fd5b50565b610f7481610ca0565b8114610f7f57600080fd5b5056fea2646970667358221220086d09abcb757635223f9d19057f632a2200f93e2f1e0a3eef7cdf0504b674c564736f6c63430008070033",
					"opcodes": "PUSH1 0x80 PUSH1 0x40 MSTORE CALLVALUE DUP1 ISZERO PUSH3 0x11 JUMPI PUSH1 0x0 DUP1 REVERT JUMPDEST POP PUSH1 0x40 MLOAD PUSH3 0x117E CODESIZE SUB DUP1 PUSH3 0x117E DUP4 CODECOPY DUP2 DUP2 ADD PUSH1 0x40 MSTORE DUP2 ADD SWAP1 PUSH3 0x37 SWAP2 SWAP1 PUSH3 0xBA JUMP JUMPDEST DUP2 PUSH1 0x2 DUP2 SWAP1 SSTORE POP DUP1 TIMESTAMP PUSH3 0x4C SWAP2 SWAP1 PUSH3 0x101 JUMP JUMPDEST PUSH1 0x6 DUP2 SWAP1 SSTORE POP CALLER PUSH1 0x0 DUP1 PUSH2 0x100 EXP DUP2 SLOAD DUP2 PUSH20 0xFFFFFFFFFFFFFFFFFFFFFFFFFFFFFFFFFFFFFFFF MUL NOT AND SWAP1 DUP4 PUSH20 0xFFFFFFFFFFFFFFFFFFFFFFFFFFFFFFFFFFFFFFFF AND MUL OR SWAP1 SSTORE POP PUSH2 0x3E8 PUSH1 0x3 DUP2 SWAP1 SSTORE POP POP POP PUSH3 0x1B6 JUMP JUMPDEST PUSH1 0x0 DUP2 MLOAD SWAP1 POP PUSH3 0xB4 DUP2 PUSH3 0x19C JUMP JUMPDEST SWAP3 SWAP2 POP POP JUMP JUMPDEST PUSH1 0x0 DUP1 PUSH1 0x40 DUP4 DUP6 SUB SLT ISZERO PUSH3 0xD4 JUMPI PUSH3 0xD3 PUSH3 0x197 JUMP JUMPDEST JUMPDEST PUSH1 0x0 PUSH3 0xE4 DUP6 DUP3 DUP7 ADD PUSH3 0xA3 JUMP JUMPDEST SWAP3 POP POP PUSH1 0x20 PUSH3 0xF7 DUP6 DUP3 DUP7 ADD PUSH3 0xA3 JUMP JUMPDEST SWAP2 POP POP SWAP3 POP SWAP3 SWAP1 POP JUMP JUMPDEST PUSH1 0x0 PUSH3 0x10E DUP3 PUSH3 0x15E JUMP JUMPDEST SWAP2 POP PUSH3 0x11B DUP4 PUSH3 0x15E JUMP JUMPDEST SWAP3 POP DUP3 PUSH32 0xFFFFFFFFFFFFFFFFFFFFFFFFFFFFFFFFFFFFFFFFFFFFFFFFFFFFFFFFFFFFFFFF SUB DUP3 GT ISZERO PUSH3 0x153 JUMPI PUSH3 0x152 PUSH3 0x168 JUMP JUMPDEST JUMPDEST DUP3 DUP3 ADD SWAP1 POP SWAP3 SWAP2 POP POP JUMP JUMPDEST PUSH1 0x0 DUP2 SWAP1 POP SWAP2 SWAP1 POP JUMP JUMPDEST PUSH32 0x4E487B7100000000000000000000000000000000000000000000000000000000 PUSH1 0x0 MSTORE PUSH1 0x11 PUSH1 0x4 MSTORE PUSH1 0x24 PUSH1 0x0 REVERT JUMPDEST PUSH1 0x0 DUP1 REVERT JUMPDEST PUSH3 0x1A7 DUP2 PUSH3 0x15E JUMP JUMPDEST DUP2 EQ PUSH3 0x1B3 JUMPI PUSH1 0x0 DUP1 REVERT JUMPDEST POP JUMP JUMPDEST PUSH2 0xFB8 DUP1 PUSH3 0x1C6 PUSH1 0x0 CODECOPY PUSH1 0x0 RETURN INVALID PUSH1 0x80 PUSH1 0x40 MSTORE PUSH1 0x4 CALLDATASIZE LT PUSH2 0xAB JUMPI PUSH1 0x0 CALLDATALOAD PUSH1 0xE0 SHR DUP1 PUSH4 0x50520B1F GT PUSH2 0x64 JUMPI DUP1 PUSH4 0x50520B1F EQ PUSH2 0x1DF JUMPI DUP1 PUSH4 0x6681B9FD EQ PUSH2 0x1E9 JUMPI DUP1 PUSH4 0x8DA5CB5B EQ PUSH2 0x214 JUMPI DUP1 PUSH4 0x9B2CB5D8 EQ PUSH2 0x23F JUMPI DUP1 PUSH4 0xB2D5AE44 EQ PUSH2 0x26A JUMPI DUP1 PUSH4 0xE89B7C55 EQ PUSH2 0x281 JUMPI PUSH2 0xB2 JUMP JUMPDEST DUP1 PUSH4 0x114BD3F EQ PUSH2 0xB7 JUMPI DUP1 PUSH4 0x31B3677 EQ PUSH2 0xF8 JUMPI DUP1 PUSH4 0x277C3DA4 EQ PUSH2 0x135 JUMPI DUP1 PUSH4 0x3C2ED32D EQ PUSH2 0x15E JUMPI DUP1 PUSH4 0x3E79D1E1 EQ PUSH2 0x189 JUMPI DUP1 PUSH4 0x40193883 EQ PUSH2 0x1B4 JUMPI PUSH2 0xB2 JUMP JUMPDEST CALLDATASIZE PUSH2 0xB2 JUMPI STOP JUMPDEST PUSH1 0x0 DUP1 REVERT JUMPDEST CALLVALUE DUP1 ISZERO PUSH2 0xC3 JUMPI PUSH1 0x0 DUP1 REVERT JUMPDEST POP PUSH2 0xDE PUSH1 0x4 DUP1 CALLDATASIZE SUB DUP2 ADD SWAP1 PUSH2 0xD9 SWAP2 SWAP1 PUSH2 0x8D3 JUMP JUMPDEST PUSH2 0x2AC JUMP JUMPDEST PUSH1 0x40 MLOAD PUSH2 0xEF SWAP6 SWAP5 SWAP4 SWAP3 SWAP2 SWAP1 PUSH2 0xA3F JUMP JUMPDEST PUSH1 0x40 MLOAD DUP1 SWAP2 SUB SWAP1 RETURN JUMPDEST CALLVALUE DUP1 ISZERO PUSH2 0x104 JUMPI PUSH1 0x0 DUP1 REVERT JUMPDEST POP PUSH2 0x11F PUSH1 0x4 DUP1 CALLDATASIZE SUB DUP2 ADD SWAP1 PUSH2 0x11A SWAP2 SWAP1 PUSH2 0x837 JUMP JUMPDEST PUSH2 0x397 JUMP JUMPDEST PUSH1 0x40 MLOAD PUSH2 0x12C SWAP2 SWAP1 PUSH2 0xB39 JUMP JUMPDEST PUSH1 0x40 MLOAD DUP1 SWAP2 SUB SWAP1 RETURN JUMPDEST CALLVALUE DUP1 ISZERO PUSH2 0x141 JUMPI PUSH1 0x0 DUP1 REVERT JUMPDEST POP PUSH2 0x15C PUSH1 0x4 DUP1 CALLDATASIZE SUB DUP2 ADD SWAP1 PUSH2 0x157 SWAP2 SWAP1 PUSH2 0x864 JUMP JUMPDEST PUSH2 0x3AF JUMP JUMPDEST STOP JUMPDEST CALLVALUE DUP1 ISZERO PUSH2 0x16A JUMPI PUSH1 0x0 DUP1 REVERT JUMPDEST POP PUSH2 0x173 PUSH2 0x3B4 JUMP JUMPDEST PUSH1 0x40 MLOAD PUSH2 0x180 SWAP2 SWAP1 PUSH2 0xB39 JUMP JUMPDEST PUSH1 0x40 MLOAD DUP1 SWAP2 SUB SWAP1 RETURN JUMPDEST CALLVALUE DUP1 ISZERO PUSH2 0x195 JUMPI PUSH1 0x0 DUP1 REVERT JUMPDEST POP PUSH2 0x19E PUSH2 0x3BA JUMP JUMPDEST PUSH1 0x40 MLOAD PUSH2 0x1AB SWAP2 SWAP1 PUSH2 0xB39 JUMP JUMPDEST PUSH1 0x40 MLOAD DUP1 SWAP2 SUB SWAP1 RETURN JUMPDEST CALLVALUE DUP1 ISZERO PUSH2 0x1C0 JUMPI PUSH1 0x0 DUP1 REVERT JUMPDEST POP PUSH2 0x1C9 PUSH2 0x3C0 JUMP JUMPDEST PUSH1 0x40 MLOAD PUSH2 0x1D6 SWAP2 SWAP1 PUSH2 0xB39 JUMP JUMPDEST PUSH1 0x40 MLOAD DUP1 SWAP2 SUB SWAP1 RETURN JUMPDEST PUSH2 0x1E7 PUSH2 0x3C6 JUMP JUMPDEST STOP JUMPDEST CALLVALUE DUP1 ISZERO PUSH2 0x1F5 JUMPI PUSH1 0x0 DUP1 REVERT JUMPDEST POP PUSH2 0x1FE PUSH2 0x521 JUMP JUMPDEST PUSH1 0x40 MLOAD PUSH2 0x20B SWAP2 SWAP1 PUSH2 0xB39 JUMP JUMPDEST PUSH1 0x40 MLOAD DUP1 SWAP2 SUB SWAP1 RETURN JUMPDEST CALLVALUE DUP1 ISZERO PUSH2 0x220 JUMPI PUSH1 0x0 DUP1 REVERT JUMPDEST POP PUSH2 0x229 PUSH2 0x527 JUMP JUMPDEST PUSH1 0x40 MLOAD PUSH2 0x236 SWAP2 SWAP1 PUSH2 0xA24 JUMP JUMPDEST PUSH1 0x40 MLOAD DUP1 SWAP2 SUB SWAP1 RETURN JUMPDEST CALLVALUE DUP1 ISZERO PUSH2 0x24B JUMPI PUSH1 0x0 DUP1 REVERT JUMPDEST POP PUSH2 0x254 PUSH2 0x54B JUMP JUMPDEST PUSH1 0x40 MLOAD PUSH2 0x261 SWAP2 SWAP1 PUSH2 0xB39 JUMP JUMPDEST PUSH1 0x40 MLOAD DUP1 SWAP2 SUB SWAP1 RETURN JUMPDEST CALLVALUE DUP1 ISZERO PUSH2 0x276 JUMPI PUSH1 0x0 DUP1 REVERT JUMPDEST POP PUSH2 0x27F PUSH2 0x551 JUMP JUMPDEST STOP JUMPDEST CALLVALUE DUP1 ISZERO PUSH2 0x28D JUMPI PUSH1 0x0 DUP1 REVERT JUMPDEST POP PUSH2 0x296 PUSH2 0x782 JUMP JUMPDEST PUSH1 0x40 MLOAD PUSH2 0x2A3 SWAP2 SWAP1 PUSH2 0xB39 JUMP JUMPDEST PUSH1 0x40 MLOAD DUP1 SWAP2 SUB SWAP1 RETURN JUMPDEST PUSH1 0x7 PUSH1 0x20 MSTORE DUP1 PUSH1 0x0 MSTORE PUSH1 0x40 PUSH1 0x0 KECCAK256 PUSH1 0x0 SWAP2 POP SWAP1 POP DUP1 PUSH1 0x0 ADD DUP1 SLOAD PUSH2 0x2CF SWAP1 PUSH2 0xCEC JUMP JUMPDEST DUP1 PUSH1 0x1F ADD PUSH1 0x20 DUP1 SWAP2 DIV MUL PUSH1 0x20 ADD PUSH1 0x40 MLOAD SWAP1 DUP2 ADD PUSH1 0x40 MSTORE DUP1 SWAP3 SWAP2 SWAP1 DUP2 DUP2 MSTORE PUSH1 0x20 ADD DUP3 DUP1 SLOAD PUSH2 0x2FB SWAP1 PUSH2 0xCEC JUMP JUMPDEST DUP1 ISZERO PUSH2 0x348 JUMPI DUP1 PUSH1 0x1F LT PUSH2 0x31D JUMPI PUSH2 0x100 DUP1 DUP4 SLOAD DIV MUL DUP4 MSTORE SWAP2 PUSH1 0x20 ADD SWAP2 PUSH2 0x348 JUMP JUMPDEST DUP3 ADD SWAP2 SWAP1 PUSH1 0x0 MSTORE PUSH1 0x20 PUSH1 0x0 KECCAK256 SWAP1 JUMPDEST DUP2 SLOAD DUP2 MSTORE SWAP1 PUSH1 0x1 ADD SWAP1 PUSH1 0x20 ADD DUP1 DUP4 GT PUSH2 0x32B JUMPI DUP3 SWAP1 SUB PUSH1 0x1F AND DUP3 ADD SWAP2 JUMPDEST POP POP POP POP POP SWAP1 DUP1 PUSH1 0x1 ADD SLOAD SWAP1 DUP1 PUSH1 0x2 ADD PUSH1 0x0 SWAP1 SLOAD SWAP1 PUSH2 0x100 EXP SWAP1 DIV PUSH20 0xFFFFFFFFFFFFFFFFFFFFFFFFFFFFFFFFFFFFFFFF AND SWAP1 DUP1 PUSH1 0x3 ADD SLOAD SWAP1 DUP1 PUSH1 0x5 ADD PUSH1 0x0 SWAP1 SLOAD SWAP1 PUSH2 0x100 EXP SWAP1 DIV PUSH1 0xFF AND SWAP1 POP DUP6 JUMP JUMPDEST PUSH1 0x1 PUSH1 0x20 MSTORE DUP1 PUSH1 0x0 MSTORE PUSH1 0x40 PUSH1 0x0 KECCAK256 PUSH1 0x0 SWAP2 POP SWAP1 POP SLOAD DUP2 JUMP JUMPDEST POP POP POP JUMP JUMPDEST PUSH1 0x8 SLOAD DUP2 JUMP JUMPDEST PUSH1 0x6 SLOAD DUP2 JUMP JUMPDEST PUSH1 0x2 SLOAD DUP2 JUMP JUMPDEST PUSH1 0x6 SLOAD TIMESTAMP LT PUSH2 0x40A JUMPI PUSH1 0x40 MLOAD PUSH32 0x8C379A000000000000000000000000000000000000000000000000000000000 DUP2 MSTORE PUSH1 0x4 ADD PUSH2 0x401 SWAP1 PUSH2 0xAB9 JUMP JUMPDEST PUSH1 0x40 MLOAD DUP1 SWAP2 SUB SWAP1 REVERT JUMPDEST PUSH1 0x3 SLOAD CALLVALUE LT ISZERO PUSH2 0x44F JUMPI PUSH1 0x40 MLOAD PUSH32 0x8C379A000000000000000000000000000000000000000000000000000000000 DUP2 MSTORE PUSH1 0x4 ADD PUSH2 0x446 SWAP1 PUSH2 0xB19 JUMP JUMPDEST PUSH1 0x40 MLOAD DUP1 SWAP2 SUB SWAP1 REVERT JUMPDEST PUSH1 0x0 PUSH1 0x1 PUSH1 0x0 CALLER PUSH20 0xFFFFFFFFFFFFFFFFFFFFFFFFFFFFFFFFFFFFFFFF AND PUSH20 0xFFFFFFFFFFFFFFFFFFFFFFFFFFFFFFFFFFFFFFFF AND DUP2 MSTORE PUSH1 0x20 ADD SWAP1 DUP2 MSTORE PUSH1 0x20 ADD PUSH1 0x0 KECCAK256 SLOAD EQ ISZERO PUSH2 0x4B0 JUMPI PUSH1 0x4 PUSH1 0x0 DUP2 SLOAD DUP1 SWAP3 SWAP2 SWAP1 PUSH2 0x4AA SWAP1 PUSH2 0xD4F JUMP JUMPDEST SWAP2 SWAP1 POP SSTORE POP JUMPDEST CALLVALUE PUSH1 0x1 PUSH1 0x0 CALLER PUSH20 0xFFFFFFFFFFFFFFFFFFFFFFFFFFFFFFFFFFFFFFFF AND PUSH20 0xFFFFFFFFFFFFFFFFFFFFFFFFFFFFFFFFFFFFFFFF AND DUP2 MSTORE PUSH1 0x20 ADD SWAP1 DUP2 MSTORE PUSH1 0x20 ADD PUSH1 0x0 KECCAK256 PUSH1 0x0 DUP3 DUP3 SLOAD PUSH2 0x4FF SWAP2 SWAP1 PUSH2 0xBC6 JUMP JUMPDEST SWAP3 POP POP DUP2 SWAP1 SSTORE POP CALLVALUE PUSH1 0x5 PUSH1 0x0 DUP3 DUP3 SLOAD PUSH2 0x518 SWAP2 SWAP1 PUSH2 0xBC6 JUMP JUMPDEST SWAP3 POP POP DUP2 SWAP1 SSTORE POP JUMP JUMPDEST PUSH1 0x5 SLOAD DUP2 JUMP JUMPDEST PUSH1 0x0 DUP1 SLOAD SWAP1 PUSH2 0x100 EXP SWAP1 DIV PUSH20 0xFFFFFFFFFFFFFFFFFFFFFFFFFFFFFFFFFFFFFFFF AND DUP2 JUMP JUMPDEST PUSH1 0x3 SLOAD DUP2 JUMP JUMPDEST PUSH1 0x6 SLOAD TIMESTAMP GT PUSH2 0x595 JUMPI PUSH1 0x40 MLOAD PUSH32 0x8C379A000000000000000000000000000000000000000000000000000000000 DUP2 MSTORE PUSH1 0x4 ADD PUSH2 0x58C SWAP1 PUSH2 0xAD9 JUMP JUMPDEST PUSH1 0x40 MLOAD DUP1 SWAP2 SUB SWAP1 REVERT JUMPDEST PUSH1 0x2 SLOAD PUSH1 0x5 SLOAD LT PUSH2 0x5DB JUMPI PUSH1 0x40 MLOAD PUSH32 0x8C379A000000000000000000000000000000000000000000000000000000000 DUP2 MSTORE PUSH1 0x4 ADD PUSH2 0x5D2 SWAP1 PUSH2 0xA99 JUMP JUMPDEST PUSH1 0x40 MLOAD DUP1 SWAP2 SUB SWAP1 REVERT JUMPDEST PUSH1 0x0 PUSH1 0x1 PUSH1 0x0 CALLER PUSH20 0xFFFFFFFFFFFFFFFFFFFFFFFFFFFFFFFFFFFFFFFF AND PUSH20 0xFFFFFFFFFFFFFFFFFFFFFFFFFFFFFFFFFFFFFFFF AND DUP2 MSTORE PUSH1 0x20 ADD SWAP1 DUP2 MSTORE PUSH1 0x20 ADD PUSH1 0x0 KECCAK256 SLOAD GT PUSH2 0x65D JUMPI PUSH1 0x40 MLOAD PUSH32 0x8C379A000000000000000000000000000000000000000000000000000000000 DUP2 MSTORE PUSH1 0x4 ADD PUSH2 0x654 SWAP1 PUSH2 0xAF9 JUMP JUMPDEST PUSH1 0x40 MLOAD DUP1 SWAP2 SUB SWAP1 REVERT JUMPDEST CALLER PUSH20 0xFFFFFFFFFFFFFFFFFFFFFFFFFFFFFFFFFFFFFFFF AND PUSH2 0x8FC PUSH1 0x1 PUSH1 0x0 CALLER PUSH20 0xFFFFFFFFFFFFFFFFFFFFFFFFFFFFFFFFFFFFFFFF AND PUSH20 0xFFFFFFFFFFFFFFFFFFFFFFFFFFFFFFFFFFFFFFFF AND DUP2 MSTORE PUSH1 0x20 ADD SWAP1 DUP2 MSTORE PUSH1 0x20 ADD PUSH1 0x0 KECCAK256 SLOAD SWAP1 DUP2 ISZERO MUL SWAP1 PUSH1 0x40 MLOAD PUSH1 0x0 PUSH1 0x40 MLOAD DUP1 DUP4 SUB DUP2 DUP6 DUP9 DUP9 CALL SWAP4 POP POP POP POP ISZERO DUP1 ISZERO PUSH2 0x6E2 JUMPI RETURNDATASIZE PUSH1 0x0 DUP1 RETURNDATACOPY RETURNDATASIZE PUSH1 0x0 REVERT JUMPDEST POP PUSH1 0x1 PUSH1 0x0 CALLER PUSH20 0xFFFFFFFFFFFFFFFFFFFFFFFFFFFFFFFFFFFFFFFF AND PUSH20 0xFFFFFFFFFFFFFFFFFFFFFFFFFFFFFFFFFFFFFFFF AND DUP2 MSTORE PUSH1 0x20 ADD SWAP1 DUP2 MSTORE PUSH1 0x20 ADD PUSH1 0x0 KECCAK256 SLOAD PUSH1 0x5 PUSH1 0x0 DUP3 DUP3 SLOAD PUSH2 0x734 SWAP2 SWAP1 PUSH2 0xC1C JUMP JUMPDEST SWAP3 POP POP DUP2 SWAP1 SSTORE POP PUSH1 0x0 PUSH1 0x1 PUSH1 0x0 CALLER PUSH20 0xFFFFFFFFFFFFFFFFFFFFFFFFFFFFFFFFFFFFFFFF AND PUSH20 0xFFFFFFFFFFFFFFFFFFFFFFFFFFFFFFFFFFFFFFFF AND DUP2 MSTORE PUSH1 0x20 ADD SWAP1 DUP2 MSTORE PUSH1 0x20 ADD PUSH1 0x0 KECCAK256 DUP2 SWAP1 SSTORE POP JUMP JUMPDEST PUSH1 0x4 SLOAD DUP2 JUMP JUMPDEST PUSH1 0x0 PUSH2 0x79B PUSH2 0x796 DUP5 PUSH2 0xB79 JUMP JUMPDEST PUSH2 0xB54 JUMP JUMPDEST SWAP1 POP DUP3 DUP2 MSTORE PUSH1 0x20 DUP2 ADD DUP5 DUP5 DUP5 ADD GT ISZERO PUSH2 0x7B7 JUMPI PUSH2 0x7B6 PUSH2 0xE2A JUMP JUMPDEST JUMPDEST PUSH2 0x7C2 DUP5 DUP3 DUP6 PUSH2 0xCAA JUMP JUMPDEST POP SWAP4 SWAP3 POP POP POP JUMP JUMPDEST PUSH1 0x0 DUP2 CALLDATALOAD SWAP1 POP PUSH2 0x7D9 DUP2 PUSH2 0xF3D JUMP JUMPDEST SWAP3 SWAP2 POP POP JUMP JUMPDEST PUSH1 0x0 DUP2 CALLDATALOAD SWAP1 POP PUSH2 0x7EE DUP2 PUSH2 0xF54 JUMP JUMPDEST SWAP3 SWAP2 POP POP JUMP JUMPDEST PUSH1 0x0 DUP3 PUSH1 0x1F DUP4 ADD SLT PUSH2 0x809 JUMPI PUSH2 0x808 PUSH2 0xE25 JUMP JUMPDEST JUMPDEST DUP2 CALLDATALOAD PUSH2 0x819 DUP5 DUP3 PUSH1 0x20 DUP7 ADD PUSH2 0x788 JUMP JUMPDEST SWAP2 POP POP SWAP3 SWAP2 POP POP JUMP JUMPDEST PUSH1 0x0 DUP2 CALLDATALOAD SWAP1 POP PUSH2 0x831 DUP2 PUSH2 0xF6B JUMP JUMPDEST SWAP3 SWAP2 POP POP JUMP JUMPDEST PUSH1 0x0 PUSH1 0x20 DUP3 DUP5 SUB SLT ISZERO PUSH2 0x84D JUMPI PUSH2 0x84C PUSH2 0xE34 JUMP JUMPDEST JUMPDEST PUSH1 0x0 PUSH2 0x85B DUP5 DUP3 DUP6 ADD PUSH2 0x7CA JUMP JUMPDEST SWAP2 POP POP SWAP3 SWAP2 POP POP JUMP JUMPDEST PUSH1 0x0 DUP1 PUSH1 0x0 PUSH1 0x60 DUP5 DUP7 SUB SLT ISZERO PUSH2 0x87D JUMPI PUSH2 0x87C PUSH2 0xE34 JUMP JUMPDEST JUMPDEST PUSH1 0x0 DUP5 ADD CALLDATALOAD PUSH8 0xFFFFFFFFFFFFFFFF DUP2 GT ISZERO PUSH2 0x89B JUMPI PUSH2 0x89A PUSH2 0xE2F JUMP JUMPDEST JUMPDEST PUSH2 0x8A7 DUP7 DUP3 DUP8 ADD PUSH2 0x7F4 JUMP JUMPDEST SWAP4 POP POP PUSH1 0x20 PUSH2 0x8B8 DUP7 DUP3 DUP8 ADD PUSH2 0x822 JUMP JUMPDEST SWAP3 POP POP PUSH1 0x40 PUSH2 0x8C9 DUP7 DUP3 DUP8 ADD PUSH2 0x7DF JUMP JUMPDEST SWAP2 POP POP SWAP3 POP SWAP3 POP SWAP3 JUMP JUMPDEST PUSH1 0x0 PUSH1 0x20 DUP3 DUP5 SUB SLT ISZERO PUSH2 0x8E9 JUMPI PUSH2 0x8E8 PUSH2 0xE34 JUMP JUMPDEST JUMPDEST PUSH1 0x0 PUSH2 0x8F7 DUP5 DUP3 DUP6 ADD PUSH2 0x822 JUMP JUMPDEST SWAP2 POP POP SWAP3 SWAP2 POP POP JUMP JUMPDEST PUSH2 0x909 DUP2 PUSH2 0xC62 JUMP JUMPDEST DUP3 MSTORE POP POP JUMP JUMPDEST PUSH2 0x918 DUP2 PUSH2 0xC50 JUMP JUMPDEST DUP3 MSTORE POP POP JUMP JUMPDEST PUSH2 0x927 DUP2 PUSH2 0xC74 JUMP JUMPDEST DUP3 MSTORE POP POP JUMP JUMPDEST PUSH1 0x0 PUSH2 0x938 DUP3 PUSH2 0xBAA JUMP JUMPDEST PUSH2 0x942 DUP2 DUP6 PUSH2 0xBB5 JUMP JUMPDEST SWAP4 POP PUSH2 0x952 DUP2 DUP6 PUSH1 0x20 DUP7 ADD PUSH2 0xCB9 JUMP JUMPDEST PUSH2 0x95B DUP2 PUSH2 0xE39 JUMP JUMPDEST DUP5 ADD SWAP2 POP POP SWAP3 SWAP2 POP POP JUMP JUMPDEST PUSH1 0x0 PUSH2 0x973 PUSH1 0x16 DUP4 PUSH2 0xBB5 JUMP JUMPDEST SWAP2 POP PUSH2 0x97E DUP3 PUSH2 0xE4A JUMP JUMPDEST PUSH1 0x20 DUP3 ADD SWAP1 POP SWAP2 SWAP1 POP JUMP JUMPDEST PUSH1 0x0 PUSH2 0x996 PUSH1 0x10 DUP4 PUSH2 0xBB5 JUMP JUMPDEST SWAP2 POP PUSH2 0x9A1 DUP3 PUSH2 0xE73 JUMP JUMPDEST PUSH1 0x20 DUP3 ADD SWAP1 POP SWAP2 SWAP1 POP JUMP JUMPDEST PUSH1 0x0 PUSH2 0x9B9 PUSH1 0x14 DUP4 PUSH2 0xBB5 JUMP JUMPDEST SWAP2 POP PUSH2 0x9C4 DUP3 PUSH2 0xE9C JUMP JUMPDEST PUSH1 0x20 DUP3 ADD SWAP1 POP SWAP2 SWAP1 POP JUMP JUMPDEST PUSH1 0x0 PUSH2 0x9DC PUSH1 0xC DUP4 PUSH2 0xBB5 JUMP JUMPDEST SWAP2 POP PUSH2 0x9E7 DUP3 PUSH2 0xEC5 JUMP JUMPDEST PUSH1 0x20 DUP3 ADD SWAP1 POP SWAP2 SWAP1 POP JUMP JUMPDEST PUSH1 0x0 PUSH2 0x9FF PUSH1 0x23 DUP4 PUSH2 0xBB5 JUMP JUMPDEST SWAP2 POP PUSH2 0xA0A DUP3 PUSH2 0xEEE JUMP JUMPDEST PUSH1 0x40 DUP3 ADD SWAP1 POP SWAP2 SWAP1 POP JUMP JUMPDEST PUSH2 0xA1E DUP2 PUSH2 0xCA0 JUMP JUMPDEST DUP3 MSTORE POP POP JUMP JUMPDEST PUSH1 0x0 PUSH1 0x20 DUP3 ADD SWAP1 POP PUSH2 0xA39 PUSH1 0x0 DUP4 ADD DUP5 PUSH2 0x90F JUMP JUMPDEST SWAP3 SWAP2 POP POP JUMP JUMPDEST PUSH1 0x0 PUSH1 0xA0 DUP3 ADD SWAP1 POP DUP2 DUP2 SUB PUSH1 0x0 DUP4 ADD MSTORE PUSH2 0xA59 DUP2 DUP9 PUSH2 0x92D JUMP JUMPDEST SWAP1 POP PUSH2 0xA68 PUSH1 0x20 DUP4 ADD DUP8 PUSH2 0xA15 JUMP JUMPDEST PUSH2 0xA75 PUSH1 0x40 DUP4 ADD DUP7 PUSH2 0x900 JUMP JUMPDEST PUSH2 0xA82 PUSH1 0x60 DUP4 ADD DUP6 PUSH2 0xA15 JUMP JUMPDEST PUSH2 0xA8F PUSH1 0x80 DUP4 ADD DUP5 PUSH2 0x91E JUMP JUMPDEST SWAP7 SWAP6 POP POP POP POP POP POP JUMP JUMPDEST PUSH1 0x0 PUSH1 0x20 DUP3 ADD SWAP1 POP DUP2 DUP2 SUB PUSH1 0x0 DUP4 ADD MSTORE PUSH2 0xAB2 DUP2 PUSH2 0x966 JUMP JUMPDEST SWAP1 POP SWAP2 SWAP1 POP JUMP JUMPDEST PUSH1 0x0 PUSH1 0x20 DUP3 ADD SWAP1 POP DUP2 DUP2 SUB PUSH1 0x0 DUP4 ADD MSTORE PUSH2 0xAD2 DUP2 PUSH2 0x989 JUMP JUMPDEST SWAP1 POP SWAP2 SWAP1 POP JUMP JUMPDEST PUSH1 0x0 PUSH1 0x20 DUP3 ADD SWAP1 POP DUP2 DUP2 SUB PUSH1 0x0 DUP4 ADD MSTORE PUSH2 0xAF2 DUP2 PUSH2 0x9AC JUMP JUMPDEST SWAP1 POP SWAP2 SWAP1 POP JUMP JUMPDEST PUSH1 0x0 PUSH1 0x20 DUP3 ADD SWAP1 POP DUP2 DUP2 SUB PUSH1 0x0 DUP4 ADD MSTORE PUSH2 0xB12 DUP2 PUSH2 0x9CF JUMP JUMPDEST SWAP1 POP SWAP2 SWAP1 POP JUMP JUMPDEST PUSH1 0x0 PUSH1 0x20 DUP3 ADD SWAP1 POP DUP2 DUP2 SUB PUSH1 0x0 DUP4 ADD MSTORE PUSH2 0xB32 DUP2 PUSH2 0x9F2 JUMP JUMPDEST SWAP1 POP SWAP2 SWAP1 POP JUMP JUMPDEST PUSH1 0x0 PUSH1 0x20 DUP3 ADD SWAP1 POP PUSH2 0xB4E PUSH1 0x0 DUP4 ADD DUP5 PUSH2 0xA15 JUMP JUMPDEST SWAP3 SWAP2 POP POP JUMP JUMPDEST PUSH1 0x0 PUSH2 0xB5E PUSH2 0xB6F JUMP JUMPDEST SWAP1 POP PUSH2 0xB6A DUP3 DUP3 PUSH2 0xD1E JUMP JUMPDEST SWAP2 SWAP1 POP JUMP JUMPDEST PUSH1 0x0 PUSH1 0x40 MLOAD SWAP1 POP SWAP1 JUMP JUMPDEST PUSH1 0x0 PUSH8 0xFFFFFFFFFFFFFFFF DUP3 GT ISZERO PUSH2 0xB94 JUMPI PUSH2 0xB93 PUSH2 0xDF6 JUMP JUMPDEST JUMPDEST PUSH2 0xB9D DUP3 PUSH2 0xE39 JUMP JUMPDEST SWAP1 POP PUSH1 0x20 DUP2 ADD SWAP1 POP SWAP2 SWAP1 POP JUMP JUMPDEST PUSH1 0x0 DUP2 MLOAD SWAP1 POP SWAP2 SWAP1 POP JUMP JUMPDEST PUSH1 0x0 DUP3 DUP3 MSTORE PUSH1 0x20 DUP3 ADD SWAP1 POP SWAP3 SWAP2 POP POP JUMP JUMPDEST PUSH1 0x0 PUSH2 0xBD1 DUP3 PUSH2 0xCA0 JUMP JUMPDEST SWAP2 POP PUSH2 0xBDC DUP4 PUSH2 0xCA0 JUMP JUMPDEST SWAP3 POP DUP3 PUSH32 0xFFFFFFFFFFFFFFFFFFFFFFFFFFFFFFFFFFFFFFFFFFFFFFFFFFFFFFFFFFFFFFFF SUB DUP3 GT ISZERO PUSH2 0xC11 JUMPI PUSH2 0xC10 PUSH2 0xD98 JUMP JUMPDEST JUMPDEST DUP3 DUP3 ADD SWAP1 POP SWAP3 SWAP2 POP POP JUMP JUMPDEST PUSH1 0x0 PUSH2 0xC27 DUP3 PUSH2 0xCA0 JUMP JUMPDEST SWAP2 POP PUSH2 0xC32 DUP4 PUSH2 0xCA0 JUMP JUMPDEST SWAP3 POP DUP3 DUP3 LT ISZERO PUSH2 0xC45 JUMPI PUSH2 0xC44 PUSH2 0xD98 JUMP JUMPDEST JUMPDEST DUP3 DUP3 SUB SWAP1 POP SWAP3 SWAP2 POP POP JUMP JUMPDEST PUSH1 0x0 PUSH2 0xC5B DUP3 PUSH2 0xC80 JUMP JUMPDEST SWAP1 POP SWAP2 SWAP1 POP JUMP JUMPDEST PUSH1 0x0 PUSH2 0xC6D DUP3 PUSH2 0xC80 JUMP JUMPDEST SWAP1 POP SWAP2 SWAP1 POP JUMP JUMPDEST PUSH1 0x0 DUP2 ISZERO ISZERO SWAP1 POP SWAP2 SWAP1 POP JUMP JUMPDEST PUSH1 0x0 PUSH20 0xFFFFFFFFFFFFFFFFFFFFFFFFFFFFFFFFFFFFFFFF DUP3 AND SWAP1 POP SWAP2 SWAP1 POP JUMP JUMPDEST PUSH1 0x0 DUP2 SWAP1 POP SWAP2 SWAP1 POP JUMP JUMPDEST DUP3 DUP2 DUP4 CALLDATACOPY PUSH1 0x0 DUP4 DUP4 ADD MSTORE POP POP POP JUMP JUMPDEST PUSH1 0x0 JUMPDEST DUP4 DUP2 LT ISZERO PUSH2 0xCD7 JUMPI DUP1 DUP3 ADD MLOAD DUP2 DUP5 ADD MSTORE PUSH1 0x20 DUP2 ADD SWAP1 POP PUSH2 0xCBC JUMP JUMPDEST DUP4 DUP2 GT ISZERO PUSH2 0xCE6 JUMPI PUSH1 0x0 DUP5 DUP5 ADD MSTORE JUMPDEST POP POP POP POP JUMP JUMPDEST PUSH1 0x0 PUSH1 0x2 DUP3 DIV SWAP1 POP PUSH1 0x1 DUP3 AND DUP1 PUSH2 0xD04 JUMPI PUSH1 0x7F DUP3 AND SWAP2 POP JUMPDEST PUSH1 0x20 DUP3 LT DUP2 EQ ISZERO PUSH2 0xD18 JUMPI PUSH2 0xD17 PUSH2 0xDC7 JUMP JUMPDEST JUMPDEST POP SWAP2 SWAP1 POP JUMP JUMPDEST PUSH2 0xD27 DUP3 PUSH2 0xE39 JUMP JUMPDEST DUP2 ADD DUP2 DUP2 LT PUSH8 0xFFFFFFFFFFFFFFFF DUP3 GT OR ISZERO PUSH2 0xD46 JUMPI PUSH2 0xD45 PUSH2 0xDF6 JUMP JUMPDEST JUMPDEST DUP1 PUSH1 0x40 MSTORE POP POP POP JUMP JUMPDEST PUSH1 0x0 PUSH2 0xD5A DUP3 PUSH2 0xCA0 JUMP JUMPDEST SWAP2 POP PUSH32 0xFFFFFFFFFFFFFFFFFFFFFFFFFFFFFFFFFFFFFFFFFFFFFFFFFFFFFFFFFFFFFFFF DUP3 EQ ISZERO PUSH2 0xD8D JUMPI PUSH2 0xD8C PUSH2 0xD98 JUMP JUMPDEST JUMPDEST PUSH1 0x1 DUP3 ADD SWAP1 POP SWAP2 SWAP1 POP JUMP JUMPDEST PUSH32 0x4E487B7100000000000000000000000000000000000000000000000000000000 PUSH1 0x0 MSTORE PUSH1 0x11 PUSH1 0x4 MSTORE PUSH1 0x24 PUSH1 0x0 REVERT JUMPDEST PUSH32 0x4E487B7100000000000000000000000000000000000000000000000000000000 PUSH1 0x0 MSTORE PUSH1 0x22 PUSH1 0x4 MSTORE PUSH1 0x24 PUSH1 0x0 REVERT JUMPDEST PUSH32 0x4E487B7100000000000000000000000000000000000000000000000000000000 PUSH1 0x0 MSTORE PUSH1 0x41 PUSH1 0x4 MSTORE PUSH1 0x24 PUSH1 0x0 REVERT JUMPDEST PUSH1 0x0 DUP1 REVERT JUMPDEST PUSH1 0x0 DUP1 REVERT JUMPDEST PUSH1 0x0 DUP1 REVERT JUMPDEST PUSH1 0x0 DUP1 REVERT JUMPDEST PUSH1 0x0 PUSH1 0x1F NOT PUSH1 0x1F DUP4 ADD AND SWAP1 POP SWAP2 SWAP1 POP JUMP JUMPDEST PUSH32 0x46756E64696E6720776173207375636365737366756C00000000000000000000 PUSH1 0x0 DUP3 ADD MSTORE POP JUMP JUMPDEST PUSH32 0x46756E64696E67206973206F7665722100000000000000000000000000000000 PUSH1 0x0 DUP3 ADD MSTORE POP JUMP JUMPDEST PUSH32 0x46756E64696E67206973207374696C6C206F6E21000000000000000000000000 PUSH1 0x0 DUP3 ADD MSTORE POP JUMP JUMPDEST PUSH32 0x4E6F7420612066756E6465720000000000000000000000000000000000000000 PUSH1 0x0 DUP3 ADD MSTORE POP JUMP JUMPDEST PUSH32 0x4D696E696D756D20616D6F756E74206372697465726961206E6F742073617469 PUSH1 0x0 DUP3 ADD MSTORE PUSH32 0x7366790000000000000000000000000000000000000000000000000000000000 PUSH1 0x20 DUP3 ADD MSTORE POP JUMP JUMPDEST PUSH2 0xF46 DUP2 PUSH2 0xC50 JUMP JUMPDEST DUP2 EQ PUSH2 0xF51 JUMPI PUSH1 0x0 DUP1 REVERT JUMPDEST POP JUMP JUMPDEST PUSH2 0xF5D DUP2 PUSH2 0xC62 JUMP JUMPDEST DUP2 EQ PUSH2 0xF68 JUMPI PUSH1 0x0 DUP1 REVERT JUMPDEST POP JUMP JUMPDEST PUSH2 0xF74 DUP2 PUSH2 0xCA0 JUMP JUMPDEST DUP2 EQ PUSH2 0xF7F JUMPI PUSH1 0x0 DUP1 REVERT JUMPDEST POP JUMP INVALID LOG2 PUSH5 0x6970667358 0x22 SLT KECCAK256 ADDMOD PUSH14 0x9ABCB757635223F9D19057F632A 0x22 STOP 0xF9 RETURNDATACOPY 0x2F 0x1E EXP RETURNDATACOPY 0xEF PUSH29 0xDF0504B674C564736F6C63430008070033000000000000000000000000 "
				},
				"gasEstimates": {
					"creation": {
						"codeDepositCost": "804800",
						"executionCost": "infinite",
						"totalCost": "infinite"
					},
					"external": {
						"AllRequests(uint256)": "infinite",
						"contribution()": "infinite",
						"createRequests(string,uint256,address)": "infinite",
						"funders(address)": "2837",
						"fundsRaised()": "2451",
						"getRefund()": "infinite",
						"goal()": "2540",
						"minAmount()": "2495",
						"noOfFounders()": "2539",
						"numReq()": "2496",
						"owner()": "2555",
						"timePeriod()": "2518"
					}
				},
				"methodIdentifiers": {
					"AllRequests(uint256)": "0114bd3f",
					"contribution()": "50520b1f",
					"createRequests(string,uint256,address)": "277c3da4",
					"funders(address)": "031b3677",
					"fundsRaised()": "6681b9fd",
					"getRefund()": "b2d5ae44",
					"goal()": "40193883",
					"minAmount()": "9b2cb5d8",
					"noOfFounders()": "e89b7c55",
					"numReq()": "3c2ed32d",
					"owner()": "8da5cb5b",
					"timePeriod()": "3e79d1e1"
				}
			},
			"storageLayout": {
				"storage": [
					{
						"astId": 3,
						"contract": "CrowdFunding.sol:main",
						"label": "owner",
						"offset": 0,
						"slot": "0",
						"type": "t_address"
					},
					{
						"astId": 7,
						"contract": "CrowdFunding.sol:main",
						"label": "funders",
						"offset": 0,
						"slot": "1",
						"type": "t_mapping(t_address,t_uint256)"
					},
					{
						"astId": 9,
						"contract": "CrowdFunding.sol:main",
						"label": "goal",
						"offset": 0,
						"slot": "2",
						"type": "t_uint256"
					},
					{
						"astId": 11,
						"contract": "CrowdFunding.sol:main",
						"label": "minAmount",
						"offset": 0,
						"slot": "3",
						"type": "t_uint256"
					},
					{
						"astId": 13,
						"contract": "CrowdFunding.sol:main",
						"label": "noOfFounders",
						"offset": 0,
						"slot": "4",
						"type": "t_uint256"
					},
					{
						"astId": 15,
						"contract": "CrowdFunding.sol:main",
						"label": "fundsRaised",
						"offset": 0,
						"slot": "5",
						"type": "t_uint256"
					},
					{
						"astId": 17,
						"contract": "CrowdFunding.sol:main",
						"label": "timePeriod",
						"offset": 0,
						"slot": "6",
						"type": "t_uint256"
					},
					{
						"astId": 180,
						"contract": "CrowdFunding.sol:main",
						"label": "AllRequests",
						"offset": 0,
						"slot": "7",
						"type": "t_mapping(t_uint256,t_struct(Requests)175_storage)"
					},
					{
						"astId": 182,
						"contract": "CrowdFunding.sol:main",
						"label": "numReq",
						"offset": 0,
						"slot": "8",
						"type": "t_uint256"
					}
				],
				"types": {
					"t_address": {
						"encoding": "inplace",
						"label": "address",
						"numberOfBytes": "20"
					},
					"t_address_payable": {
						"encoding": "inplace",
						"label": "address payable",
						"numberOfBytes": "20"
					},
					"t_bool": {
						"encoding": "inplace",
						"label": "bool",
						"numberOfBytes": "1"
					},
					"t_mapping(t_address,t_bool)": {
						"encoding": "mapping",
						"key": "t_address",
						"label": "mapping(address => bool)",
						"numberOfBytes": "32",
						"value": "t_bool"
					},
					"t_mapping(t_address,t_uint256)": {
						"encoding": "mapping",
						"key": "t_address",
						"label": "mapping(address => uint256)",
						"numberOfBytes": "32",
						"value": "t_uint256"
					},
					"t_mapping(t_uint256,t_struct(Requests)175_storage)": {
						"encoding": "mapping",
						"key": "t_uint256",
						"label": "mapping(uint256 => struct main.Requests)",
						"numberOfBytes": "32",
						"value": "t_struct(Requests)175_storage"
					},
					"t_string_storage": {
						"encoding": "bytes",
						"label": "string",
						"numberOfBytes": "32"
					},
					"t_struct(Requests)175_storage": {
						"encoding": "inplace",
						"label": "struct main.Requests",
						"members": [
							{
								"astId": 162,
								"contract": "CrowdFunding.sol:main",
								"label": "description",
								"offset": 0,
								"slot": "0",
								"type": "t_string_storage"
							},
							{
								"astId": 164,
								"contract": "CrowdFunding.sol:main",
								"label": "amount",
								"offset": 0,
								"slot": "1",
								"type": "t_uint256"
							},
							{
								"astId": 166,
								"contract": "CrowdFunding.sol:main",
								"label": "receiver",
								"offset": 0,
								"slot": "2",
								"type": "t_address_payable"
							},
							{
								"astId": 168,
								"contract": "CrowdFunding.sol:main",
								"label": "noOfVotes",
								"offset": 0,
								"slot": "3",
								"type": "t_uint256"
							},
							{
								"astId": 172,
								"contract": "CrowdFunding.sol:main",
								"label": "votes",
								"offset": 0,
								"slot": "4",
								"type": "t_mapping(t_address,t_bool)"
							},
							{
								"astId": 174,
								"contract": "CrowdFunding.sol:main",
								"label": "completed",
								"offset": 0,
								"slot": "5",
								"type": "t_bool"
							}
						],
						"numberOfBytes": "192"
					},
					"t_uint256": {
						"encoding": "inplace",
						"label": "uint256",
						"numberOfBytes": "32"
					}
				}
			},
			"userdoc": {
				"kind": "user",
				"methods": {},
				"version": 1
			}
		}
	}
}