{
	"CrowdFunding.sol": {
		"main": {
			"abi": [
				{
					"inputs": [
						{
							"internalType": "uint256",
							"name": "_goal",
							"type": "uint256"
						},
						{
							"internalType": "uint256",
							"name": "_timePeriod",
							"type": "uint256"
						}
					],
					"stateMutability": "nonpayable",
					"type": "constructor"
				},
				{
					"inputs": [
						{
							"internalType": "uint256",
							"name": "",
							"type": "uint256"
						}
					],
					"name": "AllRequests",
					"outputs": [
						{
							"internalType": "string",
							"name": "description",
							"type": "string"
						},
						{
							"internalType": "uint256",
							"name": "amount",
							"type": "uint256"
						},
						{
							"internalType": "address payable",
							"name": "receiver",
							"type": "address"
						},
						{
							"internalType": "uint256",
							"name": "noOfVotes",
							"type": "uint256"
						},
						{
							"internalType": "bool",
							"name": "completed",
							"type": "bool"
						}
					],
					"stateMutability": "view",
					"type": "function"
				},
				{
					"inputs": [],
					"name": "contribution",
					"outputs": [],
					"stateMutability": "payable",
					"type": "function"
				},
				{
					"inputs": [
						{
							"internalType": "string",
							"name": "_description",
							"type": "string"
						},
						{
							"internalType": "uint256",
							"name": "_amount",
							"type": "uint256"
						},
						{
							"internalType": "address payable",
							"name": "_receiver",
							"type": "address"
						}
					],
					"name": "createRequests",
					"outputs": [],
					"stateMutability": "nonpayable",
					"type": "function"
				},
				{
					"inputs": [
						{
							"internalType": "address",
							"name": "",
							"type": "address"
						}
					],
					"name": "funders",
					"outputs": [
						{
							"internalType": "uint256",
							"name": "",
							"type": "uint256"
						}
					],
					"stateMutability": "view",
					"type": "function"
				},
				{
					"inputs": [],
					"name": "fundsRaised",
					"outputs": [
						{
							"internalType": "uint256",
							"name": "",
							"type": "uint256"
						}
					],
					"stateMutability": "view",
					"type": "function"
				},
				{
					"inputs": [],
					"name": "getRefund",
					"outputs": [],
					"stateMutability": "nonpayable",
					"type": "function"
				},
				{
					"inputs": [],
					"name": "goal",
					"outputs": [
						{
							"internalType": "uint256",
							"name": "",
							"type": "uint256"
						}
					],
					"stateMutability": "view",
					"type": "function"
				},
				{
					"inputs": [],
					"name": "minAmount",
					"outputs": [
						{
							"internalType": "uint256",
							"name": "",
							"type": "uint256"
						}
					],
					"stateMutability": "view",
					"type": "function"
				},
				{
					"inputs": [],
					"name": "noOfFounders",
					"outputs": [
						{
							"internalType": "uint256",
							"name": "",
							"type": "uint256"
						}
					],
					"stateMutability": "view",
					"type": "function"
				},
				{
					"inputs": [],
					"name": "numReq",
					"outputs": [
						{
							"internalType": "uint256",
							"name": "",
							"type": "uint256"
						}
					],
					"stateMutability": "view",
					"type": "function"
				},
				{
					"inputs": [],
					"name": "owner",
					"outputs": [
						{
							"internalType": "address",
							"name": "",
							"type": "address"
						}
					],
					"stateMutability": "view",
					"type": "function"
				},
				{
					"inputs": [],
					"name": "timePeriod",
					"outputs": [
						{
							"internalType": "uint256",
							"name": "",
							"type": "uint256"
						}
					],
					"stateMutability": "view",
					"type": "function"
				},
				{
					"inputs": [
						{
							"internalType": "uint256",
							"name": "_reqNum",
							"type": "uint256"
						}
					],
					"name": "votingForRequest",
					"outputs": [],
					"stateMutability": "nonpayable",
					"type": "function"
				},
				{
					"stateMutability": "payable",
					"type": "receive"
				}
			],
			"devdoc": {
				"kind": "dev",
				"methods": {},
				"version": 1
			},
			"evm": {
				"assembly": "    /* \"CrowdFunding.sol\":59:2414  contract main {\r... */\n  mstore(0x40, 0x80)\n    /* \"CrowdFunding.sol\":311:496  constructor(uint _goal, uint _timePeriod){\r... */\n  callvalue\n  dup1\n  iszero\n  tag_1\n  jumpi\n  0x00\n  dup1\n  revert\ntag_1:\n  pop\n  mload(0x40)\n  sub(codesize, bytecodeSize)\n  dup1\n  bytecodeSize\n  dup4\n  codecopy\n  dup2\n  dup2\n  add\n  0x40\n  mstore\n  dup2\n  add\n  swap1\n  tag_2\n  swap2\n  swap1\n  tag_3\n  jump\t// in\ntag_2:\n    /* \"CrowdFunding.sol\":370:375  _goal */\n  dup2\n    /* \"CrowdFunding.sol\":363:367  goal */\n  0x02\n    /* \"CrowdFunding.sol\":363:375  goal = _goal */\n  dup2\n  swap1\n  sstore\n  pop\n    /* \"CrowdFunding.sol\":417:428  _timePeriod */\n  dup1\n    /* \"CrowdFunding.sol\":399:414  block.timestamp */\n  timestamp\n    /* \"CrowdFunding.sol\":399:428  block.timestamp + _timePeriod */\n  tag_6\n  swap2\n  swap1\n  tag_7\n  jump\t// in\ntag_6:\n    /* \"CrowdFunding.sol\":386:396  timePeriod */\n  0x06\n    /* \"CrowdFunding.sol\":386:428  timePeriod = block.timestamp + _timePeriod */\n  dup2\n  swap1\n  sstore\n  pop\n    /* \"CrowdFunding.sol\":447:457  msg.sender */\n  caller\n    /* \"CrowdFunding.sol\":439:444  owner */\n  0x00\n  dup1\n    /* \"CrowdFunding.sol\":439:457  owner = msg.sender */\n  0x0100\n  exp\n  dup2\n  sload\n  dup2\n  0xffffffffffffffffffffffffffffffffffffffff\n  mul\n  not\n  and\n  swap1\n  dup4\n  0xffffffffffffffffffffffffffffffffffffffff\n  and\n  mul\n  or\n  swap1\n  sstore\n  pop\n    /* \"CrowdFunding.sol\":480:488  1000 wei */\n  0x03e8\n    /* \"CrowdFunding.sol\":468:477  minAmount */\n  0x03\n    /* \"CrowdFunding.sol\":468:488  minAmount = 1000 wei */\n  dup2\n  swap1\n  sstore\n  pop\n    /* \"CrowdFunding.sol\":311:496  constructor(uint _goal, uint _timePeriod){\r... */\n  pop\n  pop\n    /* \"CrowdFunding.sol\":59:2414  contract main {\r... */\n  jump(tag_8)\n    /* \"#utility.yul\":7:150   */\ntag_10:\n    /* \"#utility.yul\":64:69   */\n  0x00\n    /* \"#utility.yul\":95:101   */\n  dup2\n    /* \"#utility.yul\":89:102   */\n  mload\n    /* \"#utility.yul\":80:102   */\n  swap1\n  pop\n    /* \"#utility.yul\":111:144   */\n  tag_12\n    /* \"#utility.yul\":138:143   */\n  dup2\n    /* \"#utility.yul\":111:144   */\n  tag_13\n  jump\t// in\ntag_12:\n    /* \"#utility.yul\":7:150   */\n  swap3\n  swap2\n  pop\n  pop\n  jump\t// out\n    /* \"#utility.yul\":156:663   */\ntag_3:\n    /* \"#utility.yul\":235:241   */\n  0x00\n    /* \"#utility.yul\":243:249   */\n  dup1\n    /* \"#utility.yul\":292:294   */\n  0x40\n    /* \"#utility.yul\":280:289   */\n  dup4\n    /* \"#utility.yul\":271:278   */\n  dup6\n    /* \"#utility.yul\":267:290   */\n  sub\n    /* \"#utility.yul\":263:295   */\n  slt\n    /* \"#utility.yul\":260:379   */\n  iszero\n  tag_15\n  jumpi\n    /* \"#utility.yul\":298:377   */\n  tag_16\n  tag_17\n  jump\t// in\ntag_16:\n    /* \"#utility.yul\":260:379   */\ntag_15:\n    /* \"#utility.yul\":418:419   */\n  0x00\n    /* \"#utility.yul\":443:507   */\n  tag_18\n    /* \"#utility.yul\":499:506   */\n  dup6\n    /* \"#utility.yul\":490:496   */\n  dup3\n    /* \"#utility.yul\":479:488   */\n  dup7\n    /* \"#utility.yul\":475:497   */\n  add\n    /* \"#utility.yul\":443:507   */\n  tag_10\n  jump\t// in\ntag_18:\n    /* \"#utility.yul\":433:507   */\n  swap3\n  pop\n    /* \"#utility.yul\":389:517   */\n  pop\n    /* \"#utility.yul\":556:558   */\n  0x20\n    /* \"#utility.yul\":582:646   */\n  tag_19\n    /* \"#utility.yul\":638:645   */\n  dup6\n    /* \"#utility.yul\":629:635   */\n  dup3\n    /* \"#utility.yul\":618:627   */\n  dup7\n    /* \"#utility.yul\":614:636   */\n  add\n    /* \"#utility.yul\":582:646   */\n  tag_10\n  jump\t// in\ntag_19:\n    /* \"#utility.yul\":572:646   */\n  swap2\n  pop\n    /* \"#utility.yul\":527:656   */\n  pop\n    /* \"#utility.yul\":156:663   */\n  swap3\n  pop\n  swap3\n  swap1\n  pop\n  jump\t// out\n    /* \"#utility.yul\":750:1055   */\ntag_7:\n    /* \"#utility.yul\":790:793   */\n  0x00\n    /* \"#utility.yul\":809:829   */\n  tag_23\n    /* \"#utility.yul\":827:828   */\n  dup3\n    /* \"#utility.yul\":809:829   */\n  tag_24\n  jump\t// in\ntag_23:\n    /* \"#utility.yul\":804:829   */\n  swap2\n  pop\n    /* \"#utility.yul\":843:863   */\n  tag_25\n    /* \"#utility.yul\":861:862   */\n  dup4\n    /* \"#utility.yul\":843:863   */\n  tag_24\n  jump\t// in\ntag_25:\n    /* \"#utility.yul\":838:863   */\n  swap3\n  pop\n    /* \"#utility.yul\":997:998   */\n  dup3\n    /* \"#utility.yul\":929:995   */\n  0xffffffffffffffffffffffffffffffffffffffffffffffffffffffffffffffff\n    /* \"#utility.yul\":925:999   */\n  sub\n    /* \"#utility.yul\":922:923   */\n  dup3\n    /* \"#utility.yul\":919:1000   */\n  gt\n    /* \"#utility.yul\":916:1023   */\n  iszero\n  tag_26\n  jumpi\n    /* \"#utility.yul\":1003:1021   */\n  tag_27\n  tag_28\n  jump\t// in\ntag_27:\n    /* \"#utility.yul\":916:1023   */\ntag_26:\n    /* \"#utility.yul\":1047:1048   */\n  dup3\n    /* \"#utility.yul\":1044:1045   */\n  dup3\n    /* \"#utility.yul\":1040:1049   */\n  add\n    /* \"#utility.yul\":1033:1049   */\n  swap1\n  pop\n    /* \"#utility.yul\":750:1055   */\n  swap3\n  swap2\n  pop\n  pop\n  jump\t// out\n    /* \"#utility.yul\":1061:1138   */\ntag_24:\n    /* \"#utility.yul\":1098:1105   */\n  0x00\n    /* \"#utility.yul\":1127:1132   */\n  dup2\n    /* \"#utility.yul\":1116:1132   */\n  swap1\n  pop\n    /* \"#utility.yul\":1061:1138   */\n  swap2\n  swap1\n  pop\n  jump\t// out\n    /* \"#utility.yul\":1144:1324   */\ntag_28:\n    /* \"#utility.yul\":1192:1269   */\n  0x4e487b7100000000000000000000000000000000000000000000000000000000\n    /* \"#utility.yul\":1189:1190   */\n  0x00\n    /* \"#utility.yul\":1182:1270   */\n  mstore\n    /* \"#utility.yul\":1289:1293   */\n  0x11\n    /* \"#utility.yul\":1286:1287   */\n  0x04\n    /* \"#utility.yul\":1279:1294   */\n  mstore\n    /* \"#utility.yul\":1313:1317   */\n  0x24\n    /* \"#utility.yul\":1310:1311   */\n  0x00\n    /* \"#utility.yul\":1303:1318   */\n  revert\n    /* \"#utility.yul\":1453:1570   */\ntag_17:\n    /* \"#utility.yul\":1562:1563   */\n  0x00\n    /* \"#utility.yul\":1559:1560   */\n  dup1\n    /* \"#utility.yul\":1552:1564   */\n  revert\n    /* \"#utility.yul\":1576:1698   */\ntag_13:\n    /* \"#utility.yul\":1649:1673   */\n  tag_35\n    /* \"#utility.yul\":1667:1672   */\n  dup2\n    /* \"#utility.yul\":1649:1673   */\n  tag_24\n  jump\t// in\ntag_35:\n    /* \"#utility.yul\":1642:1647   */\n  dup2\n    /* \"#utility.yul\":1639:1674   */\n  eq\n    /* \"#utility.yul\":1629:1692   */\n  tag_36\n  jumpi\n    /* \"#utility.yul\":1688:1689   */\n  0x00\n    /* \"#utility.yul\":1685:1686   */\n  dup1\n    /* \"#utility.yul\":1678:1690   */\n  revert\n    /* \"#utility.yul\":1629:1692   */\ntag_36:\n    /* \"#utility.yul\":1576:1698   */\n  pop\n  jump\t// out\n    /* \"CrowdFunding.sol\":59:2414  contract main {\r... */\ntag_8:\n  dataSize(sub_0)\n  dup1\n  dataOffset(sub_0)\n  0x00\n  codecopy\n  0x00\n  return\nstop\n\nsub_0: assembly {\n        /* \"CrowdFunding.sol\":59:2414  contract main {\r... */\n      mstore(0x40, 0x80)\n      jumpi(tag_1, lt(calldatasize, 0x04))\n      shr(0xe0, calldataload(0x00))\n      dup1\n      0x50520b1f\n      gt\n      tag_16\n      jumpi\n      dup1\n      0x9b2cb5d8\n      gt\n      tag_17\n      jumpi\n      dup1\n      0x9b2cb5d8\n      eq\n      tag_12\n      jumpi\n      dup1\n      0xb0636556\n      eq\n      tag_13\n      jumpi\n      dup1\n      0xb2d5ae44\n      eq\n      tag_14\n      jumpi\n      dup1\n      0xe89b7c55\n      eq\n      tag_15\n      jumpi\n      jump(tag_2)\n    tag_17:\n      dup1\n      0x50520b1f\n      eq\n      tag_9\n      jumpi\n      dup1\n      0x6681b9fd\n      eq\n      tag_10\n      jumpi\n      dup1\n      0x8da5cb5b\n      eq\n      tag_11\n      jumpi\n      jump(tag_2)\n    tag_16:\n      dup1\n      0x0114bd3f\n      eq\n      tag_3\n      jumpi\n      dup1\n      0x031b3677\n      eq\n      tag_4\n      jumpi\n      dup1\n      0x277c3da4\n      eq\n      tag_5\n      jumpi\n      dup1\n      0x3c2ed32d\n      eq\n      tag_6\n      jumpi\n      dup1\n      0x3e79d1e1\n      eq\n      tag_7\n      jumpi\n      dup1\n      0x40193883\n      eq\n      tag_8\n      jumpi\n      jump(tag_2)\n    tag_1:\n      jumpi(tag_2, calldatasize)\n      stop\n    tag_2:\n      0x00\n      dup1\n      revert\n        /* \"CrowdFunding.sol\":1607:1652  mapping (uint => Requests) public AllRequests */\n    tag_3:\n      callvalue\n      dup1\n      iszero\n      tag_20\n      jumpi\n      0x00\n      dup1\n      revert\n    tag_20:\n      pop\n      tag_21\n      0x04\n      dup1\n      calldatasize\n      sub\n      dup2\n      add\n      swap1\n      tag_22\n      swap2\n      swap1\n      tag_23\n      jump\t// in\n    tag_22:\n      tag_24\n      jump\t// in\n    tag_21:\n      mload(0x40)\n      tag_25\n      swap6\n      swap5\n      swap4\n      swap3\n      swap2\n      swap1\n      tag_26\n      jump\t// in\n    tag_25:\n      mload(0x40)\n      dup1\n      swap2\n      sub\n      swap1\n      return\n        /* \"CrowdFunding.sol\":109:149  mapping (address => uint) public funders */\n    tag_4:\n      callvalue\n      dup1\n      iszero\n      tag_27\n      jumpi\n      0x00\n      dup1\n      revert\n    tag_27:\n      pop\n      tag_28\n      0x04\n      dup1\n      calldatasize\n      sub\n      dup2\n      add\n      swap1\n      tag_29\n      swap2\n      swap1\n      tag_30\n      jump\t// in\n    tag_29:\n      tag_31\n      jump\t// in\n    tag_28:\n      mload(0x40)\n      tag_32\n      swap2\n      swap1\n      tag_33\n      jump\t// in\n    tag_32:\n      mload(0x40)\n      dup1\n      swap2\n      sub\n      swap1\n      return\n        /* \"CrowdFunding.sol\":1686:2084  function createRequests(string memory _description, uint _amount, address payable _receiver) public isOwner{\r... */\n    tag_5:\n      callvalue\n      dup1\n      iszero\n      tag_34\n      jumpi\n      0x00\n      dup1\n      revert\n    tag_34:\n      pop\n      tag_35\n      0x04\n      dup1\n      calldatasize\n      sub\n      dup2\n      add\n      swap1\n      tag_36\n      swap2\n      swap1\n      tag_37\n      jump\t// in\n    tag_36:\n      tag_38\n      jump\t// in\n    tag_35:\n      stop\n        /* \"CrowdFunding.sol\":1659:1677  uint public numReq */\n    tag_6:\n      callvalue\n      dup1\n      iszero\n      tag_39\n      jumpi\n      0x00\n      dup1\n      revert\n    tag_39:\n      pop\n      tag_40\n      tag_41\n      jump\t// in\n    tag_40:\n      mload(0x40)\n      tag_42\n      swap2\n      swap1\n      tag_33\n      jump\t// in\n    tag_42:\n      mload(0x40)\n      dup1\n      swap2\n      sub\n      swap1\n      return\n        /* \"CrowdFunding.sol\":268:290  uint public timePeriod */\n    tag_7:\n      callvalue\n      dup1\n      iszero\n      tag_43\n      jumpi\n      0x00\n      dup1\n      revert\n    tag_43:\n      pop\n      tag_44\n      tag_45\n      jump\t// in\n    tag_44:\n      mload(0x40)\n      tag_46\n      swap2\n      swap1\n      tag_33\n      jump\t// in\n    tag_46:\n      mload(0x40)\n      dup1\n      swap2\n      sub\n      swap1\n      return\n        /* \"CrowdFunding.sol\":156:172  uint public goal */\n    tag_8:\n      callvalue\n      dup1\n      iszero\n      tag_47\n      jumpi\n      0x00\n      dup1\n      revert\n    tag_47:\n      pop\n      tag_48\n      tag_49\n      jump\t// in\n    tag_48:\n      mload(0x40)\n      tag_50\n      swap2\n      swap1\n      tag_33\n      jump\t// in\n    tag_50:\n      mload(0x40)\n      dup1\n      swap2\n      sub\n      swap1\n      return\n        /* \"CrowdFunding.sol\":647:1011  function contribution() public payable{\r... */\n    tag_9:\n      tag_51\n      tag_52\n      jump\t// in\n    tag_51:\n      stop\n        /* \"CrowdFunding.sol\":238:261  uint public fundsRaised */\n    tag_10:\n      callvalue\n      dup1\n      iszero\n      tag_53\n      jumpi\n      0x00\n      dup1\n      revert\n    tag_53:\n      pop\n      tag_54\n      tag_55\n      jump\t// in\n    tag_54:\n      mload(0x40)\n      tag_56\n      swap2\n      swap1\n      tag_33\n      jump\t// in\n    tag_56:\n      mload(0x40)\n      dup1\n      swap2\n      sub\n      swap1\n      return\n        /* \"CrowdFunding.sol\":82:102  address public owner */\n    tag_11:\n      callvalue\n      dup1\n      iszero\n      tag_57\n      jumpi\n      0x00\n      dup1\n      revert\n    tag_57:\n      pop\n      tag_58\n      tag_59\n      jump\t// in\n    tag_58:\n      mload(0x40)\n      tag_60\n      swap2\n      swap1\n      tag_61\n      jump\t// in\n    tag_60:\n      mload(0x40)\n      dup1\n      swap2\n      sub\n      swap1\n      return\n        /* \"CrowdFunding.sol\":179:200  uint public minAmount */\n    tag_12:\n      callvalue\n      dup1\n      iszero\n      tag_62\n      jumpi\n      0x00\n      dup1\n      revert\n    tag_62:\n      pop\n      tag_63\n      tag_64\n      jump\t// in\n    tag_63:\n      mload(0x40)\n      tag_65\n      swap2\n      swap1\n      tag_33\n      jump\t// in\n    tag_65:\n      mload(0x40)\n      dup1\n      swap2\n      sub\n      swap1\n      return\n        /* \"CrowdFunding.sol\":2092:2409  function votingForRequest(uint _reqNum) public{\r... */\n    tag_13:\n      callvalue\n      dup1\n      iszero\n      tag_66\n      jumpi\n      0x00\n      dup1\n      revert\n    tag_66:\n      pop\n      tag_67\n      0x04\n      dup1\n      calldatasize\n      sub\n      dup2\n      add\n      swap1\n      tag_68\n      swap2\n      swap1\n      tag_23\n      jump\t// in\n    tag_68:\n      tag_69\n      jump\t// in\n    tag_67:\n      stop\n        /* \"CrowdFunding.sol\":1019:1391  function getRefund() public {\r... */\n    tag_14:\n      callvalue\n      dup1\n      iszero\n      tag_70\n      jumpi\n      0x00\n      dup1\n      revert\n    tag_70:\n      pop\n      tag_71\n      tag_72\n      jump\t// in\n    tag_71:\n      stop\n        /* \"CrowdFunding.sol\":207:231  uint public noOfFounders */\n    tag_15:\n      callvalue\n      dup1\n      iszero\n      tag_73\n      jumpi\n      0x00\n      dup1\n      revert\n    tag_73:\n      pop\n      tag_74\n      tag_75\n      jump\t// in\n    tag_74:\n      mload(0x40)\n      tag_76\n      swap2\n      swap1\n      tag_33\n      jump\t// in\n    tag_76:\n      mload(0x40)\n      dup1\n      swap2\n      sub\n      swap1\n      return\n        /* \"CrowdFunding.sol\":1607:1652  mapping (uint => Requests) public AllRequests */\n    tag_24:\n      mstore(0x20, 0x07)\n      dup1\n      0x00\n      mstore\n      keccak256(0x00, 0x40)\n      0x00\n      swap2\n      pop\n      swap1\n      pop\n      dup1\n      0x00\n      add\n      dup1\n      sload\n      tag_77\n      swap1\n      tag_78\n      jump\t// in\n    tag_77:\n      dup1\n      0x1f\n      add\n      0x20\n      dup1\n      swap2\n      div\n      mul\n      0x20\n      add\n      mload(0x40)\n      swap1\n      dup2\n      add\n      0x40\n      mstore\n      dup1\n      swap3\n      swap2\n      swap1\n      dup2\n      dup2\n      mstore\n      0x20\n      add\n      dup3\n      dup1\n      sload\n      tag_79\n      swap1\n      tag_78\n      jump\t// in\n    tag_79:\n      dup1\n      iszero\n      tag_80\n      jumpi\n      dup1\n      0x1f\n      lt\n      tag_81\n      jumpi\n      0x0100\n      dup1\n      dup4\n      sload\n      div\n      mul\n      dup4\n      mstore\n      swap2\n      0x20\n      add\n      swap2\n      jump(tag_80)\n    tag_81:\n      dup3\n      add\n      swap2\n      swap1\n      0x00\n      mstore\n      keccak256(0x00, 0x20)\n      swap1\n    tag_82:\n      dup2\n      sload\n      dup2\n      mstore\n      swap1\n      0x01\n      add\n      swap1\n      0x20\n      add\n      dup1\n      dup4\n      gt\n      tag_82\n      jumpi\n      dup3\n      swap1\n      sub\n      0x1f\n      and\n      dup3\n      add\n      swap2\n    tag_80:\n      pop\n      pop\n      pop\n      pop\n      pop\n      swap1\n      dup1\n      0x01\n      add\n      sload\n      swap1\n      dup1\n      0x02\n      add\n      0x00\n      swap1\n      sload\n      swap1\n      0x0100\n      exp\n      swap1\n      div\n      0xffffffffffffffffffffffffffffffffffffffff\n      and\n      swap1\n      dup1\n      0x03\n      add\n      sload\n      swap1\n      dup1\n      0x05\n      add\n      0x00\n      swap1\n      sload\n      swap1\n      0x0100\n      exp\n      swap1\n      div\n      0xff\n      and\n      swap1\n      pop\n      dup6\n      jump\t// out\n        /* \"CrowdFunding.sol\":109:149  mapping (address => uint) public funders */\n    tag_31:\n      mstore(0x20, 0x01)\n      dup1\n      0x00\n      mstore\n      keccak256(0x00, 0x40)\n      0x00\n      swap2\n      pop\n      swap1\n      pop\n      sload\n      dup2\n      jump\t// out\n        /* \"CrowdFunding.sol\":1686:2084  function createRequests(string memory _description, uint _amount, address payable _receiver) public isOwner{\r... */\n    tag_38:\n        /* \"CrowdFunding.sol\":587:597  msg.sender */\n      caller\n        /* \"CrowdFunding.sol\":578:597  owner == msg.sender */\n      0xffffffffffffffffffffffffffffffffffffffff\n      and\n        /* \"CrowdFunding.sol\":578:583  owner */\n      0x00\n      dup1\n      sload\n      swap1\n      0x0100\n      exp\n      swap1\n      div\n      0xffffffffffffffffffffffffffffffffffffffff\n      and\n        /* \"CrowdFunding.sol\":578:597  owner == msg.sender */\n      0xffffffffffffffffffffffffffffffffffffffff\n      and\n      eq\n        /* \"CrowdFunding.sol\":570:619  require(owner == msg.sender, \"You are not owner\") */\n      tag_84\n      jumpi\n      mload(0x40)\n      0x08c379a000000000000000000000000000000000000000000000000000000000\n      dup2\n      mstore\n      0x04\n      add\n      tag_85\n      swap1\n      tag_86\n      jump\t// in\n    tag_85:\n      mload(0x40)\n      dup1\n      swap2\n      sub\n      swap1\n      revert\n    tag_84:\n        /* \"CrowdFunding.sol\":1804:1831  Requests storage newRequest */\n      0x00\n        /* \"CrowdFunding.sol\":1834:1845  AllRequests */\n      0x07\n        /* \"CrowdFunding.sol\":1834:1853  AllRequests[numReq] */\n      0x00\n        /* \"CrowdFunding.sol\":1846:1852  numReq */\n      sload(0x08)\n        /* \"CrowdFunding.sol\":1834:1853  AllRequests[numReq] */\n      dup2\n      mstore\n      0x20\n      add\n      swap1\n      dup2\n      mstore\n      0x20\n      add\n      0x00\n      keccak256\n        /* \"CrowdFunding.sol\":1804:1853  Requests storage newRequest = AllRequests[numReq] */\n      swap1\n      pop\n        /* \"CrowdFunding.sol\":1864:1870  numReq */\n      0x08\n      0x00\n        /* \"CrowdFunding.sol\":1864:1872  numReq++ */\n      dup2\n      sload\n      dup1\n      swap3\n      swap2\n      swap1\n      tag_88\n      swap1\n      tag_89\n      jump\t// in\n    tag_88:\n      swap2\n      swap1\n      pop\n      sstore\n      pop\n        /* \"CrowdFunding.sol\":1910:1922  _description */\n      dup4\n        /* \"CrowdFunding.sol\":1885:1895  newRequest */\n      dup2\n        /* \"CrowdFunding.sol\":1885:1907  newRequest.description */\n      0x00\n      add\n        /* \"CrowdFunding.sol\":1885:1922  newRequest.description = _description */\n      swap1\n      dup1\n      mload\n      swap1\n      0x20\n      add\n      swap1\n      tag_90\n      swap3\n      swap2\n      swap1\n      tag_91\n      jump\t// in\n    tag_90:\n      pop\n        /* \"CrowdFunding.sol\":1953:1960  _amount */\n      dup3\n        /* \"CrowdFunding.sol\":1933:1943  newRequest */\n      dup2\n        /* \"CrowdFunding.sol\":1933:1950  newRequest.amount */\n      0x01\n      add\n        /* \"CrowdFunding.sol\":1933:1960  newRequest.amount = _amount */\n      dup2\n      swap1\n      sstore\n      pop\n        /* \"CrowdFunding.sol\":1994:1999  false */\n      0x00\n        /* \"CrowdFunding.sol\":1971:1981  newRequest */\n      dup2\n        /* \"CrowdFunding.sol\":1971:1991  newRequest.completed */\n      0x05\n      add\n      0x00\n        /* \"CrowdFunding.sol\":1971:1999  newRequest.completed = false */\n      0x0100\n      exp\n      dup2\n      sload\n      dup2\n      0xff\n      mul\n      not\n      and\n      swap1\n      dup4\n      iszero\n      iszero\n      mul\n      or\n      swap1\n      sstore\n      pop\n        /* \"CrowdFunding.sol\":2033:2034  0 */\n      0x00\n        /* \"CrowdFunding.sol\":2010:2020  newRequest */\n      dup2\n        /* \"CrowdFunding.sol\":2010:2030  newRequest.noOfVotes */\n      0x03\n      add\n        /* \"CrowdFunding.sol\":2010:2034  newRequest.noOfVotes = 0 */\n      dup2\n      swap1\n      sstore\n      pop\n        /* \"CrowdFunding.sol\":2067:2076  _receiver */\n      dup2\n        /* \"CrowdFunding.sol\":2045:2055  newRequest */\n      dup2\n        /* \"CrowdFunding.sol\":2045:2064  newRequest.receiver */\n      0x02\n      add\n      0x00\n        /* \"CrowdFunding.sol\":2045:2076  newRequest.receiver = _receiver */\n      0x0100\n      exp\n      dup2\n      sload\n      dup2\n      0xffffffffffffffffffffffffffffffffffffffff\n      mul\n      not\n      and\n      swap1\n      dup4\n      0xffffffffffffffffffffffffffffffffffffffff\n      and\n      mul\n      or\n      swap1\n      sstore\n      pop\n        /* \"CrowdFunding.sol\":1793:2084  {\r... */\n      pop\n        /* \"CrowdFunding.sol\":1686:2084  function createRequests(string memory _description, uint _amount, address payable _receiver) public isOwner{\r... */\n      pop\n      pop\n      pop\n      jump\t// out\n        /* \"CrowdFunding.sol\":1659:1677  uint public numReq */\n    tag_41:\n      sload(0x08)\n      dup2\n      jump\t// out\n        /* \"CrowdFunding.sol\":268:290  uint public timePeriod */\n    tag_45:\n      sload(0x06)\n      dup2\n      jump\t// out\n        /* \"CrowdFunding.sol\":156:172  uint public goal */\n    tag_49:\n      sload(0x02)\n      dup2\n      jump\t// out\n        /* \"CrowdFunding.sol\":647:1011  function contribution() public payable{\r... */\n    tag_52:\n        /* \"CrowdFunding.sol\":722:732  timePeriod */\n      sload(0x06)\n        /* \"CrowdFunding.sol\":704:719  block.timestamp */\n      timestamp\n        /* \"CrowdFunding.sol\":704:732  block.timestamp < timePeriod */\n      lt\n        /* \"CrowdFunding.sol\":696:753  require(block.timestamp < timePeriod, \"Funding is over!\") */\n      tag_93\n      jumpi\n      mload(0x40)\n      0x08c379a000000000000000000000000000000000000000000000000000000000\n      dup2\n      mstore\n      0x04\n      add\n      tag_94\n      swap1\n      tag_95\n      jump\t// in\n    tag_94:\n      mload(0x40)\n      dup1\n      swap2\n      sub\n      swap1\n      revert\n    tag_93:\n        /* \"CrowdFunding.sol\":785:794  minAmount */\n      sload(0x03)\n        /* \"CrowdFunding.sol\":772:781  msg.value */\n      callvalue\n        /* \"CrowdFunding.sol\":772:794  msg.value >= minAmount */\n      lt\n      iszero\n        /* \"CrowdFunding.sol\":764:834  require(msg.value >= minAmount, \"Minimum amount criteria not satisfy\") */\n      tag_96\n      jumpi\n      mload(0x40)\n      0x08c379a000000000000000000000000000000000000000000000000000000000\n      dup2\n      mstore\n      0x04\n      add\n      tag_97\n      swap1\n      tag_98\n      jump\t// in\n    tag_97:\n      mload(0x40)\n      dup1\n      swap2\n      sub\n      swap1\n      revert\n    tag_96:\n        /* \"CrowdFunding.sol\":873:874  0 */\n      0x00\n        /* \"CrowdFunding.sol\":850:857  funders */\n      0x01\n        /* \"CrowdFunding.sol\":850:869  funders[msg.sender] */\n      0x00\n        /* \"CrowdFunding.sol\":858:868  msg.sender */\n      caller\n        /* \"CrowdFunding.sol\":850:869  funders[msg.sender] */\n      0xffffffffffffffffffffffffffffffffffffffff\n      and\n      0xffffffffffffffffffffffffffffffffffffffff\n      and\n      dup2\n      mstore\n      0x20\n      add\n      swap1\n      dup2\n      mstore\n      0x20\n      add\n      0x00\n      keccak256\n      sload\n        /* \"CrowdFunding.sol\":850:874  funders[msg.sender] == 0 */\n      eq\n        /* \"CrowdFunding.sol\":847:916  if(funders[msg.sender] == 0){\r... */\n      iszero\n      tag_99\n      jumpi\n        /* \"CrowdFunding.sol\":890:902  noOfFounders */\n      0x04\n      0x00\n        /* \"CrowdFunding.sol\":890:904  noOfFounders++ */\n      dup2\n      sload\n      dup1\n      swap3\n      swap2\n      swap1\n      tag_100\n      swap1\n      tag_89\n      jump\t// in\n    tag_100:\n      swap2\n      swap1\n      pop\n      sstore\n      pop\n        /* \"CrowdFunding.sol\":847:916  if(funders[msg.sender] == 0){\r... */\n    tag_99:\n        /* \"CrowdFunding.sol\":959:968  msg.value */\n      callvalue\n        /* \"CrowdFunding.sol\":936:943  funders */\n      0x01\n        /* \"CrowdFunding.sol\":936:955  funders[msg.sender] */\n      0x00\n        /* \"CrowdFunding.sol\":944:954  msg.sender */\n      caller\n        /* \"CrowdFunding.sol\":936:955  funders[msg.sender] */\n      0xffffffffffffffffffffffffffffffffffffffff\n      and\n      0xffffffffffffffffffffffffffffffffffffffff\n      and\n      dup2\n      mstore\n      0x20\n      add\n      swap1\n      dup2\n      mstore\n      0x20\n      add\n      0x00\n      keccak256\n      0x00\n        /* \"CrowdFunding.sol\":936:968  funders[msg.sender] += msg.value */\n      dup3\n      dup3\n      sload\n      tag_101\n      swap2\n      swap1\n      tag_102\n      jump\t// in\n    tag_101:\n      swap3\n      pop\n      pop\n      dup2\n      swap1\n      sstore\n      pop\n        /* \"CrowdFunding.sol\":994:1003  msg.value */\n      callvalue\n        /* \"CrowdFunding.sol\":979:990  fundsRaised */\n      0x05\n      0x00\n        /* \"CrowdFunding.sol\":979:1003  fundsRaised += msg.value */\n      dup3\n      dup3\n      sload\n      tag_103\n      swap2\n      swap1\n      tag_102\n      jump\t// in\n    tag_103:\n      swap3\n      pop\n      pop\n      dup2\n      swap1\n      sstore\n      pop\n        /* \"CrowdFunding.sol\":647:1011  function contribution() public payable{\r... */\n      jump\t// out\n        /* \"CrowdFunding.sol\":238:261  uint public fundsRaised */\n    tag_55:\n      sload(0x05)\n      dup2\n      jump\t// out\n        /* \"CrowdFunding.sol\":82:102  address public owner */\n    tag_59:\n      0x00\n      dup1\n      sload\n      swap1\n      0x0100\n      exp\n      swap1\n      div\n      0xffffffffffffffffffffffffffffffffffffffff\n      and\n      dup2\n      jump\t// out\n        /* \"CrowdFunding.sol\":179:200  uint public minAmount */\n    tag_64:\n      sload(0x03)\n      dup2\n      jump\t// out\n        /* \"CrowdFunding.sol\":2092:2409  function votingForRequest(uint _reqNum) public{\r... */\n    tag_69:\n        /* \"CrowdFunding.sol\":2179:2180  0 */\n      0x00\n        /* \"CrowdFunding.sol\":2157:2164  funders */\n      0x01\n        /* \"CrowdFunding.sol\":2157:2176  funders[msg.sender] */\n      0x00\n        /* \"CrowdFunding.sol\":2165:2175  msg.sender */\n      caller\n        /* \"CrowdFunding.sol\":2157:2176  funders[msg.sender] */\n      0xffffffffffffffffffffffffffffffffffffffff\n      and\n      0xffffffffffffffffffffffffffffffffffffffff\n      and\n      dup2\n      mstore\n      0x20\n      add\n      swap1\n      dup2\n      mstore\n      0x20\n      add\n      0x00\n      keccak256\n      sload\n        /* \"CrowdFunding.sol\":2157:2180  funders[msg.sender] > 0 */\n      gt\n        /* \"CrowdFunding.sol\":2149:2197  require(funders[msg.sender] > 0, \"Not a funder\") */\n      tag_105\n      jumpi\n      mload(0x40)\n      0x08c379a000000000000000000000000000000000000000000000000000000000\n      dup2\n      mstore\n      0x04\n      add\n      tag_106\n      swap1\n      tag_107\n      jump\t// in\n    tag_106:\n      mload(0x40)\n      dup1\n      swap2\n      sub\n      swap1\n      revert\n    tag_105:\n        /* \"CrowdFunding.sol\":2208:2236  Requests storage thisRequest */\n      0x00\n        /* \"CrowdFunding.sol\":2239:2250  AllRequests */\n      0x07\n        /* \"CrowdFunding.sol\":2239:2259  AllRequests[_reqNum] */\n      0x00\n        /* \"CrowdFunding.sol\":2251:2258  _reqNum */\n      dup4\n        /* \"CrowdFunding.sol\":2239:2259  AllRequests[_reqNum] */\n      dup2\n      mstore\n      0x20\n      add\n      swap1\n      dup2\n      mstore\n      0x20\n      add\n      0x00\n      keccak256\n        /* \"CrowdFunding.sol\":2208:2259  Requests storage thisRequest = AllRequests[_reqNum] */\n      swap1\n      pop\n        /* \"CrowdFunding.sol\":2311:2316  false */\n      0x00\n        /* \"CrowdFunding.sol\":2278:2316  thisRequest.votes[msg.sender] == false */\n      iszero\n      iszero\n        /* \"CrowdFunding.sol\":2278:2289  thisRequest */\n      dup2\n        /* \"CrowdFunding.sol\":2278:2295  thisRequest.votes */\n      0x04\n      add\n        /* \"CrowdFunding.sol\":2278:2307  thisRequest.votes[msg.sender] */\n      0x00\n        /* \"CrowdFunding.sol\":2296:2306  msg.sender */\n      caller\n        /* \"CrowdFunding.sol\":2278:2307  thisRequest.votes[msg.sender] */\n      0xffffffffffffffffffffffffffffffffffffffff\n      and\n      0xffffffffffffffffffffffffffffffffffffffff\n      and\n      dup2\n      mstore\n      0x20\n      add\n      swap1\n      dup2\n      mstore\n      0x20\n      add\n      0x00\n      keccak256\n      0x00\n      swap1\n      sload\n      swap1\n      0x0100\n      exp\n      swap1\n      div\n      0xff\n      and\n        /* \"CrowdFunding.sol\":2278:2316  thisRequest.votes[msg.sender] == false */\n      iszero\n      iszero\n      eq\n        /* \"CrowdFunding.sol\":2270:2334  require(thisRequest.votes[msg.sender] == false, \"Already voted\") */\n      tag_108\n      jumpi\n      mload(0x40)\n      0x08c379a000000000000000000000000000000000000000000000000000000000\n      dup2\n      mstore\n      0x04\n      add\n      tag_109\n      swap1\n      tag_110\n      jump\t// in\n    tag_109:\n      mload(0x40)\n      dup1\n      swap2\n      sub\n      swap1\n      revert\n    tag_108:\n        /* \"CrowdFunding.sol\":2377:2381  true */\n      0x01\n        /* \"CrowdFunding.sol\":2345:2356  thisRequest */\n      dup2\n        /* \"CrowdFunding.sol\":2345:2362  thisRequest.votes */\n      0x04\n      add\n        /* \"CrowdFunding.sol\":2345:2374  thisRequest.votes[msg.sender] */\n      0x00\n        /* \"CrowdFunding.sol\":2363:2373  msg.sender */\n      caller\n        /* \"CrowdFunding.sol\":2345:2374  thisRequest.votes[msg.sender] */\n      0xffffffffffffffffffffffffffffffffffffffff\n      and\n      0xffffffffffffffffffffffffffffffffffffffff\n      and\n      dup2\n      mstore\n      0x20\n      add\n      swap1\n      dup2\n      mstore\n      0x20\n      add\n      0x00\n      keccak256\n      0x00\n        /* \"CrowdFunding.sol\":2345:2381  thisRequest.votes[msg.sender] = true */\n      0x0100\n      exp\n      dup2\n      sload\n      dup2\n      0xff\n      mul\n      not\n      and\n      swap1\n      dup4\n      iszero\n      iszero\n      mul\n      or\n      swap1\n      sstore\n      pop\n        /* \"CrowdFunding.sol\":2138:2409  {\r... */\n      pop\n        /* \"CrowdFunding.sol\":2092:2409  function votingForRequest(uint _reqNum) public{\r... */\n      pop\n      jump\t// out\n        /* \"CrowdFunding.sol\":1019:1391  function getRefund() public {\r... */\n    tag_72:\n        /* \"CrowdFunding.sol\":1084:1094  timePeriod */\n      sload(0x06)\n        /* \"CrowdFunding.sol\":1066:1081  block.timestamp */\n      timestamp\n        /* \"CrowdFunding.sol\":1066:1094  block.timestamp > timePeriod */\n      gt\n        /* \"CrowdFunding.sol\":1058:1119  require(block.timestamp > timePeriod, \"Funding is still on!\") */\n      tag_112\n      jumpi\n      mload(0x40)\n      0x08c379a000000000000000000000000000000000000000000000000000000000\n      dup2\n      mstore\n      0x04\n      add\n      tag_113\n      swap1\n      tag_114\n      jump\t// in\n    tag_113:\n      mload(0x40)\n      dup1\n      swap2\n      sub\n      swap1\n      revert\n    tag_112:\n        /* \"CrowdFunding.sol\":1152:1156  goal */\n      sload(0x02)\n        /* \"CrowdFunding.sol\":1138:1149  fundsRaised */\n      sload(0x05)\n        /* \"CrowdFunding.sol\":1138:1156  fundsRaised < goal */\n      lt\n        /* \"CrowdFunding.sol\":1130:1183  require(fundsRaised < goal, \"Funding was successful\") */\n      tag_115\n      jumpi\n      mload(0x40)\n      0x08c379a000000000000000000000000000000000000000000000000000000000\n      dup2\n      mstore\n      0x04\n      add\n      tag_116\n      swap1\n      tag_117\n      jump\t// in\n    tag_116:\n      mload(0x40)\n      dup1\n      swap2\n      sub\n      swap1\n      revert\n    tag_115:\n        /* \"CrowdFunding.sol\":1224:1225  0 */\n      0x00\n        /* \"CrowdFunding.sol\":1202:1209  funders */\n      0x01\n        /* \"CrowdFunding.sol\":1202:1221  funders[msg.sender] */\n      0x00\n        /* \"CrowdFunding.sol\":1210:1220  msg.sender */\n      caller\n        /* \"CrowdFunding.sol\":1202:1221  funders[msg.sender] */\n      0xffffffffffffffffffffffffffffffffffffffff\n      and\n      0xffffffffffffffffffffffffffffffffffffffff\n      and\n      dup2\n      mstore\n      0x20\n      add\n      swap1\n      dup2\n      mstore\n      0x20\n      add\n      0x00\n      keccak256\n      sload\n        /* \"CrowdFunding.sol\":1202:1225  funders[msg.sender] > 0 */\n      gt\n        /* \"CrowdFunding.sol\":1194:1242  require(funders[msg.sender] > 0, \"Not a funder\") */\n      tag_118\n      jumpi\n      mload(0x40)\n      0x08c379a000000000000000000000000000000000000000000000000000000000\n      dup2\n      mstore\n      0x04\n      add\n      tag_119\n      swap1\n      tag_107\n      jump\t// in\n    tag_119:\n      mload(0x40)\n      dup1\n      swap2\n      sub\n      swap1\n      revert\n    tag_118:\n        /* \"CrowdFunding.sol\":1263:1273  msg.sender */\n      caller\n        /* \"CrowdFunding.sol\":1255:1283  payable(msg.sender).transfer */\n      0xffffffffffffffffffffffffffffffffffffffff\n      and\n        /* \"CrowdFunding.sol\":1255:1304  payable(msg.sender).transfer(funders[msg.sender]) */\n      0x08fc\n        /* \"CrowdFunding.sol\":1284:1291  funders */\n      0x01\n        /* \"CrowdFunding.sol\":1284:1303  funders[msg.sender] */\n      0x00\n        /* \"CrowdFunding.sol\":1292:1302  msg.sender */\n      caller\n        /* \"CrowdFunding.sol\":1284:1303  funders[msg.sender] */\n      0xffffffffffffffffffffffffffffffffffffffff\n      and\n      0xffffffffffffffffffffffffffffffffffffffff\n      and\n      dup2\n      mstore\n      0x20\n      add\n      swap1\n      dup2\n      mstore\n      0x20\n      add\n      0x00\n      keccak256\n      sload\n        /* \"CrowdFunding.sol\":1255:1304  payable(msg.sender).transfer(funders[msg.sender]) */\n      swap1\n      dup2\n      iszero\n      mul\n      swap1\n      mload(0x40)\n      0x00\n      mload(0x40)\n      dup1\n      dup4\n      sub\n      dup2\n      dup6\n      dup9\n      dup9\n      call\n      swap4\n      pop\n      pop\n      pop\n      pop\n      iszero\n      dup1\n      iszero\n      tag_121\n      jumpi\n      returndatasize\n      0x00\n      dup1\n      returndatacopy\n      revert(0x00, returndatasize)\n    tag_121:\n      pop\n        /* \"CrowdFunding.sol\":1330:1337  funders */\n      0x01\n        /* \"CrowdFunding.sol\":1330:1349  funders[msg.sender] */\n      0x00\n        /* \"CrowdFunding.sol\":1338:1348  msg.sender */\n      caller\n        /* \"CrowdFunding.sol\":1330:1349  funders[msg.sender] */\n      0xffffffffffffffffffffffffffffffffffffffff\n      and\n      0xffffffffffffffffffffffffffffffffffffffff\n      and\n      dup2\n      mstore\n      0x20\n      add\n      swap1\n      dup2\n      mstore\n      0x20\n      add\n      0x00\n      keccak256\n      sload\n        /* \"CrowdFunding.sol\":1315:1326  fundsRaised */\n      0x05\n      0x00\n        /* \"CrowdFunding.sol\":1315:1349  fundsRaised -= funders[msg.sender] */\n      dup3\n      dup3\n      sload\n      tag_122\n      swap2\n      swap1\n      tag_123\n      jump\t// in\n    tag_122:\n      swap3\n      pop\n      pop\n      dup2\n      swap1\n      sstore\n      pop\n        /* \"CrowdFunding.sol\":1382:1383  0 */\n      0x00\n        /* \"CrowdFunding.sol\":1360:1367  funders */\n      0x01\n        /* \"CrowdFunding.sol\":1360:1379  funders[msg.sender] */\n      0x00\n        /* \"CrowdFunding.sol\":1368:1378  msg.sender */\n      caller\n        /* \"CrowdFunding.sol\":1360:1379  funders[msg.sender] */\n      0xffffffffffffffffffffffffffffffffffffffff\n      and\n      0xffffffffffffffffffffffffffffffffffffffff\n      and\n      dup2\n      mstore\n      0x20\n      add\n      swap1\n      dup2\n      mstore\n      0x20\n      add\n      0x00\n      keccak256\n        /* \"CrowdFunding.sol\":1360:1383  funders[msg.sender] = 0 */\n      dup2\n      swap1\n      sstore\n      pop\n        /* \"CrowdFunding.sol\":1019:1391  function getRefund() public {\r... */\n      jump\t// out\n        /* \"CrowdFunding.sol\":207:231  uint public noOfFounders */\n    tag_75:\n      sload(0x04)\n      dup2\n      jump\t// out\n    tag_91:\n      dup3\n      dup1\n      sload\n      tag_124\n      swap1\n      tag_78\n      jump\t// in\n    tag_124:\n      swap1\n      0x00\n      mstore\n      keccak256(0x00, 0x20)\n      swap1\n      0x1f\n      add\n      0x20\n      swap1\n      div\n      dup2\n      add\n      swap3\n      dup3\n      tag_126\n      jumpi\n      0x00\n      dup6\n      sstore\n      jump(tag_125)\n    tag_126:\n      dup3\n      0x1f\n      lt\n      tag_127\n      jumpi\n      dup1\n      mload\n      not(0xff)\n      and\n      dup4\n      dup1\n      add\n      or\n      dup6\n      sstore\n      jump(tag_125)\n    tag_127:\n      dup3\n      dup1\n      add\n      0x01\n      add\n      dup6\n      sstore\n      dup3\n      iszero\n      tag_125\n      jumpi\n      swap2\n      dup3\n      add\n    tag_128:\n      dup3\n      dup2\n      gt\n      iszero\n      tag_129\n      jumpi\n      dup3\n      mload\n      dup3\n      sstore\n      swap2\n      0x20\n      add\n      swap2\n      swap1\n      0x01\n      add\n      swap1\n      jump(tag_128)\n    tag_129:\n    tag_125:\n      pop\n      swap1\n      pop\n      tag_130\n      swap2\n      swap1\n      tag_131\n      jump\t// in\n    tag_130:\n      pop\n      swap1\n      jump\t// out\n    tag_131:\n    tag_132:\n      dup1\n      dup3\n      gt\n      iszero\n      tag_133\n      jumpi\n      0x00\n      dup2\n      0x00\n      swap1\n      sstore\n      pop\n      0x01\n      add\n      jump(tag_132)\n    tag_133:\n      pop\n      swap1\n      jump\t// out\n        /* \"#utility.yul\":7:419   */\n    tag_135:\n        /* \"#utility.yul\":85:90   */\n      0x00\n        /* \"#utility.yul\":110:176   */\n      tag_137\n        /* \"#utility.yul\":126:175   */\n      tag_138\n        /* \"#utility.yul\":168:174   */\n      dup5\n        /* \"#utility.yul\":126:175   */\n      tag_139\n      jump\t// in\n    tag_138:\n        /* \"#utility.yul\":110:176   */\n      tag_140\n      jump\t// in\n    tag_137:\n        /* \"#utility.yul\":101:176   */\n      swap1\n      pop\n        /* \"#utility.yul\":199:205   */\n      dup3\n        /* \"#utility.yul\":192:197   */\n      dup2\n        /* \"#utility.yul\":185:206   */\n      mstore\n        /* \"#utility.yul\":237:241   */\n      0x20\n        /* \"#utility.yul\":230:235   */\n      dup2\n        /* \"#utility.yul\":226:242   */\n      add\n        /* \"#utility.yul\":275:278   */\n      dup5\n        /* \"#utility.yul\":266:272   */\n      dup5\n        /* \"#utility.yul\":261:264   */\n      dup5\n        /* \"#utility.yul\":257:273   */\n      add\n        /* \"#utility.yul\":254:279   */\n      gt\n        /* \"#utility.yul\":251:363   */\n      iszero\n      tag_141\n      jumpi\n        /* \"#utility.yul\":282:361   */\n      tag_142\n      tag_143\n      jump\t// in\n    tag_142:\n        /* \"#utility.yul\":251:363   */\n    tag_141:\n        /* \"#utility.yul\":372:413   */\n      tag_144\n        /* \"#utility.yul\":406:412   */\n      dup5\n        /* \"#utility.yul\":401:404   */\n      dup3\n        /* \"#utility.yul\":396:399   */\n      dup6\n        /* \"#utility.yul\":372:413   */\n      tag_145\n      jump\t// in\n    tag_144:\n        /* \"#utility.yul\":91:419   */\n      pop\n        /* \"#utility.yul\":7:419   */\n      swap4\n      swap3\n      pop\n      pop\n      pop\n      jump\t// out\n        /* \"#utility.yul\":425:564   */\n    tag_146:\n        /* \"#utility.yul\":471:476   */\n      0x00\n        /* \"#utility.yul\":509:515   */\n      dup2\n        /* \"#utility.yul\":496:516   */\n      calldataload\n        /* \"#utility.yul\":487:516   */\n      swap1\n      pop\n        /* \"#utility.yul\":525:558   */\n      tag_148\n        /* \"#utility.yul\":552:557   */\n      dup2\n        /* \"#utility.yul\":525:558   */\n      tag_149\n      jump\t// in\n    tag_148:\n        /* \"#utility.yul\":425:564   */\n      swap3\n      swap2\n      pop\n      pop\n      jump\t// out\n        /* \"#utility.yul\":570:725   */\n    tag_150:\n        /* \"#utility.yul\":624:629   */\n      0x00\n        /* \"#utility.yul\":662:668   */\n      dup2\n        /* \"#utility.yul\":649:669   */\n      calldataload\n        /* \"#utility.yul\":640:669   */\n      swap1\n      pop\n        /* \"#utility.yul\":678:719   */\n      tag_152\n        /* \"#utility.yul\":713:718   */\n      dup2\n        /* \"#utility.yul\":678:719   */\n      tag_153\n      jump\t// in\n    tag_152:\n        /* \"#utility.yul\":570:725   */\n      swap3\n      swap2\n      pop\n      pop\n      jump\t// out\n        /* \"#utility.yul\":745:1085   */\n    tag_154:\n        /* \"#utility.yul\":801:806   */\n      0x00\n        /* \"#utility.yul\":850:853   */\n      dup3\n        /* \"#utility.yul\":843:847   */\n      0x1f\n        /* \"#utility.yul\":835:841   */\n      dup4\n        /* \"#utility.yul\":831:848   */\n      add\n        /* \"#utility.yul\":827:854   */\n      slt\n        /* \"#utility.yul\":817:939   */\n      tag_156\n      jumpi\n        /* \"#utility.yul\":858:937   */\n      tag_157\n      tag_158\n      jump\t// in\n    tag_157:\n        /* \"#utility.yul\":817:939   */\n    tag_156:\n        /* \"#utility.yul\":975:981   */\n      dup2\n        /* \"#utility.yul\":962:982   */\n      calldataload\n        /* \"#utility.yul\":1000:1079   */\n      tag_159\n        /* \"#utility.yul\":1075:1078   */\n      dup5\n        /* \"#utility.yul\":1067:1073   */\n      dup3\n        /* \"#utility.yul\":1060:1064   */\n      0x20\n        /* \"#utility.yul\":1052:1058   */\n      dup7\n        /* \"#utility.yul\":1048:1065   */\n      add\n        /* \"#utility.yul\":1000:1079   */\n      tag_135\n      jump\t// in\n    tag_159:\n        /* \"#utility.yul\":991:1079   */\n      swap2\n      pop\n        /* \"#utility.yul\":807:1085   */\n      pop\n        /* \"#utility.yul\":745:1085   */\n      swap3\n      swap2\n      pop\n      pop\n      jump\t// out\n        /* \"#utility.yul\":1091:1230   */\n    tag_160:\n        /* \"#utility.yul\":1137:1142   */\n      0x00\n        /* \"#utility.yul\":1175:1181   */\n      dup2\n        /* \"#utility.yul\":1162:1182   */\n      calldataload\n        /* \"#utility.yul\":1153:1182   */\n      swap1\n      pop\n        /* \"#utility.yul\":1191:1224   */\n      tag_162\n        /* \"#utility.yul\":1218:1223   */\n      dup2\n        /* \"#utility.yul\":1191:1224   */\n      tag_163\n      jump\t// in\n    tag_162:\n        /* \"#utility.yul\":1091:1230   */\n      swap3\n      swap2\n      pop\n      pop\n      jump\t// out\n        /* \"#utility.yul\":1236:1565   */\n    tag_30:\n        /* \"#utility.yul\":1295:1301   */\n      0x00\n        /* \"#utility.yul\":1344:1346   */\n      0x20\n        /* \"#utility.yul\":1332:1341   */\n      dup3\n        /* \"#utility.yul\":1323:1330   */\n      dup5\n        /* \"#utility.yul\":1319:1342   */\n      sub\n        /* \"#utility.yul\":1315:1347   */\n      slt\n        /* \"#utility.yul\":1312:1431   */\n      iszero\n      tag_165\n      jumpi\n        /* \"#utility.yul\":1350:1429   */\n      tag_166\n      tag_167\n      jump\t// in\n    tag_166:\n        /* \"#utility.yul\":1312:1431   */\n    tag_165:\n        /* \"#utility.yul\":1470:1471   */\n      0x00\n        /* \"#utility.yul\":1495:1548   */\n      tag_168\n        /* \"#utility.yul\":1540:1547   */\n      dup5\n        /* \"#utility.yul\":1531:1537   */\n      dup3\n        /* \"#utility.yul\":1520:1529   */\n      dup6\n        /* \"#utility.yul\":1516:1538   */\n      add\n        /* \"#utility.yul\":1495:1548   */\n      tag_146\n      jump\t// in\n    tag_168:\n        /* \"#utility.yul\":1485:1548   */\n      swap2\n      pop\n        /* \"#utility.yul\":1441:1558   */\n      pop\n        /* \"#utility.yul\":1236:1565   */\n      swap3\n      swap2\n      pop\n      pop\n      jump\t// out\n        /* \"#utility.yul\":1571:2386   */\n    tag_37:\n        /* \"#utility.yul\":1666:1672   */\n      0x00\n        /* \"#utility.yul\":1674:1680   */\n      dup1\n        /* \"#utility.yul\":1682:1688   */\n      0x00\n        /* \"#utility.yul\":1731:1733   */\n      0x60\n        /* \"#utility.yul\":1719:1728   */\n      dup5\n        /* \"#utility.yul\":1710:1717   */\n      dup7\n        /* \"#utility.yul\":1706:1729   */\n      sub\n        /* \"#utility.yul\":1702:1734   */\n      slt\n        /* \"#utility.yul\":1699:1818   */\n      iszero\n      tag_170\n      jumpi\n        /* \"#utility.yul\":1737:1816   */\n      tag_171\n      tag_167\n      jump\t// in\n    tag_171:\n        /* \"#utility.yul\":1699:1818   */\n    tag_170:\n        /* \"#utility.yul\":1885:1886   */\n      0x00\n        /* \"#utility.yul\":1874:1883   */\n      dup5\n        /* \"#utility.yul\":1870:1887   */\n      add\n        /* \"#utility.yul\":1857:1888   */\n      calldataload\n        /* \"#utility.yul\":1915:1933   */\n      0xffffffffffffffff\n        /* \"#utility.yul\":1907:1913   */\n      dup2\n        /* \"#utility.yul\":1904:1934   */\n      gt\n        /* \"#utility.yul\":1901:2018   */\n      iszero\n      tag_172\n      jumpi\n        /* \"#utility.yul\":1937:2016   */\n      tag_173\n      tag_174\n      jump\t// in\n    tag_173:\n        /* \"#utility.yul\":1901:2018   */\n    tag_172:\n        /* \"#utility.yul\":2042:2105   */\n      tag_175\n        /* \"#utility.yul\":2097:2104   */\n      dup7\n        /* \"#utility.yul\":2088:2094   */\n      dup3\n        /* \"#utility.yul\":2077:2086   */\n      dup8\n        /* \"#utility.yul\":2073:2095   */\n      add\n        /* \"#utility.yul\":2042:2105   */\n      tag_154\n      jump\t// in\n    tag_175:\n        /* \"#utility.yul\":2032:2105   */\n      swap4\n      pop\n        /* \"#utility.yul\":1828:2115   */\n      pop\n        /* \"#utility.yul\":2154:2156   */\n      0x20\n        /* \"#utility.yul\":2180:2233   */\n      tag_176\n        /* \"#utility.yul\":2225:2232   */\n      dup7\n        /* \"#utility.yul\":2216:2222   */\n      dup3\n        /* \"#utility.yul\":2205:2214   */\n      dup8\n        /* \"#utility.yul\":2201:2223   */\n      add\n        /* \"#utility.yul\":2180:2233   */\n      tag_160\n      jump\t// in\n    tag_176:\n        /* \"#utility.yul\":2170:2233   */\n      swap3\n      pop\n        /* \"#utility.yul\":2125:2243   */\n      pop\n        /* \"#utility.yul\":2282:2284   */\n      0x40\n        /* \"#utility.yul\":2308:2369   */\n      tag_177\n        /* \"#utility.yul\":2361:2368   */\n      dup7\n        /* \"#utility.yul\":2352:2358   */\n      dup3\n        /* \"#utility.yul\":2341:2350   */\n      dup8\n        /* \"#utility.yul\":2337:2359   */\n      add\n        /* \"#utility.yul\":2308:2369   */\n      tag_150\n      jump\t// in\n    tag_177:\n        /* \"#utility.yul\":2298:2369   */\n      swap2\n      pop\n        /* \"#utility.yul\":2253:2379   */\n      pop\n        /* \"#utility.yul\":1571:2386   */\n      swap3\n      pop\n      swap3\n      pop\n      swap3\n      jump\t// out\n        /* \"#utility.yul\":2392:2721   */\n    tag_23:\n        /* \"#utility.yul\":2451:2457   */\n      0x00\n        /* \"#utility.yul\":2500:2502   */\n      0x20\n        /* \"#utility.yul\":2488:2497   */\n      dup3\n        /* \"#utility.yul\":2479:2486   */\n      dup5\n        /* \"#utility.yul\":2475:2498   */\n      sub\n        /* \"#utility.yul\":2471:2503   */\n      slt\n        /* \"#utility.yul\":2468:2587   */\n      iszero\n      tag_179\n      jumpi\n        /* \"#utility.yul\":2506:2585   */\n      tag_180\n      tag_167\n      jump\t// in\n    tag_180:\n        /* \"#utility.yul\":2468:2587   */\n    tag_179:\n        /* \"#utility.yul\":2626:2627   */\n      0x00\n        /* \"#utility.yul\":2651:2704   */\n      tag_181\n        /* \"#utility.yul\":2696:2703   */\n      dup5\n        /* \"#utility.yul\":2687:2693   */\n      dup3\n        /* \"#utility.yul\":2676:2685   */\n      dup6\n        /* \"#utility.yul\":2672:2694   */\n      add\n        /* \"#utility.yul\":2651:2704   */\n      tag_160\n      jump\t// in\n    tag_181:\n        /* \"#utility.yul\":2641:2704   */\n      swap2\n      pop\n        /* \"#utility.yul\":2597:2714   */\n      pop\n        /* \"#utility.yul\":2392:2721   */\n      swap3\n      swap2\n      pop\n      pop\n      jump\t// out\n        /* \"#utility.yul\":2727:2869   */\n    tag_182:\n        /* \"#utility.yul\":2830:2862   */\n      tag_184\n        /* \"#utility.yul\":2856:2861   */\n      dup2\n        /* \"#utility.yul\":2830:2862   */\n      tag_185\n      jump\t// in\n    tag_184:\n        /* \"#utility.yul\":2825:2828   */\n      dup3\n        /* \"#utility.yul\":2818:2863   */\n      mstore\n        /* \"#utility.yul\":2727:2869   */\n      pop\n      pop\n      jump\t// out\n        /* \"#utility.yul\":2875:2993   */\n    tag_186:\n        /* \"#utility.yul\":2962:2986   */\n      tag_188\n        /* \"#utility.yul\":2980:2985   */\n      dup2\n        /* \"#utility.yul\":2962:2986   */\n      tag_189\n      jump\t// in\n    tag_188:\n        /* \"#utility.yul\":2957:2960   */\n      dup3\n        /* \"#utility.yul\":2950:2987   */\n      mstore\n        /* \"#utility.yul\":2875:2993   */\n      pop\n      pop\n      jump\t// out\n        /* \"#utility.yul\":2999:3108   */\n    tag_190:\n        /* \"#utility.yul\":3080:3101   */\n      tag_192\n        /* \"#utility.yul\":3095:3100   */\n      dup2\n        /* \"#utility.yul\":3080:3101   */\n      tag_193\n      jump\t// in\n    tag_192:\n        /* \"#utility.yul\":3075:3078   */\n      dup3\n        /* \"#utility.yul\":3068:3102   */\n      mstore\n        /* \"#utility.yul\":2999:3108   */\n      pop\n      pop\n      jump\t// out\n        /* \"#utility.yul\":3114:3478   */\n    tag_194:\n        /* \"#utility.yul\":3202:3205   */\n      0x00\n        /* \"#utility.yul\":3230:3269   */\n      tag_196\n        /* \"#utility.yul\":3263:3268   */\n      dup3\n        /* \"#utility.yul\":3230:3269   */\n      tag_197\n      jump\t// in\n    tag_196:\n        /* \"#utility.yul\":3285:3356   */\n      tag_198\n        /* \"#utility.yul\":3349:3355   */\n      dup2\n        /* \"#utility.yul\":3344:3347   */\n      dup6\n        /* \"#utility.yul\":3285:3356   */\n      tag_199\n      jump\t// in\n    tag_198:\n        /* \"#utility.yul\":3278:3356   */\n      swap4\n      pop\n        /* \"#utility.yul\":3365:3417   */\n      tag_200\n        /* \"#utility.yul\":3410:3416   */\n      dup2\n        /* \"#utility.yul\":3405:3408   */\n      dup6\n        /* \"#utility.yul\":3398:3402   */\n      0x20\n        /* \"#utility.yul\":3391:3396   */\n      dup7\n        /* \"#utility.yul\":3387:3403   */\n      add\n        /* \"#utility.yul\":3365:3417   */\n      tag_201\n      jump\t// in\n    tag_200:\n        /* \"#utility.yul\":3442:3471   */\n      tag_202\n        /* \"#utility.yul\":3464:3470   */\n      dup2\n        /* \"#utility.yul\":3442:3471   */\n      tag_203\n      jump\t// in\n    tag_202:\n        /* \"#utility.yul\":3437:3440   */\n      dup5\n        /* \"#utility.yul\":3433:3472   */\n      add\n        /* \"#utility.yul\":3426:3472   */\n      swap2\n      pop\n        /* \"#utility.yul\":3206:3478   */\n      pop\n        /* \"#utility.yul\":3114:3478   */\n      swap3\n      swap2\n      pop\n      pop\n      jump\t// out\n        /* \"#utility.yul\":3484:3850   */\n    tag_204:\n        /* \"#utility.yul\":3626:3629   */\n      0x00\n        /* \"#utility.yul\":3647:3714   */\n      tag_206\n        /* \"#utility.yul\":3711:3713   */\n      0x16\n        /* \"#utility.yul\":3706:3709   */\n      dup4\n        /* \"#utility.yul\":3647:3714   */\n      tag_199\n      jump\t// in\n    tag_206:\n        /* \"#utility.yul\":3640:3714   */\n      swap2\n      pop\n        /* \"#utility.yul\":3723:3816   */\n      tag_207\n        /* \"#utility.yul\":3812:3815   */\n      dup3\n        /* \"#utility.yul\":3723:3816   */\n      tag_208\n      jump\t// in\n    tag_207:\n        /* \"#utility.yul\":3841:3843   */\n      0x20\n        /* \"#utility.yul\":3836:3839   */\n      dup3\n        /* \"#utility.yul\":3832:3844   */\n      add\n        /* \"#utility.yul\":3825:3844   */\n      swap1\n      pop\n        /* \"#utility.yul\":3484:3850   */\n      swap2\n      swap1\n      pop\n      jump\t// out\n        /* \"#utility.yul\":3856:4222   */\n    tag_209:\n        /* \"#utility.yul\":3998:4001   */\n      0x00\n        /* \"#utility.yul\":4019:4086   */\n      tag_211\n        /* \"#utility.yul\":4083:4085   */\n      0x0d\n        /* \"#utility.yul\":4078:4081   */\n      dup4\n        /* \"#utility.yul\":4019:4086   */\n      tag_199\n      jump\t// in\n    tag_211:\n        /* \"#utility.yul\":4012:4086   */\n      swap2\n      pop\n        /* \"#utility.yul\":4095:4188   */\n      tag_212\n        /* \"#utility.yul\":4184:4187   */\n      dup3\n        /* \"#utility.yul\":4095:4188   */\n      tag_213\n      jump\t// in\n    tag_212:\n        /* \"#utility.yul\":4213:4215   */\n      0x20\n        /* \"#utility.yul\":4208:4211   */\n      dup3\n        /* \"#utility.yul\":4204:4216   */\n      add\n        /* \"#utility.yul\":4197:4216   */\n      swap1\n      pop\n        /* \"#utility.yul\":3856:4222   */\n      swap2\n      swap1\n      pop\n      jump\t// out\n        /* \"#utility.yul\":4228:4594   */\n    tag_214:\n        /* \"#utility.yul\":4370:4373   */\n      0x00\n        /* \"#utility.yul\":4391:4458   */\n      tag_216\n        /* \"#utility.yul\":4455:4457   */\n      0x10\n        /* \"#utility.yul\":4450:4453   */\n      dup4\n        /* \"#utility.yul\":4391:4458   */\n      tag_199\n      jump\t// in\n    tag_216:\n        /* \"#utility.yul\":4384:4458   */\n      swap2\n      pop\n        /* \"#utility.yul\":4467:4560   */\n      tag_217\n        /* \"#utility.yul\":4556:4559   */\n      dup3\n        /* \"#utility.yul\":4467:4560   */\n      tag_218\n      jump\t// in\n    tag_217:\n        /* \"#utility.yul\":4585:4587   */\n      0x20\n        /* \"#utility.yul\":4580:4583   */\n      dup3\n        /* \"#utility.yul\":4576:4588   */\n      add\n        /* \"#utility.yul\":4569:4588   */\n      swap1\n      pop\n        /* \"#utility.yul\":4228:4594   */\n      swap2\n      swap1\n      pop\n      jump\t// out\n        /* \"#utility.yul\":4600:4966   */\n    tag_219:\n        /* \"#utility.yul\":4742:4745   */\n      0x00\n        /* \"#utility.yul\":4763:4830   */\n      tag_221\n        /* \"#utility.yul\":4827:4829   */\n      0x14\n        /* \"#utility.yul\":4822:4825   */\n      dup4\n        /* \"#utility.yul\":4763:4830   */\n      tag_199\n      jump\t// in\n    tag_221:\n        /* \"#utility.yul\":4756:4830   */\n      swap2\n      pop\n        /* \"#utility.yul\":4839:4932   */\n      tag_222\n        /* \"#utility.yul\":4928:4931   */\n      dup3\n        /* \"#utility.yul\":4839:4932   */\n      tag_223\n      jump\t// in\n    tag_222:\n        /* \"#utility.yul\":4957:4959   */\n      0x20\n        /* \"#utility.yul\":4952:4955   */\n      dup3\n        /* \"#utility.yul\":4948:4960   */\n      add\n        /* \"#utility.yul\":4941:4960   */\n      swap1\n      pop\n        /* \"#utility.yul\":4600:4966   */\n      swap2\n      swap1\n      pop\n      jump\t// out\n        /* \"#utility.yul\":4972:5338   */\n    tag_224:\n        /* \"#utility.yul\":5114:5117   */\n      0x00\n        /* \"#utility.yul\":5135:5202   */\n      tag_226\n        /* \"#utility.yul\":5199:5201   */\n      0x0c\n        /* \"#utility.yul\":5194:5197   */\n      dup4\n        /* \"#utility.yul\":5135:5202   */\n      tag_199\n      jump\t// in\n    tag_226:\n        /* \"#utility.yul\":5128:5202   */\n      swap2\n      pop\n        /* \"#utility.yul\":5211:5304   */\n      tag_227\n        /* \"#utility.yul\":5300:5303   */\n      dup3\n        /* \"#utility.yul\":5211:5304   */\n      tag_228\n      jump\t// in\n    tag_227:\n        /* \"#utility.yul\":5329:5331   */\n      0x20\n        /* \"#utility.yul\":5324:5327   */\n      dup3\n        /* \"#utility.yul\":5320:5332   */\n      add\n        /* \"#utility.yul\":5313:5332   */\n      swap1\n      pop\n        /* \"#utility.yul\":4972:5338   */\n      swap2\n      swap1\n      pop\n      jump\t// out\n        /* \"#utility.yul\":5344:5710   */\n    tag_229:\n        /* \"#utility.yul\":5486:5489   */\n      0x00\n        /* \"#utility.yul\":5507:5574   */\n      tag_231\n        /* \"#utility.yul\":5571:5573   */\n      0x23\n        /* \"#utility.yul\":5566:5569   */\n      dup4\n        /* \"#utility.yul\":5507:5574   */\n      tag_199\n      jump\t// in\n    tag_231:\n        /* \"#utility.yul\":5500:5574   */\n      swap2\n      pop\n        /* \"#utility.yul\":5583:5676   */\n      tag_232\n        /* \"#utility.yul\":5672:5675   */\n      dup3\n        /* \"#utility.yul\":5583:5676   */\n      tag_233\n      jump\t// in\n    tag_232:\n        /* \"#utility.yul\":5701:5703   */\n      0x40\n        /* \"#utility.yul\":5696:5699   */\n      dup3\n        /* \"#utility.yul\":5692:5704   */\n      add\n        /* \"#utility.yul\":5685:5704   */\n      swap1\n      pop\n        /* \"#utility.yul\":5344:5710   */\n      swap2\n      swap1\n      pop\n      jump\t// out\n        /* \"#utility.yul\":5716:6082   */\n    tag_234:\n        /* \"#utility.yul\":5858:5861   */\n      0x00\n        /* \"#utility.yul\":5879:5946   */\n      tag_236\n        /* \"#utility.yul\":5943:5945   */\n      0x11\n        /* \"#utility.yul\":5938:5941   */\n      dup4\n        /* \"#utility.yul\":5879:5946   */\n      tag_199\n      jump\t// in\n    tag_236:\n        /* \"#utility.yul\":5872:5946   */\n      swap2\n      pop\n        /* \"#utility.yul\":5955:6048   */\n      tag_237\n        /* \"#utility.yul\":6044:6047   */\n      dup3\n        /* \"#utility.yul\":5955:6048   */\n      tag_238\n      jump\t// in\n    tag_237:\n        /* \"#utility.yul\":6073:6075   */\n      0x20\n        /* \"#utility.yul\":6068:6071   */\n      dup3\n        /* \"#utility.yul\":6064:6076   */\n      add\n        /* \"#utility.yul\":6057:6076   */\n      swap1\n      pop\n        /* \"#utility.yul\":5716:6082   */\n      swap2\n      swap1\n      pop\n      jump\t// out\n        /* \"#utility.yul\":6088:6206   */\n    tag_239:\n        /* \"#utility.yul\":6175:6199   */\n      tag_241\n        /* \"#utility.yul\":6193:6198   */\n      dup2\n        /* \"#utility.yul\":6175:6199   */\n      tag_242\n      jump\t// in\n    tag_241:\n        /* \"#utility.yul\":6170:6173   */\n      dup3\n        /* \"#utility.yul\":6163:6200   */\n      mstore\n        /* \"#utility.yul\":6088:6206   */\n      pop\n      pop\n      jump\t// out\n        /* \"#utility.yul\":6212:6434   */\n    tag_61:\n        /* \"#utility.yul\":6305:6309   */\n      0x00\n        /* \"#utility.yul\":6343:6345   */\n      0x20\n        /* \"#utility.yul\":6332:6341   */\n      dup3\n        /* \"#utility.yul\":6328:6346   */\n      add\n        /* \"#utility.yul\":6320:6346   */\n      swap1\n      pop\n        /* \"#utility.yul\":6356:6427   */\n      tag_244\n        /* \"#utility.yul\":6424:6425   */\n      0x00\n        /* \"#utility.yul\":6413:6422   */\n      dup4\n        /* \"#utility.yul\":6409:6426   */\n      add\n        /* \"#utility.yul\":6400:6406   */\n      dup5\n        /* \"#utility.yul\":6356:6427   */\n      tag_186\n      jump\t// in\n    tag_244:\n        /* \"#utility.yul\":6212:6434   */\n      swap3\n      swap2\n      pop\n      pop\n      jump\t// out\n        /* \"#utility.yul\":6440:7215   */\n    tag_26:\n        /* \"#utility.yul\":6675:6679   */\n      0x00\n        /* \"#utility.yul\":6713:6716   */\n      0xa0\n        /* \"#utility.yul\":6702:6711   */\n      dup3\n        /* \"#utility.yul\":6698:6717   */\n      add\n        /* \"#utility.yul\":6690:6717   */\n      swap1\n      pop\n        /* \"#utility.yul\":6763:6772   */\n      dup2\n        /* \"#utility.yul\":6757:6761   */\n      dup2\n        /* \"#utility.yul\":6753:6773   */\n      sub\n        /* \"#utility.yul\":6749:6750   */\n      0x00\n        /* \"#utility.yul\":6738:6747   */\n      dup4\n        /* \"#utility.yul\":6734:6751   */\n      add\n        /* \"#utility.yul\":6727:6774   */\n      mstore\n        /* \"#utility.yul\":6791:6869   */\n      tag_246\n        /* \"#utility.yul\":6864:6868   */\n      dup2\n        /* \"#utility.yul\":6855:6861   */\n      dup9\n        /* \"#utility.yul\":6791:6869   */\n      tag_194\n      jump\t// in\n    tag_246:\n        /* \"#utility.yul\":6783:6869   */\n      swap1\n      pop\n        /* \"#utility.yul\":6879:6951   */\n      tag_247\n        /* \"#utility.yul\":6947:6949   */\n      0x20\n        /* \"#utility.yul\":6936:6945   */\n      dup4\n        /* \"#utility.yul\":6932:6950   */\n      add\n        /* \"#utility.yul\":6923:6929   */\n      dup8\n        /* \"#utility.yul\":6879:6951   */\n      tag_239\n      jump\t// in\n    tag_247:\n        /* \"#utility.yul\":6961:7049   */\n      tag_248\n        /* \"#utility.yul\":7045:7047   */\n      0x40\n        /* \"#utility.yul\":7034:7043   */\n      dup4\n        /* \"#utility.yul\":7030:7048   */\n      add\n        /* \"#utility.yul\":7021:7027   */\n      dup7\n        /* \"#utility.yul\":6961:7049   */\n      tag_182\n      jump\t// in\n    tag_248:\n        /* \"#utility.yul\":7059:7131   */\n      tag_249\n        /* \"#utility.yul\":7127:7129   */\n      0x60\n        /* \"#utility.yul\":7116:7125   */\n      dup4\n        /* \"#utility.yul\":7112:7130   */\n      add\n        /* \"#utility.yul\":7103:7109   */\n      dup6\n        /* \"#utility.yul\":7059:7131   */\n      tag_239\n      jump\t// in\n    tag_249:\n        /* \"#utility.yul\":7141:7208   */\n      tag_250\n        /* \"#utility.yul\":7203:7206   */\n      0x80\n        /* \"#utility.yul\":7192:7201   */\n      dup4\n        /* \"#utility.yul\":7188:7207   */\n      add\n        /* \"#utility.yul\":7179:7185   */\n      dup5\n        /* \"#utility.yul\":7141:7208   */\n      tag_190\n      jump\t// in\n    tag_250:\n        /* \"#utility.yul\":6440:7215   */\n      swap7\n      swap6\n      pop\n      pop\n      pop\n      pop\n      pop\n      pop\n      jump\t// out\n        /* \"#utility.yul\":7221:7640   */\n    tag_117:\n        /* \"#utility.yul\":7387:7391   */\n      0x00\n        /* \"#utility.yul\":7425:7427   */\n      0x20\n        /* \"#utility.yul\":7414:7423   */\n      dup3\n        /* \"#utility.yul\":7410:7428   */\n      add\n        /* \"#utility.yul\":7402:7428   */\n      swap1\n      pop\n        /* \"#utility.yul\":7474:7483   */\n      dup2\n        /* \"#utility.yul\":7468:7472   */\n      dup2\n        /* \"#utility.yul\":7464:7484   */\n      sub\n        /* \"#utility.yul\":7460:7461   */\n      0x00\n        /* \"#utility.yul\":7449:7458   */\n      dup4\n        /* \"#utility.yul\":7445:7462   */\n      add\n        /* \"#utility.yul\":7438:7485   */\n      mstore\n        /* \"#utility.yul\":7502:7633   */\n      tag_252\n        /* \"#utility.yul\":7628:7632   */\n      dup2\n        /* \"#utility.yul\":7502:7633   */\n      tag_204\n      jump\t// in\n    tag_252:\n        /* \"#utility.yul\":7494:7633   */\n      swap1\n      pop\n        /* \"#utility.yul\":7221:7640   */\n      swap2\n      swap1\n      pop\n      jump\t// out\n        /* \"#utility.yul\":7646:8065   */\n    tag_110:\n        /* \"#utility.yul\":7812:7816   */\n      0x00\n        /* \"#utility.yul\":7850:7852   */\n      0x20\n        /* \"#utility.yul\":7839:7848   */\n      dup3\n        /* \"#utility.yul\":7835:7853   */\n      add\n        /* \"#utility.yul\":7827:7853   */\n      swap1\n      pop\n        /* \"#utility.yul\":7899:7908   */\n      dup2\n        /* \"#utility.yul\":7893:7897   */\n      dup2\n        /* \"#utility.yul\":7889:7909   */\n      sub\n        /* \"#utility.yul\":7885:7886   */\n      0x00\n        /* \"#utility.yul\":7874:7883   */\n      dup4\n        /* \"#utility.yul\":7870:7887   */\n      add\n        /* \"#utility.yul\":7863:7910   */\n      mstore\n        /* \"#utility.yul\":7927:8058   */\n      tag_254\n        /* \"#utility.yul\":8053:8057   */\n      dup2\n        /* \"#utility.yul\":7927:8058   */\n      tag_209\n      jump\t// in\n    tag_254:\n        /* \"#utility.yul\":7919:8058   */\n      swap1\n      pop\n        /* \"#utility.yul\":7646:8065   */\n      swap2\n      swap1\n      pop\n      jump\t// out\n        /* \"#utility.yul\":8071:8490   */\n    tag_95:\n        /* \"#utility.yul\":8237:8241   */\n      0x00\n        /* \"#utility.yul\":8275:8277   */\n      0x20\n        /* \"#utility.yul\":8264:8273   */\n      dup3\n        /* \"#utility.yul\":8260:8278   */\n      add\n        /* \"#utility.yul\":8252:8278   */\n      swap1\n      pop\n        /* \"#utility.yul\":8324:8333   */\n      dup2\n        /* \"#utility.yul\":8318:8322   */\n      dup2\n        /* \"#utility.yul\":8314:8334   */\n      sub\n        /* \"#utility.yul\":8310:8311   */\n      0x00\n        /* \"#utility.yul\":8299:8308   */\n      dup4\n        /* \"#utility.yul\":8295:8312   */\n      add\n        /* \"#utility.yul\":8288:8335   */\n      mstore\n        /* \"#utility.yul\":8352:8483   */\n      tag_256\n        /* \"#utility.yul\":8478:8482   */\n      dup2\n        /* \"#utility.yul\":8352:8483   */\n      tag_214\n      jump\t// in\n    tag_256:\n        /* \"#utility.yul\":8344:8483   */\n      swap1\n      pop\n        /* \"#utility.yul\":8071:8490   */\n      swap2\n      swap1\n      pop\n      jump\t// out\n        /* \"#utility.yul\":8496:8915   */\n    tag_114:\n        /* \"#utility.yul\":8662:8666   */\n      0x00\n        /* \"#utility.yul\":8700:8702   */\n      0x20\n        /* \"#utility.yul\":8689:8698   */\n      dup3\n        /* \"#utility.yul\":8685:8703   */\n      add\n        /* \"#utility.yul\":8677:8703   */\n      swap1\n      pop\n        /* \"#utility.yul\":8749:8758   */\n      dup2\n        /* \"#utility.yul\":8743:8747   */\n      dup2\n        /* \"#utility.yul\":8739:8759   */\n      sub\n        /* \"#utility.yul\":8735:8736   */\n      0x00\n        /* \"#utility.yul\":8724:8733   */\n      dup4\n        /* \"#utility.yul\":8720:8737   */\n      add\n        /* \"#utility.yul\":8713:8760   */\n      mstore\n        /* \"#utility.yul\":8777:8908   */\n      tag_258\n        /* \"#utility.yul\":8903:8907   */\n      dup2\n        /* \"#utility.yul\":8777:8908   */\n      tag_219\n      jump\t// in\n    tag_258:\n        /* \"#utility.yul\":8769:8908   */\n      swap1\n      pop\n        /* \"#utility.yul\":8496:8915   */\n      swap2\n      swap1\n      pop\n      jump\t// out\n        /* \"#utility.yul\":8921:9340   */\n    tag_107:\n        /* \"#utility.yul\":9087:9091   */\n      0x00\n        /* \"#utility.yul\":9125:9127   */\n      0x20\n        /* \"#utility.yul\":9114:9123   */\n      dup3\n        /* \"#utility.yul\":9110:9128   */\n      add\n        /* \"#utility.yul\":9102:9128   */\n      swap1\n      pop\n        /* \"#utility.yul\":9174:9183   */\n      dup2\n        /* \"#utility.yul\":9168:9172   */\n      dup2\n        /* \"#utility.yul\":9164:9184   */\n      sub\n        /* \"#utility.yul\":9160:9161   */\n      0x00\n        /* \"#utility.yul\":9149:9158   */\n      dup4\n        /* \"#utility.yul\":9145:9162   */\n      add\n        /* \"#utility.yul\":9138:9185   */\n      mstore\n        /* \"#utility.yul\":9202:9333   */\n      tag_260\n        /* \"#utility.yul\":9328:9332   */\n      dup2\n        /* \"#utility.yul\":9202:9333   */\n      tag_224\n      jump\t// in\n    tag_260:\n        /* \"#utility.yul\":9194:9333   */\n      swap1\n      pop\n        /* \"#utility.yul\":8921:9340   */\n      swap2\n      swap1\n      pop\n      jump\t// out\n        /* \"#utility.yul\":9346:9765   */\n    tag_98:\n        /* \"#utility.yul\":9512:9516   */\n      0x00\n        /* \"#utility.yul\":9550:9552   */\n      0x20\n        /* \"#utility.yul\":9539:9548   */\n      dup3\n        /* \"#utility.yul\":9535:9553   */\n      add\n        /* \"#utility.yul\":9527:9553   */\n      swap1\n      pop\n        /* \"#utility.yul\":9599:9608   */\n      dup2\n        /* \"#utility.yul\":9593:9597   */\n      dup2\n        /* \"#utility.yul\":9589:9609   */\n      sub\n        /* \"#utility.yul\":9585:9586   */\n      0x00\n        /* \"#utility.yul\":9574:9583   */\n      dup4\n        /* \"#utility.yul\":9570:9587   */\n      add\n        /* \"#utility.yul\":9563:9610   */\n      mstore\n        /* \"#utility.yul\":9627:9758   */\n      tag_262\n        /* \"#utility.yul\":9753:9757   */\n      dup2\n        /* \"#utility.yul\":9627:9758   */\n      tag_229\n      jump\t// in\n    tag_262:\n        /* \"#utility.yul\":9619:9758   */\n      swap1\n      pop\n        /* \"#utility.yul\":9346:9765   */\n      swap2\n      swap1\n      pop\n      jump\t// out\n        /* \"#utility.yul\":9771:10190   */\n    tag_86:\n        /* \"#utility.yul\":9937:9941   */\n      0x00\n        /* \"#utility.yul\":9975:9977   */\n      0x20\n        /* \"#utility.yul\":9964:9973   */\n      dup3\n        /* \"#utility.yul\":9960:9978   */\n      add\n        /* \"#utility.yul\":9952:9978   */\n      swap1\n      pop\n        /* \"#utility.yul\":10024:10033   */\n      dup2\n        /* \"#utility.yul\":10018:10022   */\n      dup2\n        /* \"#utility.yul\":10014:10034   */\n      sub\n        /* \"#utility.yul\":10010:10011   */\n      0x00\n        /* \"#utility.yul\":9999:10008   */\n      dup4\n        /* \"#utility.yul\":9995:10012   */\n      add\n        /* \"#utility.yul\":9988:10035   */\n      mstore\n        /* \"#utility.yul\":10052:10183   */\n      tag_264\n        /* \"#utility.yul\":10178:10182   */\n      dup2\n        /* \"#utility.yul\":10052:10183   */\n      tag_234\n      jump\t// in\n    tag_264:\n        /* \"#utility.yul\":10044:10183   */\n      swap1\n      pop\n        /* \"#utility.yul\":9771:10190   */\n      swap2\n      swap1\n      pop\n      jump\t// out\n        /* \"#utility.yul\":10196:10418   */\n    tag_33:\n        /* \"#utility.yul\":10289:10293   */\n      0x00\n        /* \"#utility.yul\":10327:10329   */\n      0x20\n        /* \"#utility.yul\":10316:10325   */\n      dup3\n        /* \"#utility.yul\":10312:10330   */\n      add\n        /* \"#utility.yul\":10304:10330   */\n      swap1\n      pop\n        /* \"#utility.yul\":10340:10411   */\n      tag_266\n        /* \"#utility.yul\":10408:10409   */\n      0x00\n        /* \"#utility.yul\":10397:10406   */\n      dup4\n        /* \"#utility.yul\":10393:10410   */\n      add\n        /* \"#utility.yul\":10384:10390   */\n      dup5\n        /* \"#utility.yul\":10340:10411   */\n      tag_239\n      jump\t// in\n    tag_266:\n        /* \"#utility.yul\":10196:10418   */\n      swap3\n      swap2\n      pop\n      pop\n      jump\t// out\n        /* \"#utility.yul\":10424:10553   */\n    tag_140:\n        /* \"#utility.yul\":10458:10464   */\n      0x00\n        /* \"#utility.yul\":10485:10505   */\n      tag_268\n      tag_269\n      jump\t// in\n    tag_268:\n        /* \"#utility.yul\":10475:10505   */\n      swap1\n      pop\n        /* \"#utility.yul\":10514:10547   */\n      tag_270\n        /* \"#utility.yul\":10542:10546   */\n      dup3\n        /* \"#utility.yul\":10534:10540   */\n      dup3\n        /* \"#utility.yul\":10514:10547   */\n      tag_271\n      jump\t// in\n    tag_270:\n        /* \"#utility.yul\":10424:10553   */\n      swap2\n      swap1\n      pop\n      jump\t// out\n        /* \"#utility.yul\":10559:10634   */\n    tag_269:\n        /* \"#utility.yul\":10592:10598   */\n      0x00\n        /* \"#utility.yul\":10625:10627   */\n      0x40\n        /* \"#utility.yul\":10619:10628   */\n      mload\n        /* \"#utility.yul\":10609:10628   */\n      swap1\n      pop\n        /* \"#utility.yul\":10559:10634   */\n      swap1\n      jump\t// out\n        /* \"#utility.yul\":10640:10948   */\n    tag_139:\n        /* \"#utility.yul\":10702:10706   */\n      0x00\n        /* \"#utility.yul\":10792:10810   */\n      0xffffffffffffffff\n        /* \"#utility.yul\":10784:10790   */\n      dup3\n        /* \"#utility.yul\":10781:10811   */\n      gt\n        /* \"#utility.yul\":10778:10834   */\n      iszero\n      tag_274\n      jumpi\n        /* \"#utility.yul\":10814:10832   */\n      tag_275\n      tag_276\n      jump\t// in\n    tag_275:\n        /* \"#utility.yul\":10778:10834   */\n    tag_274:\n        /* \"#utility.yul\":10852:10881   */\n      tag_277\n        /* \"#utility.yul\":10874:10880   */\n      dup3\n        /* \"#utility.yul\":10852:10881   */\n      tag_203\n      jump\t// in\n    tag_277:\n        /* \"#utility.yul\":10844:10881   */\n      swap1\n      pop\n        /* \"#utility.yul\":10936:10940   */\n      0x20\n        /* \"#utility.yul\":10930:10934   */\n      dup2\n        /* \"#utility.yul\":10926:10941   */\n      add\n        /* \"#utility.yul\":10918:10941   */\n      swap1\n      pop\n        /* \"#utility.yul\":10640:10948   */\n      swap2\n      swap1\n      pop\n      jump\t// out\n        /* \"#utility.yul\":10954:11053   */\n    tag_197:\n        /* \"#utility.yul\":11006:11012   */\n      0x00\n        /* \"#utility.yul\":11040:11045   */\n      dup2\n        /* \"#utility.yul\":11034:11046   */\n      mload\n        /* \"#utility.yul\":11024:11046   */\n      swap1\n      pop\n        /* \"#utility.yul\":10954:11053   */\n      swap2\n      swap1\n      pop\n      jump\t// out\n        /* \"#utility.yul\":11059:11228   */\n    tag_199:\n        /* \"#utility.yul\":11143:11154   */\n      0x00\n        /* \"#utility.yul\":11177:11183   */\n      dup3\n        /* \"#utility.yul\":11172:11175   */\n      dup3\n        /* \"#utility.yul\":11165:11184   */\n      mstore\n        /* \"#utility.yul\":11217:11221   */\n      0x20\n        /* \"#utility.yul\":11212:11215   */\n      dup3\n        /* \"#utility.yul\":11208:11222   */\n      add\n        /* \"#utility.yul\":11193:11222   */\n      swap1\n      pop\n        /* \"#utility.yul\":11059:11228   */\n      swap3\n      swap2\n      pop\n      pop\n      jump\t// out\n        /* \"#utility.yul\":11234:11539   */\n    tag_102:\n        /* \"#utility.yul\":11274:11277   */\n      0x00\n        /* \"#utility.yul\":11293:11313   */\n      tag_281\n        /* \"#utility.yul\":11311:11312   */\n      dup3\n        /* \"#utility.yul\":11293:11313   */\n      tag_242\n      jump\t// in\n    tag_281:\n        /* \"#utility.yul\":11288:11313   */\n      swap2\n      pop\n        /* \"#utility.yul\":11327:11347   */\n      tag_282\n        /* \"#utility.yul\":11345:11346   */\n      dup4\n        /* \"#utility.yul\":11327:11347   */\n      tag_242\n      jump\t// in\n    tag_282:\n        /* \"#utility.yul\":11322:11347   */\n      swap3\n      pop\n        /* \"#utility.yul\":11481:11482   */\n      dup3\n        /* \"#utility.yul\":11413:11479   */\n      0xffffffffffffffffffffffffffffffffffffffffffffffffffffffffffffffff\n        /* \"#utility.yul\":11409:11483   */\n      sub\n        /* \"#utility.yul\":11406:11407   */\n      dup3\n        /* \"#utility.yul\":11403:11484   */\n      gt\n        /* \"#utility.yul\":11400:11507   */\n      iszero\n      tag_283\n      jumpi\n        /* \"#utility.yul\":11487:11505   */\n      tag_284\n      tag_285\n      jump\t// in\n    tag_284:\n        /* \"#utility.yul\":11400:11507   */\n    tag_283:\n        /* \"#utility.yul\":11531:11532   */\n      dup3\n        /* \"#utility.yul\":11528:11529   */\n      dup3\n        /* \"#utility.yul\":11524:11533   */\n      add\n        /* \"#utility.yul\":11517:11533   */\n      swap1\n      pop\n        /* \"#utility.yul\":11234:11539   */\n      swap3\n      swap2\n      pop\n      pop\n      jump\t// out\n        /* \"#utility.yul\":11545:11736   */\n    tag_123:\n        /* \"#utility.yul\":11585:11589   */\n      0x00\n        /* \"#utility.yul\":11605:11625   */\n      tag_287\n        /* \"#utility.yul\":11623:11624   */\n      dup3\n        /* \"#utility.yul\":11605:11625   */\n      tag_242\n      jump\t// in\n    tag_287:\n        /* \"#utility.yul\":11600:11625   */\n      swap2\n      pop\n        /* \"#utility.yul\":11639:11659   */\n      tag_288\n        /* \"#utility.yul\":11657:11658   */\n      dup4\n        /* \"#utility.yul\":11639:11659   */\n      tag_242\n      jump\t// in\n    tag_288:\n        /* \"#utility.yul\":11634:11659   */\n      swap3\n      pop\n        /* \"#utility.yul\":11678:11679   */\n      dup3\n        /* \"#utility.yul\":11675:11676   */\n      dup3\n        /* \"#utility.yul\":11672:11680   */\n      lt\n        /* \"#utility.yul\":11669:11703   */\n      iszero\n      tag_289\n      jumpi\n        /* \"#utility.yul\":11683:11701   */\n      tag_290\n      tag_285\n      jump\t// in\n    tag_290:\n        /* \"#utility.yul\":11669:11703   */\n    tag_289:\n        /* \"#utility.yul\":11728:11729   */\n      dup3\n        /* \"#utility.yul\":11725:11726   */\n      dup3\n        /* \"#utility.yul\":11721:11730   */\n      sub\n        /* \"#utility.yul\":11713:11730   */\n      swap1\n      pop\n        /* \"#utility.yul\":11545:11736   */\n      swap3\n      swap2\n      pop\n      pop\n      jump\t// out\n        /* \"#utility.yul\":11742:11838   */\n    tag_189:\n        /* \"#utility.yul\":11779:11786   */\n      0x00\n        /* \"#utility.yul\":11808:11832   */\n      tag_292\n        /* \"#utility.yul\":11826:11831   */\n      dup3\n        /* \"#utility.yul\":11808:11832   */\n      tag_293\n      jump\t// in\n    tag_292:\n        /* \"#utility.yul\":11797:11832   */\n      swap1\n      pop\n        /* \"#utility.yul\":11742:11838   */\n      swap2\n      swap1\n      pop\n      jump\t// out\n        /* \"#utility.yul\":11844:11948   */\n    tag_185:\n        /* \"#utility.yul\":11889:11896   */\n      0x00\n        /* \"#utility.yul\":11918:11942   */\n      tag_295\n        /* \"#utility.yul\":11936:11941   */\n      dup3\n        /* \"#utility.yul\":11918:11942   */\n      tag_293\n      jump\t// in\n    tag_295:\n        /* \"#utility.yul\":11907:11942   */\n      swap1\n      pop\n        /* \"#utility.yul\":11844:11948   */\n      swap2\n      swap1\n      pop\n      jump\t// out\n        /* \"#utility.yul\":11954:12044   */\n    tag_193:\n        /* \"#utility.yul\":11988:11995   */\n      0x00\n        /* \"#utility.yul\":12031:12036   */\n      dup2\n        /* \"#utility.yul\":12024:12037   */\n      iszero\n        /* \"#utility.yul\":12017:12038   */\n      iszero\n        /* \"#utility.yul\":12006:12038   */\n      swap1\n      pop\n        /* \"#utility.yul\":11954:12044   */\n      swap2\n      swap1\n      pop\n      jump\t// out\n        /* \"#utility.yul\":12050:12176   */\n    tag_293:\n        /* \"#utility.yul\":12087:12094   */\n      0x00\n        /* \"#utility.yul\":12127:12169   */\n      0xffffffffffffffffffffffffffffffffffffffff\n        /* \"#utility.yul\":12120:12125   */\n      dup3\n        /* \"#utility.yul\":12116:12170   */\n      and\n        /* \"#utility.yul\":12105:12170   */\n      swap1\n      pop\n        /* \"#utility.yul\":12050:12176   */\n      swap2\n      swap1\n      pop\n      jump\t// out\n        /* \"#utility.yul\":12182:12259   */\n    tag_242:\n        /* \"#utility.yul\":12219:12226   */\n      0x00\n        /* \"#utility.yul\":12248:12253   */\n      dup2\n        /* \"#utility.yul\":12237:12253   */\n      swap1\n      pop\n        /* \"#utility.yul\":12182:12259   */\n      swap2\n      swap1\n      pop\n      jump\t// out\n        /* \"#utility.yul\":12265:12419   */\n    tag_145:\n        /* \"#utility.yul\":12349:12355   */\n      dup3\n        /* \"#utility.yul\":12344:12347   */\n      dup2\n        /* \"#utility.yul\":12339:12342   */\n      dup4\n        /* \"#utility.yul\":12326:12356   */\n      calldatacopy\n        /* \"#utility.yul\":12411:12412   */\n      0x00\n        /* \"#utility.yul\":12402:12408   */\n      dup4\n        /* \"#utility.yul\":12397:12400   */\n      dup4\n        /* \"#utility.yul\":12393:12409   */\n      add\n        /* \"#utility.yul\":12386:12413   */\n      mstore\n        /* \"#utility.yul\":12265:12419   */\n      pop\n      pop\n      pop\n      jump\t// out\n        /* \"#utility.yul\":12425:12732   */\n    tag_201:\n        /* \"#utility.yul\":12493:12494   */\n      0x00\n        /* \"#utility.yul\":12503:12616   */\n    tag_301:\n        /* \"#utility.yul\":12517:12523   */\n      dup4\n        /* \"#utility.yul\":12514:12515   */\n      dup2\n        /* \"#utility.yul\":12511:12524   */\n      lt\n        /* \"#utility.yul\":12503:12616   */\n      iszero\n      tag_303\n      jumpi\n        /* \"#utility.yul\":12602:12603   */\n      dup1\n        /* \"#utility.yul\":12597:12600   */\n      dup3\n        /* \"#utility.yul\":12593:12604   */\n      add\n        /* \"#utility.yul\":12587:12605   */\n      mload\n        /* \"#utility.yul\":12583:12584   */\n      dup2\n        /* \"#utility.yul\":12578:12581   */\n      dup5\n        /* \"#utility.yul\":12574:12585   */\n      add\n        /* \"#utility.yul\":12567:12606   */\n      mstore\n        /* \"#utility.yul\":12539:12541   */\n      0x20\n        /* \"#utility.yul\":12536:12537   */\n      dup2\n        /* \"#utility.yul\":12532:12542   */\n      add\n        /* \"#utility.yul\":12527:12542   */\n      swap1\n      pop\n        /* \"#utility.yul\":12503:12616   */\n      jump(tag_301)\n    tag_303:\n        /* \"#utility.yul\":12634:12640   */\n      dup4\n        /* \"#utility.yul\":12631:12632   */\n      dup2\n        /* \"#utility.yul\":12628:12641   */\n      gt\n        /* \"#utility.yul\":12625:12726   */\n      iszero\n      tag_304\n      jumpi\n        /* \"#utility.yul\":12714:12715   */\n      0x00\n        /* \"#utility.yul\":12705:12711   */\n      dup5\n        /* \"#utility.yul\":12700:12703   */\n      dup5\n        /* \"#utility.yul\":12696:12712   */\n      add\n        /* \"#utility.yul\":12689:12716   */\n      mstore\n        /* \"#utility.yul\":12625:12726   */\n    tag_304:\n        /* \"#utility.yul\":12474:12732   */\n      pop\n        /* \"#utility.yul\":12425:12732   */\n      pop\n      pop\n      pop\n      jump\t// out\n        /* \"#utility.yul\":12738:13058   */\n    tag_78:\n        /* \"#utility.yul\":12782:12788   */\n      0x00\n        /* \"#utility.yul\":12819:12820   */\n      0x02\n        /* \"#utility.yul\":12813:12817   */\n      dup3\n        /* \"#utility.yul\":12809:12821   */\n      div\n        /* \"#utility.yul\":12799:12821   */\n      swap1\n      pop\n        /* \"#utility.yul\":12866:12867   */\n      0x01\n        /* \"#utility.yul\":12860:12864   */\n      dup3\n        /* \"#utility.yul\":12856:12868   */\n      and\n        /* \"#utility.yul\":12887:12905   */\n      dup1\n        /* \"#utility.yul\":12877:12958   */\n      tag_306\n      jumpi\n        /* \"#utility.yul\":12943:12947   */\n      0x7f\n        /* \"#utility.yul\":12935:12941   */\n      dup3\n        /* \"#utility.yul\":12931:12948   */\n      and\n        /* \"#utility.yul\":12921:12948   */\n      swap2\n      pop\n        /* \"#utility.yul\":12877:12958   */\n    tag_306:\n        /* \"#utility.yul\":13005:13007   */\n      0x20\n        /* \"#utility.yul\":12997:13003   */\n      dup3\n        /* \"#utility.yul\":12994:13008   */\n      lt\n        /* \"#utility.yul\":12974:12992   */\n      dup2\n        /* \"#utility.yul\":12971:13009   */\n      eq\n        /* \"#utility.yul\":12968:13052   */\n      iszero\n      tag_307\n      jumpi\n        /* \"#utility.yul\":13024:13042   */\n      tag_308\n      tag_309\n      jump\t// in\n    tag_308:\n        /* \"#utility.yul\":12968:13052   */\n    tag_307:\n        /* \"#utility.yul\":12789:13058   */\n      pop\n        /* \"#utility.yul\":12738:13058   */\n      swap2\n      swap1\n      pop\n      jump\t// out\n        /* \"#utility.yul\":13064:13345   */\n    tag_271:\n        /* \"#utility.yul\":13147:13174   */\n      tag_311\n        /* \"#utility.yul\":13169:13173   */\n      dup3\n        /* \"#utility.yul\":13147:13174   */\n      tag_203\n      jump\t// in\n    tag_311:\n        /* \"#utility.yul\":13139:13145   */\n      dup2\n        /* \"#utility.yul\":13135:13175   */\n      add\n        /* \"#utility.yul\":13277:13283   */\n      dup2\n        /* \"#utility.yul\":13265:13275   */\n      dup2\n        /* \"#utility.yul\":13262:13284   */\n      lt\n        /* \"#utility.yul\":13241:13259   */\n      0xffffffffffffffff\n        /* \"#utility.yul\":13229:13239   */\n      dup3\n        /* \"#utility.yul\":13226:13260   */\n      gt\n        /* \"#utility.yul\":13223:13285   */\n      or\n        /* \"#utility.yul\":13220:13308   */\n      iszero\n      tag_312\n      jumpi\n        /* \"#utility.yul\":13288:13306   */\n      tag_313\n      tag_276\n      jump\t// in\n    tag_313:\n        /* \"#utility.yul\":13220:13308   */\n    tag_312:\n        /* \"#utility.yul\":13328:13338   */\n      dup1\n        /* \"#utility.yul\":13324:13326   */\n      0x40\n        /* \"#utility.yul\":13317:13339   */\n      mstore\n        /* \"#utility.yul\":13107:13345   */\n      pop\n        /* \"#utility.yul\":13064:13345   */\n      pop\n      pop\n      jump\t// out\n        /* \"#utility.yul\":13351:13584   */\n    tag_89:\n        /* \"#utility.yul\":13390:13393   */\n      0x00\n        /* \"#utility.yul\":13413:13437   */\n      tag_315\n        /* \"#utility.yul\":13431:13436   */\n      dup3\n        /* \"#utility.yul\":13413:13437   */\n      tag_242\n      jump\t// in\n    tag_315:\n        /* \"#utility.yul\":13404:13437   */\n      swap2\n      pop\n        /* \"#utility.yul\":13459:13525   */\n      0xffffffffffffffffffffffffffffffffffffffffffffffffffffffffffffffff\n        /* \"#utility.yul\":13452:13457   */\n      dup3\n        /* \"#utility.yul\":13449:13526   */\n      eq\n        /* \"#utility.yul\":13446:13549   */\n      iszero\n      tag_316\n      jumpi\n        /* \"#utility.yul\":13529:13547   */\n      tag_317\n      tag_285\n      jump\t// in\n    tag_317:\n        /* \"#utility.yul\":13446:13549   */\n    tag_316:\n        /* \"#utility.yul\":13576:13577   */\n      0x01\n        /* \"#utility.yul\":13569:13574   */\n      dup3\n        /* \"#utility.yul\":13565:13578   */\n      add\n        /* \"#utility.yul\":13558:13578   */\n      swap1\n      pop\n        /* \"#utility.yul\":13351:13584   */\n      swap2\n      swap1\n      pop\n      jump\t// out\n        /* \"#utility.yul\":13590:13770   */\n    tag_285:\n        /* \"#utility.yul\":13638:13715   */\n      0x4e487b7100000000000000000000000000000000000000000000000000000000\n        /* \"#utility.yul\":13635:13636   */\n      0x00\n        /* \"#utility.yul\":13628:13716   */\n      mstore\n        /* \"#utility.yul\":13735:13739   */\n      0x11\n        /* \"#utility.yul\":13732:13733   */\n      0x04\n        /* \"#utility.yul\":13725:13740   */\n      mstore\n        /* \"#utility.yul\":13759:13763   */\n      0x24\n        /* \"#utility.yul\":13756:13757   */\n      0x00\n        /* \"#utility.yul\":13749:13764   */\n      revert\n        /* \"#utility.yul\":13776:13956   */\n    tag_309:\n        /* \"#utility.yul\":13824:13901   */\n      0x4e487b7100000000000000000000000000000000000000000000000000000000\n        /* \"#utility.yul\":13821:13822   */\n      0x00\n        /* \"#utility.yul\":13814:13902   */\n      mstore\n        /* \"#utility.yul\":13921:13925   */\n      0x22\n        /* \"#utility.yul\":13918:13919   */\n      0x04\n        /* \"#utility.yul\":13911:13926   */\n      mstore\n        /* \"#utility.yul\":13945:13949   */\n      0x24\n        /* \"#utility.yul\":13942:13943   */\n      0x00\n        /* \"#utility.yul\":13935:13950   */\n      revert\n        /* \"#utility.yul\":13962:14142   */\n    tag_276:\n        /* \"#utility.yul\":14010:14087   */\n      0x4e487b7100000000000000000000000000000000000000000000000000000000\n        /* \"#utility.yul\":14007:14008   */\n      0x00\n        /* \"#utility.yul\":14000:14088   */\n      mstore\n        /* \"#utility.yul\":14107:14111   */\n      0x41\n        /* \"#utility.yul\":14104:14105   */\n      0x04\n        /* \"#utility.yul\":14097:14112   */\n      mstore\n        /* \"#utility.yul\":14131:14135   */\n      0x24\n        /* \"#utility.yul\":14128:14129   */\n      0x00\n        /* \"#utility.yul\":14121:14136   */\n      revert\n        /* \"#utility.yul\":14148:14265   */\n    tag_158:\n        /* \"#utility.yul\":14257:14258   */\n      0x00\n        /* \"#utility.yul\":14254:14255   */\n      dup1\n        /* \"#utility.yul\":14247:14259   */\n      revert\n        /* \"#utility.yul\":14271:14388   */\n    tag_143:\n        /* \"#utility.yul\":14380:14381   */\n      0x00\n        /* \"#utility.yul\":14377:14378   */\n      dup1\n        /* \"#utility.yul\":14370:14382   */\n      revert\n        /* \"#utility.yul\":14394:14511   */\n    tag_174:\n        /* \"#utility.yul\":14503:14504   */\n      0x00\n        /* \"#utility.yul\":14500:14501   */\n      dup1\n        /* \"#utility.yul\":14493:14505   */\n      revert\n        /* \"#utility.yul\":14517:14634   */\n    tag_167:\n        /* \"#utility.yul\":14626:14627   */\n      0x00\n        /* \"#utility.yul\":14623:14624   */\n      dup1\n        /* \"#utility.yul\":14616:14628   */\n      revert\n        /* \"#utility.yul\":14640:14742   */\n    tag_203:\n        /* \"#utility.yul\":14681:14687   */\n      0x00\n        /* \"#utility.yul\":14732:14734   */\n      0x1f\n        /* \"#utility.yul\":14728:14735   */\n      not\n        /* \"#utility.yul\":14723:14725   */\n      0x1f\n        /* \"#utility.yul\":14716:14721   */\n      dup4\n        /* \"#utility.yul\":14712:14726   */\n      add\n        /* \"#utility.yul\":14708:14736   */\n      and\n        /* \"#utility.yul\":14698:14736   */\n      swap1\n      pop\n        /* \"#utility.yul\":14640:14742   */\n      swap2\n      swap1\n      pop\n      jump\t// out\n        /* \"#utility.yul\":14748:14920   */\n    tag_208:\n        /* \"#utility.yul\":14888:14912   */\n      0x46756e64696e6720776173207375636365737366756c00000000000000000000\n        /* \"#utility.yul\":14884:14885   */\n      0x00\n        /* \"#utility.yul\":14876:14882   */\n      dup3\n        /* \"#utility.yul\":14872:14886   */\n      add\n        /* \"#utility.yul\":14865:14913   */\n      mstore\n        /* \"#utility.yul\":14748:14920   */\n      pop\n      jump\t// out\n        /* \"#utility.yul\":14926:15089   */\n    tag_213:\n        /* \"#utility.yul\":15066:15081   */\n      0x416c726561647920766f74656400000000000000000000000000000000000000\n        /* \"#utility.yul\":15062:15063   */\n      0x00\n        /* \"#utility.yul\":15054:15060   */\n      dup3\n        /* \"#utility.yul\":15050:15064   */\n      add\n        /* \"#utility.yul\":15043:15082   */\n      mstore\n        /* \"#utility.yul\":14926:15089   */\n      pop\n      jump\t// out\n        /* \"#utility.yul\":15095:15261   */\n    tag_218:\n        /* \"#utility.yul\":15235:15253   */\n      0x46756e64696e67206973206f7665722100000000000000000000000000000000\n        /* \"#utility.yul\":15231:15232   */\n      0x00\n        /* \"#utility.yul\":15223:15229   */\n      dup3\n        /* \"#utility.yul\":15219:15233   */\n      add\n        /* \"#utility.yul\":15212:15254   */\n      mstore\n        /* \"#utility.yul\":15095:15261   */\n      pop\n      jump\t// out\n        /* \"#utility.yul\":15267:15437   */\n    tag_223:\n        /* \"#utility.yul\":15407:15429   */\n      0x46756e64696e67206973207374696c6c206f6e21000000000000000000000000\n        /* \"#utility.yul\":15403:15404   */\n      0x00\n        /* \"#utility.yul\":15395:15401   */\n      dup3\n        /* \"#utility.yul\":15391:15405   */\n      add\n        /* \"#utility.yul\":15384:15430   */\n      mstore\n        /* \"#utility.yul\":15267:15437   */\n      pop\n      jump\t// out\n        /* \"#utility.yul\":15443:15605   */\n    tag_228:\n        /* \"#utility.yul\":15583:15597   */\n      0x4e6f7420612066756e6465720000000000000000000000000000000000000000\n        /* \"#utility.yul\":15579:15580   */\n      0x00\n        /* \"#utility.yul\":15571:15577   */\n      dup3\n        /* \"#utility.yul\":15567:15581   */\n      add\n        /* \"#utility.yul\":15560:15598   */\n      mstore\n        /* \"#utility.yul\":15443:15605   */\n      pop\n      jump\t// out\n        /* \"#utility.yul\":15611:15833   */\n    tag_233:\n        /* \"#utility.yul\":15751:15785   */\n      0x4d696e696d756d20616d6f756e74206372697465726961206e6f742073617469\n        /* \"#utility.yul\":15747:15748   */\n      0x00\n        /* \"#utility.yul\":15739:15745   */\n      dup3\n        /* \"#utility.yul\":15735:15749   */\n      add\n        /* \"#utility.yul\":15728:15786   */\n      mstore\n        /* \"#utility.yul\":15820:15825   */\n      0x7366790000000000000000000000000000000000000000000000000000000000\n        /* \"#utility.yul\":15815:15817   */\n      0x20\n        /* \"#utility.yul\":15807:15813   */\n      dup3\n        /* \"#utility.yul\":15803:15818   */\n      add\n        /* \"#utility.yul\":15796:15826   */\n      mstore\n        /* \"#utility.yul\":15611:15833   */\n      pop\n      jump\t// out\n        /* \"#utility.yul\":15839:16006   */\n    tag_238:\n        /* \"#utility.yul\":15979:15998   */\n      0x596f7520617265206e6f74206f776e6572000000000000000000000000000000\n        /* \"#utility.yul\":15975:15976   */\n      0x00\n        /* \"#utility.yul\":15967:15973   */\n      dup3\n        /* \"#utility.yul\":15963:15977   */\n      add\n        /* \"#utility.yul\":15956:15999   */\n      mstore\n        /* \"#utility.yul\":15839:16006   */\n      pop\n      jump\t// out\n        /* \"#utility.yul\":16012:16134   */\n    tag_149:\n        /* \"#utility.yul\":16085:16109   */\n      tag_334\n        /* \"#utility.yul\":16103:16108   */\n      dup2\n        /* \"#utility.yul\":16085:16109   */\n      tag_189\n      jump\t// in\n    tag_334:\n        /* \"#utility.yul\":16078:16083   */\n      dup2\n        /* \"#utility.yul\":16075:16110   */\n      eq\n        /* \"#utility.yul\":16065:16128   */\n      tag_335\n      jumpi\n        /* \"#utility.yul\":16124:16125   */\n      0x00\n        /* \"#utility.yul\":16121:16122   */\n      dup1\n        /* \"#utility.yul\":16114:16126   */\n      revert\n        /* \"#utility.yul\":16065:16128   */\n    tag_335:\n        /* \"#utility.yul\":16012:16134   */\n      pop\n      jump\t// out\n        /* \"#utility.yul\":16140:16278   */\n    tag_153:\n        /* \"#utility.yul\":16221:16253   */\n      tag_337\n        /* \"#utility.yul\":16247:16252   */\n      dup2\n        /* \"#utility.yul\":16221:16253   */\n      tag_185\n      jump\t// in\n    tag_337:\n        /* \"#utility.yul\":16214:16219   */\n      dup2\n        /* \"#utility.yul\":16211:16254   */\n      eq\n        /* \"#utility.yul\":16201:16272   */\n      tag_338\n      jumpi\n        /* \"#utility.yul\":16268:16269   */\n      0x00\n        /* \"#utility.yul\":16265:16266   */\n      dup1\n        /* \"#utility.yul\":16258:16270   */\n      revert\n        /* \"#utility.yul\":16201:16272   */\n    tag_338:\n        /* \"#utility.yul\":16140:16278   */\n      pop\n      jump\t// out\n        /* \"#utility.yul\":16284:16406   */\n    tag_163:\n        /* \"#utility.yul\":16357:16381   */\n      tag_340\n        /* \"#utility.yul\":16375:16380   */\n      dup2\n        /* \"#utility.yul\":16357:16381   */\n      tag_242\n      jump\t// in\n    tag_340:\n        /* \"#utility.yul\":16350:16355   */\n      dup2\n        /* \"#utility.yul\":16347:16382   */\n      eq\n        /* \"#utility.yul\":16337:16400   */\n      tag_341\n      jumpi\n        /* \"#utility.yul\":16396:16397   */\n      0x00\n        /* \"#utility.yul\":16393:16394   */\n      dup1\n        /* \"#utility.yul\":16386:16398   */\n      revert\n        /* \"#utility.yul\":16337:16400   */\n    tag_341:\n        /* \"#utility.yul\":16284:16406   */\n      pop\n      jump\t// out\n\n    auxdata: 0xa264697066735822122059f997750788317437e6876b91935c1f34377ba703e85e700ea877f877f936b264736f6c63430008070033\n}\n",
				"bytecode": {
					"linkReferences": {},
					"object": "60806040523480156200001157600080fd5b5060405162001615380380620016158339818101604052810190620000379190620000ba565b8160028190555080426200004c919062000101565b600681905550336000806101000a81548173ffffffffffffffffffffffffffffffffffffffff021916908373ffffffffffffffffffffffffffffffffffffffff1602179055506103e86003819055505050620001b6565b600081519050620000b4816200019c565b92915050565b60008060408385031215620000d457620000d362000197565b5b6000620000e485828601620000a3565b9250506020620000f785828601620000a3565b9150509250929050565b60006200010e826200015e565b91506200011b836200015e565b9250827fffffffffffffffffffffffffffffffffffffffffffffffffffffffffffffffff0382111562000153576200015262000168565b5b828201905092915050565b6000819050919050565b7f4e487b7100000000000000000000000000000000000000000000000000000000600052601160045260246000fd5b600080fd5b620001a7816200015e565b8114620001b357600080fd5b50565b61144f80620001c66000396000f3fe6080604052600436106100c65760003560e01c806350520b1f1161007f5780639b2cb5d8116100595780639b2cb5d81461025a578063b063655614610285578063b2d5ae44146102ae578063e89b7c55146102c5576100cd565b806350520b1f146101fa5780636681b9fd146102045780638da5cb5b1461022f576100cd565b80630114bd3f146100d2578063031b367714610113578063277c3da4146101505780633c2ed32d146101795780633e79d1e1146101a457806340193883146101cf576100cd565b366100cd57005b600080fd5b3480156100de57600080fd5b506100f960048036038101906100f49190610c92565b6102f0565b60405161010a959493929190610e44565b60405180910390f35b34801561011f57600080fd5b5061013a60048036038101906101359190610bf6565b6103db565b6040516101479190610f7e565b60405180910390f35b34801561015c57600080fd5b5061017760048036038101906101729190610c23565b6103f3565b005b34801561018557600080fd5b5061018e610544565b60405161019b9190610f7e565b60405180910390f35b3480156101b057600080fd5b506101b961054a565b6040516101c69190610f7e565b60405180910390f35b3480156101db57600080fd5b506101e4610550565b6040516101f19190610f7e565b60405180910390f35b610202610556565b005b34801561021057600080fd5b506102196106b1565b6040516102269190610f7e565b60405180910390f35b34801561023b57600080fd5b506102446106b7565b6040516102519190610e29565b60405180910390f35b34801561026657600080fd5b5061026f6106db565b60405161027c9190610f7e565b60405180910390f35b34801561029157600080fd5b506102ac60048036038101906102a79190610c92565b6106e1565b005b3480156102ba57600080fd5b506102c361086d565b005b3480156102d157600080fd5b506102da610a9e565b6040516102e79190610f7e565b60405180910390f35b600760205280600052604060002060009150905080600001805461031390611131565b80601f016020809104026020016040519081016040528092919081815260200182805461033f90611131565b801561038c5780601f106103615761010080835404028352916020019161038c565b820191906000526020600020905b81548152906001019060200180831161036f57829003601f168201915b5050505050908060010154908060020160009054906101000a900473ffffffffffffffffffffffffffffffffffffffff16908060030154908060050160009054906101000a900460ff16905085565b60016020528060005260406000206000915090505481565b3373ffffffffffffffffffffffffffffffffffffffff1660008054906101000a900473ffffffffffffffffffffffffffffffffffffffff1673ffffffffffffffffffffffffffffffffffffffff1614610481576040517f08c379a000000000000000000000000000000000000000000000000000000000815260040161047890610f5e565b60405180910390fd5b60006007600060085481526020019081526020016000209050600860008154809291906104ad90611194565b9190505550838160000190805190602001906104ca929190610aa4565b5082816001018190555060008160050160006101000a81548160ff02191690831515021790555060008160030181905550818160020160006101000a81548173ffffffffffffffffffffffffffffffffffffffff021916908373ffffffffffffffffffffffffffffffffffffffff16021790555050505050565b60085481565b60065481565b60025481565b600654421061059a576040517f08c379a000000000000000000000000000000000000000000000000000000000815260040161059190610ede565b60405180910390fd5b6003543410156105df576040517f08c379a00000000000000000000000000000000000000000000000000000000081526004016105d690610f3e565b60405180910390fd5b6000600160003373ffffffffffffffffffffffffffffffffffffffff1673ffffffffffffffffffffffffffffffffffffffff168152602001908152602001600020541415610640576004600081548092919061063a90611194565b91905055505b34600160003373ffffffffffffffffffffffffffffffffffffffff1673ffffffffffffffffffffffffffffffffffffffff168152602001908152602001600020600082825461068f919061100b565b9250508190555034600560008282546106a8919061100b565b92505081905550565b60055481565b60008054906101000a900473ffffffffffffffffffffffffffffffffffffffff1681565b60035481565b6000600160003373ffffffffffffffffffffffffffffffffffffffff1673ffffffffffffffffffffffffffffffffffffffff1681526020019081526020016000205411610763576040517f08c379a000000000000000000000000000000000000000000000000000000000815260040161075a90610f1e565b60405180910390fd5b6000600760008381526020019081526020016000209050600015158160040160003373ffffffffffffffffffffffffffffffffffffffff1673ffffffffffffffffffffffffffffffffffffffff16815260200190815260200160002060009054906101000a900460ff1615151461080f576040517f08c379a000000000000000000000000000000000000000000000000000000000815260040161080690610ebe565b60405180910390fd5b60018160040160003373ffffffffffffffffffffffffffffffffffffffff1673ffffffffffffffffffffffffffffffffffffffff16815260200190815260200160002060006101000a81548160ff0219169083151502179055505050565b60065442116108b1576040517f08c379a00000000000000000000000000000000000000000000000000000000081526004016108a890610efe565b60405180910390fd5b600254600554106108f7576040517f08c379a00000000000000000000000000000000000000000000000000000000081526004016108ee90610e9e565b60405180910390fd5b6000600160003373ffffffffffffffffffffffffffffffffffffffff1673ffffffffffffffffffffffffffffffffffffffff1681526020019081526020016000205411610979576040517f08c379a000000000000000000000000000000000000000000000000000000000815260040161097090610f1e565b60405180910390fd5b3373ffffffffffffffffffffffffffffffffffffffff166108fc600160003373ffffffffffffffffffffffffffffffffffffffff1673ffffffffffffffffffffffffffffffffffffffff168152602001908152602001600020549081150290604051600060405180830381858888f193505050501580156109fe573d6000803e3d6000fd5b50600160003373ffffffffffffffffffffffffffffffffffffffff1673ffffffffffffffffffffffffffffffffffffffff1681526020019081526020016000205460056000828254610a509190611061565b925050819055506000600160003373ffffffffffffffffffffffffffffffffffffffff1673ffffffffffffffffffffffffffffffffffffffff16815260200190815260200160002081905550565b60045481565b828054610ab090611131565b90600052602060002090601f016020900481019282610ad25760008555610b19565b82601f10610aeb57805160ff1916838001178555610b19565b82800160010185558215610b19579182015b82811115610b18578251825591602001919060010190610afd565b5b509050610b269190610b2a565b5090565b5b80821115610b43576000816000905550600101610b2b565b5090565b6000610b5a610b5584610fbe565b610f99565b905082815260208101848484011115610b7657610b7561126f565b5b610b818482856110ef565b509392505050565b600081359050610b98816113d4565b92915050565b600081359050610bad816113eb565b92915050565b600082601f830112610bc857610bc761126a565b5b8135610bd8848260208601610b47565b91505092915050565b600081359050610bf081611402565b92915050565b600060208284031215610c0c57610c0b611279565b5b6000610c1a84828501610b89565b91505092915050565b600080600060608486031215610c3c57610c3b611279565b5b600084013567ffffffffffffffff811115610c5a57610c59611274565b5b610c6686828701610bb3565b9350506020610c7786828701610be1565b9250506040610c8886828701610b9e565b9150509250925092565b600060208284031215610ca857610ca7611279565b5b6000610cb684828501610be1565b91505092915050565b610cc8816110a7565b82525050565b610cd781611095565b82525050565b610ce6816110b9565b82525050565b6000610cf782610fef565b610d018185610ffa565b9350610d118185602086016110fe565b610d1a8161127e565b840191505092915050565b6000610d32601683610ffa565b9150610d3d8261128f565b602082019050919050565b6000610d55600d83610ffa565b9150610d60826112b8565b602082019050919050565b6000610d78601083610ffa565b9150610d83826112e1565b602082019050919050565b6000610d9b601483610ffa565b9150610da68261130a565b602082019050919050565b6000610dbe600c83610ffa565b9150610dc982611333565b602082019050919050565b6000610de1602383610ffa565b9150610dec8261135c565b604082019050919050565b6000610e04601183610ffa565b9150610e0f826113ab565b602082019050919050565b610e23816110e5565b82525050565b6000602082019050610e3e6000830184610cce565b92915050565b600060a0820190508181036000830152610e5e8188610cec565b9050610e6d6020830187610e1a565b610e7a6040830186610cbf565b610e876060830185610e1a565b610e946080830184610cdd565b9695505050505050565b60006020820190508181036000830152610eb781610d25565b9050919050565b60006020820190508181036000830152610ed781610d48565b9050919050565b60006020820190508181036000830152610ef781610d6b565b9050919050565b60006020820190508181036000830152610f1781610d8e565b9050919050565b60006020820190508181036000830152610f3781610db1565b9050919050565b60006020820190508181036000830152610f5781610dd4565b9050919050565b60006020820190508181036000830152610f7781610df7565b9050919050565b6000602082019050610f936000830184610e1a565b92915050565b6000610fa3610fb4565b9050610faf8282611163565b919050565b6000604051905090565b600067ffffffffffffffff821115610fd957610fd861123b565b5b610fe28261127e565b9050602081019050919050565b600081519050919050565b600082825260208201905092915050565b6000611016826110e5565b9150611021836110e5565b9250827fffffffffffffffffffffffffffffffffffffffffffffffffffffffffffffffff03821115611056576110556111dd565b5b828201905092915050565b600061106c826110e5565b9150611077836110e5565b92508282101561108a576110896111dd565b5b828203905092915050565b60006110a0826110c5565b9050919050565b60006110b2826110c5565b9050919050565b60008115159050919050565b600073ffffffffffffffffffffffffffffffffffffffff82169050919050565b6000819050919050565b82818337600083830152505050565b60005b8381101561111c578082015181840152602081019050611101565b8381111561112b576000848401525b50505050565b6000600282049050600182168061114957607f821691505b6020821081141561115d5761115c61120c565b5b50919050565b61116c8261127e565b810181811067ffffffffffffffff8211171561118b5761118a61123b565b5b80604052505050565b600061119f826110e5565b91507fffffffffffffffffffffffffffffffffffffffffffffffffffffffffffffffff8214156111d2576111d16111dd565b5b600182019050919050565b7f4e487b7100000000000000000000000000000000000000000000000000000000600052601160045260246000fd5b7f4e487b7100000000000000000000000000000000000000000000000000000000600052602260045260246000fd5b7f4e487b7100000000000000000000000000000000000000000000000000000000600052604160045260246000fd5b600080fd5b600080fd5b600080fd5b600080fd5b6000601f19601f8301169050919050565b7f46756e64696e6720776173207375636365737366756c00000000000000000000600082015250565b7f416c726561647920766f74656400000000000000000000000000000000000000600082015250565b7f46756e64696e67206973206f7665722100000000000000000000000000000000600082015250565b7f46756e64696e67206973207374696c6c206f6e21000000000000000000000000600082015250565b7f4e6f7420612066756e6465720000000000000000000000000000000000000000600082015250565b7f4d696e696d756d20616d6f756e74206372697465726961206e6f74207361746960008201527f7366790000000000000000000000000000000000000000000000000000000000602082015250565b7f596f7520617265206e6f74206f776e6572000000000000000000000000000000600082015250565b6113dd81611095565b81146113e857600080fd5b50565b6113f4816110a7565b81146113ff57600080fd5b50565b61140b816110e5565b811461141657600080fd5b5056fea264697066735822122059f997750788317437e6876b91935c1f34377ba703e85e700ea877f877f936b264736f6c63430008070033",
					"opcodes": "PUSH1 0x80 PUSH1 0x40 MSTORE CALLVALUE DUP1 ISZERO PUSH3 0x11 JUMPI PUSH1 0x0 DUP1 REVERT JUMPDEST POP PUSH1 0x40 MLOAD PUSH3 0x1615 CODESIZE SUB DUP1 PUSH3 0x1615 DUP4 CODECOPY DUP2 DUP2 ADD PUSH1 0x40 MSTORE DUP2 ADD SWAP1 PUSH3 0x37 SWAP2 SWAP1 PUSH3 0xBA JUMP JUMPDEST DUP2 PUSH1 0x2 DUP2 SWAP1 SSTORE POP DUP1 TIMESTAMP PUSH3 0x4C SWAP2 SWAP1 PUSH3 0x101 JUMP JUMPDEST PUSH1 0x6 DUP2 SWAP1 SSTORE POP CALLER PUSH1 0x0 DUP1 PUSH2 0x100 EXP DUP2 SLOAD DUP2 PUSH20 0xFFFFFFFFFFFFFFFFFFFFFFFFFFFFFFFFFFFFFFFF MUL NOT AND SWAP1 DUP4 PUSH20 0xFFFFFFFFFFFFFFFFFFFFFFFFFFFFFFFFFFFFFFFF AND MUL OR SWAP1 SSTORE POP PUSH2 0x3E8 PUSH1 0x3 DUP2 SWAP1 SSTORE POP POP POP PUSH3 0x1B6 JUMP JUMPDEST PUSH1 0x0 DUP2 MLOAD SWAP1 POP PUSH3 0xB4 DUP2 PUSH3 0x19C JUMP JUMPDEST SWAP3 SWAP2 POP POP JUMP JUMPDEST PUSH1 0x0 DUP1 PUSH1 0x40 DUP4 DUP6 SUB SLT ISZERO PUSH3 0xD4 JUMPI PUSH3 0xD3 PUSH3 0x197 JUMP JUMPDEST JUMPDEST PUSH1 0x0 PUSH3 0xE4 DUP6 DUP3 DUP7 ADD PUSH3 0xA3 JUMP JUMPDEST SWAP3 POP POP PUSH1 0x20 PUSH3 0xF7 DUP6 DUP3 DUP7 ADD PUSH3 0xA3 JUMP JUMPDEST SWAP2 POP POP SWAP3 POP SWAP3 SWAP1 POP JUMP JUMPDEST PUSH1 0x0 PUSH3 0x10E DUP3 PUSH3 0x15E JUMP JUMPDEST SWAP2 POP PUSH3 0x11B DUP4 PUSH3 0x15E JUMP JUMPDEST SWAP3 POP DUP3 PUSH32 0xFFFFFFFFFFFFFFFFFFFFFFFFFFFFFFFFFFFFFFFFFFFFFFFFFFFFFFFFFFFFFFFF SUB DUP3 GT ISZERO PUSH3 0x153 JUMPI PUSH3 0x152 PUSH3 0x168 JUMP JUMPDEST JUMPDEST DUP3 DUP3 ADD SWAP1 POP SWAP3 SWAP2 POP POP JUMP JUMPDEST PUSH1 0x0 DUP2 SWAP1 POP SWAP2 SWAP1 POP JUMP JUMPDEST PUSH32 0x4E487B7100000000000000000000000000000000000000000000000000000000 PUSH1 0x0 MSTORE PUSH1 0x11 PUSH1 0x4 MSTORE PUSH1 0x24 PUSH1 0x0 REVERT JUMPDEST PUSH1 0x0 DUP1 REVERT JUMPDEST PUSH3 0x1A7 DUP2 PUSH3 0x15E JUMP JUMPDEST DUP2 EQ PUSH3 0x1B3 JUMPI PUSH1 0x0 DUP1 REVERT JUMPDEST POP JUMP JUMPDEST PUSH2 0x144F DUP1 PUSH3 0x1C6 PUSH1 0x0 CODECOPY PUSH1 0x0 RETURN INVALID PUSH1 0x80 PUSH1 0x40 MSTORE PUSH1 0x4 CALLDATASIZE LT PUSH2 0xC6 JUMPI PUSH1 0x0 CALLDATALOAD PUSH1 0xE0 SHR DUP1 PUSH4 0x50520B1F GT PUSH2 0x7F JUMPI DUP1 PUSH4 0x9B2CB5D8 GT PUSH2 0x59 JUMPI DUP1 PUSH4 0x9B2CB5D8 EQ PUSH2 0x25A JUMPI DUP1 PUSH4 0xB0636556 EQ PUSH2 0x285 JUMPI DUP1 PUSH4 0xB2D5AE44 EQ PUSH2 0x2AE JUMPI DUP1 PUSH4 0xE89B7C55 EQ PUSH2 0x2C5 JUMPI PUSH2 0xCD JUMP JUMPDEST DUP1 PUSH4 0x50520B1F EQ PUSH2 0x1FA JUMPI DUP1 PUSH4 0x6681B9FD EQ PUSH2 0x204 JUMPI DUP1 PUSH4 0x8DA5CB5B EQ PUSH2 0x22F JUMPI PUSH2 0xCD JUMP JUMPDEST DUP1 PUSH4 0x114BD3F EQ PUSH2 0xD2 JUMPI DUP1 PUSH4 0x31B3677 EQ PUSH2 0x113 JUMPI DUP1 PUSH4 0x277C3DA4 EQ PUSH2 0x150 JUMPI DUP1 PUSH4 0x3C2ED32D EQ PUSH2 0x179 JUMPI DUP1 PUSH4 0x3E79D1E1 EQ PUSH2 0x1A4 JUMPI DUP1 PUSH4 0x40193883 EQ PUSH2 0x1CF JUMPI PUSH2 0xCD JUMP JUMPDEST CALLDATASIZE PUSH2 0xCD JUMPI STOP JUMPDEST PUSH1 0x0 DUP1 REVERT JUMPDEST CALLVALUE DUP1 ISZERO PUSH2 0xDE JUMPI PUSH1 0x0 DUP1 REVERT JUMPDEST POP PUSH2 0xF9 PUSH1 0x4 DUP1 CALLDATASIZE SUB DUP2 ADD SWAP1 PUSH2 0xF4 SWAP2 SWAP1 PUSH2 0xC92 JUMP JUMPDEST PUSH2 0x2F0 JUMP JUMPDEST PUSH1 0x40 MLOAD PUSH2 0x10A SWAP6 SWAP5 SWAP4 SWAP3 SWAP2 SWAP1 PUSH2 0xE44 JUMP JUMPDEST PUSH1 0x40 MLOAD DUP1 SWAP2 SUB SWAP1 RETURN JUMPDEST CALLVALUE DUP1 ISZERO PUSH2 0x11F JUMPI PUSH1 0x0 DUP1 REVERT JUMPDEST POP PUSH2 0x13A PUSH1 0x4 DUP1 CALLDATASIZE SUB DUP2 ADD SWAP1 PUSH2 0x135 SWAP2 SWAP1 PUSH2 0xBF6 JUMP JUMPDEST PUSH2 0x3DB JUMP JUMPDEST PUSH1 0x40 MLOAD PUSH2 0x147 SWAP2 SWAP1 PUSH2 0xF7E JUMP JUMPDEST PUSH1 0x40 MLOAD DUP1 SWAP2 SUB SWAP1 RETURN JUMPDEST CALLVALUE DUP1 ISZERO PUSH2 0x15C JUMPI PUSH1 0x0 DUP1 REVERT JUMPDEST POP PUSH2 0x177 PUSH1 0x4 DUP1 CALLDATASIZE SUB DUP2 ADD SWAP1 PUSH2 0x172 SWAP2 SWAP1 PUSH2 0xC23 JUMP JUMPDEST PUSH2 0x3F3 JUMP JUMPDEST STOP JUMPDEST CALLVALUE DUP1 ISZERO PUSH2 0x185 JUMPI PUSH1 0x0 DUP1 REVERT JUMPDEST POP PUSH2 0x18E PUSH2 0x544 JUMP JUMPDEST PUSH1 0x40 MLOAD PUSH2 0x19B SWAP2 SWAP1 PUSH2 0xF7E JUMP JUMPDEST PUSH1 0x40 MLOAD DUP1 SWAP2 SUB SWAP1 RETURN JUMPDEST CALLVALUE DUP1 ISZERO PUSH2 0x1B0 JUMPI PUSH1 0x0 DUP1 REVERT JUMPDEST POP PUSH2 0x1B9 PUSH2 0x54A JUMP JUMPDEST PUSH1 0x40 MLOAD PUSH2 0x1C6 SWAP2 SWAP1 PUSH2 0xF7E JUMP JUMPDEST PUSH1 0x40 MLOAD DUP1 SWAP2 SUB SWAP1 RETURN JUMPDEST CALLVALUE DUP1 ISZERO PUSH2 0x1DB JUMPI PUSH1 0x0 DUP1 REVERT JUMPDEST POP PUSH2 0x1E4 PUSH2 0x550 JUMP JUMPDEST PUSH1 0x40 MLOAD PUSH2 0x1F1 SWAP2 SWAP1 PUSH2 0xF7E JUMP JUMPDEST PUSH1 0x40 MLOAD DUP1 SWAP2 SUB SWAP1 RETURN JUMPDEST PUSH2 0x202 PUSH2 0x556 JUMP JUMPDEST STOP JUMPDEST CALLVALUE DUP1 ISZERO PUSH2 0x210 JUMPI PUSH1 0x0 DUP1 REVERT JUMPDEST POP PUSH2 0x219 PUSH2 0x6B1 JUMP JUMPDEST PUSH1 0x40 MLOAD PUSH2 0x226 SWAP2 SWAP1 PUSH2 0xF7E JUMP JUMPDEST PUSH1 0x40 MLOAD DUP1 SWAP2 SUB SWAP1 RETURN JUMPDEST CALLVALUE DUP1 ISZERO PUSH2 0x23B JUMPI PUSH1 0x0 DUP1 REVERT JUMPDEST POP PUSH2 0x244 PUSH2 0x6B7 JUMP JUMPDEST PUSH1 0x40 MLOAD PUSH2 0x251 SWAP2 SWAP1 PUSH2 0xE29 JUMP JUMPDEST PUSH1 0x40 MLOAD DUP1 SWAP2 SUB SWAP1 RETURN JUMPDEST CALLVALUE DUP1 ISZERO PUSH2 0x266 JUMPI PUSH1 0x0 DUP1 REVERT JUMPDEST POP PUSH2 0x26F PUSH2 0x6DB JUMP JUMPDEST PUSH1 0x40 MLOAD PUSH2 0x27C SWAP2 SWAP1 PUSH2 0xF7E JUMP JUMPDEST PUSH1 0x40 MLOAD DUP1 SWAP2 SUB SWAP1 RETURN JUMPDEST CALLVALUE DUP1 ISZERO PUSH2 0x291 JUMPI PUSH1 0x0 DUP1 REVERT JUMPDEST POP PUSH2 0x2AC PUSH1 0x4 DUP1 CALLDATASIZE SUB DUP2 ADD SWAP1 PUSH2 0x2A7 SWAP2 SWAP1 PUSH2 0xC92 JUMP JUMPDEST PUSH2 0x6E1 JUMP JUMPDEST STOP JUMPDEST CALLVALUE DUP1 ISZERO PUSH2 0x2BA JUMPI PUSH1 0x0 DUP1 REVERT JUMPDEST POP PUSH2 0x2C3 PUSH2 0x86D JUMP JUMPDEST STOP JUMPDEST CALLVALUE DUP1 ISZERO PUSH2 0x2D1 JUMPI PUSH1 0x0 DUP1 REVERT JUMPDEST POP PUSH2 0x2DA PUSH2 0xA9E JUMP JUMPDEST PUSH1 0x40 MLOAD PUSH2 0x2E7 SWAP2 SWAP1 PUSH2 0xF7E JUMP JUMPDEST PUSH1 0x40 MLOAD DUP1 SWAP2 SUB SWAP1 RETURN JUMPDEST PUSH1 0x7 PUSH1 0x20 MSTORE DUP1 PUSH1 0x0 MSTORE PUSH1 0x40 PUSH1 0x0 KECCAK256 PUSH1 0x0 SWAP2 POP SWAP1 POP DUP1 PUSH1 0x0 ADD DUP1 SLOAD PUSH2 0x313 SWAP1 PUSH2 0x1131 JUMP JUMPDEST DUP1 PUSH1 0x1F ADD PUSH1 0x20 DUP1 SWAP2 DIV MUL PUSH1 0x20 ADD PUSH1 0x40 MLOAD SWAP1 DUP2 ADD PUSH1 0x40 MSTORE DUP1 SWAP3 SWAP2 SWAP1 DUP2 DUP2 MSTORE PUSH1 0x20 ADD DUP3 DUP1 SLOAD PUSH2 0x33F SWAP1 PUSH2 0x1131 JUMP JUMPDEST DUP1 ISZERO PUSH2 0x38C JUMPI DUP1 PUSH1 0x1F LT PUSH2 0x361 JUMPI PUSH2 0x100 DUP1 DUP4 SLOAD DIV MUL DUP4 MSTORE SWAP2 PUSH1 0x20 ADD SWAP2 PUSH2 0x38C JUMP JUMPDEST DUP3 ADD SWAP2 SWAP1 PUSH1 0x0 MSTORE PUSH1 0x20 PUSH1 0x0 KECCAK256 SWAP1 JUMPDEST DUP2 SLOAD DUP2 MSTORE SWAP1 PUSH1 0x1 ADD SWAP1 PUSH1 0x20 ADD DUP1 DUP4 GT PUSH2 0x36F JUMPI DUP3 SWAP1 SUB PUSH1 0x1F AND DUP3 ADD SWAP2 JUMPDEST POP POP POP POP POP SWAP1 DUP1 PUSH1 0x1 ADD SLOAD SWAP1 DUP1 PUSH1 0x2 ADD PUSH1 0x0 SWAP1 SLOAD SWAP1 PUSH2 0x100 EXP SWAP1 DIV PUSH20 0xFFFFFFFFFFFFFFFFFFFFFFFFFFFFFFFFFFFFFFFF AND SWAP1 DUP1 PUSH1 0x3 ADD SLOAD SWAP1 DUP1 PUSH1 0x5 ADD PUSH1 0x0 SWAP1 SLOAD SWAP1 PUSH2 0x100 EXP SWAP1 DIV PUSH1 0xFF AND SWAP1 POP DUP6 JUMP JUMPDEST PUSH1 0x1 PUSH1 0x20 MSTORE DUP1 PUSH1 0x0 MSTORE PUSH1 0x40 PUSH1 0x0 KECCAK256 PUSH1 0x0 SWAP2 POP SWAP1 POP SLOAD DUP2 JUMP JUMPDEST CALLER PUSH20 0xFFFFFFFFFFFFFFFFFFFFFFFFFFFFFFFFFFFFFFFF AND PUSH1 0x0 DUP1 SLOAD SWAP1 PUSH2 0x100 EXP SWAP1 DIV PUSH20 0xFFFFFFFFFFFFFFFFFFFFFFFFFFFFFFFFFFFFFFFF AND PUSH20 0xFFFFFFFFFFFFFFFFFFFFFFFFFFFFFFFFFFFFFFFF AND EQ PUSH2 0x481 JUMPI PUSH1 0x40 MLOAD PUSH32 0x8C379A000000000000000000000000000000000000000000000000000000000 DUP2 MSTORE PUSH1 0x4 ADD PUSH2 0x478 SWAP1 PUSH2 0xF5E JUMP JUMPDEST PUSH1 0x40 MLOAD DUP1 SWAP2 SUB SWAP1 REVERT JUMPDEST PUSH1 0x0 PUSH1 0x7 PUSH1 0x0 PUSH1 0x8 SLOAD DUP2 MSTORE PUSH1 0x20 ADD SWAP1 DUP2 MSTORE PUSH1 0x20 ADD PUSH1 0x0 KECCAK256 SWAP1 POP PUSH1 0x8 PUSH1 0x0 DUP2 SLOAD DUP1 SWAP3 SWAP2 SWAP1 PUSH2 0x4AD SWAP1 PUSH2 0x1194 JUMP JUMPDEST SWAP2 SWAP1 POP SSTORE POP DUP4 DUP2 PUSH1 0x0 ADD SWAP1 DUP1 MLOAD SWAP1 PUSH1 0x20 ADD SWAP1 PUSH2 0x4CA SWAP3 SWAP2 SWAP1 PUSH2 0xAA4 JUMP JUMPDEST POP DUP3 DUP2 PUSH1 0x1 ADD DUP2 SWAP1 SSTORE POP PUSH1 0x0 DUP2 PUSH1 0x5 ADD PUSH1 0x0 PUSH2 0x100 EXP DUP2 SLOAD DUP2 PUSH1 0xFF MUL NOT AND SWAP1 DUP4 ISZERO ISZERO MUL OR SWAP1 SSTORE POP PUSH1 0x0 DUP2 PUSH1 0x3 ADD DUP2 SWAP1 SSTORE POP DUP2 DUP2 PUSH1 0x2 ADD PUSH1 0x0 PUSH2 0x100 EXP DUP2 SLOAD DUP2 PUSH20 0xFFFFFFFFFFFFFFFFFFFFFFFFFFFFFFFFFFFFFFFF MUL NOT AND SWAP1 DUP4 PUSH20 0xFFFFFFFFFFFFFFFFFFFFFFFFFFFFFFFFFFFFFFFF AND MUL OR SWAP1 SSTORE POP POP POP POP POP JUMP JUMPDEST PUSH1 0x8 SLOAD DUP2 JUMP JUMPDEST PUSH1 0x6 SLOAD DUP2 JUMP JUMPDEST PUSH1 0x2 SLOAD DUP2 JUMP JUMPDEST PUSH1 0x6 SLOAD TIMESTAMP LT PUSH2 0x59A JUMPI PUSH1 0x40 MLOAD PUSH32 0x8C379A000000000000000000000000000000000000000000000000000000000 DUP2 MSTORE PUSH1 0x4 ADD PUSH2 0x591 SWAP1 PUSH2 0xEDE JUMP JUMPDEST PUSH1 0x40 MLOAD DUP1 SWAP2 SUB SWAP1 REVERT JUMPDEST PUSH1 0x3 SLOAD CALLVALUE LT ISZERO PUSH2 0x5DF JUMPI PUSH1 0x40 MLOAD PUSH32 0x8C379A000000000000000000000000000000000000000000000000000000000 DUP2 MSTORE PUSH1 0x4 ADD PUSH2 0x5D6 SWAP1 PUSH2 0xF3E JUMP JUMPDEST PUSH1 0x40 MLOAD DUP1 SWAP2 SUB SWAP1 REVERT JUMPDEST PUSH1 0x0 PUSH1 0x1 PUSH1 0x0 CALLER PUSH20 0xFFFFFFFFFFFFFFFFFFFFFFFFFFFFFFFFFFFFFFFF AND PUSH20 0xFFFFFFFFFFFFFFFFFFFFFFFFFFFFFFFFFFFFFFFF AND DUP2 MSTORE PUSH1 0x20 ADD SWAP1 DUP2 MSTORE PUSH1 0x20 ADD PUSH1 0x0 KECCAK256 SLOAD EQ ISZERO PUSH2 0x640 JUMPI PUSH1 0x4 PUSH1 0x0 DUP2 SLOAD DUP1 SWAP3 SWAP2 SWAP1 PUSH2 0x63A SWAP1 PUSH2 0x1194 JUMP JUMPDEST SWAP2 SWAP1 POP SSTORE POP JUMPDEST CALLVALUE PUSH1 0x1 PUSH1 0x0 CALLER PUSH20 0xFFFFFFFFFFFFFFFFFFFFFFFFFFFFFFFFFFFFFFFF AND PUSH20 0xFFFFFFFFFFFFFFFFFFFFFFFFFFFFFFFFFFFFFFFF AND DUP2 MSTORE PUSH1 0x20 ADD SWAP1 DUP2 MSTORE PUSH1 0x20 ADD PUSH1 0x0 KECCAK256 PUSH1 0x0 DUP3 DUP3 SLOAD PUSH2 0x68F SWAP2 SWAP1 PUSH2 0x100B JUMP JUMPDEST SWAP3 POP POP DUP2 SWAP1 SSTORE POP CALLVALUE PUSH1 0x5 PUSH1 0x0 DUP3 DUP3 SLOAD PUSH2 0x6A8 SWAP2 SWAP1 PUSH2 0x100B JUMP JUMPDEST SWAP3 POP POP DUP2 SWAP1 SSTORE POP JUMP JUMPDEST PUSH1 0x5 SLOAD DUP2 JUMP JUMPDEST PUSH1 0x0 DUP1 SLOAD SWAP1 PUSH2 0x100 EXP SWAP1 DIV PUSH20 0xFFFFFFFFFFFFFFFFFFFFFFFFFFFFFFFFFFFFFFFF AND DUP2 JUMP JUMPDEST PUSH1 0x3 SLOAD DUP2 JUMP JUMPDEST PUSH1 0x0 PUSH1 0x1 PUSH1 0x0 CALLER PUSH20 0xFFFFFFFFFFFFFFFFFFFFFFFFFFFFFFFFFFFFFFFF AND PUSH20 0xFFFFFFFFFFFFFFFFFFFFFFFFFFFFFFFFFFFFFFFF AND DUP2 MSTORE PUSH1 0x20 ADD SWAP1 DUP2 MSTORE PUSH1 0x20 ADD PUSH1 0x0 KECCAK256 SLOAD GT PUSH2 0x763 JUMPI PUSH1 0x40 MLOAD PUSH32 0x8C379A000000000000000000000000000000000000000000000000000000000 DUP2 MSTORE PUSH1 0x4 ADD PUSH2 0x75A SWAP1 PUSH2 0xF1E JUMP JUMPDEST PUSH1 0x40 MLOAD DUP1 SWAP2 SUB SWAP1 REVERT JUMPDEST PUSH1 0x0 PUSH1 0x7 PUSH1 0x0 DUP4 DUP2 MSTORE PUSH1 0x20 ADD SWAP1 DUP2 MSTORE PUSH1 0x20 ADD PUSH1 0x0 KECCAK256 SWAP1 POP PUSH1 0x0 ISZERO ISZERO DUP2 PUSH1 0x4 ADD PUSH1 0x0 CALLER PUSH20 0xFFFFFFFFFFFFFFFFFFFFFFFFFFFFFFFFFFFFFFFF AND PUSH20 0xFFFFFFFFFFFFFFFFFFFFFFFFFFFFFFFFFFFFFFFF AND DUP2 MSTORE PUSH1 0x20 ADD SWAP1 DUP2 MSTORE PUSH1 0x20 ADD PUSH1 0x0 KECCAK256 PUSH1 0x0 SWAP1 SLOAD SWAP1 PUSH2 0x100 EXP SWAP1 DIV PUSH1 0xFF AND ISZERO ISZERO EQ PUSH2 0x80F JUMPI PUSH1 0x40 MLOAD PUSH32 0x8C379A000000000000000000000000000000000000000000000000000000000 DUP2 MSTORE PUSH1 0x4 ADD PUSH2 0x806 SWAP1 PUSH2 0xEBE JUMP JUMPDEST PUSH1 0x40 MLOAD DUP1 SWAP2 SUB SWAP1 REVERT JUMPDEST PUSH1 0x1 DUP2 PUSH1 0x4 ADD PUSH1 0x0 CALLER PUSH20 0xFFFFFFFFFFFFFFFFFFFFFFFFFFFFFFFFFFFFFFFF AND PUSH20 0xFFFFFFFFFFFFFFFFFFFFFFFFFFFFFFFFFFFFFFFF AND DUP2 MSTORE PUSH1 0x20 ADD SWAP1 DUP2 MSTORE PUSH1 0x20 ADD PUSH1 0x0 KECCAK256 PUSH1 0x0 PUSH2 0x100 EXP DUP2 SLOAD DUP2 PUSH1 0xFF MUL NOT AND SWAP1 DUP4 ISZERO ISZERO MUL OR SWAP1 SSTORE POP POP POP JUMP JUMPDEST PUSH1 0x6 SLOAD TIMESTAMP GT PUSH2 0x8B1 JUMPI PUSH1 0x40 MLOAD PUSH32 0x8C379A000000000000000000000000000000000000000000000000000000000 DUP2 MSTORE PUSH1 0x4 ADD PUSH2 0x8A8 SWAP1 PUSH2 0xEFE JUMP JUMPDEST PUSH1 0x40 MLOAD DUP1 SWAP2 SUB SWAP1 REVERT JUMPDEST PUSH1 0x2 SLOAD PUSH1 0x5 SLOAD LT PUSH2 0x8F7 JUMPI PUSH1 0x40 MLOAD PUSH32 0x8C379A000000000000000000000000000000000000000000000000000000000 DUP2 MSTORE PUSH1 0x4 ADD PUSH2 0x8EE SWAP1 PUSH2 0xE9E JUMP JUMPDEST PUSH1 0x40 MLOAD DUP1 SWAP2 SUB SWAP1 REVERT JUMPDEST PUSH1 0x0 PUSH1 0x1 PUSH1 0x0 CALLER PUSH20 0xFFFFFFFFFFFFFFFFFFFFFFFFFFFFFFFFFFFFFFFF AND PUSH20 0xFFFFFFFFFFFFFFFFFFFFFFFFFFFFFFFFFFFFFFFF AND DUP2 MSTORE PUSH1 0x20 ADD SWAP1 DUP2 MSTORE PUSH1 0x20 ADD PUSH1 0x0 KECCAK256 SLOAD GT PUSH2 0x979 JUMPI PUSH1 0x40 MLOAD PUSH32 0x8C379A000000000000000000000000000000000000000000000000000000000 DUP2 MSTORE PUSH1 0x4 ADD PUSH2 0x970 SWAP1 PUSH2 0xF1E JUMP JUMPDEST PUSH1 0x40 MLOAD DUP1 SWAP2 SUB SWAP1 REVERT JUMPDEST CALLER PUSH20 0xFFFFFFFFFFFFFFFFFFFFFFFFFFFFFFFFFFFFFFFF AND PUSH2 0x8FC PUSH1 0x1 PUSH1 0x0 CALLER PUSH20 0xFFFFFFFFFFFFFFFFFFFFFFFFFFFFFFFFFFFFFFFF AND PUSH20 0xFFFFFFFFFFFFFFFFFFFFFFFFFFFFFFFFFFFFFFFF AND DUP2 MSTORE PUSH1 0x20 ADD SWAP1 DUP2 MSTORE PUSH1 0x20 ADD PUSH1 0x0 KECCAK256 SLOAD SWAP1 DUP2 ISZERO MUL SWAP1 PUSH1 0x40 MLOAD PUSH1 0x0 PUSH1 0x40 MLOAD DUP1 DUP4 SUB DUP2 DUP6 DUP9 DUP9 CALL SWAP4 POP POP POP POP ISZERO DUP1 ISZERO PUSH2 0x9FE JUMPI RETURNDATASIZE PUSH1 0x0 DUP1 RETURNDATACOPY RETURNDATASIZE PUSH1 0x0 REVERT JUMPDEST POP PUSH1 0x1 PUSH1 0x0 CALLER PUSH20 0xFFFFFFFFFFFFFFFFFFFFFFFFFFFFFFFFFFFFFFFF AND PUSH20 0xFFFFFFFFFFFFFFFFFFFFFFFFFFFFFFFFFFFFFFFF AND DUP2 MSTORE PUSH1 0x20 ADD SWAP1 DUP2 MSTORE PUSH1 0x20 ADD PUSH1 0x0 KECCAK256 SLOAD PUSH1 0x5 PUSH1 0x0 DUP3 DUP3 SLOAD PUSH2 0xA50 SWAP2 SWAP1 PUSH2 0x1061 JUMP JUMPDEST SWAP3 POP POP DUP2 SWAP1 SSTORE POP PUSH1 0x0 PUSH1 0x1 PUSH1 0x0 CALLER PUSH20 0xFFFFFFFFFFFFFFFFFFFFFFFFFFFFFFFFFFFFFFFF AND PUSH20 0xFFFFFFFFFFFFFFFFFFFFFFFFFFFFFFFFFFFFFFFF AND DUP2 MSTORE PUSH1 0x20 ADD SWAP1 DUP2 MSTORE PUSH1 0x20 ADD PUSH1 0x0 KECCAK256 DUP2 SWAP1 SSTORE POP JUMP JUMPDEST PUSH1 0x4 SLOAD DUP2 JUMP JUMPDEST DUP3 DUP1 SLOAD PUSH2 0xAB0 SWAP1 PUSH2 0x1131 JUMP JUMPDEST SWAP1 PUSH1 0x0 MSTORE PUSH1 0x20 PUSH1 0x0 KECCAK256 SWAP1 PUSH1 0x1F ADD PUSH1 0x20 SWAP1 DIV DUP2 ADD SWAP3 DUP3 PUSH2 0xAD2 JUMPI PUSH1 0x0 DUP6 SSTORE PUSH2 0xB19 JUMP JUMPDEST DUP3 PUSH1 0x1F LT PUSH2 0xAEB JUMPI DUP1 MLOAD PUSH1 0xFF NOT AND DUP4 DUP1 ADD OR DUP6 SSTORE PUSH2 0xB19 JUMP JUMPDEST DUP3 DUP1 ADD PUSH1 0x1 ADD DUP6 SSTORE DUP3 ISZERO PUSH2 0xB19 JUMPI SWAP2 DUP3 ADD JUMPDEST DUP3 DUP2 GT ISZERO PUSH2 0xB18 JUMPI DUP3 MLOAD DUP3 SSTORE SWAP2 PUSH1 0x20 ADD SWAP2 SWAP1 PUSH1 0x1 ADD SWAP1 PUSH2 0xAFD JUMP JUMPDEST JUMPDEST POP SWAP1 POP PUSH2 0xB26 SWAP2 SWAP1 PUSH2 0xB2A JUMP JUMPDEST POP SWAP1 JUMP JUMPDEST JUMPDEST DUP1 DUP3 GT ISZERO PUSH2 0xB43 JUMPI PUSH1 0x0 DUP2 PUSH1 0x0 SWAP1 SSTORE POP PUSH1 0x1 ADD PUSH2 0xB2B JUMP JUMPDEST POP SWAP1 JUMP JUMPDEST PUSH1 0x0 PUSH2 0xB5A PUSH2 0xB55 DUP5 PUSH2 0xFBE JUMP JUMPDEST PUSH2 0xF99 JUMP JUMPDEST SWAP1 POP DUP3 DUP2 MSTORE PUSH1 0x20 DUP2 ADD DUP5 DUP5 DUP5 ADD GT ISZERO PUSH2 0xB76 JUMPI PUSH2 0xB75 PUSH2 0x126F JUMP JUMPDEST JUMPDEST PUSH2 0xB81 DUP5 DUP3 DUP6 PUSH2 0x10EF JUMP JUMPDEST POP SWAP4 SWAP3 POP POP POP JUMP JUMPDEST PUSH1 0x0 DUP2 CALLDATALOAD SWAP1 POP PUSH2 0xB98 DUP2 PUSH2 0x13D4 JUMP JUMPDEST SWAP3 SWAP2 POP POP JUMP JUMPDEST PUSH1 0x0 DUP2 CALLDATALOAD SWAP1 POP PUSH2 0xBAD DUP2 PUSH2 0x13EB JUMP JUMPDEST SWAP3 SWAP2 POP POP JUMP JUMPDEST PUSH1 0x0 DUP3 PUSH1 0x1F DUP4 ADD SLT PUSH2 0xBC8 JUMPI PUSH2 0xBC7 PUSH2 0x126A JUMP JUMPDEST JUMPDEST DUP2 CALLDATALOAD PUSH2 0xBD8 DUP5 DUP3 PUSH1 0x20 DUP7 ADD PUSH2 0xB47 JUMP JUMPDEST SWAP2 POP POP SWAP3 SWAP2 POP POP JUMP JUMPDEST PUSH1 0x0 DUP2 CALLDATALOAD SWAP1 POP PUSH2 0xBF0 DUP2 PUSH2 0x1402 JUMP JUMPDEST SWAP3 SWAP2 POP POP JUMP JUMPDEST PUSH1 0x0 PUSH1 0x20 DUP3 DUP5 SUB SLT ISZERO PUSH2 0xC0C JUMPI PUSH2 0xC0B PUSH2 0x1279 JUMP JUMPDEST JUMPDEST PUSH1 0x0 PUSH2 0xC1A DUP5 DUP3 DUP6 ADD PUSH2 0xB89 JUMP JUMPDEST SWAP2 POP POP SWAP3 SWAP2 POP POP JUMP JUMPDEST PUSH1 0x0 DUP1 PUSH1 0x0 PUSH1 0x60 DUP5 DUP7 SUB SLT ISZERO PUSH2 0xC3C JUMPI PUSH2 0xC3B PUSH2 0x1279 JUMP JUMPDEST JUMPDEST PUSH1 0x0 DUP5 ADD CALLDATALOAD PUSH8 0xFFFFFFFFFFFFFFFF DUP2 GT ISZERO PUSH2 0xC5A JUMPI PUSH2 0xC59 PUSH2 0x1274 JUMP JUMPDEST JUMPDEST PUSH2 0xC66 DUP7 DUP3 DUP8 ADD PUSH2 0xBB3 JUMP JUMPDEST SWAP4 POP POP PUSH1 0x20 PUSH2 0xC77 DUP7 DUP3 DUP8 ADD PUSH2 0xBE1 JUMP JUMPDEST SWAP3 POP POP PUSH1 0x40 PUSH2 0xC88 DUP7 DUP3 DUP8 ADD PUSH2 0xB9E JUMP JUMPDEST SWAP2 POP POP SWAP3 POP SWAP3 POP SWAP3 JUMP JUMPDEST PUSH1 0x0 PUSH1 0x20 DUP3 DUP5 SUB SLT ISZERO PUSH2 0xCA8 JUMPI PUSH2 0xCA7 PUSH2 0x1279 JUMP JUMPDEST JUMPDEST PUSH1 0x0 PUSH2 0xCB6 DUP5 DUP3 DUP6 ADD PUSH2 0xBE1 JUMP JUMPDEST SWAP2 POP POP SWAP3 SWAP2 POP POP JUMP JUMPDEST PUSH2 0xCC8 DUP2 PUSH2 0x10A7 JUMP JUMPDEST DUP3 MSTORE POP POP JUMP JUMPDEST PUSH2 0xCD7 DUP2 PUSH2 0x1095 JUMP JUMPDEST DUP3 MSTORE POP POP JUMP JUMPDEST PUSH2 0xCE6 DUP2 PUSH2 0x10B9 JUMP JUMPDEST DUP3 MSTORE POP POP JUMP JUMPDEST PUSH1 0x0 PUSH2 0xCF7 DUP3 PUSH2 0xFEF JUMP JUMPDEST PUSH2 0xD01 DUP2 DUP6 PUSH2 0xFFA JUMP JUMPDEST SWAP4 POP PUSH2 0xD11 DUP2 DUP6 PUSH1 0x20 DUP7 ADD PUSH2 0x10FE JUMP JUMPDEST PUSH2 0xD1A DUP2 PUSH2 0x127E JUMP JUMPDEST DUP5 ADD SWAP2 POP POP SWAP3 SWAP2 POP POP JUMP JUMPDEST PUSH1 0x0 PUSH2 0xD32 PUSH1 0x16 DUP4 PUSH2 0xFFA JUMP JUMPDEST SWAP2 POP PUSH2 0xD3D DUP3 PUSH2 0x128F JUMP JUMPDEST PUSH1 0x20 DUP3 ADD SWAP1 POP SWAP2 SWAP1 POP JUMP JUMPDEST PUSH1 0x0 PUSH2 0xD55 PUSH1 0xD DUP4 PUSH2 0xFFA JUMP JUMPDEST SWAP2 POP PUSH2 0xD60 DUP3 PUSH2 0x12B8 JUMP JUMPDEST PUSH1 0x20 DUP3 ADD SWAP1 POP SWAP2 SWAP1 POP JUMP JUMPDEST PUSH1 0x0 PUSH2 0xD78 PUSH1 0x10 DUP4 PUSH2 0xFFA JUMP JUMPDEST SWAP2 POP PUSH2 0xD83 DUP3 PUSH2 0x12E1 JUMP JUMPDEST PUSH1 0x20 DUP3 ADD SWAP1 POP SWAP2 SWAP1 POP JUMP JUMPDEST PUSH1 0x0 PUSH2 0xD9B PUSH1 0x14 DUP4 PUSH2 0xFFA JUMP JUMPDEST SWAP2 POP PUSH2 0xDA6 DUP3 PUSH2 0x130A JUMP JUMPDEST PUSH1 0x20 DUP3 ADD SWAP1 POP SWAP2 SWAP1 POP JUMP JUMPDEST PUSH1 0x0 PUSH2 0xDBE PUSH1 0xC DUP4 PUSH2 0xFFA JUMP JUMPDEST SWAP2 POP PUSH2 0xDC9 DUP3 PUSH2 0x1333 JUMP JUMPDEST PUSH1 0x20 DUP3 ADD SWAP1 POP SWAP2 SWAP1 POP JUMP JUMPDEST PUSH1 0x0 PUSH2 0xDE1 PUSH1 0x23 DUP4 PUSH2 0xFFA JUMP JUMPDEST SWAP2 POP PUSH2 0xDEC DUP3 PUSH2 0x135C JUMP JUMPDEST PUSH1 0x40 DUP3 ADD SWAP1 POP SWAP2 SWAP1 POP JUMP JUMPDEST PUSH1 0x0 PUSH2 0xE04 PUSH1 0x11 DUP4 PUSH2 0xFFA JUMP JUMPDEST SWAP2 POP PUSH2 0xE0F DUP3 PUSH2 0x13AB JUMP JUMPDEST PUSH1 0x20 DUP3 ADD SWAP1 POP SWAP2 SWAP1 POP JUMP JUMPDEST PUSH2 0xE23 DUP2 PUSH2 0x10E5 JUMP JUMPDEST DUP3 MSTORE POP POP JUMP JUMPDEST PUSH1 0x0 PUSH1 0x20 DUP3 ADD SWAP1 POP PUSH2 0xE3E PUSH1 0x0 DUP4 ADD DUP5 PUSH2 0xCCE JUMP JUMPDEST SWAP3 SWAP2 POP POP JUMP JUMPDEST PUSH1 0x0 PUSH1 0xA0 DUP3 ADD SWAP1 POP DUP2 DUP2 SUB PUSH1 0x0 DUP4 ADD MSTORE PUSH2 0xE5E DUP2 DUP9 PUSH2 0xCEC JUMP JUMPDEST SWAP1 POP PUSH2 0xE6D PUSH1 0x20 DUP4 ADD DUP8 PUSH2 0xE1A JUMP JUMPDEST PUSH2 0xE7A PUSH1 0x40 DUP4 ADD DUP7 PUSH2 0xCBF JUMP JUMPDEST PUSH2 0xE87 PUSH1 0x60 DUP4 ADD DUP6 PUSH2 0xE1A JUMP JUMPDEST PUSH2 0xE94 PUSH1 0x80 DUP4 ADD DUP5 PUSH2 0xCDD JUMP JUMPDEST SWAP7 SWAP6 POP POP POP POP POP POP JUMP JUMPDEST PUSH1 0x0 PUSH1 0x20 DUP3 ADD SWAP1 POP DUP2 DUP2 SUB PUSH1 0x0 DUP4 ADD MSTORE PUSH2 0xEB7 DUP2 PUSH2 0xD25 JUMP JUMPDEST SWAP1 POP SWAP2 SWAP1 POP JUMP JUMPDEST PUSH1 0x0 PUSH1 0x20 DUP3 ADD SWAP1 POP DUP2 DUP2 SUB PUSH1 0x0 DUP4 ADD MSTORE PUSH2 0xED7 DUP2 PUSH2 0xD48 JUMP JUMPDEST SWAP1 POP SWAP2 SWAP1 POP JUMP JUMPDEST PUSH1 0x0 PUSH1 0x20 DUP3 ADD SWAP1 POP DUP2 DUP2 SUB PUSH1 0x0 DUP4 ADD MSTORE PUSH2 0xEF7 DUP2 PUSH2 0xD6B JUMP JUMPDEST SWAP1 POP SWAP2 SWAP1 POP JUMP JUMPDEST PUSH1 0x0 PUSH1 0x20 DUP3 ADD SWAP1 POP DUP2 DUP2 SUB PUSH1 0x0 DUP4 ADD MSTORE PUSH2 0xF17 DUP2 PUSH2 0xD8E JUMP JUMPDEST SWAP1 POP SWAP2 SWAP1 POP JUMP JUMPDEST PUSH1 0x0 PUSH1 0x20 DUP3 ADD SWAP1 POP DUP2 DUP2 SUB PUSH1 0x0 DUP4 ADD MSTORE PUSH2 0xF37 DUP2 PUSH2 0xDB1 JUMP JUMPDEST SWAP1 POP SWAP2 SWAP1 POP JUMP JUMPDEST PUSH1 0x0 PUSH1 0x20 DUP3 ADD SWAP1 POP DUP2 DUP2 SUB PUSH1 0x0 DUP4 ADD MSTORE PUSH2 0xF57 DUP2 PUSH2 0xDD4 JUMP JUMPDEST SWAP1 POP SWAP2 SWAP1 POP JUMP JUMPDEST PUSH1 0x0 PUSH1 0x20 DUP3 ADD SWAP1 POP DUP2 DUP2 SUB PUSH1 0x0 DUP4 ADD MSTORE PUSH2 0xF77 DUP2 PUSH2 0xDF7 JUMP JUMPDEST SWAP1 POP SWAP2 SWAP1 POP JUMP JUMPDEST PUSH1 0x0 PUSH1 0x20 DUP3 ADD SWAP1 POP PUSH2 0xF93 PUSH1 0x0 DUP4 ADD DUP5 PUSH2 0xE1A JUMP JUMPDEST SWAP3 SWAP2 POP POP JUMP JUMPDEST PUSH1 0x0 PUSH2 0xFA3 PUSH2 0xFB4 JUMP JUMPDEST SWAP1 POP PUSH2 0xFAF DUP3 DUP3 PUSH2 0x1163 JUMP JUMPDEST SWAP2 SWAP1 POP JUMP JUMPDEST PUSH1 0x0 PUSH1 0x40 MLOAD SWAP1 POP SWAP1 JUMP JUMPDEST PUSH1 0x0 PUSH8 0xFFFFFFFFFFFFFFFF DUP3 GT ISZERO PUSH2 0xFD9 JUMPI PUSH2 0xFD8 PUSH2 0x123B JUMP JUMPDEST JUMPDEST PUSH2 0xFE2 DUP3 PUSH2 0x127E JUMP JUMPDEST SWAP1 POP PUSH1 0x20 DUP2 ADD SWAP1 POP SWAP2 SWAP1 POP JUMP JUMPDEST PUSH1 0x0 DUP2 MLOAD SWAP1 POP SWAP2 SWAP1 POP JUMP JUMPDEST PUSH1 0x0 DUP3 DUP3 MSTORE PUSH1 0x20 DUP3 ADD SWAP1 POP SWAP3 SWAP2 POP POP JUMP JUMPDEST PUSH1 0x0 PUSH2 0x1016 DUP3 PUSH2 0x10E5 JUMP JUMPDEST SWAP2 POP PUSH2 0x1021 DUP4 PUSH2 0x10E5 JUMP JUMPDEST SWAP3 POP DUP3 PUSH32 0xFFFFFFFFFFFFFFFFFFFFFFFFFFFFFFFFFFFFFFFFFFFFFFFFFFFFFFFFFFFFFFFF SUB DUP3 GT ISZERO PUSH2 0x1056 JUMPI PUSH2 0x1055 PUSH2 0x11DD JUMP JUMPDEST JUMPDEST DUP3 DUP3 ADD SWAP1 POP SWAP3 SWAP2 POP POP JUMP JUMPDEST PUSH1 0x0 PUSH2 0x106C DUP3 PUSH2 0x10E5 JUMP JUMPDEST SWAP2 POP PUSH2 0x1077 DUP4 PUSH2 0x10E5 JUMP JUMPDEST SWAP3 POP DUP3 DUP3 LT ISZERO PUSH2 0x108A JUMPI PUSH2 0x1089 PUSH2 0x11DD JUMP JUMPDEST JUMPDEST DUP3 DUP3 SUB SWAP1 POP SWAP3 SWAP2 POP POP JUMP JUMPDEST PUSH1 0x0 PUSH2 0x10A0 DUP3 PUSH2 0x10C5 JUMP JUMPDEST SWAP1 POP SWAP2 SWAP1 POP JUMP JUMPDEST PUSH1 0x0 PUSH2 0x10B2 DUP3 PUSH2 0x10C5 JUMP JUMPDEST SWAP1 POP SWAP2 SWAP1 POP JUMP JUMPDEST PUSH1 0x0 DUP2 ISZERO ISZERO SWAP1 POP SWAP2 SWAP1 POP JUMP JUMPDEST PUSH1 0x0 PUSH20 0xFFFFFFFFFFFFFFFFFFFFFFFFFFFFFFFFFFFFFFFF DUP3 AND SWAP1 POP SWAP2 SWAP1 POP JUMP JUMPDEST PUSH1 0x0 DUP2 SWAP1 POP SWAP2 SWAP1 POP JUMP JUMPDEST DUP3 DUP2 DUP4 CALLDATACOPY PUSH1 0x0 DUP4 DUP4 ADD MSTORE POP POP POP JUMP JUMPDEST PUSH1 0x0 JUMPDEST DUP4 DUP2 LT ISZERO PUSH2 0x111C JUMPI DUP1 DUP3 ADD MLOAD DUP2 DUP5 ADD MSTORE PUSH1 0x20 DUP2 ADD SWAP1 POP PUSH2 0x1101 JUMP JUMPDEST DUP4 DUP2 GT ISZERO PUSH2 0x112B JUMPI PUSH1 0x0 DUP5 DUP5 ADD MSTORE JUMPDEST POP POP POP POP JUMP JUMPDEST PUSH1 0x0 PUSH1 0x2 DUP3 DIV SWAP1 POP PUSH1 0x1 DUP3 AND DUP1 PUSH2 0x1149 JUMPI PUSH1 0x7F DUP3 AND SWAP2 POP JUMPDEST PUSH1 0x20 DUP3 LT DUP2 EQ ISZERO PUSH2 0x115D JUMPI PUSH2 0x115C PUSH2 0x120C JUMP JUMPDEST JUMPDEST POP SWAP2 SWAP1 POP JUMP JUMPDEST PUSH2 0x116C DUP3 PUSH2 0x127E JUMP JUMPDEST DUP2 ADD DUP2 DUP2 LT PUSH8 0xFFFFFFFFFFFFFFFF DUP3 GT OR ISZERO PUSH2 0x118B JUMPI PUSH2 0x118A PUSH2 0x123B JUMP JUMPDEST JUMPDEST DUP1 PUSH1 0x40 MSTORE POP POP POP JUMP JUMPDEST PUSH1 0x0 PUSH2 0x119F DUP3 PUSH2 0x10E5 JUMP JUMPDEST SWAP2 POP PUSH32 0xFFFFFFFFFFFFFFFFFFFFFFFFFFFFFFFFFFFFFFFFFFFFFFFFFFFFFFFFFFFFFFFF DUP3 EQ ISZERO PUSH2 0x11D2 JUMPI PUSH2 0x11D1 PUSH2 0x11DD JUMP JUMPDEST JUMPDEST PUSH1 0x1 DUP3 ADD SWAP1 POP SWAP2 SWAP1 POP JUMP JUMPDEST PUSH32 0x4E487B7100000000000000000000000000000000000000000000000000000000 PUSH1 0x0 MSTORE PUSH1 0x11 PUSH1 0x4 MSTORE PUSH1 0x24 PUSH1 0x0 REVERT JUMPDEST PUSH32 0x4E487B7100000000000000000000000000000000000000000000000000000000 PUSH1 0x0 MSTORE PUSH1 0x22 PUSH1 0x4 MSTORE PUSH1 0x24 PUSH1 0x0 REVERT JUMPDEST PUSH32 0x4E487B7100000000000000000000000000000000000000000000000000000000 PUSH1 0x0 MSTORE PUSH1 0x41 PUSH1 0x4 MSTORE PUSH1 0x24 PUSH1 0x0 REVERT JUMPDEST PUSH1 0x0 DUP1 REVERT JUMPDEST PUSH1 0x0 DUP1 REVERT JUMPDEST PUSH1 0x0 DUP1 REVERT JUMPDEST PUSH1 0x0 DUP1 REVERT JUMPDEST PUSH1 0x0 PUSH1 0x1F NOT PUSH1 0x1F DUP4 ADD AND SWAP1 POP SWAP2 SWAP1 POP JUMP JUMPDEST PUSH32 0x46756E64696E6720776173207375636365737366756C00000000000000000000 PUSH1 0x0 DUP3 ADD MSTORE POP JUMP JUMPDEST PUSH32 0x416C726561647920766F74656400000000000000000000000000000000000000 PUSH1 0x0 DUP3 ADD MSTORE POP JUMP JUMPDEST PUSH32 0x46756E64696E67206973206F7665722100000000000000000000000000000000 PUSH1 0x0 DUP3 ADD MSTORE POP JUMP JUMPDEST PUSH32 0x46756E64696E67206973207374696C6C206F6E21000000000000000000000000 PUSH1 0x0 DUP3 ADD MSTORE POP JUMP JUMPDEST PUSH32 0x4E6F7420612066756E6465720000000000000000000000000000000000000000 PUSH1 0x0 DUP3 ADD MSTORE POP JUMP JUMPDEST PUSH32 0x4D696E696D756D20616D6F756E74206372697465726961206E6F742073617469 PUSH1 0x0 DUP3 ADD MSTORE PUSH32 0x7366790000000000000000000000000000000000000000000000000000000000 PUSH1 0x20 DUP3 ADD MSTORE POP JUMP JUMPDEST PUSH32 0x596F7520617265206E6F74206F776E6572000000000000000000000000000000 PUSH1 0x0 DUP3 ADD MSTORE POP JUMP JUMPDEST PUSH2 0x13DD DUP2 PUSH2 0x1095 JUMP JUMPDEST DUP2 EQ PUSH2 0x13E8 JUMPI PUSH1 0x0 DUP1 REVERT JUMPDEST POP JUMP JUMPDEST PUSH2 0x13F4 DUP2 PUSH2 0x10A7 JUMP JUMPDEST DUP2 EQ PUSH2 0x13FF JUMPI PUSH1 0x0 DUP1 REVERT JUMPDEST POP JUMP JUMPDEST PUSH2 0x140B DUP2 PUSH2 0x10E5 JUMP JUMPDEST DUP2 EQ PUSH2 0x1416 JUMPI PUSH1 0x0 DUP1 REVERT JUMPDEST POP JUMP INVALID LOG2 PUSH5 0x6970667358 0x22 SLT KECCAK256 MSIZE 0xF9 SWAP8 PUSH22 0x788317437E6876B91935C1F34377BA703E85E700EA8 PUSH24 0xF877F936B264736F6C634300080700330000000000000000 "
				},
				"gasEstimates": {
					"creation": {
						"codeDepositCost": "1039800",
						"executionCost": "infinite",
						"totalCost": "infinite"
					},
					"external": {
						"AllRequests(uint256)": "infinite",
						"contribution()": "infinite",
						"createRequests(string,uint256,address)": "infinite",
						"funders(address)": "2837",
						"fundsRaised()": "2474",
						"getRefund()": "infinite",
						"goal()": "2540",
						"minAmount()": "2451",
						"noOfFounders()": "2517",
						"numReq()": "2496",
						"owner()": "2578",
						"timePeriod()": "2518",
						"votingForRequest(uint256)": "29381"
					}
				},
				"methodIdentifiers": {
					"AllRequests(uint256)": "0114bd3f",
					"contribution()": "50520b1f",
					"createRequests(string,uint256,address)": "277c3da4",
					"funders(address)": "031b3677",
					"fundsRaised()": "6681b9fd",
					"getRefund()": "b2d5ae44",
					"goal()": "40193883",
					"minAmount()": "9b2cb5d8",
					"noOfFounders()": "e89b7c55",
					"numReq()": "3c2ed32d",
					"owner()": "8da5cb5b",
					"timePeriod()": "3e79d1e1",
					"votingForRequest(uint256)": "b0636556"
				}
			},
			"storageLayout": {
				"storage": [
					{
						"astId": 3,
						"contract": "CrowdFunding.sol:main",
						"label": "owner",
						"offset": 0,
						"slot": "0",
						"type": "t_address"
					},
					{
						"astId": 7,
						"contract": "CrowdFunding.sol:main",
						"label": "funders",
						"offset": 0,
						"slot": "1",
						"type": "t_mapping(t_address,t_uint256)"
					},
					{
						"astId": 9,
						"contract": "CrowdFunding.sol:main",
						"label": "goal",
						"offset": 0,
						"slot": "2",
						"type": "t_uint256"
					},
					{
						"astId": 11,
						"contract": "CrowdFunding.sol:main",
						"label": "minAmount",
						"offset": 0,
						"slot": "3",
						"type": "t_uint256"
					},
					{
						"astId": 13,
						"contract": "CrowdFunding.sol:main",
						"label": "noOfFounders",
						"offset": 0,
						"slot": "4",
						"type": "t_uint256"
					},
					{
						"astId": 15,
						"contract": "CrowdFunding.sol:main",
						"label": "fundsRaised",
						"offset": 0,
						"slot": "5",
						"type": "t_uint256"
					},
					{
						"astId": 17,
						"contract": "CrowdFunding.sol:main",
						"label": "timePeriod",
						"offset": 0,
						"slot": "6",
						"type": "t_uint256"
					},
					{
						"astId": 180,
						"contract": "CrowdFunding.sol:main",
						"label": "AllRequests",
						"offset": 0,
						"slot": "7",
						"type": "t_mapping(t_uint256,t_struct(Requests)175_storage)"
					},
					{
						"astId": 182,
						"contract": "CrowdFunding.sol:main",
						"label": "numReq",
						"offset": 0,
						"slot": "8",
						"type": "t_uint256"
					}
				],
				"types": {
					"t_address": {
						"encoding": "inplace",
						"label": "address",
						"numberOfBytes": "20"
					},
					"t_address_payable": {
						"encoding": "inplace",
						"label": "address payable",
						"numberOfBytes": "20"
					},
					"t_bool": {
						"encoding": "inplace",
						"label": "bool",
						"numberOfBytes": "1"
					},
					"t_mapping(t_address,t_bool)": {
						"encoding": "mapping",
						"key": "t_address",
						"label": "mapping(address => bool)",
						"numberOfBytes": "32",
						"value": "t_bool"
					},
					"t_mapping(t_address,t_uint256)": {
						"encoding": "mapping",
						"key": "t_address",
						"label": "mapping(address => uint256)",
						"numberOfBytes": "32",
						"value": "t_uint256"
					},
					"t_mapping(t_uint256,t_struct(Requests)175_storage)": {
						"encoding": "mapping",
						"key": "t_uint256",
						"label": "mapping(uint256 => struct main.Requests)",
						"numberOfBytes": "32",
						"value": "t_struct(Requests)175_storage"
					},
					"t_string_storage": {
						"encoding": "bytes",
						"label": "string",
						"numberOfBytes": "32"
					},
					"t_struct(Requests)175_storage": {
						"encoding": "inplace",
						"label": "struct main.Requests",
						"members": [
							{
								"astId": 162,
								"contract": "CrowdFunding.sol:main",
								"label": "description",
								"offset": 0,
								"slot": "0",
								"type": "t_string_storage"
							},
							{
								"astId": 164,
								"contract": "CrowdFunding.sol:main",
								"label": "amount",
								"offset": 0,
								"slot": "1",
								"type": "t_uint256"
							},
							{
								"astId": 166,
								"contract": "CrowdFunding.sol:main",
								"label": "receiver",
								"offset": 0,
								"slot": "2",
								"type": "t_address_payable"
							},
							{
								"astId": 168,
								"contract": "CrowdFunding.sol:main",
								"label": "noOfVotes",
								"offset": 0,
								"slot": "3",
								"type": "t_uint256"
							},
							{
								"astId": 172,
								"contract": "CrowdFunding.sol:main",
								"label": "votes",
								"offset": 0,
								"slot": "4",
								"type": "t_mapping(t_address,t_bool)"
							},
							{
								"astId": 174,
								"contract": "CrowdFunding.sol:main",
								"label": "completed",
								"offset": 0,
								"slot": "5",
								"type": "t_bool"
							}
						],
						"numberOfBytes": "192"
					},
					"t_uint256": {
						"encoding": "inplace",
						"label": "uint256",
						"numberOfBytes": "32"
					}
				}
			},
			"userdoc": {
				"kind": "user",
				"methods": {},
				"version": 1
			}
		}
	}
}