{
	"CrowdFunding.sol": {
		"main": {
			"abi": [
				{
					"inputs": [
						{
							"internalType": "uint256",
							"name": "_goal",
							"type": "uint256"
						},
						{
							"internalType": "uint256",
							"name": "_timePeriod",
							"type": "uint256"
						}
					],
					"stateMutability": "nonpayable",
					"type": "constructor"
				},
				{
					"inputs": [
						{
							"internalType": "uint256",
							"name": "",
							"type": "uint256"
						}
					],
					"name": "AllRequests",
					"outputs": [
						{
							"internalType": "string",
							"name": "description",
							"type": "string"
						},
						{
							"internalType": "uint256",
							"name": "amount",
							"type": "uint256"
						},
						{
							"internalType": "address payable",
							"name": "receiver",
							"type": "address"
						},
						{
							"internalType": "uint256",
							"name": "noOfVotes",
							"type": "uint256"
						},
						{
							"internalType": "bool",
							"name": "completed",
							"type": "bool"
						}
					],
					"stateMutability": "view",
					"type": "function"
				},
				{
					"inputs": [],
					"name": "contribution",
					"outputs": [],
					"stateMutability": "payable",
					"type": "function"
				},
				{
					"inputs": [
						{
							"internalType": "string",
							"name": "_description",
							"type": "string"
						},
						{
							"internalType": "uint256",
							"name": "_amount",
							"type": "uint256"
						},
						{
							"internalType": "address payable",
							"name": "_receiver",
							"type": "address"
						}
					],
					"name": "createRequests",
					"outputs": [],
					"stateMutability": "nonpayable",
					"type": "function"
				},
				{
					"inputs": [
						{
							"internalType": "address",
							"name": "",
							"type": "address"
						}
					],
					"name": "funders",
					"outputs": [
						{
							"internalType": "uint256",
							"name": "",
							"type": "uint256"
						}
					],
					"stateMutability": "view",
					"type": "function"
				},
				{
					"inputs": [],
					"name": "fundsRaised",
					"outputs": [
						{
							"internalType": "uint256",
							"name": "",
							"type": "uint256"
						}
					],
					"stateMutability": "view",
					"type": "function"
				},
				{
					"inputs": [],
					"name": "getRefund",
					"outputs": [],
					"stateMutability": "nonpayable",
					"type": "function"
				},
				{
					"inputs": [],
					"name": "goal",
					"outputs": [
						{
							"internalType": "uint256",
							"name": "",
							"type": "uint256"
						}
					],
					"stateMutability": "view",
					"type": "function"
				},
				{
					"inputs": [
						{
							"internalType": "uint256",
							"name": "_reqNum",
							"type": "uint256"
						}
					],
					"name": "makePayment",
					"outputs": [],
					"stateMutability": "nonpayable",
					"type": "function"
				},
				{
					"inputs": [],
					"name": "minAmount",
					"outputs": [
						{
							"internalType": "uint256",
							"name": "",
							"type": "uint256"
						}
					],
					"stateMutability": "view",
					"type": "function"
				},
				{
					"inputs": [],
					"name": "noOfFounders",
					"outputs": [
						{
							"internalType": "uint256",
							"name": "",
							"type": "uint256"
						}
					],
					"stateMutability": "view",
					"type": "function"
				},
				{
					"inputs": [],
					"name": "numReq",
					"outputs": [
						{
							"internalType": "uint256",
							"name": "",
							"type": "uint256"
						}
					],
					"stateMutability": "view",
					"type": "function"
				},
				{
					"inputs": [],
					"name": "owner",
					"outputs": [
						{
							"internalType": "address",
							"name": "",
							"type": "address"
						}
					],
					"stateMutability": "view",
					"type": "function"
				},
				{
					"inputs": [],
					"name": "timePeriod",
					"outputs": [
						{
							"internalType": "uint256",
							"name": "",
							"type": "uint256"
						}
					],
					"stateMutability": "view",
					"type": "function"
				},
				{
					"inputs": [
						{
							"internalType": "uint256",
							"name": "_reqNum",
							"type": "uint256"
						}
					],
					"name": "votingForRequest",
					"outputs": [],
					"stateMutability": "nonpayable",
					"type": "function"
				},
				{
					"stateMutability": "payable",
					"type": "receive"
				}
			],
			"devdoc": {
				"kind": "dev",
				"methods": {},
				"version": 1
			},
			"evm": {
				"assembly": "    /* \"CrowdFunding.sol\":59:2774  contract main {\r... */\n  mstore(0x40, 0x80)\n    /* \"CrowdFunding.sol\":311:496  constructor(uint _goal, uint _timePeriod){\r... */\n  callvalue\n  dup1\n  iszero\n  tag_1\n  jumpi\n  0x00\n  dup1\n  revert\ntag_1:\n  pop\n  mload(0x40)\n  sub(codesize, bytecodeSize)\n  dup1\n  bytecodeSize\n  dup4\n  codecopy\n  dup2\n  dup2\n  add\n  0x40\n  mstore\n  dup2\n  add\n  swap1\n  tag_2\n  swap2\n  swap1\n  tag_3\n  jump\t// in\ntag_2:\n    /* \"CrowdFunding.sol\":370:375  _goal */\n  dup2\n    /* \"CrowdFunding.sol\":363:367  goal */\n  0x02\n    /* \"CrowdFunding.sol\":363:375  goal = _goal */\n  dup2\n  swap1\n  sstore\n  pop\n    /* \"CrowdFunding.sol\":417:428  _timePeriod */\n  dup1\n    /* \"CrowdFunding.sol\":399:414  block.timestamp */\n  timestamp\n    /* \"CrowdFunding.sol\":399:428  block.timestamp + _timePeriod */\n  tag_6\n  swap2\n  swap1\n  tag_7\n  jump\t// in\ntag_6:\n    /* \"CrowdFunding.sol\":386:396  timePeriod */\n  0x06\n    /* \"CrowdFunding.sol\":386:428  timePeriod = block.timestamp + _timePeriod */\n  dup2\n  swap1\n  sstore\n  pop\n    /* \"CrowdFunding.sol\":447:457  msg.sender */\n  caller\n    /* \"CrowdFunding.sol\":439:444  owner */\n  0x00\n  dup1\n    /* \"CrowdFunding.sol\":439:457  owner = msg.sender */\n  0x0100\n  exp\n  dup2\n  sload\n  dup2\n  0xffffffffffffffffffffffffffffffffffffffff\n  mul\n  not\n  and\n  swap1\n  dup4\n  0xffffffffffffffffffffffffffffffffffffffff\n  and\n  mul\n  or\n  swap1\n  sstore\n  pop\n    /* \"CrowdFunding.sol\":480:488  1000 wei */\n  0x03e8\n    /* \"CrowdFunding.sol\":468:477  minAmount */\n  0x03\n    /* \"CrowdFunding.sol\":468:488  minAmount = 1000 wei */\n  dup2\n  swap1\n  sstore\n  pop\n    /* \"CrowdFunding.sol\":311:496  constructor(uint _goal, uint _timePeriod){\r... */\n  pop\n  pop\n    /* \"CrowdFunding.sol\":59:2774  contract main {\r... */\n  jump(tag_8)\n    /* \"#utility.yul\":7:150   */\ntag_10:\n    /* \"#utility.yul\":64:69   */\n  0x00\n    /* \"#utility.yul\":95:101   */\n  dup2\n    /* \"#utility.yul\":89:102   */\n  mload\n    /* \"#utility.yul\":80:102   */\n  swap1\n  pop\n    /* \"#utility.yul\":111:144   */\n  tag_12\n    /* \"#utility.yul\":138:143   */\n  dup2\n    /* \"#utility.yul\":111:144   */\n  tag_13\n  jump\t// in\ntag_12:\n    /* \"#utility.yul\":7:150   */\n  swap3\n  swap2\n  pop\n  pop\n  jump\t// out\n    /* \"#utility.yul\":156:663   */\ntag_3:\n    /* \"#utility.yul\":235:241   */\n  0x00\n    /* \"#utility.yul\":243:249   */\n  dup1\n    /* \"#utility.yul\":292:294   */\n  0x40\n    /* \"#utility.yul\":280:289   */\n  dup4\n    /* \"#utility.yul\":271:278   */\n  dup6\n    /* \"#utility.yul\":267:290   */\n  sub\n    /* \"#utility.yul\":263:295   */\n  slt\n    /* \"#utility.yul\":260:379   */\n  iszero\n  tag_15\n  jumpi\n    /* \"#utility.yul\":298:377   */\n  tag_16\n  tag_17\n  jump\t// in\ntag_16:\n    /* \"#utility.yul\":260:379   */\ntag_15:\n    /* \"#utility.yul\":418:419   */\n  0x00\n    /* \"#utility.yul\":443:507   */\n  tag_18\n    /* \"#utility.yul\":499:506   */\n  dup6\n    /* \"#utility.yul\":490:496   */\n  dup3\n    /* \"#utility.yul\":479:488   */\n  dup7\n    /* \"#utility.yul\":475:497   */\n  add\n    /* \"#utility.yul\":443:507   */\n  tag_10\n  jump\t// in\ntag_18:\n    /* \"#utility.yul\":433:507   */\n  swap3\n  pop\n    /* \"#utility.yul\":389:517   */\n  pop\n    /* \"#utility.yul\":556:558   */\n  0x20\n    /* \"#utility.yul\":582:646   */\n  tag_19\n    /* \"#utility.yul\":638:645   */\n  dup6\n    /* \"#utility.yul\":629:635   */\n  dup3\n    /* \"#utility.yul\":618:627   */\n  dup7\n    /* \"#utility.yul\":614:636   */\n  add\n    /* \"#utility.yul\":582:646   */\n  tag_10\n  jump\t// in\ntag_19:\n    /* \"#utility.yul\":572:646   */\n  swap2\n  pop\n    /* \"#utility.yul\":527:656   */\n  pop\n    /* \"#utility.yul\":156:663   */\n  swap3\n  pop\n  swap3\n  swap1\n  pop\n  jump\t// out\n    /* \"#utility.yul\":750:1055   */\ntag_7:\n    /* \"#utility.yul\":790:793   */\n  0x00\n    /* \"#utility.yul\":809:829   */\n  tag_23\n    /* \"#utility.yul\":827:828   */\n  dup3\n    /* \"#utility.yul\":809:829   */\n  tag_24\n  jump\t// in\ntag_23:\n    /* \"#utility.yul\":804:829   */\n  swap2\n  pop\n    /* \"#utility.yul\":843:863   */\n  tag_25\n    /* \"#utility.yul\":861:862   */\n  dup4\n    /* \"#utility.yul\":843:863   */\n  tag_24\n  jump\t// in\ntag_25:\n    /* \"#utility.yul\":838:863   */\n  swap3\n  pop\n    /* \"#utility.yul\":997:998   */\n  dup3\n    /* \"#utility.yul\":929:995   */\n  0xffffffffffffffffffffffffffffffffffffffffffffffffffffffffffffffff\n    /* \"#utility.yul\":925:999   */\n  sub\n    /* \"#utility.yul\":922:923   */\n  dup3\n    /* \"#utility.yul\":919:1000   */\n  gt\n    /* \"#utility.yul\":916:1023   */\n  iszero\n  tag_26\n  jumpi\n    /* \"#utility.yul\":1003:1021   */\n  tag_27\n  tag_28\n  jump\t// in\ntag_27:\n    /* \"#utility.yul\":916:1023   */\ntag_26:\n    /* \"#utility.yul\":1047:1048   */\n  dup3\n    /* \"#utility.yul\":1044:1045   */\n  dup3\n    /* \"#utility.yul\":1040:1049   */\n  add\n    /* \"#utility.yul\":1033:1049   */\n  swap1\n  pop\n    /* \"#utility.yul\":750:1055   */\n  swap3\n  swap2\n  pop\n  pop\n  jump\t// out\n    /* \"#utility.yul\":1061:1138   */\ntag_24:\n    /* \"#utility.yul\":1098:1105   */\n  0x00\n    /* \"#utility.yul\":1127:1132   */\n  dup2\n    /* \"#utility.yul\":1116:1132   */\n  swap1\n  pop\n    /* \"#utility.yul\":1061:1138   */\n  swap2\n  swap1\n  pop\n  jump\t// out\n    /* \"#utility.yul\":1144:1324   */\ntag_28:\n    /* \"#utility.yul\":1192:1269   */\n  0x4e487b7100000000000000000000000000000000000000000000000000000000\n    /* \"#utility.yul\":1189:1190   */\n  0x00\n    /* \"#utility.yul\":1182:1270   */\n  mstore\n    /* \"#utility.yul\":1289:1293   */\n  0x11\n    /* \"#utility.yul\":1286:1287   */\n  0x04\n    /* \"#utility.yul\":1279:1294   */\n  mstore\n    /* \"#utility.yul\":1313:1317   */\n  0x24\n    /* \"#utility.yul\":1310:1311   */\n  0x00\n    /* \"#utility.yul\":1303:1318   */\n  revert\n    /* \"#utility.yul\":1453:1570   */\ntag_17:\n    /* \"#utility.yul\":1562:1563   */\n  0x00\n    /* \"#utility.yul\":1559:1560   */\n  dup1\n    /* \"#utility.yul\":1552:1564   */\n  revert\n    /* \"#utility.yul\":1576:1698   */\ntag_13:\n    /* \"#utility.yul\":1649:1673   */\n  tag_35\n    /* \"#utility.yul\":1667:1672   */\n  dup2\n    /* \"#utility.yul\":1649:1673   */\n  tag_24\n  jump\t// in\ntag_35:\n    /* \"#utility.yul\":1642:1647   */\n  dup2\n    /* \"#utility.yul\":1639:1674   */\n  eq\n    /* \"#utility.yul\":1629:1692   */\n  tag_36\n  jumpi\n    /* \"#utility.yul\":1688:1689   */\n  0x00\n    /* \"#utility.yul\":1685:1686   */\n  dup1\n    /* \"#utility.yul\":1678:1690   */\n  revert\n    /* \"#utility.yul\":1629:1692   */\ntag_36:\n    /* \"#utility.yul\":1576:1698   */\n  pop\n  jump\t// out\n    /* \"CrowdFunding.sol\":59:2774  contract main {\r... */\ntag_8:\n  dataSize(sub_0)\n  dup1\n  dataOffset(sub_0)\n  0x00\n  codecopy\n  0x00\n  return\nstop\n\nsub_0: assembly {\n        /* \"CrowdFunding.sol\":59:2774  contract main {\r... */\n      mstore(0x40, 0x80)\n      jumpi(tag_1, lt(calldatasize, 0x04))\n      shr(0xe0, calldataload(0x00))\n      dup1\n      0x5114cb52\n      gt\n      tag_17\n      jumpi\n      dup1\n      0x9b2cb5d8\n      gt\n      tag_18\n      jumpi\n      dup1\n      0x9b2cb5d8\n      eq\n      tag_13\n      jumpi\n      dup1\n      0xb0636556\n      eq\n      tag_14\n      jumpi\n      dup1\n      0xb2d5ae44\n      eq\n      tag_15\n      jumpi\n      dup1\n      0xe89b7c55\n      eq\n      tag_16\n      jumpi\n      jump(tag_2)\n    tag_18:\n      dup1\n      0x5114cb52\n      eq\n      tag_10\n      jumpi\n      dup1\n      0x6681b9fd\n      eq\n      tag_11\n      jumpi\n      dup1\n      0x8da5cb5b\n      eq\n      tag_12\n      jumpi\n      jump(tag_2)\n    tag_17:\n      dup1\n      0x3c2ed32d\n      gt\n      tag_19\n      jumpi\n      dup1\n      0x3c2ed32d\n      eq\n      tag_6\n      jumpi\n      dup1\n      0x3e79d1e1\n      eq\n      tag_7\n      jumpi\n      dup1\n      0x40193883\n      eq\n      tag_8\n      jumpi\n      dup1\n      0x50520b1f\n      eq\n      tag_9\n      jumpi\n      jump(tag_2)\n    tag_19:\n      dup1\n      0x0114bd3f\n      eq\n      tag_3\n      jumpi\n      dup1\n      0x031b3677\n      eq\n      tag_4\n      jumpi\n      dup1\n      0x277c3da4\n      eq\n      tag_5\n      jumpi\n      jump(tag_2)\n    tag_1:\n      jumpi(tag_2, calldatasize)\n      stop\n    tag_2:\n      0x00\n      dup1\n      revert\n        /* \"CrowdFunding.sol\":1607:1652  mapping (uint => Requests) public AllRequests */\n    tag_3:\n      callvalue\n      dup1\n      iszero\n      tag_22\n      jumpi\n      0x00\n      dup1\n      revert\n    tag_22:\n      pop\n      tag_23\n      0x04\n      dup1\n      calldatasize\n      sub\n      dup2\n      add\n      swap1\n      tag_24\n      swap2\n      swap1\n      tag_25\n      jump\t// in\n    tag_24:\n      tag_26\n      jump\t// in\n    tag_23:\n      mload(0x40)\n      tag_27\n      swap6\n      swap5\n      swap4\n      swap3\n      swap2\n      swap1\n      tag_28\n      jump\t// in\n    tag_27:\n      mload(0x40)\n      dup1\n      swap2\n      sub\n      swap1\n      return\n        /* \"CrowdFunding.sol\":109:149  mapping (address => uint) public funders */\n    tag_4:\n      callvalue\n      dup1\n      iszero\n      tag_29\n      jumpi\n      0x00\n      dup1\n      revert\n    tag_29:\n      pop\n      tag_30\n      0x04\n      dup1\n      calldatasize\n      sub\n      dup2\n      add\n      swap1\n      tag_31\n      swap2\n      swap1\n      tag_32\n      jump\t// in\n    tag_31:\n      tag_33\n      jump\t// in\n    tag_30:\n      mload(0x40)\n      tag_34\n      swap2\n      swap1\n      tag_35\n      jump\t// in\n    tag_34:\n      mload(0x40)\n      dup1\n      swap2\n      sub\n      swap1\n      return\n        /* \"CrowdFunding.sol\":1686:2084  function createRequests(string memory _description, uint _amount, address payable _receiver) public isOwner{\r... */\n    tag_5:\n      callvalue\n      dup1\n      iszero\n      tag_36\n      jumpi\n      0x00\n      dup1\n      revert\n    tag_36:\n      pop\n      tag_37\n      0x04\n      dup1\n      calldatasize\n      sub\n      dup2\n      add\n      swap1\n      tag_38\n      swap2\n      swap1\n      tag_39\n      jump\t// in\n    tag_38:\n      tag_40\n      jump\t// in\n    tag_37:\n      stop\n        /* \"CrowdFunding.sol\":1659:1677  uint public numReq */\n    tag_6:\n      callvalue\n      dup1\n      iszero\n      tag_41\n      jumpi\n      0x00\n      dup1\n      revert\n    tag_41:\n      pop\n      tag_42\n      tag_43\n      jump\t// in\n    tag_42:\n      mload(0x40)\n      tag_44\n      swap2\n      swap1\n      tag_35\n      jump\t// in\n    tag_44:\n      mload(0x40)\n      dup1\n      swap2\n      sub\n      swap1\n      return\n        /* \"CrowdFunding.sol\":268:290  uint public timePeriod */\n    tag_7:\n      callvalue\n      dup1\n      iszero\n      tag_45\n      jumpi\n      0x00\n      dup1\n      revert\n    tag_45:\n      pop\n      tag_46\n      tag_47\n      jump\t// in\n    tag_46:\n      mload(0x40)\n      tag_48\n      swap2\n      swap1\n      tag_35\n      jump\t// in\n    tag_48:\n      mload(0x40)\n      dup1\n      swap2\n      sub\n      swap1\n      return\n        /* \"CrowdFunding.sol\":156:172  uint public goal */\n    tag_8:\n      callvalue\n      dup1\n      iszero\n      tag_49\n      jumpi\n      0x00\n      dup1\n      revert\n    tag_49:\n      pop\n      tag_50\n      tag_51\n      jump\t// in\n    tag_50:\n      mload(0x40)\n      tag_52\n      swap2\n      swap1\n      tag_35\n      jump\t// in\n    tag_52:\n      mload(0x40)\n      dup1\n      swap2\n      sub\n      swap1\n      return\n        /* \"CrowdFunding.sol\":647:1011  function contribution() public payable{\r... */\n    tag_9:\n      tag_53\n      tag_54\n      jump\t// in\n    tag_53:\n      stop\n        /* \"CrowdFunding.sol\":2431:2769  function makePayment(uint _reqNum) public {\r... */\n    tag_10:\n      callvalue\n      dup1\n      iszero\n      tag_55\n      jumpi\n      0x00\n      dup1\n      revert\n    tag_55:\n      pop\n      tag_56\n      0x04\n      dup1\n      calldatasize\n      sub\n      dup2\n      add\n      swap1\n      tag_57\n      swap2\n      swap1\n      tag_25\n      jump\t// in\n    tag_57:\n      tag_58\n      jump\t// in\n    tag_56:\n      stop\n        /* \"CrowdFunding.sol\":238:261  uint public fundsRaised */\n    tag_11:\n      callvalue\n      dup1\n      iszero\n      tag_59\n      jumpi\n      0x00\n      dup1\n      revert\n    tag_59:\n      pop\n      tag_60\n      tag_61\n      jump\t// in\n    tag_60:\n      mload(0x40)\n      tag_62\n      swap2\n      swap1\n      tag_35\n      jump\t// in\n    tag_62:\n      mload(0x40)\n      dup1\n      swap2\n      sub\n      swap1\n      return\n        /* \"CrowdFunding.sol\":82:102  address public owner */\n    tag_12:\n      callvalue\n      dup1\n      iszero\n      tag_63\n      jumpi\n      0x00\n      dup1\n      revert\n    tag_63:\n      pop\n      tag_64\n      tag_65\n      jump\t// in\n    tag_64:\n      mload(0x40)\n      tag_66\n      swap2\n      swap1\n      tag_67\n      jump\t// in\n    tag_66:\n      mload(0x40)\n      dup1\n      swap2\n      sub\n      swap1\n      return\n        /* \"CrowdFunding.sol\":179:200  uint public minAmount */\n    tag_13:\n      callvalue\n      dup1\n      iszero\n      tag_68\n      jumpi\n      0x00\n      dup1\n      revert\n    tag_68:\n      pop\n      tag_69\n      tag_70\n      jump\t// in\n    tag_69:\n      mload(0x40)\n      tag_71\n      swap2\n      swap1\n      tag_35\n      jump\t// in\n    tag_71:\n      mload(0x40)\n      dup1\n      swap2\n      sub\n      swap1\n      return\n        /* \"CrowdFunding.sol\":2092:2423  function votingForRequest(uint _reqNum) public{\r... */\n    tag_14:\n      callvalue\n      dup1\n      iszero\n      tag_72\n      jumpi\n      0x00\n      dup1\n      revert\n    tag_72:\n      pop\n      tag_73\n      0x04\n      dup1\n      calldatasize\n      sub\n      dup2\n      add\n      swap1\n      tag_74\n      swap2\n      swap1\n      tag_25\n      jump\t// in\n    tag_74:\n      tag_75\n      jump\t// in\n    tag_73:\n      stop\n        /* \"CrowdFunding.sol\":1019:1391  function getRefund() public {\r... */\n    tag_15:\n      callvalue\n      dup1\n      iszero\n      tag_76\n      jumpi\n      0x00\n      dup1\n      revert\n    tag_76:\n      pop\n      tag_77\n      tag_78\n      jump\t// in\n    tag_77:\n      stop\n        /* \"CrowdFunding.sol\":207:231  uint public noOfFounders */\n    tag_16:\n      callvalue\n      dup1\n      iszero\n      tag_79\n      jumpi\n      0x00\n      dup1\n      revert\n    tag_79:\n      pop\n      tag_80\n      tag_81\n      jump\t// in\n    tag_80:\n      mload(0x40)\n      tag_82\n      swap2\n      swap1\n      tag_35\n      jump\t// in\n    tag_82:\n      mload(0x40)\n      dup1\n      swap2\n      sub\n      swap1\n      return\n        /* \"CrowdFunding.sol\":1607:1652  mapping (uint => Requests) public AllRequests */\n    tag_26:\n      mstore(0x20, 0x07)\n      dup1\n      0x00\n      mstore\n      keccak256(0x00, 0x40)\n      0x00\n      swap2\n      pop\n      swap1\n      pop\n      dup1\n      0x00\n      add\n      dup1\n      sload\n      tag_83\n      swap1\n      tag_84\n      jump\t// in\n    tag_83:\n      dup1\n      0x1f\n      add\n      0x20\n      dup1\n      swap2\n      div\n      mul\n      0x20\n      add\n      mload(0x40)\n      swap1\n      dup2\n      add\n      0x40\n      mstore\n      dup1\n      swap3\n      swap2\n      swap1\n      dup2\n      dup2\n      mstore\n      0x20\n      add\n      dup3\n      dup1\n      sload\n      tag_85\n      swap1\n      tag_84\n      jump\t// in\n    tag_85:\n      dup1\n      iszero\n      tag_86\n      jumpi\n      dup1\n      0x1f\n      lt\n      tag_87\n      jumpi\n      0x0100\n      dup1\n      dup4\n      sload\n      div\n      mul\n      dup4\n      mstore\n      swap2\n      0x20\n      add\n      swap2\n      jump(tag_86)\n    tag_87:\n      dup3\n      add\n      swap2\n      swap1\n      0x00\n      mstore\n      keccak256(0x00, 0x20)\n      swap1\n    tag_88:\n      dup2\n      sload\n      dup2\n      mstore\n      swap1\n      0x01\n      add\n      swap1\n      0x20\n      add\n      dup1\n      dup4\n      gt\n      tag_88\n      jumpi\n      dup3\n      swap1\n      sub\n      0x1f\n      and\n      dup3\n      add\n      swap2\n    tag_86:\n      pop\n      pop\n      pop\n      pop\n      pop\n      swap1\n      dup1\n      0x01\n      add\n      sload\n      swap1\n      dup1\n      0x02\n      add\n      0x00\n      swap1\n      sload\n      swap1\n      0x0100\n      exp\n      swap1\n      div\n      0xffffffffffffffffffffffffffffffffffffffff\n      and\n      swap1\n      dup1\n      0x03\n      add\n      sload\n      swap1\n      dup1\n      0x05\n      add\n      0x00\n      swap1\n      sload\n      swap1\n      0x0100\n      exp\n      swap1\n      div\n      0xff\n      and\n      swap1\n      pop\n      dup6\n      jump\t// out\n        /* \"CrowdFunding.sol\":109:149  mapping (address => uint) public funders */\n    tag_33:\n      mstore(0x20, 0x01)\n      dup1\n      0x00\n      mstore\n      keccak256(0x00, 0x40)\n      0x00\n      swap2\n      pop\n      swap1\n      pop\n      sload\n      dup2\n      jump\t// out\n        /* \"CrowdFunding.sol\":1686:2084  function createRequests(string memory _description, uint _amount, address payable _receiver) public isOwner{\r... */\n    tag_40:\n        /* \"CrowdFunding.sol\":587:597  msg.sender */\n      caller\n        /* \"CrowdFunding.sol\":578:597  owner == msg.sender */\n      0xffffffffffffffffffffffffffffffffffffffff\n      and\n        /* \"CrowdFunding.sol\":578:583  owner */\n      0x00\n      dup1\n      sload\n      swap1\n      0x0100\n      exp\n      swap1\n      div\n      0xffffffffffffffffffffffffffffffffffffffff\n      and\n        /* \"CrowdFunding.sol\":578:597  owner == msg.sender */\n      0xffffffffffffffffffffffffffffffffffffffff\n      and\n      eq\n        /* \"CrowdFunding.sol\":570:619  require(owner == msg.sender, \"You are not owner\") */\n      tag_90\n      jumpi\n      mload(0x40)\n      0x08c379a000000000000000000000000000000000000000000000000000000000\n      dup2\n      mstore\n      0x04\n      add\n      tag_91\n      swap1\n      tag_92\n      jump\t// in\n    tag_91:\n      mload(0x40)\n      dup1\n      swap2\n      sub\n      swap1\n      revert\n    tag_90:\n        /* \"CrowdFunding.sol\":1804:1831  Requests storage newRequest */\n      0x00\n        /* \"CrowdFunding.sol\":1834:1845  AllRequests */\n      0x07\n        /* \"CrowdFunding.sol\":1834:1853  AllRequests[numReq] */\n      0x00\n        /* \"CrowdFunding.sol\":1846:1852  numReq */\n      sload(0x08)\n        /* \"CrowdFunding.sol\":1834:1853  AllRequests[numReq] */\n      dup2\n      mstore\n      0x20\n      add\n      swap1\n      dup2\n      mstore\n      0x20\n      add\n      0x00\n      keccak256\n        /* \"CrowdFunding.sol\":1804:1853  Requests storage newRequest = AllRequests[numReq] */\n      swap1\n      pop\n        /* \"CrowdFunding.sol\":1864:1870  numReq */\n      0x08\n      0x00\n        /* \"CrowdFunding.sol\":1864:1872  numReq++ */\n      dup2\n      sload\n      dup1\n      swap3\n      swap2\n      swap1\n      tag_94\n      swap1\n      tag_95\n      jump\t// in\n    tag_94:\n      swap2\n      swap1\n      pop\n      sstore\n      pop\n        /* \"CrowdFunding.sol\":1910:1922  _description */\n      dup4\n        /* \"CrowdFunding.sol\":1885:1895  newRequest */\n      dup2\n        /* \"CrowdFunding.sol\":1885:1907  newRequest.description */\n      0x00\n      add\n        /* \"CrowdFunding.sol\":1885:1922  newRequest.description = _description */\n      swap1\n      dup1\n      mload\n      swap1\n      0x20\n      add\n      swap1\n      tag_96\n      swap3\n      swap2\n      swap1\n      tag_97\n      jump\t// in\n    tag_96:\n      pop\n        /* \"CrowdFunding.sol\":1953:1960  _amount */\n      dup3\n        /* \"CrowdFunding.sol\":1933:1943  newRequest */\n      dup2\n        /* \"CrowdFunding.sol\":1933:1950  newRequest.amount */\n      0x01\n      add\n        /* \"CrowdFunding.sol\":1933:1960  newRequest.amount = _amount */\n      dup2\n      swap1\n      sstore\n      pop\n        /* \"CrowdFunding.sol\":1994:1999  false */\n      0x00\n        /* \"CrowdFunding.sol\":1971:1981  newRequest */\n      dup2\n        /* \"CrowdFunding.sol\":1971:1991  newRequest.completed */\n      0x05\n      add\n      0x00\n        /* \"CrowdFunding.sol\":1971:1999  newRequest.completed = false */\n      0x0100\n      exp\n      dup2\n      sload\n      dup2\n      0xff\n      mul\n      not\n      and\n      swap1\n      dup4\n      iszero\n      iszero\n      mul\n      or\n      swap1\n      sstore\n      pop\n        /* \"CrowdFunding.sol\":2033:2034  0 */\n      0x00\n        /* \"CrowdFunding.sol\":2010:2020  newRequest */\n      dup2\n        /* \"CrowdFunding.sol\":2010:2030  newRequest.noOfVotes */\n      0x03\n      add\n        /* \"CrowdFunding.sol\":2010:2034  newRequest.noOfVotes = 0 */\n      dup2\n      swap1\n      sstore\n      pop\n        /* \"CrowdFunding.sol\":2067:2076  _receiver */\n      dup2\n        /* \"CrowdFunding.sol\":2045:2055  newRequest */\n      dup2\n        /* \"CrowdFunding.sol\":2045:2064  newRequest.receiver */\n      0x02\n      add\n      0x00\n        /* \"CrowdFunding.sol\":2045:2076  newRequest.receiver = _receiver */\n      0x0100\n      exp\n      dup2\n      sload\n      dup2\n      0xffffffffffffffffffffffffffffffffffffffff\n      mul\n      not\n      and\n      swap1\n      dup4\n      0xffffffffffffffffffffffffffffffffffffffff\n      and\n      mul\n      or\n      swap1\n      sstore\n      pop\n        /* \"CrowdFunding.sol\":1793:2084  {\r... */\n      pop\n        /* \"CrowdFunding.sol\":1686:2084  function createRequests(string memory _description, uint _amount, address payable _receiver) public isOwner{\r... */\n      pop\n      pop\n      pop\n      jump\t// out\n        /* \"CrowdFunding.sol\":1659:1677  uint public numReq */\n    tag_43:\n      sload(0x08)\n      dup2\n      jump\t// out\n        /* \"CrowdFunding.sol\":268:290  uint public timePeriod */\n    tag_47:\n      sload(0x06)\n      dup2\n      jump\t// out\n        /* \"CrowdFunding.sol\":156:172  uint public goal */\n    tag_51:\n      sload(0x02)\n      dup2\n      jump\t// out\n        /* \"CrowdFunding.sol\":647:1011  function contribution() public payable{\r... */\n    tag_54:\n        /* \"CrowdFunding.sol\":722:732  timePeriod */\n      sload(0x06)\n        /* \"CrowdFunding.sol\":704:719  block.timestamp */\n      timestamp\n        /* \"CrowdFunding.sol\":704:732  block.timestamp < timePeriod */\n      lt\n        /* \"CrowdFunding.sol\":696:753  require(block.timestamp < timePeriod, \"Funding is over!\") */\n      tag_99\n      jumpi\n      mload(0x40)\n      0x08c379a000000000000000000000000000000000000000000000000000000000\n      dup2\n      mstore\n      0x04\n      add\n      tag_100\n      swap1\n      tag_101\n      jump\t// in\n    tag_100:\n      mload(0x40)\n      dup1\n      swap2\n      sub\n      swap1\n      revert\n    tag_99:\n        /* \"CrowdFunding.sol\":785:794  minAmount */\n      sload(0x03)\n        /* \"CrowdFunding.sol\":772:781  msg.value */\n      callvalue\n        /* \"CrowdFunding.sol\":772:794  msg.value >= minAmount */\n      lt\n      iszero\n        /* \"CrowdFunding.sol\":764:834  require(msg.value >= minAmount, \"Minimum amount criteria not satisfy\") */\n      tag_102\n      jumpi\n      mload(0x40)\n      0x08c379a000000000000000000000000000000000000000000000000000000000\n      dup2\n      mstore\n      0x04\n      add\n      tag_103\n      swap1\n      tag_104\n      jump\t// in\n    tag_103:\n      mload(0x40)\n      dup1\n      swap2\n      sub\n      swap1\n      revert\n    tag_102:\n        /* \"CrowdFunding.sol\":873:874  0 */\n      0x00\n        /* \"CrowdFunding.sol\":850:857  funders */\n      0x01\n        /* \"CrowdFunding.sol\":850:869  funders[msg.sender] */\n      0x00\n        /* \"CrowdFunding.sol\":858:868  msg.sender */\n      caller\n        /* \"CrowdFunding.sol\":850:869  funders[msg.sender] */\n      0xffffffffffffffffffffffffffffffffffffffff\n      and\n      0xffffffffffffffffffffffffffffffffffffffff\n      and\n      dup2\n      mstore\n      0x20\n      add\n      swap1\n      dup2\n      mstore\n      0x20\n      add\n      0x00\n      keccak256\n      sload\n        /* \"CrowdFunding.sol\":850:874  funders[msg.sender] == 0 */\n      eq\n        /* \"CrowdFunding.sol\":847:916  if(funders[msg.sender] == 0){\r... */\n      iszero\n      tag_105\n      jumpi\n        /* \"CrowdFunding.sol\":890:902  noOfFounders */\n      0x04\n      0x00\n        /* \"CrowdFunding.sol\":890:904  noOfFounders++ */\n      dup2\n      sload\n      dup1\n      swap3\n      swap2\n      swap1\n      tag_106\n      swap1\n      tag_95\n      jump\t// in\n    tag_106:\n      swap2\n      swap1\n      pop\n      sstore\n      pop\n        /* \"CrowdFunding.sol\":847:916  if(funders[msg.sender] == 0){\r... */\n    tag_105:\n        /* \"CrowdFunding.sol\":959:968  msg.value */\n      callvalue\n        /* \"CrowdFunding.sol\":936:943  funders */\n      0x01\n        /* \"CrowdFunding.sol\":936:955  funders[msg.sender] */\n      0x00\n        /* \"CrowdFunding.sol\":944:954  msg.sender */\n      caller\n        /* \"CrowdFunding.sol\":936:955  funders[msg.sender] */\n      0xffffffffffffffffffffffffffffffffffffffff\n      and\n      0xffffffffffffffffffffffffffffffffffffffff\n      and\n      dup2\n      mstore\n      0x20\n      add\n      swap1\n      dup2\n      mstore\n      0x20\n      add\n      0x00\n      keccak256\n      0x00\n        /* \"CrowdFunding.sol\":936:968  funders[msg.sender] += msg.value */\n      dup3\n      dup3\n      sload\n      tag_107\n      swap2\n      swap1\n      tag_108\n      jump\t// in\n    tag_107:\n      swap3\n      pop\n      pop\n      dup2\n      swap1\n      sstore\n      pop\n        /* \"CrowdFunding.sol\":994:1003  msg.value */\n      callvalue\n        /* \"CrowdFunding.sol\":979:990  fundsRaised */\n      0x05\n      0x00\n        /* \"CrowdFunding.sol\":979:1003  fundsRaised += msg.value */\n      dup3\n      dup3\n      sload\n      tag_109\n      swap2\n      swap1\n      tag_108\n      jump\t// in\n    tag_109:\n      swap3\n      pop\n      pop\n      dup2\n      swap1\n      sstore\n      pop\n        /* \"CrowdFunding.sol\":647:1011  function contribution() public payable{\r... */\n      jump\t// out\n        /* \"CrowdFunding.sol\":2431:2769  function makePayment(uint _reqNum) public {\r... */\n    tag_58:\n        /* \"CrowdFunding.sol\":2484:2512  Requests storage thisRequest */\n      0x00\n        /* \"CrowdFunding.sol\":2515:2526  AllRequests */\n      0x07\n        /* \"CrowdFunding.sol\":2515:2535  AllRequests[_reqNum] */\n      0x00\n        /* \"CrowdFunding.sol\":2527:2534  _reqNum */\n      dup4\n        /* \"CrowdFunding.sol\":2515:2535  AllRequests[_reqNum] */\n      dup2\n      mstore\n      0x20\n      add\n      swap1\n      dup2\n      mstore\n      0x20\n      add\n      0x00\n      keccak256\n        /* \"CrowdFunding.sol\":2484:2535  Requests storage thisRequest = AllRequests[_reqNum] */\n      swap1\n      pop\n        /* \"CrowdFunding.sol\":2579:2584  false */\n      0x00\n        /* \"CrowdFunding.sol\":2554:2584  thisRequest.completed == false */\n      iszero\n      iszero\n        /* \"CrowdFunding.sol\":2554:2565  thisRequest */\n      dup2\n        /* \"CrowdFunding.sol\":2554:2575  thisRequest.completed */\n      0x05\n      add\n      0x00\n      swap1\n      sload\n      swap1\n      0x0100\n      exp\n      swap1\n      div\n      0xff\n      and\n        /* \"CrowdFunding.sol\":2554:2584  thisRequest.completed == false */\n      iszero\n      iszero\n      eq\n        /* \"CrowdFunding.sol\":2546:2606  require(thisRequest.completed == false, \"Completed Already\") */\n      tag_111\n      jumpi\n      mload(0x40)\n      0x08c379a000000000000000000000000000000000000000000000000000000000\n      dup2\n      mstore\n      0x04\n      add\n      tag_112\n      swap1\n      tag_113\n      jump\t// in\n    tag_112:\n      mload(0x40)\n      dup1\n      swap2\n      sub\n      swap1\n      revert\n    tag_111:\n        /* \"CrowdFunding.sol\":2665:2666  2 */\n      0x02\n        /* \"CrowdFunding.sol\":2650:2662  noOfFounders */\n      sload(0x04)\n        /* \"CrowdFunding.sol\":2650:2666  noOfFounders / 2 */\n      tag_114\n      swap2\n      swap1\n      tag_115\n      jump\t// in\n    tag_114:\n        /* \"CrowdFunding.sol\":2625:2636  thisRequest */\n      dup2\n        /* \"CrowdFunding.sol\":2625:2646  thisRequest.noOfVotes */\n      0x03\n      add\n      sload\n        /* \"CrowdFunding.sol\":2625:2666  thisRequest.noOfVotes >= noOfFounders / 2 */\n      lt\n      iszero\n        /* \"CrowdFunding.sol\":2617:2691  require(thisRequest.noOfVotes >= noOfFounders / 2, \"Voting not in favor!\") */\n      tag_116\n      jumpi\n      mload(0x40)\n      0x08c379a000000000000000000000000000000000000000000000000000000000\n      dup2\n      mstore\n      0x04\n      add\n      tag_117\n      swap1\n      tag_118\n      jump\t// in\n    tag_117:\n      mload(0x40)\n      dup1\n      swap2\n      sub\n      swap1\n      revert\n    tag_116:\n        /* \"CrowdFunding.sol\":2702:2713  thisRequest */\n      dup1\n        /* \"CrowdFunding.sol\":2702:2722  thisRequest.receiver */\n      0x02\n      add\n      0x00\n      swap1\n      sload\n      swap1\n      0x0100\n      exp\n      swap1\n      div\n      0xffffffffffffffffffffffffffffffffffffffff\n      and\n        /* \"CrowdFunding.sol\":2702:2731  thisRequest.receiver.transfer */\n      0xffffffffffffffffffffffffffffffffffffffff\n      and\n        /* \"CrowdFunding.sol\":2702:2751  thisRequest.receiver.transfer(thisRequest.amount) */\n      0x08fc\n        /* \"CrowdFunding.sol\":2732:2743  thisRequest */\n      dup3\n        /* \"CrowdFunding.sol\":2732:2750  thisRequest.amount */\n      0x01\n      add\n      sload\n        /* \"CrowdFunding.sol\":2702:2751  thisRequest.receiver.transfer(thisRequest.amount) */\n      swap1\n      dup2\n      iszero\n      mul\n      swap1\n      mload(0x40)\n      0x00\n      mload(0x40)\n      dup1\n      dup4\n      sub\n      dup2\n      dup6\n      dup9\n      dup9\n      call\n      swap4\n      pop\n      pop\n      pop\n      pop\n      iszero\n      dup1\n      iszero\n      tag_120\n      jumpi\n      returndatasize\n      0x00\n      dup1\n      returndatacopy\n      revert(0x00, returndatasize)\n    tag_120:\n      pop\n        /* \"CrowdFunding.sol\":2473:2769  {\r... */\n      pop\n        /* \"CrowdFunding.sol\":2431:2769  function makePayment(uint _reqNum) public {\r... */\n      pop\n      jump\t// out\n        /* \"CrowdFunding.sol\":238:261  uint public fundsRaised */\n    tag_61:\n      sload(0x05)\n      dup2\n      jump\t// out\n        /* \"CrowdFunding.sol\":82:102  address public owner */\n    tag_65:\n      0x00\n      dup1\n      sload\n      swap1\n      0x0100\n      exp\n      swap1\n      div\n      0xffffffffffffffffffffffffffffffffffffffff\n      and\n      dup2\n      jump\t// out\n        /* \"CrowdFunding.sol\":179:200  uint public minAmount */\n    tag_70:\n      sload(0x03)\n      dup2\n      jump\t// out\n        /* \"CrowdFunding.sol\":2092:2423  function votingForRequest(uint _reqNum) public{\r... */\n    tag_75:\n        /* \"CrowdFunding.sol\":2179:2180  0 */\n      0x00\n        /* \"CrowdFunding.sol\":2157:2164  funders */\n      0x01\n        /* \"CrowdFunding.sol\":2157:2176  funders[msg.sender] */\n      0x00\n        /* \"CrowdFunding.sol\":2165:2175  msg.sender */\n      caller\n        /* \"CrowdFunding.sol\":2157:2176  funders[msg.sender] */\n      0xffffffffffffffffffffffffffffffffffffffff\n      and\n      0xffffffffffffffffffffffffffffffffffffffff\n      and\n      dup2\n      mstore\n      0x20\n      add\n      swap1\n      dup2\n      mstore\n      0x20\n      add\n      0x00\n      keccak256\n      sload\n        /* \"CrowdFunding.sol\":2157:2180  funders[msg.sender] > 0 */\n      gt\n        /* \"CrowdFunding.sol\":2149:2197  require(funders[msg.sender] > 0, \"Not a funder\") */\n      tag_122\n      jumpi\n      mload(0x40)\n      0x08c379a000000000000000000000000000000000000000000000000000000000\n      dup2\n      mstore\n      0x04\n      add\n      tag_123\n      swap1\n      tag_124\n      jump\t// in\n    tag_123:\n      mload(0x40)\n      dup1\n      swap2\n      sub\n      swap1\n      revert\n    tag_122:\n        /* \"CrowdFunding.sol\":2208:2236  Requests storage thisRequest */\n      0x00\n        /* \"CrowdFunding.sol\":2239:2250  AllRequests */\n      0x07\n        /* \"CrowdFunding.sol\":2239:2259  AllRequests[_reqNum] */\n      0x00\n        /* \"CrowdFunding.sol\":2251:2258  _reqNum */\n      dup4\n        /* \"CrowdFunding.sol\":2239:2259  AllRequests[_reqNum] */\n      dup2\n      mstore\n      0x20\n      add\n      swap1\n      dup2\n      mstore\n      0x20\n      add\n      0x00\n      keccak256\n        /* \"CrowdFunding.sol\":2208:2259  Requests storage thisRequest = AllRequests[_reqNum] */\n      swap1\n      pop\n        /* \"CrowdFunding.sol\":2311:2316  false */\n      0x00\n        /* \"CrowdFunding.sol\":2278:2316  thisRequest.votes[msg.sender] == false */\n      iszero\n      iszero\n        /* \"CrowdFunding.sol\":2278:2289  thisRequest */\n      dup2\n        /* \"CrowdFunding.sol\":2278:2295  thisRequest.votes */\n      0x04\n      add\n        /* \"CrowdFunding.sol\":2278:2307  thisRequest.votes[msg.sender] */\n      0x00\n        /* \"CrowdFunding.sol\":2296:2306  msg.sender */\n      caller\n        /* \"CrowdFunding.sol\":2278:2307  thisRequest.votes[msg.sender] */\n      0xffffffffffffffffffffffffffffffffffffffff\n      and\n      0xffffffffffffffffffffffffffffffffffffffff\n      and\n      dup2\n      mstore\n      0x20\n      add\n      swap1\n      dup2\n      mstore\n      0x20\n      add\n      0x00\n      keccak256\n      0x00\n      swap1\n      sload\n      swap1\n      0x0100\n      exp\n      swap1\n      div\n      0xff\n      and\n        /* \"CrowdFunding.sol\":2278:2316  thisRequest.votes[msg.sender] == false */\n      iszero\n      iszero\n      eq\n        /* \"CrowdFunding.sol\":2270:2334  require(thisRequest.votes[msg.sender] == false, \"Already voted\") */\n      tag_125\n      jumpi\n      mload(0x40)\n      0x08c379a000000000000000000000000000000000000000000000000000000000\n      dup2\n      mstore\n      0x04\n      add\n      tag_126\n      swap1\n      tag_127\n      jump\t// in\n    tag_126:\n      mload(0x40)\n      dup1\n      swap2\n      sub\n      swap1\n      revert\n    tag_125:\n        /* \"CrowdFunding.sol\":2377:2381  true */\n      0x01\n        /* \"CrowdFunding.sol\":2345:2356  thisRequest */\n      dup2\n        /* \"CrowdFunding.sol\":2345:2362  thisRequest.votes */\n      0x04\n      add\n        /* \"CrowdFunding.sol\":2345:2374  thisRequest.votes[msg.sender] */\n      0x00\n        /* \"CrowdFunding.sol\":2363:2373  msg.sender */\n      caller\n        /* \"CrowdFunding.sol\":2345:2374  thisRequest.votes[msg.sender] */\n      0xffffffffffffffffffffffffffffffffffffffff\n      and\n      0xffffffffffffffffffffffffffffffffffffffff\n      and\n      dup2\n      mstore\n      0x20\n      add\n      swap1\n      dup2\n      mstore\n      0x20\n      add\n      0x00\n      keccak256\n      0x00\n        /* \"CrowdFunding.sol\":2345:2381  thisRequest.votes[msg.sender] = true */\n      0x0100\n      exp\n      dup2\n      sload\n      dup2\n      0xff\n      mul\n      not\n      and\n      swap1\n      dup4\n      iszero\n      iszero\n      mul\n      or\n      swap1\n      sstore\n      pop\n        /* \"CrowdFunding.sol\":2392:2403  thisRequest */\n      dup1\n        /* \"CrowdFunding.sol\":2392:2413  thisRequest.noOfVotes */\n      0x03\n      add\n      0x00\n        /* \"CrowdFunding.sol\":2392:2415  thisRequest.noOfVotes++ */\n      dup2\n      sload\n      dup1\n      swap3\n      swap2\n      swap1\n      tag_128\n      swap1\n      tag_95\n      jump\t// in\n    tag_128:\n      swap2\n      swap1\n      pop\n      sstore\n      pop\n        /* \"CrowdFunding.sol\":2138:2423  {\r... */\n      pop\n        /* \"CrowdFunding.sol\":2092:2423  function votingForRequest(uint _reqNum) public{\r... */\n      pop\n      jump\t// out\n        /* \"CrowdFunding.sol\":1019:1391  function getRefund() public {\r... */\n    tag_78:\n        /* \"CrowdFunding.sol\":1084:1094  timePeriod */\n      sload(0x06)\n        /* \"CrowdFunding.sol\":1066:1081  block.timestamp */\n      timestamp\n        /* \"CrowdFunding.sol\":1066:1094  block.timestamp > timePeriod */\n      gt\n        /* \"CrowdFunding.sol\":1058:1119  require(block.timestamp > timePeriod, \"Funding is still on!\") */\n      tag_130\n      jumpi\n      mload(0x40)\n      0x08c379a000000000000000000000000000000000000000000000000000000000\n      dup2\n      mstore\n      0x04\n      add\n      tag_131\n      swap1\n      tag_132\n      jump\t// in\n    tag_131:\n      mload(0x40)\n      dup1\n      swap2\n      sub\n      swap1\n      revert\n    tag_130:\n        /* \"CrowdFunding.sol\":1152:1156  goal */\n      sload(0x02)\n        /* \"CrowdFunding.sol\":1138:1149  fundsRaised */\n      sload(0x05)\n        /* \"CrowdFunding.sol\":1138:1156  fundsRaised < goal */\n      lt\n        /* \"CrowdFunding.sol\":1130:1183  require(fundsRaised < goal, \"Funding was successful\") */\n      tag_133\n      jumpi\n      mload(0x40)\n      0x08c379a000000000000000000000000000000000000000000000000000000000\n      dup2\n      mstore\n      0x04\n      add\n      tag_134\n      swap1\n      tag_135\n      jump\t// in\n    tag_134:\n      mload(0x40)\n      dup1\n      swap2\n      sub\n      swap1\n      revert\n    tag_133:\n        /* \"CrowdFunding.sol\":1224:1225  0 */\n      0x00\n        /* \"CrowdFunding.sol\":1202:1209  funders */\n      0x01\n        /* \"CrowdFunding.sol\":1202:1221  funders[msg.sender] */\n      0x00\n        /* \"CrowdFunding.sol\":1210:1220  msg.sender */\n      caller\n        /* \"CrowdFunding.sol\":1202:1221  funders[msg.sender] */\n      0xffffffffffffffffffffffffffffffffffffffff\n      and\n      0xffffffffffffffffffffffffffffffffffffffff\n      and\n      dup2\n      mstore\n      0x20\n      add\n      swap1\n      dup2\n      mstore\n      0x20\n      add\n      0x00\n      keccak256\n      sload\n        /* \"CrowdFunding.sol\":1202:1225  funders[msg.sender] > 0 */\n      gt\n        /* \"CrowdFunding.sol\":1194:1242  require(funders[msg.sender] > 0, \"Not a funder\") */\n      tag_136\n      jumpi\n      mload(0x40)\n      0x08c379a000000000000000000000000000000000000000000000000000000000\n      dup2\n      mstore\n      0x04\n      add\n      tag_137\n      swap1\n      tag_124\n      jump\t// in\n    tag_137:\n      mload(0x40)\n      dup1\n      swap2\n      sub\n      swap1\n      revert\n    tag_136:\n        /* \"CrowdFunding.sol\":1263:1273  msg.sender */\n      caller\n        /* \"CrowdFunding.sol\":1255:1283  payable(msg.sender).transfer */\n      0xffffffffffffffffffffffffffffffffffffffff\n      and\n        /* \"CrowdFunding.sol\":1255:1304  payable(msg.sender).transfer(funders[msg.sender]) */\n      0x08fc\n        /* \"CrowdFunding.sol\":1284:1291  funders */\n      0x01\n        /* \"CrowdFunding.sol\":1284:1303  funders[msg.sender] */\n      0x00\n        /* \"CrowdFunding.sol\":1292:1302  msg.sender */\n      caller\n        /* \"CrowdFunding.sol\":1284:1303  funders[msg.sender] */\n      0xffffffffffffffffffffffffffffffffffffffff\n      and\n      0xffffffffffffffffffffffffffffffffffffffff\n      and\n      dup2\n      mstore\n      0x20\n      add\n      swap1\n      dup2\n      mstore\n      0x20\n      add\n      0x00\n      keccak256\n      sload\n        /* \"CrowdFunding.sol\":1255:1304  payable(msg.sender).transfer(funders[msg.sender]) */\n      swap1\n      dup2\n      iszero\n      mul\n      swap1\n      mload(0x40)\n      0x00\n      mload(0x40)\n      dup1\n      dup4\n      sub\n      dup2\n      dup6\n      dup9\n      dup9\n      call\n      swap4\n      pop\n      pop\n      pop\n      pop\n      iszero\n      dup1\n      iszero\n      tag_139\n      jumpi\n      returndatasize\n      0x00\n      dup1\n      returndatacopy\n      revert(0x00, returndatasize)\n    tag_139:\n      pop\n        /* \"CrowdFunding.sol\":1330:1337  funders */\n      0x01\n        /* \"CrowdFunding.sol\":1330:1349  funders[msg.sender] */\n      0x00\n        /* \"CrowdFunding.sol\":1338:1348  msg.sender */\n      caller\n        /* \"CrowdFunding.sol\":1330:1349  funders[msg.sender] */\n      0xffffffffffffffffffffffffffffffffffffffff\n      and\n      0xffffffffffffffffffffffffffffffffffffffff\n      and\n      dup2\n      mstore\n      0x20\n      add\n      swap1\n      dup2\n      mstore\n      0x20\n      add\n      0x00\n      keccak256\n      sload\n        /* \"CrowdFunding.sol\":1315:1326  fundsRaised */\n      0x05\n      0x00\n        /* \"CrowdFunding.sol\":1315:1349  fundsRaised -= funders[msg.sender] */\n      dup3\n      dup3\n      sload\n      tag_140\n      swap2\n      swap1\n      tag_141\n      jump\t// in\n    tag_140:\n      swap3\n      pop\n      pop\n      dup2\n      swap1\n      sstore\n      pop\n        /* \"CrowdFunding.sol\":1382:1383  0 */\n      0x00\n        /* \"CrowdFunding.sol\":1360:1367  funders */\n      0x01\n        /* \"CrowdFunding.sol\":1360:1379  funders[msg.sender] */\n      0x00\n        /* \"CrowdFunding.sol\":1368:1378  msg.sender */\n      caller\n        /* \"CrowdFunding.sol\":1360:1379  funders[msg.sender] */\n      0xffffffffffffffffffffffffffffffffffffffff\n      and\n      0xffffffffffffffffffffffffffffffffffffffff\n      and\n      dup2\n      mstore\n      0x20\n      add\n      swap1\n      dup2\n      mstore\n      0x20\n      add\n      0x00\n      keccak256\n        /* \"CrowdFunding.sol\":1360:1383  funders[msg.sender] = 0 */\n      dup2\n      swap1\n      sstore\n      pop\n        /* \"CrowdFunding.sol\":1019:1391  function getRefund() public {\r... */\n      jump\t// out\n        /* \"CrowdFunding.sol\":207:231  uint public noOfFounders */\n    tag_81:\n      sload(0x04)\n      dup2\n      jump\t// out\n    tag_97:\n      dup3\n      dup1\n      sload\n      tag_142\n      swap1\n      tag_84\n      jump\t// in\n    tag_142:\n      swap1\n      0x00\n      mstore\n      keccak256(0x00, 0x20)\n      swap1\n      0x1f\n      add\n      0x20\n      swap1\n      div\n      dup2\n      add\n      swap3\n      dup3\n      tag_144\n      jumpi\n      0x00\n      dup6\n      sstore\n      jump(tag_143)\n    tag_144:\n      dup3\n      0x1f\n      lt\n      tag_145\n      jumpi\n      dup1\n      mload\n      not(0xff)\n      and\n      dup4\n      dup1\n      add\n      or\n      dup6\n      sstore\n      jump(tag_143)\n    tag_145:\n      dup3\n      dup1\n      add\n      0x01\n      add\n      dup6\n      sstore\n      dup3\n      iszero\n      tag_143\n      jumpi\n      swap2\n      dup3\n      add\n    tag_146:\n      dup3\n      dup2\n      gt\n      iszero\n      tag_147\n      jumpi\n      dup3\n      mload\n      dup3\n      sstore\n      swap2\n      0x20\n      add\n      swap2\n      swap1\n      0x01\n      add\n      swap1\n      jump(tag_146)\n    tag_147:\n    tag_143:\n      pop\n      swap1\n      pop\n      tag_148\n      swap2\n      swap1\n      tag_149\n      jump\t// in\n    tag_148:\n      pop\n      swap1\n      jump\t// out\n    tag_149:\n    tag_150:\n      dup1\n      dup3\n      gt\n      iszero\n      tag_151\n      jumpi\n      0x00\n      dup2\n      0x00\n      swap1\n      sstore\n      pop\n      0x01\n      add\n      jump(tag_150)\n    tag_151:\n      pop\n      swap1\n      jump\t// out\n        /* \"#utility.yul\":7:419   */\n    tag_153:\n        /* \"#utility.yul\":85:90   */\n      0x00\n        /* \"#utility.yul\":110:176   */\n      tag_155\n        /* \"#utility.yul\":126:175   */\n      tag_156\n        /* \"#utility.yul\":168:174   */\n      dup5\n        /* \"#utility.yul\":126:175   */\n      tag_157\n      jump\t// in\n    tag_156:\n        /* \"#utility.yul\":110:176   */\n      tag_158\n      jump\t// in\n    tag_155:\n        /* \"#utility.yul\":101:176   */\n      swap1\n      pop\n        /* \"#utility.yul\":199:205   */\n      dup3\n        /* \"#utility.yul\":192:197   */\n      dup2\n        /* \"#utility.yul\":185:206   */\n      mstore\n        /* \"#utility.yul\":237:241   */\n      0x20\n        /* \"#utility.yul\":230:235   */\n      dup2\n        /* \"#utility.yul\":226:242   */\n      add\n        /* \"#utility.yul\":275:278   */\n      dup5\n        /* \"#utility.yul\":266:272   */\n      dup5\n        /* \"#utility.yul\":261:264   */\n      dup5\n        /* \"#utility.yul\":257:273   */\n      add\n        /* \"#utility.yul\":254:279   */\n      gt\n        /* \"#utility.yul\":251:363   */\n      iszero\n      tag_159\n      jumpi\n        /* \"#utility.yul\":282:361   */\n      tag_160\n      tag_161\n      jump\t// in\n    tag_160:\n        /* \"#utility.yul\":251:363   */\n    tag_159:\n        /* \"#utility.yul\":372:413   */\n      tag_162\n        /* \"#utility.yul\":406:412   */\n      dup5\n        /* \"#utility.yul\":401:404   */\n      dup3\n        /* \"#utility.yul\":396:399   */\n      dup6\n        /* \"#utility.yul\":372:413   */\n      tag_163\n      jump\t// in\n    tag_162:\n        /* \"#utility.yul\":91:419   */\n      pop\n        /* \"#utility.yul\":7:419   */\n      swap4\n      swap3\n      pop\n      pop\n      pop\n      jump\t// out\n        /* \"#utility.yul\":425:564   */\n    tag_164:\n        /* \"#utility.yul\":471:476   */\n      0x00\n        /* \"#utility.yul\":509:515   */\n      dup2\n        /* \"#utility.yul\":496:516   */\n      calldataload\n        /* \"#utility.yul\":487:516   */\n      swap1\n      pop\n        /* \"#utility.yul\":525:558   */\n      tag_166\n        /* \"#utility.yul\":552:557   */\n      dup2\n        /* \"#utility.yul\":525:558   */\n      tag_167\n      jump\t// in\n    tag_166:\n        /* \"#utility.yul\":425:564   */\n      swap3\n      swap2\n      pop\n      pop\n      jump\t// out\n        /* \"#utility.yul\":570:725   */\n    tag_168:\n        /* \"#utility.yul\":624:629   */\n      0x00\n        /* \"#utility.yul\":662:668   */\n      dup2\n        /* \"#utility.yul\":649:669   */\n      calldataload\n        /* \"#utility.yul\":640:669   */\n      swap1\n      pop\n        /* \"#utility.yul\":678:719   */\n      tag_170\n        /* \"#utility.yul\":713:718   */\n      dup2\n        /* \"#utility.yul\":678:719   */\n      tag_171\n      jump\t// in\n    tag_170:\n        /* \"#utility.yul\":570:725   */\n      swap3\n      swap2\n      pop\n      pop\n      jump\t// out\n        /* \"#utility.yul\":745:1085   */\n    tag_172:\n        /* \"#utility.yul\":801:806   */\n      0x00\n        /* \"#utility.yul\":850:853   */\n      dup3\n        /* \"#utility.yul\":843:847   */\n      0x1f\n        /* \"#utility.yul\":835:841   */\n      dup4\n        /* \"#utility.yul\":831:848   */\n      add\n        /* \"#utility.yul\":827:854   */\n      slt\n        /* \"#utility.yul\":817:939   */\n      tag_174\n      jumpi\n        /* \"#utility.yul\":858:937   */\n      tag_175\n      tag_176\n      jump\t// in\n    tag_175:\n        /* \"#utility.yul\":817:939   */\n    tag_174:\n        /* \"#utility.yul\":975:981   */\n      dup2\n        /* \"#utility.yul\":962:982   */\n      calldataload\n        /* \"#utility.yul\":1000:1079   */\n      tag_177\n        /* \"#utility.yul\":1075:1078   */\n      dup5\n        /* \"#utility.yul\":1067:1073   */\n      dup3\n        /* \"#utility.yul\":1060:1064   */\n      0x20\n        /* \"#utility.yul\":1052:1058   */\n      dup7\n        /* \"#utility.yul\":1048:1065   */\n      add\n        /* \"#utility.yul\":1000:1079   */\n      tag_153\n      jump\t// in\n    tag_177:\n        /* \"#utility.yul\":991:1079   */\n      swap2\n      pop\n        /* \"#utility.yul\":807:1085   */\n      pop\n        /* \"#utility.yul\":745:1085   */\n      swap3\n      swap2\n      pop\n      pop\n      jump\t// out\n        /* \"#utility.yul\":1091:1230   */\n    tag_178:\n        /* \"#utility.yul\":1137:1142   */\n      0x00\n        /* \"#utility.yul\":1175:1181   */\n      dup2\n        /* \"#utility.yul\":1162:1182   */\n      calldataload\n        /* \"#utility.yul\":1153:1182   */\n      swap1\n      pop\n        /* \"#utility.yul\":1191:1224   */\n      tag_180\n        /* \"#utility.yul\":1218:1223   */\n      dup2\n        /* \"#utility.yul\":1191:1224   */\n      tag_181\n      jump\t// in\n    tag_180:\n        /* \"#utility.yul\":1091:1230   */\n      swap3\n      swap2\n      pop\n      pop\n      jump\t// out\n        /* \"#utility.yul\":1236:1565   */\n    tag_32:\n        /* \"#utility.yul\":1295:1301   */\n      0x00\n        /* \"#utility.yul\":1344:1346   */\n      0x20\n        /* \"#utility.yul\":1332:1341   */\n      dup3\n        /* \"#utility.yul\":1323:1330   */\n      dup5\n        /* \"#utility.yul\":1319:1342   */\n      sub\n        /* \"#utility.yul\":1315:1347   */\n      slt\n        /* \"#utility.yul\":1312:1431   */\n      iszero\n      tag_183\n      jumpi\n        /* \"#utility.yul\":1350:1429   */\n      tag_184\n      tag_185\n      jump\t// in\n    tag_184:\n        /* \"#utility.yul\":1312:1431   */\n    tag_183:\n        /* \"#utility.yul\":1470:1471   */\n      0x00\n        /* \"#utility.yul\":1495:1548   */\n      tag_186\n        /* \"#utility.yul\":1540:1547   */\n      dup5\n        /* \"#utility.yul\":1531:1537   */\n      dup3\n        /* \"#utility.yul\":1520:1529   */\n      dup6\n        /* \"#utility.yul\":1516:1538   */\n      add\n        /* \"#utility.yul\":1495:1548   */\n      tag_164\n      jump\t// in\n    tag_186:\n        /* \"#utility.yul\":1485:1548   */\n      swap2\n      pop\n        /* \"#utility.yul\":1441:1558   */\n      pop\n        /* \"#utility.yul\":1236:1565   */\n      swap3\n      swap2\n      pop\n      pop\n      jump\t// out\n        /* \"#utility.yul\":1571:2386   */\n    tag_39:\n        /* \"#utility.yul\":1666:1672   */\n      0x00\n        /* \"#utility.yul\":1674:1680   */\n      dup1\n        /* \"#utility.yul\":1682:1688   */\n      0x00\n        /* \"#utility.yul\":1731:1733   */\n      0x60\n        /* \"#utility.yul\":1719:1728   */\n      dup5\n        /* \"#utility.yul\":1710:1717   */\n      dup7\n        /* \"#utility.yul\":1706:1729   */\n      sub\n        /* \"#utility.yul\":1702:1734   */\n      slt\n        /* \"#utility.yul\":1699:1818   */\n      iszero\n      tag_188\n      jumpi\n        /* \"#utility.yul\":1737:1816   */\n      tag_189\n      tag_185\n      jump\t// in\n    tag_189:\n        /* \"#utility.yul\":1699:1818   */\n    tag_188:\n        /* \"#utility.yul\":1885:1886   */\n      0x00\n        /* \"#utility.yul\":1874:1883   */\n      dup5\n        /* \"#utility.yul\":1870:1887   */\n      add\n        /* \"#utility.yul\":1857:1888   */\n      calldataload\n        /* \"#utility.yul\":1915:1933   */\n      0xffffffffffffffff\n        /* \"#utility.yul\":1907:1913   */\n      dup2\n        /* \"#utility.yul\":1904:1934   */\n      gt\n        /* \"#utility.yul\":1901:2018   */\n      iszero\n      tag_190\n      jumpi\n        /* \"#utility.yul\":1937:2016   */\n      tag_191\n      tag_192\n      jump\t// in\n    tag_191:\n        /* \"#utility.yul\":1901:2018   */\n    tag_190:\n        /* \"#utility.yul\":2042:2105   */\n      tag_193\n        /* \"#utility.yul\":2097:2104   */\n      dup7\n        /* \"#utility.yul\":2088:2094   */\n      dup3\n        /* \"#utility.yul\":2077:2086   */\n      dup8\n        /* \"#utility.yul\":2073:2095   */\n      add\n        /* \"#utility.yul\":2042:2105   */\n      tag_172\n      jump\t// in\n    tag_193:\n        /* \"#utility.yul\":2032:2105   */\n      swap4\n      pop\n        /* \"#utility.yul\":1828:2115   */\n      pop\n        /* \"#utility.yul\":2154:2156   */\n      0x20\n        /* \"#utility.yul\":2180:2233   */\n      tag_194\n        /* \"#utility.yul\":2225:2232   */\n      dup7\n        /* \"#utility.yul\":2216:2222   */\n      dup3\n        /* \"#utility.yul\":2205:2214   */\n      dup8\n        /* \"#utility.yul\":2201:2223   */\n      add\n        /* \"#utility.yul\":2180:2233   */\n      tag_178\n      jump\t// in\n    tag_194:\n        /* \"#utility.yul\":2170:2233   */\n      swap3\n      pop\n        /* \"#utility.yul\":2125:2243   */\n      pop\n        /* \"#utility.yul\":2282:2284   */\n      0x40\n        /* \"#utility.yul\":2308:2369   */\n      tag_195\n        /* \"#utility.yul\":2361:2368   */\n      dup7\n        /* \"#utility.yul\":2352:2358   */\n      dup3\n        /* \"#utility.yul\":2341:2350   */\n      dup8\n        /* \"#utility.yul\":2337:2359   */\n      add\n        /* \"#utility.yul\":2308:2369   */\n      tag_168\n      jump\t// in\n    tag_195:\n        /* \"#utility.yul\":2298:2369   */\n      swap2\n      pop\n        /* \"#utility.yul\":2253:2379   */\n      pop\n        /* \"#utility.yul\":1571:2386   */\n      swap3\n      pop\n      swap3\n      pop\n      swap3\n      jump\t// out\n        /* \"#utility.yul\":2392:2721   */\n    tag_25:\n        /* \"#utility.yul\":2451:2457   */\n      0x00\n        /* \"#utility.yul\":2500:2502   */\n      0x20\n        /* \"#utility.yul\":2488:2497   */\n      dup3\n        /* \"#utility.yul\":2479:2486   */\n      dup5\n        /* \"#utility.yul\":2475:2498   */\n      sub\n        /* \"#utility.yul\":2471:2503   */\n      slt\n        /* \"#utility.yul\":2468:2587   */\n      iszero\n      tag_197\n      jumpi\n        /* \"#utility.yul\":2506:2585   */\n      tag_198\n      tag_185\n      jump\t// in\n    tag_198:\n        /* \"#utility.yul\":2468:2587   */\n    tag_197:\n        /* \"#utility.yul\":2626:2627   */\n      0x00\n        /* \"#utility.yul\":2651:2704   */\n      tag_199\n        /* \"#utility.yul\":2696:2703   */\n      dup5\n        /* \"#utility.yul\":2687:2693   */\n      dup3\n        /* \"#utility.yul\":2676:2685   */\n      dup6\n        /* \"#utility.yul\":2672:2694   */\n      add\n        /* \"#utility.yul\":2651:2704   */\n      tag_178\n      jump\t// in\n    tag_199:\n        /* \"#utility.yul\":2641:2704   */\n      swap2\n      pop\n        /* \"#utility.yul\":2597:2714   */\n      pop\n        /* \"#utility.yul\":2392:2721   */\n      swap3\n      swap2\n      pop\n      pop\n      jump\t// out\n        /* \"#utility.yul\":2727:2869   */\n    tag_200:\n        /* \"#utility.yul\":2830:2862   */\n      tag_202\n        /* \"#utility.yul\":2856:2861   */\n      dup2\n        /* \"#utility.yul\":2830:2862   */\n      tag_203\n      jump\t// in\n    tag_202:\n        /* \"#utility.yul\":2825:2828   */\n      dup3\n        /* \"#utility.yul\":2818:2863   */\n      mstore\n        /* \"#utility.yul\":2727:2869   */\n      pop\n      pop\n      jump\t// out\n        /* \"#utility.yul\":2875:2993   */\n    tag_204:\n        /* \"#utility.yul\":2962:2986   */\n      tag_206\n        /* \"#utility.yul\":2980:2985   */\n      dup2\n        /* \"#utility.yul\":2962:2986   */\n      tag_207\n      jump\t// in\n    tag_206:\n        /* \"#utility.yul\":2957:2960   */\n      dup3\n        /* \"#utility.yul\":2950:2987   */\n      mstore\n        /* \"#utility.yul\":2875:2993   */\n      pop\n      pop\n      jump\t// out\n        /* \"#utility.yul\":2999:3108   */\n    tag_208:\n        /* \"#utility.yul\":3080:3101   */\n      tag_210\n        /* \"#utility.yul\":3095:3100   */\n      dup2\n        /* \"#utility.yul\":3080:3101   */\n      tag_211\n      jump\t// in\n    tag_210:\n        /* \"#utility.yul\":3075:3078   */\n      dup3\n        /* \"#utility.yul\":3068:3102   */\n      mstore\n        /* \"#utility.yul\":2999:3108   */\n      pop\n      pop\n      jump\t// out\n        /* \"#utility.yul\":3114:3478   */\n    tag_212:\n        /* \"#utility.yul\":3202:3205   */\n      0x00\n        /* \"#utility.yul\":3230:3269   */\n      tag_214\n        /* \"#utility.yul\":3263:3268   */\n      dup3\n        /* \"#utility.yul\":3230:3269   */\n      tag_215\n      jump\t// in\n    tag_214:\n        /* \"#utility.yul\":3285:3356   */\n      tag_216\n        /* \"#utility.yul\":3349:3355   */\n      dup2\n        /* \"#utility.yul\":3344:3347   */\n      dup6\n        /* \"#utility.yul\":3285:3356   */\n      tag_217\n      jump\t// in\n    tag_216:\n        /* \"#utility.yul\":3278:3356   */\n      swap4\n      pop\n        /* \"#utility.yul\":3365:3417   */\n      tag_218\n        /* \"#utility.yul\":3410:3416   */\n      dup2\n        /* \"#utility.yul\":3405:3408   */\n      dup6\n        /* \"#utility.yul\":3398:3402   */\n      0x20\n        /* \"#utility.yul\":3391:3396   */\n      dup7\n        /* \"#utility.yul\":3387:3403   */\n      add\n        /* \"#utility.yul\":3365:3417   */\n      tag_219\n      jump\t// in\n    tag_218:\n        /* \"#utility.yul\":3442:3471   */\n      tag_220\n        /* \"#utility.yul\":3464:3470   */\n      dup2\n        /* \"#utility.yul\":3442:3471   */\n      tag_221\n      jump\t// in\n    tag_220:\n        /* \"#utility.yul\":3437:3440   */\n      dup5\n        /* \"#utility.yul\":3433:3472   */\n      add\n        /* \"#utility.yul\":3426:3472   */\n      swap2\n      pop\n        /* \"#utility.yul\":3206:3478   */\n      pop\n        /* \"#utility.yul\":3114:3478   */\n      swap3\n      swap2\n      pop\n      pop\n      jump\t// out\n        /* \"#utility.yul\":3484:3850   */\n    tag_222:\n        /* \"#utility.yul\":3626:3629   */\n      0x00\n        /* \"#utility.yul\":3647:3714   */\n      tag_224\n        /* \"#utility.yul\":3711:3713   */\n      0x16\n        /* \"#utility.yul\":3706:3709   */\n      dup4\n        /* \"#utility.yul\":3647:3714   */\n      tag_217\n      jump\t// in\n    tag_224:\n        /* \"#utility.yul\":3640:3714   */\n      swap2\n      pop\n        /* \"#utility.yul\":3723:3816   */\n      tag_225\n        /* \"#utility.yul\":3812:3815   */\n      dup3\n        /* \"#utility.yul\":3723:3816   */\n      tag_226\n      jump\t// in\n    tag_225:\n        /* \"#utility.yul\":3841:3843   */\n      0x20\n        /* \"#utility.yul\":3836:3839   */\n      dup3\n        /* \"#utility.yul\":3832:3844   */\n      add\n        /* \"#utility.yul\":3825:3844   */\n      swap1\n      pop\n        /* \"#utility.yul\":3484:3850   */\n      swap2\n      swap1\n      pop\n      jump\t// out\n        /* \"#utility.yul\":3856:4222   */\n    tag_227:\n        /* \"#utility.yul\":3998:4001   */\n      0x00\n        /* \"#utility.yul\":4019:4086   */\n      tag_229\n        /* \"#utility.yul\":4083:4085   */\n      0x0d\n        /* \"#utility.yul\":4078:4081   */\n      dup4\n        /* \"#utility.yul\":4019:4086   */\n      tag_217\n      jump\t// in\n    tag_229:\n        /* \"#utility.yul\":4012:4086   */\n      swap2\n      pop\n        /* \"#utility.yul\":4095:4188   */\n      tag_230\n        /* \"#utility.yul\":4184:4187   */\n      dup3\n        /* \"#utility.yul\":4095:4188   */\n      tag_231\n      jump\t// in\n    tag_230:\n        /* \"#utility.yul\":4213:4215   */\n      0x20\n        /* \"#utility.yul\":4208:4211   */\n      dup3\n        /* \"#utility.yul\":4204:4216   */\n      add\n        /* \"#utility.yul\":4197:4216   */\n      swap1\n      pop\n        /* \"#utility.yul\":3856:4222   */\n      swap2\n      swap1\n      pop\n      jump\t// out\n        /* \"#utility.yul\":4228:4594   */\n    tag_232:\n        /* \"#utility.yul\":4370:4373   */\n      0x00\n        /* \"#utility.yul\":4391:4458   */\n      tag_234\n        /* \"#utility.yul\":4455:4457   */\n      0x10\n        /* \"#utility.yul\":4450:4453   */\n      dup4\n        /* \"#utility.yul\":4391:4458   */\n      tag_217\n      jump\t// in\n    tag_234:\n        /* \"#utility.yul\":4384:4458   */\n      swap2\n      pop\n        /* \"#utility.yul\":4467:4560   */\n      tag_235\n        /* \"#utility.yul\":4556:4559   */\n      dup3\n        /* \"#utility.yul\":4467:4560   */\n      tag_236\n      jump\t// in\n    tag_235:\n        /* \"#utility.yul\":4585:4587   */\n      0x20\n        /* \"#utility.yul\":4580:4583   */\n      dup3\n        /* \"#utility.yul\":4576:4588   */\n      add\n        /* \"#utility.yul\":4569:4588   */\n      swap1\n      pop\n        /* \"#utility.yul\":4228:4594   */\n      swap2\n      swap1\n      pop\n      jump\t// out\n        /* \"#utility.yul\":4600:4966   */\n    tag_237:\n        /* \"#utility.yul\":4742:4745   */\n      0x00\n        /* \"#utility.yul\":4763:4830   */\n      tag_239\n        /* \"#utility.yul\":4827:4829   */\n      0x14\n        /* \"#utility.yul\":4822:4825   */\n      dup4\n        /* \"#utility.yul\":4763:4830   */\n      tag_217\n      jump\t// in\n    tag_239:\n        /* \"#utility.yul\":4756:4830   */\n      swap2\n      pop\n        /* \"#utility.yul\":4839:4932   */\n      tag_240\n        /* \"#utility.yul\":4928:4931   */\n      dup3\n        /* \"#utility.yul\":4839:4932   */\n      tag_241\n      jump\t// in\n    tag_240:\n        /* \"#utility.yul\":4957:4959   */\n      0x20\n        /* \"#utility.yul\":4952:4955   */\n      dup3\n        /* \"#utility.yul\":4948:4960   */\n      add\n        /* \"#utility.yul\":4941:4960   */\n      swap1\n      pop\n        /* \"#utility.yul\":4600:4966   */\n      swap2\n      swap1\n      pop\n      jump\t// out\n        /* \"#utility.yul\":4972:5338   */\n    tag_242:\n        /* \"#utility.yul\":5114:5117   */\n      0x00\n        /* \"#utility.yul\":5135:5202   */\n      tag_244\n        /* \"#utility.yul\":5199:5201   */\n      0x14\n        /* \"#utility.yul\":5194:5197   */\n      dup4\n        /* \"#utility.yul\":5135:5202   */\n      tag_217\n      jump\t// in\n    tag_244:\n        /* \"#utility.yul\":5128:5202   */\n      swap2\n      pop\n        /* \"#utility.yul\":5211:5304   */\n      tag_245\n        /* \"#utility.yul\":5300:5303   */\n      dup3\n        /* \"#utility.yul\":5211:5304   */\n      tag_246\n      jump\t// in\n    tag_245:\n        /* \"#utility.yul\":5329:5331   */\n      0x20\n        /* \"#utility.yul\":5324:5327   */\n      dup3\n        /* \"#utility.yul\":5320:5332   */\n      add\n        /* \"#utility.yul\":5313:5332   */\n      swap1\n      pop\n        /* \"#utility.yul\":4972:5338   */\n      swap2\n      swap1\n      pop\n      jump\t// out\n        /* \"#utility.yul\":5344:5710   */\n    tag_247:\n        /* \"#utility.yul\":5486:5489   */\n      0x00\n        /* \"#utility.yul\":5507:5574   */\n      tag_249\n        /* \"#utility.yul\":5571:5573   */\n      0x0c\n        /* \"#utility.yul\":5566:5569   */\n      dup4\n        /* \"#utility.yul\":5507:5574   */\n      tag_217\n      jump\t// in\n    tag_249:\n        /* \"#utility.yul\":5500:5574   */\n      swap2\n      pop\n        /* \"#utility.yul\":5583:5676   */\n      tag_250\n        /* \"#utility.yul\":5672:5675   */\n      dup3\n        /* \"#utility.yul\":5583:5676   */\n      tag_251\n      jump\t// in\n    tag_250:\n        /* \"#utility.yul\":5701:5703   */\n      0x20\n        /* \"#utility.yul\":5696:5699   */\n      dup3\n        /* \"#utility.yul\":5692:5704   */\n      add\n        /* \"#utility.yul\":5685:5704   */\n      swap1\n      pop\n        /* \"#utility.yul\":5344:5710   */\n      swap2\n      swap1\n      pop\n      jump\t// out\n        /* \"#utility.yul\":5716:6082   */\n    tag_252:\n        /* \"#utility.yul\":5858:5861   */\n      0x00\n        /* \"#utility.yul\":5879:5946   */\n      tag_254\n        /* \"#utility.yul\":5943:5945   */\n      0x11\n        /* \"#utility.yul\":5938:5941   */\n      dup4\n        /* \"#utility.yul\":5879:5946   */\n      tag_217\n      jump\t// in\n    tag_254:\n        /* \"#utility.yul\":5872:5946   */\n      swap2\n      pop\n        /* \"#utility.yul\":5955:6048   */\n      tag_255\n        /* \"#utility.yul\":6044:6047   */\n      dup3\n        /* \"#utility.yul\":5955:6048   */\n      tag_256\n      jump\t// in\n    tag_255:\n        /* \"#utility.yul\":6073:6075   */\n      0x20\n        /* \"#utility.yul\":6068:6071   */\n      dup3\n        /* \"#utility.yul\":6064:6076   */\n      add\n        /* \"#utility.yul\":6057:6076   */\n      swap1\n      pop\n        /* \"#utility.yul\":5716:6082   */\n      swap2\n      swap1\n      pop\n      jump\t// out\n        /* \"#utility.yul\":6088:6454   */\n    tag_257:\n        /* \"#utility.yul\":6230:6233   */\n      0x00\n        /* \"#utility.yul\":6251:6318   */\n      tag_259\n        /* \"#utility.yul\":6315:6317   */\n      0x23\n        /* \"#utility.yul\":6310:6313   */\n      dup4\n        /* \"#utility.yul\":6251:6318   */\n      tag_217\n      jump\t// in\n    tag_259:\n        /* \"#utility.yul\":6244:6318   */\n      swap2\n      pop\n        /* \"#utility.yul\":6327:6420   */\n      tag_260\n        /* \"#utility.yul\":6416:6419   */\n      dup3\n        /* \"#utility.yul\":6327:6420   */\n      tag_261\n      jump\t// in\n    tag_260:\n        /* \"#utility.yul\":6445:6447   */\n      0x40\n        /* \"#utility.yul\":6440:6443   */\n      dup3\n        /* \"#utility.yul\":6436:6448   */\n      add\n        /* \"#utility.yul\":6429:6448   */\n      swap1\n      pop\n        /* \"#utility.yul\":6088:6454   */\n      swap2\n      swap1\n      pop\n      jump\t// out\n        /* \"#utility.yul\":6460:6826   */\n    tag_262:\n        /* \"#utility.yul\":6602:6605   */\n      0x00\n        /* \"#utility.yul\":6623:6690   */\n      tag_264\n        /* \"#utility.yul\":6687:6689   */\n      0x11\n        /* \"#utility.yul\":6682:6685   */\n      dup4\n        /* \"#utility.yul\":6623:6690   */\n      tag_217\n      jump\t// in\n    tag_264:\n        /* \"#utility.yul\":6616:6690   */\n      swap2\n      pop\n        /* \"#utility.yul\":6699:6792   */\n      tag_265\n        /* \"#utility.yul\":6788:6791   */\n      dup3\n        /* \"#utility.yul\":6699:6792   */\n      tag_266\n      jump\t// in\n    tag_265:\n        /* \"#utility.yul\":6817:6819   */\n      0x20\n        /* \"#utility.yul\":6812:6815   */\n      dup3\n        /* \"#utility.yul\":6808:6820   */\n      add\n        /* \"#utility.yul\":6801:6820   */\n      swap1\n      pop\n        /* \"#utility.yul\":6460:6826   */\n      swap2\n      swap1\n      pop\n      jump\t// out\n        /* \"#utility.yul\":6832:6950   */\n    tag_267:\n        /* \"#utility.yul\":6919:6943   */\n      tag_269\n        /* \"#utility.yul\":6937:6942   */\n      dup2\n        /* \"#utility.yul\":6919:6943   */\n      tag_270\n      jump\t// in\n    tag_269:\n        /* \"#utility.yul\":6914:6917   */\n      dup3\n        /* \"#utility.yul\":6907:6944   */\n      mstore\n        /* \"#utility.yul\":6832:6950   */\n      pop\n      pop\n      jump\t// out\n        /* \"#utility.yul\":6956:7178   */\n    tag_67:\n        /* \"#utility.yul\":7049:7053   */\n      0x00\n        /* \"#utility.yul\":7087:7089   */\n      0x20\n        /* \"#utility.yul\":7076:7085   */\n      dup3\n        /* \"#utility.yul\":7072:7090   */\n      add\n        /* \"#utility.yul\":7064:7090   */\n      swap1\n      pop\n        /* \"#utility.yul\":7100:7171   */\n      tag_272\n        /* \"#utility.yul\":7168:7169   */\n      0x00\n        /* \"#utility.yul\":7157:7166   */\n      dup4\n        /* \"#utility.yul\":7153:7170   */\n      add\n        /* \"#utility.yul\":7144:7150   */\n      dup5\n        /* \"#utility.yul\":7100:7171   */\n      tag_204\n      jump\t// in\n    tag_272:\n        /* \"#utility.yul\":6956:7178   */\n      swap3\n      swap2\n      pop\n      pop\n      jump\t// out\n        /* \"#utility.yul\":7184:7959   */\n    tag_28:\n        /* \"#utility.yul\":7419:7423   */\n      0x00\n        /* \"#utility.yul\":7457:7460   */\n      0xa0\n        /* \"#utility.yul\":7446:7455   */\n      dup3\n        /* \"#utility.yul\":7442:7461   */\n      add\n        /* \"#utility.yul\":7434:7461   */\n      swap1\n      pop\n        /* \"#utility.yul\":7507:7516   */\n      dup2\n        /* \"#utility.yul\":7501:7505   */\n      dup2\n        /* \"#utility.yul\":7497:7517   */\n      sub\n        /* \"#utility.yul\":7493:7494   */\n      0x00\n        /* \"#utility.yul\":7482:7491   */\n      dup4\n        /* \"#utility.yul\":7478:7495   */\n      add\n        /* \"#utility.yul\":7471:7518   */\n      mstore\n        /* \"#utility.yul\":7535:7613   */\n      tag_274\n        /* \"#utility.yul\":7608:7612   */\n      dup2\n        /* \"#utility.yul\":7599:7605   */\n      dup9\n        /* \"#utility.yul\":7535:7613   */\n      tag_212\n      jump\t// in\n    tag_274:\n        /* \"#utility.yul\":7527:7613   */\n      swap1\n      pop\n        /* \"#utility.yul\":7623:7695   */\n      tag_275\n        /* \"#utility.yul\":7691:7693   */\n      0x20\n        /* \"#utility.yul\":7680:7689   */\n      dup4\n        /* \"#utility.yul\":7676:7694   */\n      add\n        /* \"#utility.yul\":7667:7673   */\n      dup8\n        /* \"#utility.yul\":7623:7695   */\n      tag_267\n      jump\t// in\n    tag_275:\n        /* \"#utility.yul\":7705:7793   */\n      tag_276\n        /* \"#utility.yul\":7789:7791   */\n      0x40\n        /* \"#utility.yul\":7778:7787   */\n      dup4\n        /* \"#utility.yul\":7774:7792   */\n      add\n        /* \"#utility.yul\":7765:7771   */\n      dup7\n        /* \"#utility.yul\":7705:7793   */\n      tag_200\n      jump\t// in\n    tag_276:\n        /* \"#utility.yul\":7803:7875   */\n      tag_277\n        /* \"#utility.yul\":7871:7873   */\n      0x60\n        /* \"#utility.yul\":7860:7869   */\n      dup4\n        /* \"#utility.yul\":7856:7874   */\n      add\n        /* \"#utility.yul\":7847:7853   */\n      dup6\n        /* \"#utility.yul\":7803:7875   */\n      tag_267\n      jump\t// in\n    tag_277:\n        /* \"#utility.yul\":7885:7952   */\n      tag_278\n        /* \"#utility.yul\":7947:7950   */\n      0x80\n        /* \"#utility.yul\":7936:7945   */\n      dup4\n        /* \"#utility.yul\":7932:7951   */\n      add\n        /* \"#utility.yul\":7923:7929   */\n      dup5\n        /* \"#utility.yul\":7885:7952   */\n      tag_208\n      jump\t// in\n    tag_278:\n        /* \"#utility.yul\":7184:7959   */\n      swap7\n      swap6\n      pop\n      pop\n      pop\n      pop\n      pop\n      pop\n      jump\t// out\n        /* \"#utility.yul\":7965:8384   */\n    tag_135:\n        /* \"#utility.yul\":8131:8135   */\n      0x00\n        /* \"#utility.yul\":8169:8171   */\n      0x20\n        /* \"#utility.yul\":8158:8167   */\n      dup3\n        /* \"#utility.yul\":8154:8172   */\n      add\n        /* \"#utility.yul\":8146:8172   */\n      swap1\n      pop\n        /* \"#utility.yul\":8218:8227   */\n      dup2\n        /* \"#utility.yul\":8212:8216   */\n      dup2\n        /* \"#utility.yul\":8208:8228   */\n      sub\n        /* \"#utility.yul\":8204:8205   */\n      0x00\n        /* \"#utility.yul\":8193:8202   */\n      dup4\n        /* \"#utility.yul\":8189:8206   */\n      add\n        /* \"#utility.yul\":8182:8229   */\n      mstore\n        /* \"#utility.yul\":8246:8377   */\n      tag_280\n        /* \"#utility.yul\":8372:8376   */\n      dup2\n        /* \"#utility.yul\":8246:8377   */\n      tag_222\n      jump\t// in\n    tag_280:\n        /* \"#utility.yul\":8238:8377   */\n      swap1\n      pop\n        /* \"#utility.yul\":7965:8384   */\n      swap2\n      swap1\n      pop\n      jump\t// out\n        /* \"#utility.yul\":8390:8809   */\n    tag_127:\n        /* \"#utility.yul\":8556:8560   */\n      0x00\n        /* \"#utility.yul\":8594:8596   */\n      0x20\n        /* \"#utility.yul\":8583:8592   */\n      dup3\n        /* \"#utility.yul\":8579:8597   */\n      add\n        /* \"#utility.yul\":8571:8597   */\n      swap1\n      pop\n        /* \"#utility.yul\":8643:8652   */\n      dup2\n        /* \"#utility.yul\":8637:8641   */\n      dup2\n        /* \"#utility.yul\":8633:8653   */\n      sub\n        /* \"#utility.yul\":8629:8630   */\n      0x00\n        /* \"#utility.yul\":8618:8627   */\n      dup4\n        /* \"#utility.yul\":8614:8631   */\n      add\n        /* \"#utility.yul\":8607:8654   */\n      mstore\n        /* \"#utility.yul\":8671:8802   */\n      tag_282\n        /* \"#utility.yul\":8797:8801   */\n      dup2\n        /* \"#utility.yul\":8671:8802   */\n      tag_227\n      jump\t// in\n    tag_282:\n        /* \"#utility.yul\":8663:8802   */\n      swap1\n      pop\n        /* \"#utility.yul\":8390:8809   */\n      swap2\n      swap1\n      pop\n      jump\t// out\n        /* \"#utility.yul\":8815:9234   */\n    tag_101:\n        /* \"#utility.yul\":8981:8985   */\n      0x00\n        /* \"#utility.yul\":9019:9021   */\n      0x20\n        /* \"#utility.yul\":9008:9017   */\n      dup3\n        /* \"#utility.yul\":9004:9022   */\n      add\n        /* \"#utility.yul\":8996:9022   */\n      swap1\n      pop\n        /* \"#utility.yul\":9068:9077   */\n      dup2\n        /* \"#utility.yul\":9062:9066   */\n      dup2\n        /* \"#utility.yul\":9058:9078   */\n      sub\n        /* \"#utility.yul\":9054:9055   */\n      0x00\n        /* \"#utility.yul\":9043:9052   */\n      dup4\n        /* \"#utility.yul\":9039:9056   */\n      add\n        /* \"#utility.yul\":9032:9079   */\n      mstore\n        /* \"#utility.yul\":9096:9227   */\n      tag_284\n        /* \"#utility.yul\":9222:9226   */\n      dup2\n        /* \"#utility.yul\":9096:9227   */\n      tag_232\n      jump\t// in\n    tag_284:\n        /* \"#utility.yul\":9088:9227   */\n      swap1\n      pop\n        /* \"#utility.yul\":8815:9234   */\n      swap2\n      swap1\n      pop\n      jump\t// out\n        /* \"#utility.yul\":9240:9659   */\n    tag_118:\n        /* \"#utility.yul\":9406:9410   */\n      0x00\n        /* \"#utility.yul\":9444:9446   */\n      0x20\n        /* \"#utility.yul\":9433:9442   */\n      dup3\n        /* \"#utility.yul\":9429:9447   */\n      add\n        /* \"#utility.yul\":9421:9447   */\n      swap1\n      pop\n        /* \"#utility.yul\":9493:9502   */\n      dup2\n        /* \"#utility.yul\":9487:9491   */\n      dup2\n        /* \"#utility.yul\":9483:9503   */\n      sub\n        /* \"#utility.yul\":9479:9480   */\n      0x00\n        /* \"#utility.yul\":9468:9477   */\n      dup4\n        /* \"#utility.yul\":9464:9481   */\n      add\n        /* \"#utility.yul\":9457:9504   */\n      mstore\n        /* \"#utility.yul\":9521:9652   */\n      tag_286\n        /* \"#utility.yul\":9647:9651   */\n      dup2\n        /* \"#utility.yul\":9521:9652   */\n      tag_237\n      jump\t// in\n    tag_286:\n        /* \"#utility.yul\":9513:9652   */\n      swap1\n      pop\n        /* \"#utility.yul\":9240:9659   */\n      swap2\n      swap1\n      pop\n      jump\t// out\n        /* \"#utility.yul\":9665:10084   */\n    tag_132:\n        /* \"#utility.yul\":9831:9835   */\n      0x00\n        /* \"#utility.yul\":9869:9871   */\n      0x20\n        /* \"#utility.yul\":9858:9867   */\n      dup3\n        /* \"#utility.yul\":9854:9872   */\n      add\n        /* \"#utility.yul\":9846:9872   */\n      swap1\n      pop\n        /* \"#utility.yul\":9918:9927   */\n      dup2\n        /* \"#utility.yul\":9912:9916   */\n      dup2\n        /* \"#utility.yul\":9908:9928   */\n      sub\n        /* \"#utility.yul\":9904:9905   */\n      0x00\n        /* \"#utility.yul\":9893:9902   */\n      dup4\n        /* \"#utility.yul\":9889:9906   */\n      add\n        /* \"#utility.yul\":9882:9929   */\n      mstore\n        /* \"#utility.yul\":9946:10077   */\n      tag_288\n        /* \"#utility.yul\":10072:10076   */\n      dup2\n        /* \"#utility.yul\":9946:10077   */\n      tag_242\n      jump\t// in\n    tag_288:\n        /* \"#utility.yul\":9938:10077   */\n      swap1\n      pop\n        /* \"#utility.yul\":9665:10084   */\n      swap2\n      swap1\n      pop\n      jump\t// out\n        /* \"#utility.yul\":10090:10509   */\n    tag_124:\n        /* \"#utility.yul\":10256:10260   */\n      0x00\n        /* \"#utility.yul\":10294:10296   */\n      0x20\n        /* \"#utility.yul\":10283:10292   */\n      dup3\n        /* \"#utility.yul\":10279:10297   */\n      add\n        /* \"#utility.yul\":10271:10297   */\n      swap1\n      pop\n        /* \"#utility.yul\":10343:10352   */\n      dup2\n        /* \"#utility.yul\":10337:10341   */\n      dup2\n        /* \"#utility.yul\":10333:10353   */\n      sub\n        /* \"#utility.yul\":10329:10330   */\n      0x00\n        /* \"#utility.yul\":10318:10327   */\n      dup4\n        /* \"#utility.yul\":10314:10331   */\n      add\n        /* \"#utility.yul\":10307:10354   */\n      mstore\n        /* \"#utility.yul\":10371:10502   */\n      tag_290\n        /* \"#utility.yul\":10497:10501   */\n      dup2\n        /* \"#utility.yul\":10371:10502   */\n      tag_247\n      jump\t// in\n    tag_290:\n        /* \"#utility.yul\":10363:10502   */\n      swap1\n      pop\n        /* \"#utility.yul\":10090:10509   */\n      swap2\n      swap1\n      pop\n      jump\t// out\n        /* \"#utility.yul\":10515:10934   */\n    tag_113:\n        /* \"#utility.yul\":10681:10685   */\n      0x00\n        /* \"#utility.yul\":10719:10721   */\n      0x20\n        /* \"#utility.yul\":10708:10717   */\n      dup3\n        /* \"#utility.yul\":10704:10722   */\n      add\n        /* \"#utility.yul\":10696:10722   */\n      swap1\n      pop\n        /* \"#utility.yul\":10768:10777   */\n      dup2\n        /* \"#utility.yul\":10762:10766   */\n      dup2\n        /* \"#utility.yul\":10758:10778   */\n      sub\n        /* \"#utility.yul\":10754:10755   */\n      0x00\n        /* \"#utility.yul\":10743:10752   */\n      dup4\n        /* \"#utility.yul\":10739:10756   */\n      add\n        /* \"#utility.yul\":10732:10779   */\n      mstore\n        /* \"#utility.yul\":10796:10927   */\n      tag_292\n        /* \"#utility.yul\":10922:10926   */\n      dup2\n        /* \"#utility.yul\":10796:10927   */\n      tag_252\n      jump\t// in\n    tag_292:\n        /* \"#utility.yul\":10788:10927   */\n      swap1\n      pop\n        /* \"#utility.yul\":10515:10934   */\n      swap2\n      swap1\n      pop\n      jump\t// out\n        /* \"#utility.yul\":10940:11359   */\n    tag_104:\n        /* \"#utility.yul\":11106:11110   */\n      0x00\n        /* \"#utility.yul\":11144:11146   */\n      0x20\n        /* \"#utility.yul\":11133:11142   */\n      dup3\n        /* \"#utility.yul\":11129:11147   */\n      add\n        /* \"#utility.yul\":11121:11147   */\n      swap1\n      pop\n        /* \"#utility.yul\":11193:11202   */\n      dup2\n        /* \"#utility.yul\":11187:11191   */\n      dup2\n        /* \"#utility.yul\":11183:11203   */\n      sub\n        /* \"#utility.yul\":11179:11180   */\n      0x00\n        /* \"#utility.yul\":11168:11177   */\n      dup4\n        /* \"#utility.yul\":11164:11181   */\n      add\n        /* \"#utility.yul\":11157:11204   */\n      mstore\n        /* \"#utility.yul\":11221:11352   */\n      tag_294\n        /* \"#utility.yul\":11347:11351   */\n      dup2\n        /* \"#utility.yul\":11221:11352   */\n      tag_257\n      jump\t// in\n    tag_294:\n        /* \"#utility.yul\":11213:11352   */\n      swap1\n      pop\n        /* \"#utility.yul\":10940:11359   */\n      swap2\n      swap1\n      pop\n      jump\t// out\n        /* \"#utility.yul\":11365:11784   */\n    tag_92:\n        /* \"#utility.yul\":11531:11535   */\n      0x00\n        /* \"#utility.yul\":11569:11571   */\n      0x20\n        /* \"#utility.yul\":11558:11567   */\n      dup3\n        /* \"#utility.yul\":11554:11572   */\n      add\n        /* \"#utility.yul\":11546:11572   */\n      swap1\n      pop\n        /* \"#utility.yul\":11618:11627   */\n      dup2\n        /* \"#utility.yul\":11612:11616   */\n      dup2\n        /* \"#utility.yul\":11608:11628   */\n      sub\n        /* \"#utility.yul\":11604:11605   */\n      0x00\n        /* \"#utility.yul\":11593:11602   */\n      dup4\n        /* \"#utility.yul\":11589:11606   */\n      add\n        /* \"#utility.yul\":11582:11629   */\n      mstore\n        /* \"#utility.yul\":11646:11777   */\n      tag_296\n        /* \"#utility.yul\":11772:11776   */\n      dup2\n        /* \"#utility.yul\":11646:11777   */\n      tag_262\n      jump\t// in\n    tag_296:\n        /* \"#utility.yul\":11638:11777   */\n      swap1\n      pop\n        /* \"#utility.yul\":11365:11784   */\n      swap2\n      swap1\n      pop\n      jump\t// out\n        /* \"#utility.yul\":11790:12012   */\n    tag_35:\n        /* \"#utility.yul\":11883:11887   */\n      0x00\n        /* \"#utility.yul\":11921:11923   */\n      0x20\n        /* \"#utility.yul\":11910:11919   */\n      dup3\n        /* \"#utility.yul\":11906:11924   */\n      add\n        /* \"#utility.yul\":11898:11924   */\n      swap1\n      pop\n        /* \"#utility.yul\":11934:12005   */\n      tag_298\n        /* \"#utility.yul\":12002:12003   */\n      0x00\n        /* \"#utility.yul\":11991:12000   */\n      dup4\n        /* \"#utility.yul\":11987:12004   */\n      add\n        /* \"#utility.yul\":11978:11984   */\n      dup5\n        /* \"#utility.yul\":11934:12005   */\n      tag_267\n      jump\t// in\n    tag_298:\n        /* \"#utility.yul\":11790:12012   */\n      swap3\n      swap2\n      pop\n      pop\n      jump\t// out\n        /* \"#utility.yul\":12018:12147   */\n    tag_158:\n        /* \"#utility.yul\":12052:12058   */\n      0x00\n        /* \"#utility.yul\":12079:12099   */\n      tag_300\n      tag_301\n      jump\t// in\n    tag_300:\n        /* \"#utility.yul\":12069:12099   */\n      swap1\n      pop\n        /* \"#utility.yul\":12108:12141   */\n      tag_302\n        /* \"#utility.yul\":12136:12140   */\n      dup3\n        /* \"#utility.yul\":12128:12134   */\n      dup3\n        /* \"#utility.yul\":12108:12141   */\n      tag_303\n      jump\t// in\n    tag_302:\n        /* \"#utility.yul\":12018:12147   */\n      swap2\n      swap1\n      pop\n      jump\t// out\n        /* \"#utility.yul\":12153:12228   */\n    tag_301:\n        /* \"#utility.yul\":12186:12192   */\n      0x00\n        /* \"#utility.yul\":12219:12221   */\n      0x40\n        /* \"#utility.yul\":12213:12222   */\n      mload\n        /* \"#utility.yul\":12203:12222   */\n      swap1\n      pop\n        /* \"#utility.yul\":12153:12228   */\n      swap1\n      jump\t// out\n        /* \"#utility.yul\":12234:12542   */\n    tag_157:\n        /* \"#utility.yul\":12296:12300   */\n      0x00\n        /* \"#utility.yul\":12386:12404   */\n      0xffffffffffffffff\n        /* \"#utility.yul\":12378:12384   */\n      dup3\n        /* \"#utility.yul\":12375:12405   */\n      gt\n        /* \"#utility.yul\":12372:12428   */\n      iszero\n      tag_306\n      jumpi\n        /* \"#utility.yul\":12408:12426   */\n      tag_307\n      tag_308\n      jump\t// in\n    tag_307:\n        /* \"#utility.yul\":12372:12428   */\n    tag_306:\n        /* \"#utility.yul\":12446:12475   */\n      tag_309\n        /* \"#utility.yul\":12468:12474   */\n      dup3\n        /* \"#utility.yul\":12446:12475   */\n      tag_221\n      jump\t// in\n    tag_309:\n        /* \"#utility.yul\":12438:12475   */\n      swap1\n      pop\n        /* \"#utility.yul\":12530:12534   */\n      0x20\n        /* \"#utility.yul\":12524:12528   */\n      dup2\n        /* \"#utility.yul\":12520:12535   */\n      add\n        /* \"#utility.yul\":12512:12535   */\n      swap1\n      pop\n        /* \"#utility.yul\":12234:12542   */\n      swap2\n      swap1\n      pop\n      jump\t// out\n        /* \"#utility.yul\":12548:12647   */\n    tag_215:\n        /* \"#utility.yul\":12600:12606   */\n      0x00\n        /* \"#utility.yul\":12634:12639   */\n      dup2\n        /* \"#utility.yul\":12628:12640   */\n      mload\n        /* \"#utility.yul\":12618:12640   */\n      swap1\n      pop\n        /* \"#utility.yul\":12548:12647   */\n      swap2\n      swap1\n      pop\n      jump\t// out\n        /* \"#utility.yul\":12653:12822   */\n    tag_217:\n        /* \"#utility.yul\":12737:12748   */\n      0x00\n        /* \"#utility.yul\":12771:12777   */\n      dup3\n        /* \"#utility.yul\":12766:12769   */\n      dup3\n        /* \"#utility.yul\":12759:12778   */\n      mstore\n        /* \"#utility.yul\":12811:12815   */\n      0x20\n        /* \"#utility.yul\":12806:12809   */\n      dup3\n        /* \"#utility.yul\":12802:12816   */\n      add\n        /* \"#utility.yul\":12787:12816   */\n      swap1\n      pop\n        /* \"#utility.yul\":12653:12822   */\n      swap3\n      swap2\n      pop\n      pop\n      jump\t// out\n        /* \"#utility.yul\":12828:13133   */\n    tag_108:\n        /* \"#utility.yul\":12868:12871   */\n      0x00\n        /* \"#utility.yul\":12887:12907   */\n      tag_313\n        /* \"#utility.yul\":12905:12906   */\n      dup3\n        /* \"#utility.yul\":12887:12907   */\n      tag_270\n      jump\t// in\n    tag_313:\n        /* \"#utility.yul\":12882:12907   */\n      swap2\n      pop\n        /* \"#utility.yul\":12921:12941   */\n      tag_314\n        /* \"#utility.yul\":12939:12940   */\n      dup4\n        /* \"#utility.yul\":12921:12941   */\n      tag_270\n      jump\t// in\n    tag_314:\n        /* \"#utility.yul\":12916:12941   */\n      swap3\n      pop\n        /* \"#utility.yul\":13075:13076   */\n      dup3\n        /* \"#utility.yul\":13007:13073   */\n      0xffffffffffffffffffffffffffffffffffffffffffffffffffffffffffffffff\n        /* \"#utility.yul\":13003:13077   */\n      sub\n        /* \"#utility.yul\":13000:13001   */\n      dup3\n        /* \"#utility.yul\":12997:13078   */\n      gt\n        /* \"#utility.yul\":12994:13101   */\n      iszero\n      tag_315\n      jumpi\n        /* \"#utility.yul\":13081:13099   */\n      tag_316\n      tag_317\n      jump\t// in\n    tag_316:\n        /* \"#utility.yul\":12994:13101   */\n    tag_315:\n        /* \"#utility.yul\":13125:13126   */\n      dup3\n        /* \"#utility.yul\":13122:13123   */\n      dup3\n        /* \"#utility.yul\":13118:13127   */\n      add\n        /* \"#utility.yul\":13111:13127   */\n      swap1\n      pop\n        /* \"#utility.yul\":12828:13133   */\n      swap3\n      swap2\n      pop\n      pop\n      jump\t// out\n        /* \"#utility.yul\":13139:13324   */\n    tag_115:\n        /* \"#utility.yul\":13179:13180   */\n      0x00\n        /* \"#utility.yul\":13196:13216   */\n      tag_319\n        /* \"#utility.yul\":13214:13215   */\n      dup3\n        /* \"#utility.yul\":13196:13216   */\n      tag_270\n      jump\t// in\n    tag_319:\n        /* \"#utility.yul\":13191:13216   */\n      swap2\n      pop\n        /* \"#utility.yul\":13230:13250   */\n      tag_320\n        /* \"#utility.yul\":13248:13249   */\n      dup4\n        /* \"#utility.yul\":13230:13250   */\n      tag_270\n      jump\t// in\n    tag_320:\n        /* \"#utility.yul\":13225:13250   */\n      swap3\n      pop\n        /* \"#utility.yul\":13269:13270   */\n      dup3\n        /* \"#utility.yul\":13259:13294   */\n      tag_321\n      jumpi\n        /* \"#utility.yul\":13274:13292   */\n      tag_322\n      tag_323\n      jump\t// in\n    tag_322:\n        /* \"#utility.yul\":13259:13294   */\n    tag_321:\n        /* \"#utility.yul\":13316:13317   */\n      dup3\n        /* \"#utility.yul\":13313:13314   */\n      dup3\n        /* \"#utility.yul\":13309:13318   */\n      div\n        /* \"#utility.yul\":13304:13318   */\n      swap1\n      pop\n        /* \"#utility.yul\":13139:13324   */\n      swap3\n      swap2\n      pop\n      pop\n      jump\t// out\n        /* \"#utility.yul\":13330:13521   */\n    tag_141:\n        /* \"#utility.yul\":13370:13374   */\n      0x00\n        /* \"#utility.yul\":13390:13410   */\n      tag_325\n        /* \"#utility.yul\":13408:13409   */\n      dup3\n        /* \"#utility.yul\":13390:13410   */\n      tag_270\n      jump\t// in\n    tag_325:\n        /* \"#utility.yul\":13385:13410   */\n      swap2\n      pop\n        /* \"#utility.yul\":13424:13444   */\n      tag_326\n        /* \"#utility.yul\":13442:13443   */\n      dup4\n        /* \"#utility.yul\":13424:13444   */\n      tag_270\n      jump\t// in\n    tag_326:\n        /* \"#utility.yul\":13419:13444   */\n      swap3\n      pop\n        /* \"#utility.yul\":13463:13464   */\n      dup3\n        /* \"#utility.yul\":13460:13461   */\n      dup3\n        /* \"#utility.yul\":13457:13465   */\n      lt\n        /* \"#utility.yul\":13454:13488   */\n      iszero\n      tag_327\n      jumpi\n        /* \"#utility.yul\":13468:13486   */\n      tag_328\n      tag_317\n      jump\t// in\n    tag_328:\n        /* \"#utility.yul\":13454:13488   */\n    tag_327:\n        /* \"#utility.yul\":13513:13514   */\n      dup3\n        /* \"#utility.yul\":13510:13511   */\n      dup3\n        /* \"#utility.yul\":13506:13515   */\n      sub\n        /* \"#utility.yul\":13498:13515   */\n      swap1\n      pop\n        /* \"#utility.yul\":13330:13521   */\n      swap3\n      swap2\n      pop\n      pop\n      jump\t// out\n        /* \"#utility.yul\":13527:13623   */\n    tag_207:\n        /* \"#utility.yul\":13564:13571   */\n      0x00\n        /* \"#utility.yul\":13593:13617   */\n      tag_330\n        /* \"#utility.yul\":13611:13616   */\n      dup3\n        /* \"#utility.yul\":13593:13617   */\n      tag_331\n      jump\t// in\n    tag_330:\n        /* \"#utility.yul\":13582:13617   */\n      swap1\n      pop\n        /* \"#utility.yul\":13527:13623   */\n      swap2\n      swap1\n      pop\n      jump\t// out\n        /* \"#utility.yul\":13629:13733   */\n    tag_203:\n        /* \"#utility.yul\":13674:13681   */\n      0x00\n        /* \"#utility.yul\":13703:13727   */\n      tag_333\n        /* \"#utility.yul\":13721:13726   */\n      dup3\n        /* \"#utility.yul\":13703:13727   */\n      tag_331\n      jump\t// in\n    tag_333:\n        /* \"#utility.yul\":13692:13727   */\n      swap1\n      pop\n        /* \"#utility.yul\":13629:13733   */\n      swap2\n      swap1\n      pop\n      jump\t// out\n        /* \"#utility.yul\":13739:13829   */\n    tag_211:\n        /* \"#utility.yul\":13773:13780   */\n      0x00\n        /* \"#utility.yul\":13816:13821   */\n      dup2\n        /* \"#utility.yul\":13809:13822   */\n      iszero\n        /* \"#utility.yul\":13802:13823   */\n      iszero\n        /* \"#utility.yul\":13791:13823   */\n      swap1\n      pop\n        /* \"#utility.yul\":13739:13829   */\n      swap2\n      swap1\n      pop\n      jump\t// out\n        /* \"#utility.yul\":13835:13961   */\n    tag_331:\n        /* \"#utility.yul\":13872:13879   */\n      0x00\n        /* \"#utility.yul\":13912:13954   */\n      0xffffffffffffffffffffffffffffffffffffffff\n        /* \"#utility.yul\":13905:13910   */\n      dup3\n        /* \"#utility.yul\":13901:13955   */\n      and\n        /* \"#utility.yul\":13890:13955   */\n      swap1\n      pop\n        /* \"#utility.yul\":13835:13961   */\n      swap2\n      swap1\n      pop\n      jump\t// out\n        /* \"#utility.yul\":13967:14044   */\n    tag_270:\n        /* \"#utility.yul\":14004:14011   */\n      0x00\n        /* \"#utility.yul\":14033:14038   */\n      dup2\n        /* \"#utility.yul\":14022:14038   */\n      swap1\n      pop\n        /* \"#utility.yul\":13967:14044   */\n      swap2\n      swap1\n      pop\n      jump\t// out\n        /* \"#utility.yul\":14050:14204   */\n    tag_163:\n        /* \"#utility.yul\":14134:14140   */\n      dup3\n        /* \"#utility.yul\":14129:14132   */\n      dup2\n        /* \"#utility.yul\":14124:14127   */\n      dup4\n        /* \"#utility.yul\":14111:14141   */\n      calldatacopy\n        /* \"#utility.yul\":14196:14197   */\n      0x00\n        /* \"#utility.yul\":14187:14193   */\n      dup4\n        /* \"#utility.yul\":14182:14185   */\n      dup4\n        /* \"#utility.yul\":14178:14194   */\n      add\n        /* \"#utility.yul\":14171:14198   */\n      mstore\n        /* \"#utility.yul\":14050:14204   */\n      pop\n      pop\n      pop\n      jump\t// out\n        /* \"#utility.yul\":14210:14517   */\n    tag_219:\n        /* \"#utility.yul\":14278:14279   */\n      0x00\n        /* \"#utility.yul\":14288:14401   */\n    tag_339:\n        /* \"#utility.yul\":14302:14308   */\n      dup4\n        /* \"#utility.yul\":14299:14300   */\n      dup2\n        /* \"#utility.yul\":14296:14309   */\n      lt\n        /* \"#utility.yul\":14288:14401   */\n      iszero\n      tag_341\n      jumpi\n        /* \"#utility.yul\":14387:14388   */\n      dup1\n        /* \"#utility.yul\":14382:14385   */\n      dup3\n        /* \"#utility.yul\":14378:14389   */\n      add\n        /* \"#utility.yul\":14372:14390   */\n      mload\n        /* \"#utility.yul\":14368:14369   */\n      dup2\n        /* \"#utility.yul\":14363:14366   */\n      dup5\n        /* \"#utility.yul\":14359:14370   */\n      add\n        /* \"#utility.yul\":14352:14391   */\n      mstore\n        /* \"#utility.yul\":14324:14326   */\n      0x20\n        /* \"#utility.yul\":14321:14322   */\n      dup2\n        /* \"#utility.yul\":14317:14327   */\n      add\n        /* \"#utility.yul\":14312:14327   */\n      swap1\n      pop\n        /* \"#utility.yul\":14288:14401   */\n      jump(tag_339)\n    tag_341:\n        /* \"#utility.yul\":14419:14425   */\n      dup4\n        /* \"#utility.yul\":14416:14417   */\n      dup2\n        /* \"#utility.yul\":14413:14426   */\n      gt\n        /* \"#utility.yul\":14410:14511   */\n      iszero\n      tag_342\n      jumpi\n        /* \"#utility.yul\":14499:14500   */\n      0x00\n        /* \"#utility.yul\":14490:14496   */\n      dup5\n        /* \"#utility.yul\":14485:14488   */\n      dup5\n        /* \"#utility.yul\":14481:14497   */\n      add\n        /* \"#utility.yul\":14474:14501   */\n      mstore\n        /* \"#utility.yul\":14410:14511   */\n    tag_342:\n        /* \"#utility.yul\":14259:14517   */\n      pop\n        /* \"#utility.yul\":14210:14517   */\n      pop\n      pop\n      pop\n      jump\t// out\n        /* \"#utility.yul\":14523:14843   */\n    tag_84:\n        /* \"#utility.yul\":14567:14573   */\n      0x00\n        /* \"#utility.yul\":14604:14605   */\n      0x02\n        /* \"#utility.yul\":14598:14602   */\n      dup3\n        /* \"#utility.yul\":14594:14606   */\n      div\n        /* \"#utility.yul\":14584:14606   */\n      swap1\n      pop\n        /* \"#utility.yul\":14651:14652   */\n      0x01\n        /* \"#utility.yul\":14645:14649   */\n      dup3\n        /* \"#utility.yul\":14641:14653   */\n      and\n        /* \"#utility.yul\":14672:14690   */\n      dup1\n        /* \"#utility.yul\":14662:14743   */\n      tag_344\n      jumpi\n        /* \"#utility.yul\":14728:14732   */\n      0x7f\n        /* \"#utility.yul\":14720:14726   */\n      dup3\n        /* \"#utility.yul\":14716:14733   */\n      and\n        /* \"#utility.yul\":14706:14733   */\n      swap2\n      pop\n        /* \"#utility.yul\":14662:14743   */\n    tag_344:\n        /* \"#utility.yul\":14790:14792   */\n      0x20\n        /* \"#utility.yul\":14782:14788   */\n      dup3\n        /* \"#utility.yul\":14779:14793   */\n      lt\n        /* \"#utility.yul\":14759:14777   */\n      dup2\n        /* \"#utility.yul\":14756:14794   */\n      eq\n        /* \"#utility.yul\":14753:14837   */\n      iszero\n      tag_345\n      jumpi\n        /* \"#utility.yul\":14809:14827   */\n      tag_346\n      tag_347\n      jump\t// in\n    tag_346:\n        /* \"#utility.yul\":14753:14837   */\n    tag_345:\n        /* \"#utility.yul\":14574:14843   */\n      pop\n        /* \"#utility.yul\":14523:14843   */\n      swap2\n      swap1\n      pop\n      jump\t// out\n        /* \"#utility.yul\":14849:15130   */\n    tag_303:\n        /* \"#utility.yul\":14932:14959   */\n      tag_349\n        /* \"#utility.yul\":14954:14958   */\n      dup3\n        /* \"#utility.yul\":14932:14959   */\n      tag_221\n      jump\t// in\n    tag_349:\n        /* \"#utility.yul\":14924:14930   */\n      dup2\n        /* \"#utility.yul\":14920:14960   */\n      add\n        /* \"#utility.yul\":15062:15068   */\n      dup2\n        /* \"#utility.yul\":15050:15060   */\n      dup2\n        /* \"#utility.yul\":15047:15069   */\n      lt\n        /* \"#utility.yul\":15026:15044   */\n      0xffffffffffffffff\n        /* \"#utility.yul\":15014:15024   */\n      dup3\n        /* \"#utility.yul\":15011:15045   */\n      gt\n        /* \"#utility.yul\":15008:15070   */\n      or\n        /* \"#utility.yul\":15005:15093   */\n      iszero\n      tag_350\n      jumpi\n        /* \"#utility.yul\":15073:15091   */\n      tag_351\n      tag_308\n      jump\t// in\n    tag_351:\n        /* \"#utility.yul\":15005:15093   */\n    tag_350:\n        /* \"#utility.yul\":15113:15123   */\n      dup1\n        /* \"#utility.yul\":15109:15111   */\n      0x40\n        /* \"#utility.yul\":15102:15124   */\n      mstore\n        /* \"#utility.yul\":14892:15130   */\n      pop\n        /* \"#utility.yul\":14849:15130   */\n      pop\n      pop\n      jump\t// out\n        /* \"#utility.yul\":15136:15369   */\n    tag_95:\n        /* \"#utility.yul\":15175:15178   */\n      0x00\n        /* \"#utility.yul\":15198:15222   */\n      tag_353\n        /* \"#utility.yul\":15216:15221   */\n      dup3\n        /* \"#utility.yul\":15198:15222   */\n      tag_270\n      jump\t// in\n    tag_353:\n        /* \"#utility.yul\":15189:15222   */\n      swap2\n      pop\n        /* \"#utility.yul\":15244:15310   */\n      0xffffffffffffffffffffffffffffffffffffffffffffffffffffffffffffffff\n        /* \"#utility.yul\":15237:15242   */\n      dup3\n        /* \"#utility.yul\":15234:15311   */\n      eq\n        /* \"#utility.yul\":15231:15334   */\n      iszero\n      tag_354\n      jumpi\n        /* \"#utility.yul\":15314:15332   */\n      tag_355\n      tag_317\n      jump\t// in\n    tag_355:\n        /* \"#utility.yul\":15231:15334   */\n    tag_354:\n        /* \"#utility.yul\":15361:15362   */\n      0x01\n        /* \"#utility.yul\":15354:15359   */\n      dup3\n        /* \"#utility.yul\":15350:15363   */\n      add\n        /* \"#utility.yul\":15343:15363   */\n      swap1\n      pop\n        /* \"#utility.yul\":15136:15369   */\n      swap2\n      swap1\n      pop\n      jump\t// out\n        /* \"#utility.yul\":15375:15555   */\n    tag_317:\n        /* \"#utility.yul\":15423:15500   */\n      0x4e487b7100000000000000000000000000000000000000000000000000000000\n        /* \"#utility.yul\":15420:15421   */\n      0x00\n        /* \"#utility.yul\":15413:15501   */\n      mstore\n        /* \"#utility.yul\":15520:15524   */\n      0x11\n        /* \"#utility.yul\":15517:15518   */\n      0x04\n        /* \"#utility.yul\":15510:15525   */\n      mstore\n        /* \"#utility.yul\":15544:15548   */\n      0x24\n        /* \"#utility.yul\":15541:15542   */\n      0x00\n        /* \"#utility.yul\":15534:15549   */\n      revert\n        /* \"#utility.yul\":15561:15741   */\n    tag_323:\n        /* \"#utility.yul\":15609:15686   */\n      0x4e487b7100000000000000000000000000000000000000000000000000000000\n        /* \"#utility.yul\":15606:15607   */\n      0x00\n        /* \"#utility.yul\":15599:15687   */\n      mstore\n        /* \"#utility.yul\":15706:15710   */\n      0x12\n        /* \"#utility.yul\":15703:15704   */\n      0x04\n        /* \"#utility.yul\":15696:15711   */\n      mstore\n        /* \"#utility.yul\":15730:15734   */\n      0x24\n        /* \"#utility.yul\":15727:15728   */\n      0x00\n        /* \"#utility.yul\":15720:15735   */\n      revert\n        /* \"#utility.yul\":15747:15927   */\n    tag_347:\n        /* \"#utility.yul\":15795:15872   */\n      0x4e487b7100000000000000000000000000000000000000000000000000000000\n        /* \"#utility.yul\":15792:15793   */\n      0x00\n        /* \"#utility.yul\":15785:15873   */\n      mstore\n        /* \"#utility.yul\":15892:15896   */\n      0x22\n        /* \"#utility.yul\":15889:15890   */\n      0x04\n        /* \"#utility.yul\":15882:15897   */\n      mstore\n        /* \"#utility.yul\":15916:15920   */\n      0x24\n        /* \"#utility.yul\":15913:15914   */\n      0x00\n        /* \"#utility.yul\":15906:15921   */\n      revert\n        /* \"#utility.yul\":15933:16113   */\n    tag_308:\n        /* \"#utility.yul\":15981:16058   */\n      0x4e487b7100000000000000000000000000000000000000000000000000000000\n        /* \"#utility.yul\":15978:15979   */\n      0x00\n        /* \"#utility.yul\":15971:16059   */\n      mstore\n        /* \"#utility.yul\":16078:16082   */\n      0x41\n        /* \"#utility.yul\":16075:16076   */\n      0x04\n        /* \"#utility.yul\":16068:16083   */\n      mstore\n        /* \"#utility.yul\":16102:16106   */\n      0x24\n        /* \"#utility.yul\":16099:16100   */\n      0x00\n        /* \"#utility.yul\":16092:16107   */\n      revert\n        /* \"#utility.yul\":16119:16236   */\n    tag_176:\n        /* \"#utility.yul\":16228:16229   */\n      0x00\n        /* \"#utility.yul\":16225:16226   */\n      dup1\n        /* \"#utility.yul\":16218:16230   */\n      revert\n        /* \"#utility.yul\":16242:16359   */\n    tag_161:\n        /* \"#utility.yul\":16351:16352   */\n      0x00\n        /* \"#utility.yul\":16348:16349   */\n      dup1\n        /* \"#utility.yul\":16341:16353   */\n      revert\n        /* \"#utility.yul\":16365:16482   */\n    tag_192:\n        /* \"#utility.yul\":16474:16475   */\n      0x00\n        /* \"#utility.yul\":16471:16472   */\n      dup1\n        /* \"#utility.yul\":16464:16476   */\n      revert\n        /* \"#utility.yul\":16488:16605   */\n    tag_185:\n        /* \"#utility.yul\":16597:16598   */\n      0x00\n        /* \"#utility.yul\":16594:16595   */\n      dup1\n        /* \"#utility.yul\":16587:16599   */\n      revert\n        /* \"#utility.yul\":16611:16713   */\n    tag_221:\n        /* \"#utility.yul\":16652:16658   */\n      0x00\n        /* \"#utility.yul\":16703:16705   */\n      0x1f\n        /* \"#utility.yul\":16699:16706   */\n      not\n        /* \"#utility.yul\":16694:16696   */\n      0x1f\n        /* \"#utility.yul\":16687:16692   */\n      dup4\n        /* \"#utility.yul\":16683:16697   */\n      add\n        /* \"#utility.yul\":16679:16707   */\n      and\n        /* \"#utility.yul\":16669:16707   */\n      swap1\n      pop\n        /* \"#utility.yul\":16611:16713   */\n      swap2\n      swap1\n      pop\n      jump\t// out\n        /* \"#utility.yul\":16719:16891   */\n    tag_226:\n        /* \"#utility.yul\":16859:16883   */\n      0x46756e64696e6720776173207375636365737366756c00000000000000000000\n        /* \"#utility.yul\":16855:16856   */\n      0x00\n        /* \"#utility.yul\":16847:16853   */\n      dup3\n        /* \"#utility.yul\":16843:16857   */\n      add\n        /* \"#utility.yul\":16836:16884   */\n      mstore\n        /* \"#utility.yul\":16719:16891   */\n      pop\n      jump\t// out\n        /* \"#utility.yul\":16897:17060   */\n    tag_231:\n        /* \"#utility.yul\":17037:17052   */\n      0x416c726561647920766f74656400000000000000000000000000000000000000\n        /* \"#utility.yul\":17033:17034   */\n      0x00\n        /* \"#utility.yul\":17025:17031   */\n      dup3\n        /* \"#utility.yul\":17021:17035   */\n      add\n        /* \"#utility.yul\":17014:17053   */\n      mstore\n        /* \"#utility.yul\":16897:17060   */\n      pop\n      jump\t// out\n        /* \"#utility.yul\":17066:17232   */\n    tag_236:\n        /* \"#utility.yul\":17206:17224   */\n      0x46756e64696e67206973206f7665722100000000000000000000000000000000\n        /* \"#utility.yul\":17202:17203   */\n      0x00\n        /* \"#utility.yul\":17194:17200   */\n      dup3\n        /* \"#utility.yul\":17190:17204   */\n      add\n        /* \"#utility.yul\":17183:17225   */\n      mstore\n        /* \"#utility.yul\":17066:17232   */\n      pop\n      jump\t// out\n        /* \"#utility.yul\":17238:17408   */\n    tag_241:\n        /* \"#utility.yul\":17378:17400   */\n      0x566f74696e67206e6f7420696e206661766f7221000000000000000000000000\n        /* \"#utility.yul\":17374:17375   */\n      0x00\n        /* \"#utility.yul\":17366:17372   */\n      dup3\n        /* \"#utility.yul\":17362:17376   */\n      add\n        /* \"#utility.yul\":17355:17401   */\n      mstore\n        /* \"#utility.yul\":17238:17408   */\n      pop\n      jump\t// out\n        /* \"#utility.yul\":17414:17584   */\n    tag_246:\n        /* \"#utility.yul\":17554:17576   */\n      0x46756e64696e67206973207374696c6c206f6e21000000000000000000000000\n        /* \"#utility.yul\":17550:17551   */\n      0x00\n        /* \"#utility.yul\":17542:17548   */\n      dup3\n        /* \"#utility.yul\":17538:17552   */\n      add\n        /* \"#utility.yul\":17531:17577   */\n      mstore\n        /* \"#utility.yul\":17414:17584   */\n      pop\n      jump\t// out\n        /* \"#utility.yul\":17590:17752   */\n    tag_251:\n        /* \"#utility.yul\":17730:17744   */\n      0x4e6f7420612066756e6465720000000000000000000000000000000000000000\n        /* \"#utility.yul\":17726:17727   */\n      0x00\n        /* \"#utility.yul\":17718:17724   */\n      dup3\n        /* \"#utility.yul\":17714:17728   */\n      add\n        /* \"#utility.yul\":17707:17745   */\n      mstore\n        /* \"#utility.yul\":17590:17752   */\n      pop\n      jump\t// out\n        /* \"#utility.yul\":17758:17925   */\n    tag_256:\n        /* \"#utility.yul\":17898:17917   */\n      0x436f6d706c6574656420416c7265616479000000000000000000000000000000\n        /* \"#utility.yul\":17894:17895   */\n      0x00\n        /* \"#utility.yul\":17886:17892   */\n      dup3\n        /* \"#utility.yul\":17882:17896   */\n      add\n        /* \"#utility.yul\":17875:17918   */\n      mstore\n        /* \"#utility.yul\":17758:17925   */\n      pop\n      jump\t// out\n        /* \"#utility.yul\":17931:18153   */\n    tag_261:\n        /* \"#utility.yul\":18071:18105   */\n      0x4d696e696d756d20616d6f756e74206372697465726961206e6f742073617469\n        /* \"#utility.yul\":18067:18068   */\n      0x00\n        /* \"#utility.yul\":18059:18065   */\n      dup3\n        /* \"#utility.yul\":18055:18069   */\n      add\n        /* \"#utility.yul\":18048:18106   */\n      mstore\n        /* \"#utility.yul\":18140:18145   */\n      0x7366790000000000000000000000000000000000000000000000000000000000\n        /* \"#utility.yul\":18135:18137   */\n      0x20\n        /* \"#utility.yul\":18127:18133   */\n      dup3\n        /* \"#utility.yul\":18123:18138   */\n      add\n        /* \"#utility.yul\":18116:18146   */\n      mstore\n        /* \"#utility.yul\":17931:18153   */\n      pop\n      jump\t// out\n        /* \"#utility.yul\":18159:18326   */\n    tag_266:\n        /* \"#utility.yul\":18299:18318   */\n      0x596f7520617265206e6f74206f776e6572000000000000000000000000000000\n        /* \"#utility.yul\":18295:18296   */\n      0x00\n        /* \"#utility.yul\":18287:18293   */\n      dup3\n        /* \"#utility.yul\":18283:18297   */\n      add\n        /* \"#utility.yul\":18276:18319   */\n      mstore\n        /* \"#utility.yul\":18159:18326   */\n      pop\n      jump\t// out\n        /* \"#utility.yul\":18332:18454   */\n    tag_167:\n        /* \"#utility.yul\":18405:18429   */\n      tag_375\n        /* \"#utility.yul\":18423:18428   */\n      dup2\n        /* \"#utility.yul\":18405:18429   */\n      tag_207\n      jump\t// in\n    tag_375:\n        /* \"#utility.yul\":18398:18403   */\n      dup2\n        /* \"#utility.yul\":18395:18430   */\n      eq\n        /* \"#utility.yul\":18385:18448   */\n      tag_376\n      jumpi\n        /* \"#utility.yul\":18444:18445   */\n      0x00\n        /* \"#utility.yul\":18441:18442   */\n      dup1\n        /* \"#utility.yul\":18434:18446   */\n      revert\n        /* \"#utility.yul\":18385:18448   */\n    tag_376:\n        /* \"#utility.yul\":18332:18454   */\n      pop\n      jump\t// out\n        /* \"#utility.yul\":18460:18598   */\n    tag_171:\n        /* \"#utility.yul\":18541:18573   */\n      tag_378\n        /* \"#utility.yul\":18567:18572   */\n      dup2\n        /* \"#utility.yul\":18541:18573   */\n      tag_203\n      jump\t// in\n    tag_378:\n        /* \"#utility.yul\":18534:18539   */\n      dup2\n        /* \"#utility.yul\":18531:18574   */\n      eq\n        /* \"#utility.yul\":18521:18592   */\n      tag_379\n      jumpi\n        /* \"#utility.yul\":18588:18589   */\n      0x00\n        /* \"#utility.yul\":18585:18586   */\n      dup1\n        /* \"#utility.yul\":18578:18590   */\n      revert\n        /* \"#utility.yul\":18521:18592   */\n    tag_379:\n        /* \"#utility.yul\":18460:18598   */\n      pop\n      jump\t// out\n        /* \"#utility.yul\":18604:18726   */\n    tag_181:\n        /* \"#utility.yul\":18677:18701   */\n      tag_381\n        /* \"#utility.yul\":18695:18700   */\n      dup2\n        /* \"#utility.yul\":18677:18701   */\n      tag_270\n      jump\t// in\n    tag_381:\n        /* \"#utility.yul\":18670:18675   */\n      dup2\n        /* \"#utility.yul\":18667:18702   */\n      eq\n        /* \"#utility.yul\":18657:18720   */\n      tag_382\n      jumpi\n        /* \"#utility.yul\":18716:18717   */\n      0x00\n        /* \"#utility.yul\":18713:18714   */\n      dup1\n        /* \"#utility.yul\":18706:18718   */\n      revert\n        /* \"#utility.yul\":18657:18720   */\n    tag_382:\n        /* \"#utility.yul\":18604:18726   */\n      pop\n      jump\t// out\n\n    auxdata: 0xa2646970667358221220ed05b19b6f58d8129d2d76420dfdf8c0d70064ec7c5d15b1626289dc7e2b98b064736f6c63430008070033\n}\n",
				"bytecode": {
					"linkReferences": {},
					"object": "60806040523480156200001157600080fd5b50604051620018e2380380620018e28339818101604052810190620000379190620000ba565b8160028190555080426200004c919062000101565b600681905550336000806101000a81548173ffffffffffffffffffffffffffffffffffffffff021916908373ffffffffffffffffffffffffffffffffffffffff1602179055506103e86003819055505050620001b6565b600081519050620000b4816200019c565b92915050565b60008060408385031215620000d457620000d362000197565b5b6000620000e485828601620000a3565b9250506020620000f785828601620000a3565b9150509250929050565b60006200010e826200015e565b91506200011b836200015e565b9250827fffffffffffffffffffffffffffffffffffffffffffffffffffffffffffffffff0382111562000153576200015262000168565b5b828201905092915050565b6000819050919050565b7f4e487b7100000000000000000000000000000000000000000000000000000000600052601160045260246000fd5b600080fd5b620001a7816200015e565b8114620001b357600080fd5b50565b61171c80620001c66000396000f3fe6080604052600436106100e15760003560e01c80635114cb521161007f5780639b2cb5d8116100595780639b2cb5d81461029e578063b0636556146102c9578063b2d5ae44146102f2578063e89b7c5514610309576100e8565b80635114cb521461021f5780636681b9fd146102485780638da5cb5b14610273576100e8565b80633c2ed32d116100bb5780633c2ed32d146101945780633e79d1e1146101bf57806340193883146101ea57806350520b1f14610215576100e8565b80630114bd3f146100ed578063031b36771461012e578063277c3da41461016b576100e8565b366100e857005b600080fd5b3480156100f957600080fd5b50610114600480360381019061010f9190610e27565b610334565b60405161012595949392919061101f565b60405180910390f35b34801561013a57600080fd5b5061015560048036038101906101509190610d8b565b61041f565b6040516101629190611199565b60405180910390f35b34801561017757600080fd5b50610192600480360381019061018d9190610db8565b610437565b005b3480156101a057600080fd5b506101a9610588565b6040516101b69190611199565b60405180910390f35b3480156101cb57600080fd5b506101d461058e565b6040516101e19190611199565b60405180910390f35b3480156101f657600080fd5b506101ff610594565b60405161020c9190611199565b60405180910390f35b61021d61059a565b005b34801561022b57600080fd5b5061024660048036038101906102419190610e27565b6106f5565b005b34801561025457600080fd5b5061025d61082c565b60405161026a9190611199565b60405180910390f35b34801561027f57600080fd5b50610288610832565b6040516102959190611004565b60405180910390f35b3480156102aa57600080fd5b506102b3610856565b6040516102c09190611199565b60405180910390f35b3480156102d557600080fd5b506102f060048036038101906102eb9190610e27565b61085c565b005b3480156102fe57600080fd5b50610307610a02565b005b34801561031557600080fd5b5061031e610c33565b60405161032b9190611199565b60405180910390f35b60076020528060005260406000206000915090508060000180546103579061137d565b80601f01602080910402602001604051908101604052809291908181526020018280546103839061137d565b80156103d05780601f106103a5576101008083540402835291602001916103d0565b820191906000526020600020905b8154815290600101906020018083116103b357829003601f168201915b5050505050908060010154908060020160009054906101000a900473ffffffffffffffffffffffffffffffffffffffff16908060030154908060050160009054906101000a900460ff16905085565b60016020528060005260406000206000915090505481565b3373ffffffffffffffffffffffffffffffffffffffff1660008054906101000a900473ffffffffffffffffffffffffffffffffffffffff1673ffffffffffffffffffffffffffffffffffffffff16146104c5576040517f08c379a00000000000000000000000000000000000000000000000000000000081526004016104bc90611179565b60405180910390fd5b60006007600060085481526020019081526020016000209050600860008154809291906104f1906113e0565b91905055508381600001908051906020019061050e929190610c39565b5082816001018190555060008160050160006101000a81548160ff02191690831515021790555060008160030181905550818160020160006101000a81548173ffffffffffffffffffffffffffffffffffffffff021916908373ffffffffffffffffffffffffffffffffffffffff16021790555050505050565b60085481565b60065481565b60025481565b60065442106105de576040517f08c379a00000000000000000000000000000000000000000000000000000000081526004016105d5906110b9565b60405180910390fd5b600354341015610623576040517f08c379a000000000000000000000000000000000000000000000000000000000815260040161061a90611159565b60405180910390fd5b6000600160003373ffffffffffffffffffffffffffffffffffffffff1673ffffffffffffffffffffffffffffffffffffffff168152602001908152602001600020541415610684576004600081548092919061067e906113e0565b91905055505b34600160003373ffffffffffffffffffffffffffffffffffffffff1673ffffffffffffffffffffffffffffffffffffffff16815260200190815260200160002060008282546106d39190611226565b9250508190555034600560008282546106ec9190611226565b92505081905550565b6000600760008381526020019081526020016000209050600015158160050160009054906101000a900460ff16151514610764576040517f08c379a000000000000000000000000000000000000000000000000000000000815260040161075b90611139565b60405180910390fd5b6002600454610773919061127c565b816003015410156107b9576040517f08c379a00000000000000000000000000000000000000000000000000000000081526004016107b0906110d9565b60405180910390fd5b8060020160009054906101000a900473ffffffffffffffffffffffffffffffffffffffff1673ffffffffffffffffffffffffffffffffffffffff166108fc82600101549081150290604051600060405180830381858888f19350505050158015610827573d6000803e3d6000fd5b505050565b60055481565b60008054906101000a900473ffffffffffffffffffffffffffffffffffffffff1681565b60035481565b6000600160003373ffffffffffffffffffffffffffffffffffffffff1673ffffffffffffffffffffffffffffffffffffffff16815260200190815260200160002054116108de576040517f08c379a00000000000000000000000000000000000000000000000000000000081526004016108d590611119565b60405180910390fd5b6000600760008381526020019081526020016000209050600015158160040160003373ffffffffffffffffffffffffffffffffffffffff1673ffffffffffffffffffffffffffffffffffffffff16815260200190815260200160002060009054906101000a900460ff1615151461098a576040517f08c379a000000000000000000000000000000000000000000000000000000000815260040161098190611099565b60405180910390fd5b60018160040160003373ffffffffffffffffffffffffffffffffffffffff1673ffffffffffffffffffffffffffffffffffffffff16815260200190815260200160002060006101000a81548160ff0219169083151502179055508060030160008154809291906109f9906113e0565b91905055505050565b6006544211610a46576040517f08c379a0000000000000000000000000000000000000000000000000000000008152600401610a3d906110f9565b60405180910390fd5b60025460055410610a8c576040517f08c379a0000000000000000000000000000000000000000000000000000000008152600401610a8390611079565b60405180910390fd5b6000600160003373ffffffffffffffffffffffffffffffffffffffff1673ffffffffffffffffffffffffffffffffffffffff1681526020019081526020016000205411610b0e576040517f08c379a0000000000000000000000000000000000000000000000000000000008152600401610b0590611119565b60405180910390fd5b3373ffffffffffffffffffffffffffffffffffffffff166108fc600160003373ffffffffffffffffffffffffffffffffffffffff1673ffffffffffffffffffffffffffffffffffffffff168152602001908152602001600020549081150290604051600060405180830381858888f19350505050158015610b93573d6000803e3d6000fd5b50600160003373ffffffffffffffffffffffffffffffffffffffff1673ffffffffffffffffffffffffffffffffffffffff1681526020019081526020016000205460056000828254610be591906112ad565b925050819055506000600160003373ffffffffffffffffffffffffffffffffffffffff1673ffffffffffffffffffffffffffffffffffffffff16815260200190815260200160002081905550565b60045481565b828054610c459061137d565b90600052602060002090601f016020900481019282610c675760008555610cae565b82601f10610c8057805160ff1916838001178555610cae565b82800160010185558215610cae579182015b82811115610cad578251825591602001919060010190610c92565b5b509050610cbb9190610cbf565b5090565b5b80821115610cd8576000816000905550600101610cc0565b5090565b6000610cef610cea846111d9565b6111b4565b905082815260208101848484011115610d0b57610d0a6114ea565b5b610d1684828561133b565b509392505050565b600081359050610d2d816116a1565b92915050565b600081359050610d42816116b8565b92915050565b600082601f830112610d5d57610d5c6114e5565b5b8135610d6d848260208601610cdc565b91505092915050565b600081359050610d85816116cf565b92915050565b600060208284031215610da157610da06114f4565b5b6000610daf84828501610d1e565b91505092915050565b600080600060608486031215610dd157610dd06114f4565b5b600084013567ffffffffffffffff811115610def57610dee6114ef565b5b610dfb86828701610d48565b9350506020610e0c86828701610d76565b9250506040610e1d86828701610d33565b9150509250925092565b600060208284031215610e3d57610e3c6114f4565b5b6000610e4b84828501610d76565b91505092915050565b610e5d816112f3565b82525050565b610e6c816112e1565b82525050565b610e7b81611305565b82525050565b6000610e8c8261120a565b610e968185611215565b9350610ea681856020860161134a565b610eaf816114f9565b840191505092915050565b6000610ec7601683611215565b9150610ed28261150a565b602082019050919050565b6000610eea600d83611215565b9150610ef582611533565b602082019050919050565b6000610f0d601083611215565b9150610f188261155c565b602082019050919050565b6000610f30601483611215565b9150610f3b82611585565b602082019050919050565b6000610f53601483611215565b9150610f5e826115ae565b602082019050919050565b6000610f76600c83611215565b9150610f81826115d7565b602082019050919050565b6000610f99601183611215565b9150610fa482611600565b602082019050919050565b6000610fbc602383611215565b9150610fc782611629565b604082019050919050565b6000610fdf601183611215565b9150610fea82611678565b602082019050919050565b610ffe81611331565b82525050565b60006020820190506110196000830184610e63565b92915050565b600060a08201905081810360008301526110398188610e81565b90506110486020830187610ff5565b6110556040830186610e54565b6110626060830185610ff5565b61106f6080830184610e72565b9695505050505050565b6000602082019050818103600083015261109281610eba565b9050919050565b600060208201905081810360008301526110b281610edd565b9050919050565b600060208201905081810360008301526110d281610f00565b9050919050565b600060208201905081810360008301526110f281610f23565b9050919050565b6000602082019050818103600083015261111281610f46565b9050919050565b6000602082019050818103600083015261113281610f69565b9050919050565b6000602082019050818103600083015261115281610f8c565b9050919050565b6000602082019050818103600083015261117281610faf565b9050919050565b6000602082019050818103600083015261119281610fd2565b9050919050565b60006020820190506111ae6000830184610ff5565b92915050565b60006111be6111cf565b90506111ca82826113af565b919050565b6000604051905090565b600067ffffffffffffffff8211156111f4576111f36114b6565b5b6111fd826114f9565b9050602081019050919050565b600081519050919050565b600082825260208201905092915050565b600061123182611331565b915061123c83611331565b9250827fffffffffffffffffffffffffffffffffffffffffffffffffffffffffffffffff0382111561127157611270611429565b5b828201905092915050565b600061128782611331565b915061129283611331565b9250826112a2576112a1611458565b5b828204905092915050565b60006112b882611331565b91506112c383611331565b9250828210156112d6576112d5611429565b5b828203905092915050565b60006112ec82611311565b9050919050565b60006112fe82611311565b9050919050565b60008115159050919050565b600073ffffffffffffffffffffffffffffffffffffffff82169050919050565b6000819050919050565b82818337600083830152505050565b60005b8381101561136857808201518184015260208101905061134d565b83811115611377576000848401525b50505050565b6000600282049050600182168061139557607f821691505b602082108114156113a9576113a8611487565b5b50919050565b6113b8826114f9565b810181811067ffffffffffffffff821117156113d7576113d66114b6565b5b80604052505050565b60006113eb82611331565b91507fffffffffffffffffffffffffffffffffffffffffffffffffffffffffffffffff82141561141e5761141d611429565b5b600182019050919050565b7f4e487b7100000000000000000000000000000000000000000000000000000000600052601160045260246000fd5b7f4e487b7100000000000000000000000000000000000000000000000000000000600052601260045260246000fd5b7f4e487b7100000000000000000000000000000000000000000000000000000000600052602260045260246000fd5b7f4e487b7100000000000000000000000000000000000000000000000000000000600052604160045260246000fd5b600080fd5b600080fd5b600080fd5b600080fd5b6000601f19601f8301169050919050565b7f46756e64696e6720776173207375636365737366756c00000000000000000000600082015250565b7f416c726561647920766f74656400000000000000000000000000000000000000600082015250565b7f46756e64696e67206973206f7665722100000000000000000000000000000000600082015250565b7f566f74696e67206e6f7420696e206661766f7221000000000000000000000000600082015250565b7f46756e64696e67206973207374696c6c206f6e21000000000000000000000000600082015250565b7f4e6f7420612066756e6465720000000000000000000000000000000000000000600082015250565b7f436f6d706c6574656420416c7265616479000000000000000000000000000000600082015250565b7f4d696e696d756d20616d6f756e74206372697465726961206e6f74207361746960008201527f7366790000000000000000000000000000000000000000000000000000000000602082015250565b7f596f7520617265206e6f74206f776e6572000000000000000000000000000000600082015250565b6116aa816112e1565b81146116b557600080fd5b50565b6116c1816112f3565b81146116cc57600080fd5b50565b6116d881611331565b81146116e357600080fd5b5056fea2646970667358221220ed05b19b6f58d8129d2d76420dfdf8c0d70064ec7c5d15b1626289dc7e2b98b064736f6c63430008070033",
					"opcodes": "PUSH1 0x80 PUSH1 0x40 MSTORE CALLVALUE DUP1 ISZERO PUSH3 0x11 JUMPI PUSH1 0x0 DUP1 REVERT JUMPDEST POP PUSH1 0x40 MLOAD PUSH3 0x18E2 CODESIZE SUB DUP1 PUSH3 0x18E2 DUP4 CODECOPY DUP2 DUP2 ADD PUSH1 0x40 MSTORE DUP2 ADD SWAP1 PUSH3 0x37 SWAP2 SWAP1 PUSH3 0xBA JUMP JUMPDEST DUP2 PUSH1 0x2 DUP2 SWAP1 SSTORE POP DUP1 TIMESTAMP PUSH3 0x4C SWAP2 SWAP1 PUSH3 0x101 JUMP JUMPDEST PUSH1 0x6 DUP2 SWAP1 SSTORE POP CALLER PUSH1 0x0 DUP1 PUSH2 0x100 EXP DUP2 SLOAD DUP2 PUSH20 0xFFFFFFFFFFFFFFFFFFFFFFFFFFFFFFFFFFFFFFFF MUL NOT AND SWAP1 DUP4 PUSH20 0xFFFFFFFFFFFFFFFFFFFFFFFFFFFFFFFFFFFFFFFF AND MUL OR SWAP1 SSTORE POP PUSH2 0x3E8 PUSH1 0x3 DUP2 SWAP1 SSTORE POP POP POP PUSH3 0x1B6 JUMP JUMPDEST PUSH1 0x0 DUP2 MLOAD SWAP1 POP PUSH3 0xB4 DUP2 PUSH3 0x19C JUMP JUMPDEST SWAP3 SWAP2 POP POP JUMP JUMPDEST PUSH1 0x0 DUP1 PUSH1 0x40 DUP4 DUP6 SUB SLT ISZERO PUSH3 0xD4 JUMPI PUSH3 0xD3 PUSH3 0x197 JUMP JUMPDEST JUMPDEST PUSH1 0x0 PUSH3 0xE4 DUP6 DUP3 DUP7 ADD PUSH3 0xA3 JUMP JUMPDEST SWAP3 POP POP PUSH1 0x20 PUSH3 0xF7 DUP6 DUP3 DUP7 ADD PUSH3 0xA3 JUMP JUMPDEST SWAP2 POP POP SWAP3 POP SWAP3 SWAP1 POP JUMP JUMPDEST PUSH1 0x0 PUSH3 0x10E DUP3 PUSH3 0x15E JUMP JUMPDEST SWAP2 POP PUSH3 0x11B DUP4 PUSH3 0x15E JUMP JUMPDEST SWAP3 POP DUP3 PUSH32 0xFFFFFFFFFFFFFFFFFFFFFFFFFFFFFFFFFFFFFFFFFFFFFFFFFFFFFFFFFFFFFFFF SUB DUP3 GT ISZERO PUSH3 0x153 JUMPI PUSH3 0x152 PUSH3 0x168 JUMP JUMPDEST JUMPDEST DUP3 DUP3 ADD SWAP1 POP SWAP3 SWAP2 POP POP JUMP JUMPDEST PUSH1 0x0 DUP2 SWAP1 POP SWAP2 SWAP1 POP JUMP JUMPDEST PUSH32 0x4E487B7100000000000000000000000000000000000000000000000000000000 PUSH1 0x0 MSTORE PUSH1 0x11 PUSH1 0x4 MSTORE PUSH1 0x24 PUSH1 0x0 REVERT JUMPDEST PUSH1 0x0 DUP1 REVERT JUMPDEST PUSH3 0x1A7 DUP2 PUSH3 0x15E JUMP JUMPDEST DUP2 EQ PUSH3 0x1B3 JUMPI PUSH1 0x0 DUP1 REVERT JUMPDEST POP JUMP JUMPDEST PUSH2 0x171C DUP1 PUSH3 0x1C6 PUSH1 0x0 CODECOPY PUSH1 0x0 RETURN INVALID PUSH1 0x80 PUSH1 0x40 MSTORE PUSH1 0x4 CALLDATASIZE LT PUSH2 0xE1 JUMPI PUSH1 0x0 CALLDATALOAD PUSH1 0xE0 SHR DUP1 PUSH4 0x5114CB52 GT PUSH2 0x7F JUMPI DUP1 PUSH4 0x9B2CB5D8 GT PUSH2 0x59 JUMPI DUP1 PUSH4 0x9B2CB5D8 EQ PUSH2 0x29E JUMPI DUP1 PUSH4 0xB0636556 EQ PUSH2 0x2C9 JUMPI DUP1 PUSH4 0xB2D5AE44 EQ PUSH2 0x2F2 JUMPI DUP1 PUSH4 0xE89B7C55 EQ PUSH2 0x309 JUMPI PUSH2 0xE8 JUMP JUMPDEST DUP1 PUSH4 0x5114CB52 EQ PUSH2 0x21F JUMPI DUP1 PUSH4 0x6681B9FD EQ PUSH2 0x248 JUMPI DUP1 PUSH4 0x8DA5CB5B EQ PUSH2 0x273 JUMPI PUSH2 0xE8 JUMP JUMPDEST DUP1 PUSH4 0x3C2ED32D GT PUSH2 0xBB JUMPI DUP1 PUSH4 0x3C2ED32D EQ PUSH2 0x194 JUMPI DUP1 PUSH4 0x3E79D1E1 EQ PUSH2 0x1BF JUMPI DUP1 PUSH4 0x40193883 EQ PUSH2 0x1EA JUMPI DUP1 PUSH4 0x50520B1F EQ PUSH2 0x215 JUMPI PUSH2 0xE8 JUMP JUMPDEST DUP1 PUSH4 0x114BD3F EQ PUSH2 0xED JUMPI DUP1 PUSH4 0x31B3677 EQ PUSH2 0x12E JUMPI DUP1 PUSH4 0x277C3DA4 EQ PUSH2 0x16B JUMPI PUSH2 0xE8 JUMP JUMPDEST CALLDATASIZE PUSH2 0xE8 JUMPI STOP JUMPDEST PUSH1 0x0 DUP1 REVERT JUMPDEST CALLVALUE DUP1 ISZERO PUSH2 0xF9 JUMPI PUSH1 0x0 DUP1 REVERT JUMPDEST POP PUSH2 0x114 PUSH1 0x4 DUP1 CALLDATASIZE SUB DUP2 ADD SWAP1 PUSH2 0x10F SWAP2 SWAP1 PUSH2 0xE27 JUMP JUMPDEST PUSH2 0x334 JUMP JUMPDEST PUSH1 0x40 MLOAD PUSH2 0x125 SWAP6 SWAP5 SWAP4 SWAP3 SWAP2 SWAP1 PUSH2 0x101F JUMP JUMPDEST PUSH1 0x40 MLOAD DUP1 SWAP2 SUB SWAP1 RETURN JUMPDEST CALLVALUE DUP1 ISZERO PUSH2 0x13A JUMPI PUSH1 0x0 DUP1 REVERT JUMPDEST POP PUSH2 0x155 PUSH1 0x4 DUP1 CALLDATASIZE SUB DUP2 ADD SWAP1 PUSH2 0x150 SWAP2 SWAP1 PUSH2 0xD8B JUMP JUMPDEST PUSH2 0x41F JUMP JUMPDEST PUSH1 0x40 MLOAD PUSH2 0x162 SWAP2 SWAP1 PUSH2 0x1199 JUMP JUMPDEST PUSH1 0x40 MLOAD DUP1 SWAP2 SUB SWAP1 RETURN JUMPDEST CALLVALUE DUP1 ISZERO PUSH2 0x177 JUMPI PUSH1 0x0 DUP1 REVERT JUMPDEST POP PUSH2 0x192 PUSH1 0x4 DUP1 CALLDATASIZE SUB DUP2 ADD SWAP1 PUSH2 0x18D SWAP2 SWAP1 PUSH2 0xDB8 JUMP JUMPDEST PUSH2 0x437 JUMP JUMPDEST STOP JUMPDEST CALLVALUE DUP1 ISZERO PUSH2 0x1A0 JUMPI PUSH1 0x0 DUP1 REVERT JUMPDEST POP PUSH2 0x1A9 PUSH2 0x588 JUMP JUMPDEST PUSH1 0x40 MLOAD PUSH2 0x1B6 SWAP2 SWAP1 PUSH2 0x1199 JUMP JUMPDEST PUSH1 0x40 MLOAD DUP1 SWAP2 SUB SWAP1 RETURN JUMPDEST CALLVALUE DUP1 ISZERO PUSH2 0x1CB JUMPI PUSH1 0x0 DUP1 REVERT JUMPDEST POP PUSH2 0x1D4 PUSH2 0x58E JUMP JUMPDEST PUSH1 0x40 MLOAD PUSH2 0x1E1 SWAP2 SWAP1 PUSH2 0x1199 JUMP JUMPDEST PUSH1 0x40 MLOAD DUP1 SWAP2 SUB SWAP1 RETURN JUMPDEST CALLVALUE DUP1 ISZERO PUSH2 0x1F6 JUMPI PUSH1 0x0 DUP1 REVERT JUMPDEST POP PUSH2 0x1FF PUSH2 0x594 JUMP JUMPDEST PUSH1 0x40 MLOAD PUSH2 0x20C SWAP2 SWAP1 PUSH2 0x1199 JUMP JUMPDEST PUSH1 0x40 MLOAD DUP1 SWAP2 SUB SWAP1 RETURN JUMPDEST PUSH2 0x21D PUSH2 0x59A JUMP JUMPDEST STOP JUMPDEST CALLVALUE DUP1 ISZERO PUSH2 0x22B JUMPI PUSH1 0x0 DUP1 REVERT JUMPDEST POP PUSH2 0x246 PUSH1 0x4 DUP1 CALLDATASIZE SUB DUP2 ADD SWAP1 PUSH2 0x241 SWAP2 SWAP1 PUSH2 0xE27 JUMP JUMPDEST PUSH2 0x6F5 JUMP JUMPDEST STOP JUMPDEST CALLVALUE DUP1 ISZERO PUSH2 0x254 JUMPI PUSH1 0x0 DUP1 REVERT JUMPDEST POP PUSH2 0x25D PUSH2 0x82C JUMP JUMPDEST PUSH1 0x40 MLOAD PUSH2 0x26A SWAP2 SWAP1 PUSH2 0x1199 JUMP JUMPDEST PUSH1 0x40 MLOAD DUP1 SWAP2 SUB SWAP1 RETURN JUMPDEST CALLVALUE DUP1 ISZERO PUSH2 0x27F JUMPI PUSH1 0x0 DUP1 REVERT JUMPDEST POP PUSH2 0x288 PUSH2 0x832 JUMP JUMPDEST PUSH1 0x40 MLOAD PUSH2 0x295 SWAP2 SWAP1 PUSH2 0x1004 JUMP JUMPDEST PUSH1 0x40 MLOAD DUP1 SWAP2 SUB SWAP1 RETURN JUMPDEST CALLVALUE DUP1 ISZERO PUSH2 0x2AA JUMPI PUSH1 0x0 DUP1 REVERT JUMPDEST POP PUSH2 0x2B3 PUSH2 0x856 JUMP JUMPDEST PUSH1 0x40 MLOAD PUSH2 0x2C0 SWAP2 SWAP1 PUSH2 0x1199 JUMP JUMPDEST PUSH1 0x40 MLOAD DUP1 SWAP2 SUB SWAP1 RETURN JUMPDEST CALLVALUE DUP1 ISZERO PUSH2 0x2D5 JUMPI PUSH1 0x0 DUP1 REVERT JUMPDEST POP PUSH2 0x2F0 PUSH1 0x4 DUP1 CALLDATASIZE SUB DUP2 ADD SWAP1 PUSH2 0x2EB SWAP2 SWAP1 PUSH2 0xE27 JUMP JUMPDEST PUSH2 0x85C JUMP JUMPDEST STOP JUMPDEST CALLVALUE DUP1 ISZERO PUSH2 0x2FE JUMPI PUSH1 0x0 DUP1 REVERT JUMPDEST POP PUSH2 0x307 PUSH2 0xA02 JUMP JUMPDEST STOP JUMPDEST CALLVALUE DUP1 ISZERO PUSH2 0x315 JUMPI PUSH1 0x0 DUP1 REVERT JUMPDEST POP PUSH2 0x31E PUSH2 0xC33 JUMP JUMPDEST PUSH1 0x40 MLOAD PUSH2 0x32B SWAP2 SWAP1 PUSH2 0x1199 JUMP JUMPDEST PUSH1 0x40 MLOAD DUP1 SWAP2 SUB SWAP1 RETURN JUMPDEST PUSH1 0x7 PUSH1 0x20 MSTORE DUP1 PUSH1 0x0 MSTORE PUSH1 0x40 PUSH1 0x0 KECCAK256 PUSH1 0x0 SWAP2 POP SWAP1 POP DUP1 PUSH1 0x0 ADD DUP1 SLOAD PUSH2 0x357 SWAP1 PUSH2 0x137D JUMP JUMPDEST DUP1 PUSH1 0x1F ADD PUSH1 0x20 DUP1 SWAP2 DIV MUL PUSH1 0x20 ADD PUSH1 0x40 MLOAD SWAP1 DUP2 ADD PUSH1 0x40 MSTORE DUP1 SWAP3 SWAP2 SWAP1 DUP2 DUP2 MSTORE PUSH1 0x20 ADD DUP3 DUP1 SLOAD PUSH2 0x383 SWAP1 PUSH2 0x137D JUMP JUMPDEST DUP1 ISZERO PUSH2 0x3D0 JUMPI DUP1 PUSH1 0x1F LT PUSH2 0x3A5 JUMPI PUSH2 0x100 DUP1 DUP4 SLOAD DIV MUL DUP4 MSTORE SWAP2 PUSH1 0x20 ADD SWAP2 PUSH2 0x3D0 JUMP JUMPDEST DUP3 ADD SWAP2 SWAP1 PUSH1 0x0 MSTORE PUSH1 0x20 PUSH1 0x0 KECCAK256 SWAP1 JUMPDEST DUP2 SLOAD DUP2 MSTORE SWAP1 PUSH1 0x1 ADD SWAP1 PUSH1 0x20 ADD DUP1 DUP4 GT PUSH2 0x3B3 JUMPI DUP3 SWAP1 SUB PUSH1 0x1F AND DUP3 ADD SWAP2 JUMPDEST POP POP POP POP POP SWAP1 DUP1 PUSH1 0x1 ADD SLOAD SWAP1 DUP1 PUSH1 0x2 ADD PUSH1 0x0 SWAP1 SLOAD SWAP1 PUSH2 0x100 EXP SWAP1 DIV PUSH20 0xFFFFFFFFFFFFFFFFFFFFFFFFFFFFFFFFFFFFFFFF AND SWAP1 DUP1 PUSH1 0x3 ADD SLOAD SWAP1 DUP1 PUSH1 0x5 ADD PUSH1 0x0 SWAP1 SLOAD SWAP1 PUSH2 0x100 EXP SWAP1 DIV PUSH1 0xFF AND SWAP1 POP DUP6 JUMP JUMPDEST PUSH1 0x1 PUSH1 0x20 MSTORE DUP1 PUSH1 0x0 MSTORE PUSH1 0x40 PUSH1 0x0 KECCAK256 PUSH1 0x0 SWAP2 POP SWAP1 POP SLOAD DUP2 JUMP JUMPDEST CALLER PUSH20 0xFFFFFFFFFFFFFFFFFFFFFFFFFFFFFFFFFFFFFFFF AND PUSH1 0x0 DUP1 SLOAD SWAP1 PUSH2 0x100 EXP SWAP1 DIV PUSH20 0xFFFFFFFFFFFFFFFFFFFFFFFFFFFFFFFFFFFFFFFF AND PUSH20 0xFFFFFFFFFFFFFFFFFFFFFFFFFFFFFFFFFFFFFFFF AND EQ PUSH2 0x4C5 JUMPI PUSH1 0x40 MLOAD PUSH32 0x8C379A000000000000000000000000000000000000000000000000000000000 DUP2 MSTORE PUSH1 0x4 ADD PUSH2 0x4BC SWAP1 PUSH2 0x1179 JUMP JUMPDEST PUSH1 0x40 MLOAD DUP1 SWAP2 SUB SWAP1 REVERT JUMPDEST PUSH1 0x0 PUSH1 0x7 PUSH1 0x0 PUSH1 0x8 SLOAD DUP2 MSTORE PUSH1 0x20 ADD SWAP1 DUP2 MSTORE PUSH1 0x20 ADD PUSH1 0x0 KECCAK256 SWAP1 POP PUSH1 0x8 PUSH1 0x0 DUP2 SLOAD DUP1 SWAP3 SWAP2 SWAP1 PUSH2 0x4F1 SWAP1 PUSH2 0x13E0 JUMP JUMPDEST SWAP2 SWAP1 POP SSTORE POP DUP4 DUP2 PUSH1 0x0 ADD SWAP1 DUP1 MLOAD SWAP1 PUSH1 0x20 ADD SWAP1 PUSH2 0x50E SWAP3 SWAP2 SWAP1 PUSH2 0xC39 JUMP JUMPDEST POP DUP3 DUP2 PUSH1 0x1 ADD DUP2 SWAP1 SSTORE POP PUSH1 0x0 DUP2 PUSH1 0x5 ADD PUSH1 0x0 PUSH2 0x100 EXP DUP2 SLOAD DUP2 PUSH1 0xFF MUL NOT AND SWAP1 DUP4 ISZERO ISZERO MUL OR SWAP1 SSTORE POP PUSH1 0x0 DUP2 PUSH1 0x3 ADD DUP2 SWAP1 SSTORE POP DUP2 DUP2 PUSH1 0x2 ADD PUSH1 0x0 PUSH2 0x100 EXP DUP2 SLOAD DUP2 PUSH20 0xFFFFFFFFFFFFFFFFFFFFFFFFFFFFFFFFFFFFFFFF MUL NOT AND SWAP1 DUP4 PUSH20 0xFFFFFFFFFFFFFFFFFFFFFFFFFFFFFFFFFFFFFFFF AND MUL OR SWAP1 SSTORE POP POP POP POP POP JUMP JUMPDEST PUSH1 0x8 SLOAD DUP2 JUMP JUMPDEST PUSH1 0x6 SLOAD DUP2 JUMP JUMPDEST PUSH1 0x2 SLOAD DUP2 JUMP JUMPDEST PUSH1 0x6 SLOAD TIMESTAMP LT PUSH2 0x5DE JUMPI PUSH1 0x40 MLOAD PUSH32 0x8C379A000000000000000000000000000000000000000000000000000000000 DUP2 MSTORE PUSH1 0x4 ADD PUSH2 0x5D5 SWAP1 PUSH2 0x10B9 JUMP JUMPDEST PUSH1 0x40 MLOAD DUP1 SWAP2 SUB SWAP1 REVERT JUMPDEST PUSH1 0x3 SLOAD CALLVALUE LT ISZERO PUSH2 0x623 JUMPI PUSH1 0x40 MLOAD PUSH32 0x8C379A000000000000000000000000000000000000000000000000000000000 DUP2 MSTORE PUSH1 0x4 ADD PUSH2 0x61A SWAP1 PUSH2 0x1159 JUMP JUMPDEST PUSH1 0x40 MLOAD DUP1 SWAP2 SUB SWAP1 REVERT JUMPDEST PUSH1 0x0 PUSH1 0x1 PUSH1 0x0 CALLER PUSH20 0xFFFFFFFFFFFFFFFFFFFFFFFFFFFFFFFFFFFFFFFF AND PUSH20 0xFFFFFFFFFFFFFFFFFFFFFFFFFFFFFFFFFFFFFFFF AND DUP2 MSTORE PUSH1 0x20 ADD SWAP1 DUP2 MSTORE PUSH1 0x20 ADD PUSH1 0x0 KECCAK256 SLOAD EQ ISZERO PUSH2 0x684 JUMPI PUSH1 0x4 PUSH1 0x0 DUP2 SLOAD DUP1 SWAP3 SWAP2 SWAP1 PUSH2 0x67E SWAP1 PUSH2 0x13E0 JUMP JUMPDEST SWAP2 SWAP1 POP SSTORE POP JUMPDEST CALLVALUE PUSH1 0x1 PUSH1 0x0 CALLER PUSH20 0xFFFFFFFFFFFFFFFFFFFFFFFFFFFFFFFFFFFFFFFF AND PUSH20 0xFFFFFFFFFFFFFFFFFFFFFFFFFFFFFFFFFFFFFFFF AND DUP2 MSTORE PUSH1 0x20 ADD SWAP1 DUP2 MSTORE PUSH1 0x20 ADD PUSH1 0x0 KECCAK256 PUSH1 0x0 DUP3 DUP3 SLOAD PUSH2 0x6D3 SWAP2 SWAP1 PUSH2 0x1226 JUMP JUMPDEST SWAP3 POP POP DUP2 SWAP1 SSTORE POP CALLVALUE PUSH1 0x5 PUSH1 0x0 DUP3 DUP3 SLOAD PUSH2 0x6EC SWAP2 SWAP1 PUSH2 0x1226 JUMP JUMPDEST SWAP3 POP POP DUP2 SWAP1 SSTORE POP JUMP JUMPDEST PUSH1 0x0 PUSH1 0x7 PUSH1 0x0 DUP4 DUP2 MSTORE PUSH1 0x20 ADD SWAP1 DUP2 MSTORE PUSH1 0x20 ADD PUSH1 0x0 KECCAK256 SWAP1 POP PUSH1 0x0 ISZERO ISZERO DUP2 PUSH1 0x5 ADD PUSH1 0x0 SWAP1 SLOAD SWAP1 PUSH2 0x100 EXP SWAP1 DIV PUSH1 0xFF AND ISZERO ISZERO EQ PUSH2 0x764 JUMPI PUSH1 0x40 MLOAD PUSH32 0x8C379A000000000000000000000000000000000000000000000000000000000 DUP2 MSTORE PUSH1 0x4 ADD PUSH2 0x75B SWAP1 PUSH2 0x1139 JUMP JUMPDEST PUSH1 0x40 MLOAD DUP1 SWAP2 SUB SWAP1 REVERT JUMPDEST PUSH1 0x2 PUSH1 0x4 SLOAD PUSH2 0x773 SWAP2 SWAP1 PUSH2 0x127C JUMP JUMPDEST DUP2 PUSH1 0x3 ADD SLOAD LT ISZERO PUSH2 0x7B9 JUMPI PUSH1 0x40 MLOAD PUSH32 0x8C379A000000000000000000000000000000000000000000000000000000000 DUP2 MSTORE PUSH1 0x4 ADD PUSH2 0x7B0 SWAP1 PUSH2 0x10D9 JUMP JUMPDEST PUSH1 0x40 MLOAD DUP1 SWAP2 SUB SWAP1 REVERT JUMPDEST DUP1 PUSH1 0x2 ADD PUSH1 0x0 SWAP1 SLOAD SWAP1 PUSH2 0x100 EXP SWAP1 DIV PUSH20 0xFFFFFFFFFFFFFFFFFFFFFFFFFFFFFFFFFFFFFFFF AND PUSH20 0xFFFFFFFFFFFFFFFFFFFFFFFFFFFFFFFFFFFFFFFF AND PUSH2 0x8FC DUP3 PUSH1 0x1 ADD SLOAD SWAP1 DUP2 ISZERO MUL SWAP1 PUSH1 0x40 MLOAD PUSH1 0x0 PUSH1 0x40 MLOAD DUP1 DUP4 SUB DUP2 DUP6 DUP9 DUP9 CALL SWAP4 POP POP POP POP ISZERO DUP1 ISZERO PUSH2 0x827 JUMPI RETURNDATASIZE PUSH1 0x0 DUP1 RETURNDATACOPY RETURNDATASIZE PUSH1 0x0 REVERT JUMPDEST POP POP POP JUMP JUMPDEST PUSH1 0x5 SLOAD DUP2 JUMP JUMPDEST PUSH1 0x0 DUP1 SLOAD SWAP1 PUSH2 0x100 EXP SWAP1 DIV PUSH20 0xFFFFFFFFFFFFFFFFFFFFFFFFFFFFFFFFFFFFFFFF AND DUP2 JUMP JUMPDEST PUSH1 0x3 SLOAD DUP2 JUMP JUMPDEST PUSH1 0x0 PUSH1 0x1 PUSH1 0x0 CALLER PUSH20 0xFFFFFFFFFFFFFFFFFFFFFFFFFFFFFFFFFFFFFFFF AND PUSH20 0xFFFFFFFFFFFFFFFFFFFFFFFFFFFFFFFFFFFFFFFF AND DUP2 MSTORE PUSH1 0x20 ADD SWAP1 DUP2 MSTORE PUSH1 0x20 ADD PUSH1 0x0 KECCAK256 SLOAD GT PUSH2 0x8DE JUMPI PUSH1 0x40 MLOAD PUSH32 0x8C379A000000000000000000000000000000000000000000000000000000000 DUP2 MSTORE PUSH1 0x4 ADD PUSH2 0x8D5 SWAP1 PUSH2 0x1119 JUMP JUMPDEST PUSH1 0x40 MLOAD DUP1 SWAP2 SUB SWAP1 REVERT JUMPDEST PUSH1 0x0 PUSH1 0x7 PUSH1 0x0 DUP4 DUP2 MSTORE PUSH1 0x20 ADD SWAP1 DUP2 MSTORE PUSH1 0x20 ADD PUSH1 0x0 KECCAK256 SWAP1 POP PUSH1 0x0 ISZERO ISZERO DUP2 PUSH1 0x4 ADD PUSH1 0x0 CALLER PUSH20 0xFFFFFFFFFFFFFFFFFFFFFFFFFFFFFFFFFFFFFFFF AND PUSH20 0xFFFFFFFFFFFFFFFFFFFFFFFFFFFFFFFFFFFFFFFF AND DUP2 MSTORE PUSH1 0x20 ADD SWAP1 DUP2 MSTORE PUSH1 0x20 ADD PUSH1 0x0 KECCAK256 PUSH1 0x0 SWAP1 SLOAD SWAP1 PUSH2 0x100 EXP SWAP1 DIV PUSH1 0xFF AND ISZERO ISZERO EQ PUSH2 0x98A JUMPI PUSH1 0x40 MLOAD PUSH32 0x8C379A000000000000000000000000000000000000000000000000000000000 DUP2 MSTORE PUSH1 0x4 ADD PUSH2 0x981 SWAP1 PUSH2 0x1099 JUMP JUMPDEST PUSH1 0x40 MLOAD DUP1 SWAP2 SUB SWAP1 REVERT JUMPDEST PUSH1 0x1 DUP2 PUSH1 0x4 ADD PUSH1 0x0 CALLER PUSH20 0xFFFFFFFFFFFFFFFFFFFFFFFFFFFFFFFFFFFFFFFF AND PUSH20 0xFFFFFFFFFFFFFFFFFFFFFFFFFFFFFFFFFFFFFFFF AND DUP2 MSTORE PUSH1 0x20 ADD SWAP1 DUP2 MSTORE PUSH1 0x20 ADD PUSH1 0x0 KECCAK256 PUSH1 0x0 PUSH2 0x100 EXP DUP2 SLOAD DUP2 PUSH1 0xFF MUL NOT AND SWAP1 DUP4 ISZERO ISZERO MUL OR SWAP1 SSTORE POP DUP1 PUSH1 0x3 ADD PUSH1 0x0 DUP2 SLOAD DUP1 SWAP3 SWAP2 SWAP1 PUSH2 0x9F9 SWAP1 PUSH2 0x13E0 JUMP JUMPDEST SWAP2 SWAP1 POP SSTORE POP POP POP JUMP JUMPDEST PUSH1 0x6 SLOAD TIMESTAMP GT PUSH2 0xA46 JUMPI PUSH1 0x40 MLOAD PUSH32 0x8C379A000000000000000000000000000000000000000000000000000000000 DUP2 MSTORE PUSH1 0x4 ADD PUSH2 0xA3D SWAP1 PUSH2 0x10F9 JUMP JUMPDEST PUSH1 0x40 MLOAD DUP1 SWAP2 SUB SWAP1 REVERT JUMPDEST PUSH1 0x2 SLOAD PUSH1 0x5 SLOAD LT PUSH2 0xA8C JUMPI PUSH1 0x40 MLOAD PUSH32 0x8C379A000000000000000000000000000000000000000000000000000000000 DUP2 MSTORE PUSH1 0x4 ADD PUSH2 0xA83 SWAP1 PUSH2 0x1079 JUMP JUMPDEST PUSH1 0x40 MLOAD DUP1 SWAP2 SUB SWAP1 REVERT JUMPDEST PUSH1 0x0 PUSH1 0x1 PUSH1 0x0 CALLER PUSH20 0xFFFFFFFFFFFFFFFFFFFFFFFFFFFFFFFFFFFFFFFF AND PUSH20 0xFFFFFFFFFFFFFFFFFFFFFFFFFFFFFFFFFFFFFFFF AND DUP2 MSTORE PUSH1 0x20 ADD SWAP1 DUP2 MSTORE PUSH1 0x20 ADD PUSH1 0x0 KECCAK256 SLOAD GT PUSH2 0xB0E JUMPI PUSH1 0x40 MLOAD PUSH32 0x8C379A000000000000000000000000000000000000000000000000000000000 DUP2 MSTORE PUSH1 0x4 ADD PUSH2 0xB05 SWAP1 PUSH2 0x1119 JUMP JUMPDEST PUSH1 0x40 MLOAD DUP1 SWAP2 SUB SWAP1 REVERT JUMPDEST CALLER PUSH20 0xFFFFFFFFFFFFFFFFFFFFFFFFFFFFFFFFFFFFFFFF AND PUSH2 0x8FC PUSH1 0x1 PUSH1 0x0 CALLER PUSH20 0xFFFFFFFFFFFFFFFFFFFFFFFFFFFFFFFFFFFFFFFF AND PUSH20 0xFFFFFFFFFFFFFFFFFFFFFFFFFFFFFFFFFFFFFFFF AND DUP2 MSTORE PUSH1 0x20 ADD SWAP1 DUP2 MSTORE PUSH1 0x20 ADD PUSH1 0x0 KECCAK256 SLOAD SWAP1 DUP2 ISZERO MUL SWAP1 PUSH1 0x40 MLOAD PUSH1 0x0 PUSH1 0x40 MLOAD DUP1 DUP4 SUB DUP2 DUP6 DUP9 DUP9 CALL SWAP4 POP POP POP POP ISZERO DUP1 ISZERO PUSH2 0xB93 JUMPI RETURNDATASIZE PUSH1 0x0 DUP1 RETURNDATACOPY RETURNDATASIZE PUSH1 0x0 REVERT JUMPDEST POP PUSH1 0x1 PUSH1 0x0 CALLER PUSH20 0xFFFFFFFFFFFFFFFFFFFFFFFFFFFFFFFFFFFFFFFF AND PUSH20 0xFFFFFFFFFFFFFFFFFFFFFFFFFFFFFFFFFFFFFFFF AND DUP2 MSTORE PUSH1 0x20 ADD SWAP1 DUP2 MSTORE PUSH1 0x20 ADD PUSH1 0x0 KECCAK256 SLOAD PUSH1 0x5 PUSH1 0x0 DUP3 DUP3 SLOAD PUSH2 0xBE5 SWAP2 SWAP1 PUSH2 0x12AD JUMP JUMPDEST SWAP3 POP POP DUP2 SWAP1 SSTORE POP PUSH1 0x0 PUSH1 0x1 PUSH1 0x0 CALLER PUSH20 0xFFFFFFFFFFFFFFFFFFFFFFFFFFFFFFFFFFFFFFFF AND PUSH20 0xFFFFFFFFFFFFFFFFFFFFFFFFFFFFFFFFFFFFFFFF AND DUP2 MSTORE PUSH1 0x20 ADD SWAP1 DUP2 MSTORE PUSH1 0x20 ADD PUSH1 0x0 KECCAK256 DUP2 SWAP1 SSTORE POP JUMP JUMPDEST PUSH1 0x4 SLOAD DUP2 JUMP JUMPDEST DUP3 DUP1 SLOAD PUSH2 0xC45 SWAP1 PUSH2 0x137D JUMP JUMPDEST SWAP1 PUSH1 0x0 MSTORE PUSH1 0x20 PUSH1 0x0 KECCAK256 SWAP1 PUSH1 0x1F ADD PUSH1 0x20 SWAP1 DIV DUP2 ADD SWAP3 DUP3 PUSH2 0xC67 JUMPI PUSH1 0x0 DUP6 SSTORE PUSH2 0xCAE JUMP JUMPDEST DUP3 PUSH1 0x1F LT PUSH2 0xC80 JUMPI DUP1 MLOAD PUSH1 0xFF NOT AND DUP4 DUP1 ADD OR DUP6 SSTORE PUSH2 0xCAE JUMP JUMPDEST DUP3 DUP1 ADD PUSH1 0x1 ADD DUP6 SSTORE DUP3 ISZERO PUSH2 0xCAE JUMPI SWAP2 DUP3 ADD JUMPDEST DUP3 DUP2 GT ISZERO PUSH2 0xCAD JUMPI DUP3 MLOAD DUP3 SSTORE SWAP2 PUSH1 0x20 ADD SWAP2 SWAP1 PUSH1 0x1 ADD SWAP1 PUSH2 0xC92 JUMP JUMPDEST JUMPDEST POP SWAP1 POP PUSH2 0xCBB SWAP2 SWAP1 PUSH2 0xCBF JUMP JUMPDEST POP SWAP1 JUMP JUMPDEST JUMPDEST DUP1 DUP3 GT ISZERO PUSH2 0xCD8 JUMPI PUSH1 0x0 DUP2 PUSH1 0x0 SWAP1 SSTORE POP PUSH1 0x1 ADD PUSH2 0xCC0 JUMP JUMPDEST POP SWAP1 JUMP JUMPDEST PUSH1 0x0 PUSH2 0xCEF PUSH2 0xCEA DUP5 PUSH2 0x11D9 JUMP JUMPDEST PUSH2 0x11B4 JUMP JUMPDEST SWAP1 POP DUP3 DUP2 MSTORE PUSH1 0x20 DUP2 ADD DUP5 DUP5 DUP5 ADD GT ISZERO PUSH2 0xD0B JUMPI PUSH2 0xD0A PUSH2 0x14EA JUMP JUMPDEST JUMPDEST PUSH2 0xD16 DUP5 DUP3 DUP6 PUSH2 0x133B JUMP JUMPDEST POP SWAP4 SWAP3 POP POP POP JUMP JUMPDEST PUSH1 0x0 DUP2 CALLDATALOAD SWAP1 POP PUSH2 0xD2D DUP2 PUSH2 0x16A1 JUMP JUMPDEST SWAP3 SWAP2 POP POP JUMP JUMPDEST PUSH1 0x0 DUP2 CALLDATALOAD SWAP1 POP PUSH2 0xD42 DUP2 PUSH2 0x16B8 JUMP JUMPDEST SWAP3 SWAP2 POP POP JUMP JUMPDEST PUSH1 0x0 DUP3 PUSH1 0x1F DUP4 ADD SLT PUSH2 0xD5D JUMPI PUSH2 0xD5C PUSH2 0x14E5 JUMP JUMPDEST JUMPDEST DUP2 CALLDATALOAD PUSH2 0xD6D DUP5 DUP3 PUSH1 0x20 DUP7 ADD PUSH2 0xCDC JUMP JUMPDEST SWAP2 POP POP SWAP3 SWAP2 POP POP JUMP JUMPDEST PUSH1 0x0 DUP2 CALLDATALOAD SWAP1 POP PUSH2 0xD85 DUP2 PUSH2 0x16CF JUMP JUMPDEST SWAP3 SWAP2 POP POP JUMP JUMPDEST PUSH1 0x0 PUSH1 0x20 DUP3 DUP5 SUB SLT ISZERO PUSH2 0xDA1 JUMPI PUSH2 0xDA0 PUSH2 0x14F4 JUMP JUMPDEST JUMPDEST PUSH1 0x0 PUSH2 0xDAF DUP5 DUP3 DUP6 ADD PUSH2 0xD1E JUMP JUMPDEST SWAP2 POP POP SWAP3 SWAP2 POP POP JUMP JUMPDEST PUSH1 0x0 DUP1 PUSH1 0x0 PUSH1 0x60 DUP5 DUP7 SUB SLT ISZERO PUSH2 0xDD1 JUMPI PUSH2 0xDD0 PUSH2 0x14F4 JUMP JUMPDEST JUMPDEST PUSH1 0x0 DUP5 ADD CALLDATALOAD PUSH8 0xFFFFFFFFFFFFFFFF DUP2 GT ISZERO PUSH2 0xDEF JUMPI PUSH2 0xDEE PUSH2 0x14EF JUMP JUMPDEST JUMPDEST PUSH2 0xDFB DUP7 DUP3 DUP8 ADD PUSH2 0xD48 JUMP JUMPDEST SWAP4 POP POP PUSH1 0x20 PUSH2 0xE0C DUP7 DUP3 DUP8 ADD PUSH2 0xD76 JUMP JUMPDEST SWAP3 POP POP PUSH1 0x40 PUSH2 0xE1D DUP7 DUP3 DUP8 ADD PUSH2 0xD33 JUMP JUMPDEST SWAP2 POP POP SWAP3 POP SWAP3 POP SWAP3 JUMP JUMPDEST PUSH1 0x0 PUSH1 0x20 DUP3 DUP5 SUB SLT ISZERO PUSH2 0xE3D JUMPI PUSH2 0xE3C PUSH2 0x14F4 JUMP JUMPDEST JUMPDEST PUSH1 0x0 PUSH2 0xE4B DUP5 DUP3 DUP6 ADD PUSH2 0xD76 JUMP JUMPDEST SWAP2 POP POP SWAP3 SWAP2 POP POP JUMP JUMPDEST PUSH2 0xE5D DUP2 PUSH2 0x12F3 JUMP JUMPDEST DUP3 MSTORE POP POP JUMP JUMPDEST PUSH2 0xE6C DUP2 PUSH2 0x12E1 JUMP JUMPDEST DUP3 MSTORE POP POP JUMP JUMPDEST PUSH2 0xE7B DUP2 PUSH2 0x1305 JUMP JUMPDEST DUP3 MSTORE POP POP JUMP JUMPDEST PUSH1 0x0 PUSH2 0xE8C DUP3 PUSH2 0x120A JUMP JUMPDEST PUSH2 0xE96 DUP2 DUP6 PUSH2 0x1215 JUMP JUMPDEST SWAP4 POP PUSH2 0xEA6 DUP2 DUP6 PUSH1 0x20 DUP7 ADD PUSH2 0x134A JUMP JUMPDEST PUSH2 0xEAF DUP2 PUSH2 0x14F9 JUMP JUMPDEST DUP5 ADD SWAP2 POP POP SWAP3 SWAP2 POP POP JUMP JUMPDEST PUSH1 0x0 PUSH2 0xEC7 PUSH1 0x16 DUP4 PUSH2 0x1215 JUMP JUMPDEST SWAP2 POP PUSH2 0xED2 DUP3 PUSH2 0x150A JUMP JUMPDEST PUSH1 0x20 DUP3 ADD SWAP1 POP SWAP2 SWAP1 POP JUMP JUMPDEST PUSH1 0x0 PUSH2 0xEEA PUSH1 0xD DUP4 PUSH2 0x1215 JUMP JUMPDEST SWAP2 POP PUSH2 0xEF5 DUP3 PUSH2 0x1533 JUMP JUMPDEST PUSH1 0x20 DUP3 ADD SWAP1 POP SWAP2 SWAP1 POP JUMP JUMPDEST PUSH1 0x0 PUSH2 0xF0D PUSH1 0x10 DUP4 PUSH2 0x1215 JUMP JUMPDEST SWAP2 POP PUSH2 0xF18 DUP3 PUSH2 0x155C JUMP JUMPDEST PUSH1 0x20 DUP3 ADD SWAP1 POP SWAP2 SWAP1 POP JUMP JUMPDEST PUSH1 0x0 PUSH2 0xF30 PUSH1 0x14 DUP4 PUSH2 0x1215 JUMP JUMPDEST SWAP2 POP PUSH2 0xF3B DUP3 PUSH2 0x1585 JUMP JUMPDEST PUSH1 0x20 DUP3 ADD SWAP1 POP SWAP2 SWAP1 POP JUMP JUMPDEST PUSH1 0x0 PUSH2 0xF53 PUSH1 0x14 DUP4 PUSH2 0x1215 JUMP JUMPDEST SWAP2 POP PUSH2 0xF5E DUP3 PUSH2 0x15AE JUMP JUMPDEST PUSH1 0x20 DUP3 ADD SWAP1 POP SWAP2 SWAP1 POP JUMP JUMPDEST PUSH1 0x0 PUSH2 0xF76 PUSH1 0xC DUP4 PUSH2 0x1215 JUMP JUMPDEST SWAP2 POP PUSH2 0xF81 DUP3 PUSH2 0x15D7 JUMP JUMPDEST PUSH1 0x20 DUP3 ADD SWAP1 POP SWAP2 SWAP1 POP JUMP JUMPDEST PUSH1 0x0 PUSH2 0xF99 PUSH1 0x11 DUP4 PUSH2 0x1215 JUMP JUMPDEST SWAP2 POP PUSH2 0xFA4 DUP3 PUSH2 0x1600 JUMP JUMPDEST PUSH1 0x20 DUP3 ADD SWAP1 POP SWAP2 SWAP1 POP JUMP JUMPDEST PUSH1 0x0 PUSH2 0xFBC PUSH1 0x23 DUP4 PUSH2 0x1215 JUMP JUMPDEST SWAP2 POP PUSH2 0xFC7 DUP3 PUSH2 0x1629 JUMP JUMPDEST PUSH1 0x40 DUP3 ADD SWAP1 POP SWAP2 SWAP1 POP JUMP JUMPDEST PUSH1 0x0 PUSH2 0xFDF PUSH1 0x11 DUP4 PUSH2 0x1215 JUMP JUMPDEST SWAP2 POP PUSH2 0xFEA DUP3 PUSH2 0x1678 JUMP JUMPDEST PUSH1 0x20 DUP3 ADD SWAP1 POP SWAP2 SWAP1 POP JUMP JUMPDEST PUSH2 0xFFE DUP2 PUSH2 0x1331 JUMP JUMPDEST DUP3 MSTORE POP POP JUMP JUMPDEST PUSH1 0x0 PUSH1 0x20 DUP3 ADD SWAP1 POP PUSH2 0x1019 PUSH1 0x0 DUP4 ADD DUP5 PUSH2 0xE63 JUMP JUMPDEST SWAP3 SWAP2 POP POP JUMP JUMPDEST PUSH1 0x0 PUSH1 0xA0 DUP3 ADD SWAP1 POP DUP2 DUP2 SUB PUSH1 0x0 DUP4 ADD MSTORE PUSH2 0x1039 DUP2 DUP9 PUSH2 0xE81 JUMP JUMPDEST SWAP1 POP PUSH2 0x1048 PUSH1 0x20 DUP4 ADD DUP8 PUSH2 0xFF5 JUMP JUMPDEST PUSH2 0x1055 PUSH1 0x40 DUP4 ADD DUP7 PUSH2 0xE54 JUMP JUMPDEST PUSH2 0x1062 PUSH1 0x60 DUP4 ADD DUP6 PUSH2 0xFF5 JUMP JUMPDEST PUSH2 0x106F PUSH1 0x80 DUP4 ADD DUP5 PUSH2 0xE72 JUMP JUMPDEST SWAP7 SWAP6 POP POP POP POP POP POP JUMP JUMPDEST PUSH1 0x0 PUSH1 0x20 DUP3 ADD SWAP1 POP DUP2 DUP2 SUB PUSH1 0x0 DUP4 ADD MSTORE PUSH2 0x1092 DUP2 PUSH2 0xEBA JUMP JUMPDEST SWAP1 POP SWAP2 SWAP1 POP JUMP JUMPDEST PUSH1 0x0 PUSH1 0x20 DUP3 ADD SWAP1 POP DUP2 DUP2 SUB PUSH1 0x0 DUP4 ADD MSTORE PUSH2 0x10B2 DUP2 PUSH2 0xEDD JUMP JUMPDEST SWAP1 POP SWAP2 SWAP1 POP JUMP JUMPDEST PUSH1 0x0 PUSH1 0x20 DUP3 ADD SWAP1 POP DUP2 DUP2 SUB PUSH1 0x0 DUP4 ADD MSTORE PUSH2 0x10D2 DUP2 PUSH2 0xF00 JUMP JUMPDEST SWAP1 POP SWAP2 SWAP1 POP JUMP JUMPDEST PUSH1 0x0 PUSH1 0x20 DUP3 ADD SWAP1 POP DUP2 DUP2 SUB PUSH1 0x0 DUP4 ADD MSTORE PUSH2 0x10F2 DUP2 PUSH2 0xF23 JUMP JUMPDEST SWAP1 POP SWAP2 SWAP1 POP JUMP JUMPDEST PUSH1 0x0 PUSH1 0x20 DUP3 ADD SWAP1 POP DUP2 DUP2 SUB PUSH1 0x0 DUP4 ADD MSTORE PUSH2 0x1112 DUP2 PUSH2 0xF46 JUMP JUMPDEST SWAP1 POP SWAP2 SWAP1 POP JUMP JUMPDEST PUSH1 0x0 PUSH1 0x20 DUP3 ADD SWAP1 POP DUP2 DUP2 SUB PUSH1 0x0 DUP4 ADD MSTORE PUSH2 0x1132 DUP2 PUSH2 0xF69 JUMP JUMPDEST SWAP1 POP SWAP2 SWAP1 POP JUMP JUMPDEST PUSH1 0x0 PUSH1 0x20 DUP3 ADD SWAP1 POP DUP2 DUP2 SUB PUSH1 0x0 DUP4 ADD MSTORE PUSH2 0x1152 DUP2 PUSH2 0xF8C JUMP JUMPDEST SWAP1 POP SWAP2 SWAP1 POP JUMP JUMPDEST PUSH1 0x0 PUSH1 0x20 DUP3 ADD SWAP1 POP DUP2 DUP2 SUB PUSH1 0x0 DUP4 ADD MSTORE PUSH2 0x1172 DUP2 PUSH2 0xFAF JUMP JUMPDEST SWAP1 POP SWAP2 SWAP1 POP JUMP JUMPDEST PUSH1 0x0 PUSH1 0x20 DUP3 ADD SWAP1 POP DUP2 DUP2 SUB PUSH1 0x0 DUP4 ADD MSTORE PUSH2 0x1192 DUP2 PUSH2 0xFD2 JUMP JUMPDEST SWAP1 POP SWAP2 SWAP1 POP JUMP JUMPDEST PUSH1 0x0 PUSH1 0x20 DUP3 ADD SWAP1 POP PUSH2 0x11AE PUSH1 0x0 DUP4 ADD DUP5 PUSH2 0xFF5 JUMP JUMPDEST SWAP3 SWAP2 POP POP JUMP JUMPDEST PUSH1 0x0 PUSH2 0x11BE PUSH2 0x11CF JUMP JUMPDEST SWAP1 POP PUSH2 0x11CA DUP3 DUP3 PUSH2 0x13AF JUMP JUMPDEST SWAP2 SWAP1 POP JUMP JUMPDEST PUSH1 0x0 PUSH1 0x40 MLOAD SWAP1 POP SWAP1 JUMP JUMPDEST PUSH1 0x0 PUSH8 0xFFFFFFFFFFFFFFFF DUP3 GT ISZERO PUSH2 0x11F4 JUMPI PUSH2 0x11F3 PUSH2 0x14B6 JUMP JUMPDEST JUMPDEST PUSH2 0x11FD DUP3 PUSH2 0x14F9 JUMP JUMPDEST SWAP1 POP PUSH1 0x20 DUP2 ADD SWAP1 POP SWAP2 SWAP1 POP JUMP JUMPDEST PUSH1 0x0 DUP2 MLOAD SWAP1 POP SWAP2 SWAP1 POP JUMP JUMPDEST PUSH1 0x0 DUP3 DUP3 MSTORE PUSH1 0x20 DUP3 ADD SWAP1 POP SWAP3 SWAP2 POP POP JUMP JUMPDEST PUSH1 0x0 PUSH2 0x1231 DUP3 PUSH2 0x1331 JUMP JUMPDEST SWAP2 POP PUSH2 0x123C DUP4 PUSH2 0x1331 JUMP JUMPDEST SWAP3 POP DUP3 PUSH32 0xFFFFFFFFFFFFFFFFFFFFFFFFFFFFFFFFFFFFFFFFFFFFFFFFFFFFFFFFFFFFFFFF SUB DUP3 GT ISZERO PUSH2 0x1271 JUMPI PUSH2 0x1270 PUSH2 0x1429 JUMP JUMPDEST JUMPDEST DUP3 DUP3 ADD SWAP1 POP SWAP3 SWAP2 POP POP JUMP JUMPDEST PUSH1 0x0 PUSH2 0x1287 DUP3 PUSH2 0x1331 JUMP JUMPDEST SWAP2 POP PUSH2 0x1292 DUP4 PUSH2 0x1331 JUMP JUMPDEST SWAP3 POP DUP3 PUSH2 0x12A2 JUMPI PUSH2 0x12A1 PUSH2 0x1458 JUMP JUMPDEST JUMPDEST DUP3 DUP3 DIV SWAP1 POP SWAP3 SWAP2 POP POP JUMP JUMPDEST PUSH1 0x0 PUSH2 0x12B8 DUP3 PUSH2 0x1331 JUMP JUMPDEST SWAP2 POP PUSH2 0x12C3 DUP4 PUSH2 0x1331 JUMP JUMPDEST SWAP3 POP DUP3 DUP3 LT ISZERO PUSH2 0x12D6 JUMPI PUSH2 0x12D5 PUSH2 0x1429 JUMP JUMPDEST JUMPDEST DUP3 DUP3 SUB SWAP1 POP SWAP3 SWAP2 POP POP JUMP JUMPDEST PUSH1 0x0 PUSH2 0x12EC DUP3 PUSH2 0x1311 JUMP JUMPDEST SWAP1 POP SWAP2 SWAP1 POP JUMP JUMPDEST PUSH1 0x0 PUSH2 0x12FE DUP3 PUSH2 0x1311 JUMP JUMPDEST SWAP1 POP SWAP2 SWAP1 POP JUMP JUMPDEST PUSH1 0x0 DUP2 ISZERO ISZERO SWAP1 POP SWAP2 SWAP1 POP JUMP JUMPDEST PUSH1 0x0 PUSH20 0xFFFFFFFFFFFFFFFFFFFFFFFFFFFFFFFFFFFFFFFF DUP3 AND SWAP1 POP SWAP2 SWAP1 POP JUMP JUMPDEST PUSH1 0x0 DUP2 SWAP1 POP SWAP2 SWAP1 POP JUMP JUMPDEST DUP3 DUP2 DUP4 CALLDATACOPY PUSH1 0x0 DUP4 DUP4 ADD MSTORE POP POP POP JUMP JUMPDEST PUSH1 0x0 JUMPDEST DUP4 DUP2 LT ISZERO PUSH2 0x1368 JUMPI DUP1 DUP3 ADD MLOAD DUP2 DUP5 ADD MSTORE PUSH1 0x20 DUP2 ADD SWAP1 POP PUSH2 0x134D JUMP JUMPDEST DUP4 DUP2 GT ISZERO PUSH2 0x1377 JUMPI PUSH1 0x0 DUP5 DUP5 ADD MSTORE JUMPDEST POP POP POP POP JUMP JUMPDEST PUSH1 0x0 PUSH1 0x2 DUP3 DIV SWAP1 POP PUSH1 0x1 DUP3 AND DUP1 PUSH2 0x1395 JUMPI PUSH1 0x7F DUP3 AND SWAP2 POP JUMPDEST PUSH1 0x20 DUP3 LT DUP2 EQ ISZERO PUSH2 0x13A9 JUMPI PUSH2 0x13A8 PUSH2 0x1487 JUMP JUMPDEST JUMPDEST POP SWAP2 SWAP1 POP JUMP JUMPDEST PUSH2 0x13B8 DUP3 PUSH2 0x14F9 JUMP JUMPDEST DUP2 ADD DUP2 DUP2 LT PUSH8 0xFFFFFFFFFFFFFFFF DUP3 GT OR ISZERO PUSH2 0x13D7 JUMPI PUSH2 0x13D6 PUSH2 0x14B6 JUMP JUMPDEST JUMPDEST DUP1 PUSH1 0x40 MSTORE POP POP POP JUMP JUMPDEST PUSH1 0x0 PUSH2 0x13EB DUP3 PUSH2 0x1331 JUMP JUMPDEST SWAP2 POP PUSH32 0xFFFFFFFFFFFFFFFFFFFFFFFFFFFFFFFFFFFFFFFFFFFFFFFFFFFFFFFFFFFFFFFF DUP3 EQ ISZERO PUSH2 0x141E JUMPI PUSH2 0x141D PUSH2 0x1429 JUMP JUMPDEST JUMPDEST PUSH1 0x1 DUP3 ADD SWAP1 POP SWAP2 SWAP1 POP JUMP JUMPDEST PUSH32 0x4E487B7100000000000000000000000000000000000000000000000000000000 PUSH1 0x0 MSTORE PUSH1 0x11 PUSH1 0x4 MSTORE PUSH1 0x24 PUSH1 0x0 REVERT JUMPDEST PUSH32 0x4E487B7100000000000000000000000000000000000000000000000000000000 PUSH1 0x0 MSTORE PUSH1 0x12 PUSH1 0x4 MSTORE PUSH1 0x24 PUSH1 0x0 REVERT JUMPDEST PUSH32 0x4E487B7100000000000000000000000000000000000000000000000000000000 PUSH1 0x0 MSTORE PUSH1 0x22 PUSH1 0x4 MSTORE PUSH1 0x24 PUSH1 0x0 REVERT JUMPDEST PUSH32 0x4E487B7100000000000000000000000000000000000000000000000000000000 PUSH1 0x0 MSTORE PUSH1 0x41 PUSH1 0x4 MSTORE PUSH1 0x24 PUSH1 0x0 REVERT JUMPDEST PUSH1 0x0 DUP1 REVERT JUMPDEST PUSH1 0x0 DUP1 REVERT JUMPDEST PUSH1 0x0 DUP1 REVERT JUMPDEST PUSH1 0x0 DUP1 REVERT JUMPDEST PUSH1 0x0 PUSH1 0x1F NOT PUSH1 0x1F DUP4 ADD AND SWAP1 POP SWAP2 SWAP1 POP JUMP JUMPDEST PUSH32 0x46756E64696E6720776173207375636365737366756C00000000000000000000 PUSH1 0x0 DUP3 ADD MSTORE POP JUMP JUMPDEST PUSH32 0x416C726561647920766F74656400000000000000000000000000000000000000 PUSH1 0x0 DUP3 ADD MSTORE POP JUMP JUMPDEST PUSH32 0x46756E64696E67206973206F7665722100000000000000000000000000000000 PUSH1 0x0 DUP3 ADD MSTORE POP JUMP JUMPDEST PUSH32 0x566F74696E67206E6F7420696E206661766F7221000000000000000000000000 PUSH1 0x0 DUP3 ADD MSTORE POP JUMP JUMPDEST PUSH32 0x46756E64696E67206973207374696C6C206F6E21000000000000000000000000 PUSH1 0x0 DUP3 ADD MSTORE POP JUMP JUMPDEST PUSH32 0x4E6F7420612066756E6465720000000000000000000000000000000000000000 PUSH1 0x0 DUP3 ADD MSTORE POP JUMP JUMPDEST PUSH32 0x436F6D706C6574656420416C7265616479000000000000000000000000000000 PUSH1 0x0 DUP3 ADD MSTORE POP JUMP JUMPDEST PUSH32 0x4D696E696D756D20616D6F756E74206372697465726961206E6F742073617469 PUSH1 0x0 DUP3 ADD MSTORE PUSH32 0x7366790000000000000000000000000000000000000000000000000000000000 PUSH1 0x20 DUP3 ADD MSTORE POP JUMP JUMPDEST PUSH32 0x596F7520617265206E6F74206F776E6572000000000000000000000000000000 PUSH1 0x0 DUP3 ADD MSTORE POP JUMP JUMPDEST PUSH2 0x16AA DUP2 PUSH2 0x12E1 JUMP JUMPDEST DUP2 EQ PUSH2 0x16B5 JUMPI PUSH1 0x0 DUP1 REVERT JUMPDEST POP JUMP JUMPDEST PUSH2 0x16C1 DUP2 PUSH2 0x12F3 JUMP JUMPDEST DUP2 EQ PUSH2 0x16CC JUMPI PUSH1 0x0 DUP1 REVERT JUMPDEST POP JUMP JUMPDEST PUSH2 0x16D8 DUP2 PUSH2 0x1331 JUMP JUMPDEST DUP2 EQ PUSH2 0x16E3 JUMPI PUSH1 0x0 DUP1 REVERT JUMPDEST POP JUMP INVALID LOG2 PUSH5 0x6970667358 0x22 SLT KECCAK256 0xED SDIV 0xB1 SWAP12 PUSH16 0x58D8129D2D76420DFDF8C0D70064EC7C 0x5D ISZERO 0xB1 PUSH3 0x6289DC PUSH31 0x2B98B064736F6C634300080700330000000000000000000000000000000000 "
				},
				"gasEstimates": {
					"creation": {
						"codeDepositCost": "1183200",
						"executionCost": "infinite",
						"totalCost": "infinite"
					},
					"external": {
						"AllRequests(uint256)": "infinite",
						"contribution()": "infinite",
						"createRequests(string,uint256,address)": "infinite",
						"funders(address)": "2860",
						"fundsRaised()": "2474",
						"getRefund()": "infinite",
						"goal()": "2496",
						"makePayment(uint256)": "infinite",
						"minAmount()": "2451",
						"noOfFounders()": "2517",
						"numReq()": "2452",
						"owner()": "2578",
						"timePeriod()": "2474",
						"votingForRequest(uint256)": "infinite"
					}
				},
				"methodIdentifiers": {
					"AllRequests(uint256)": "0114bd3f",
					"contribution()": "50520b1f",
					"createRequests(string,uint256,address)": "277c3da4",
					"funders(address)": "031b3677",
					"fundsRaised()": "6681b9fd",
					"getRefund()": "b2d5ae44",
					"goal()": "40193883",
					"makePayment(uint256)": "5114cb52",
					"minAmount()": "9b2cb5d8",
					"noOfFounders()": "e89b7c55",
					"numReq()": "3c2ed32d",
					"owner()": "8da5cb5b",
					"timePeriod()": "3e79d1e1",
					"votingForRequest(uint256)": "b0636556"
				}
			},
			"storageLayout": {
				"storage": [
					{
						"astId": 3,
						"contract": "CrowdFunding.sol:main",
						"label": "owner",
						"offset": 0,
						"slot": "0",
						"type": "t_address"
					},
					{
						"astId": 7,
						"contract": "CrowdFunding.sol:main",
						"label": "funders",
						"offset": 0,
						"slot": "1",
						"type": "t_mapping(t_address,t_uint256)"
					},
					{
						"astId": 9,
						"contract": "CrowdFunding.sol:main",
						"label": "goal",
						"offset": 0,
						"slot": "2",
						"type": "t_uint256"
					},
					{
						"astId": 11,
						"contract": "CrowdFunding.sol:main",
						"label": "minAmount",
						"offset": 0,
						"slot": "3",
						"type": "t_uint256"
					},
					{
						"astId": 13,
						"contract": "CrowdFunding.sol:main",
						"label": "noOfFounders",
						"offset": 0,
						"slot": "4",
						"type": "t_uint256"
					},
					{
						"astId": 15,
						"contract": "CrowdFunding.sol:main",
						"label": "fundsRaised",
						"offset": 0,
						"slot": "5",
						"type": "t_uint256"
					},
					{
						"astId": 17,
						"contract": "CrowdFunding.sol:main",
						"label": "timePeriod",
						"offset": 0,
						"slot": "6",
						"type": "t_uint256"
					},
					{
						"astId": 180,
						"contract": "CrowdFunding.sol:main",
						"label": "AllRequests",
						"offset": 0,
						"slot": "7",
						"type": "t_mapping(t_uint256,t_struct(Requests)175_storage)"
					},
					{
						"astId": 182,
						"contract": "CrowdFunding.sol:main",
						"label": "numReq",
						"offset": 0,
						"slot": "8",
						"type": "t_uint256"
					}
				],
				"types": {
					"t_address": {
						"encoding": "inplace",
						"label": "address",
						"numberOfBytes": "20"
					},
					"t_address_payable": {
						"encoding": "inplace",
						"label": "address payable",
						"numberOfBytes": "20"
					},
					"t_bool": {
						"encoding": "inplace",
						"label": "bool",
						"numberOfBytes": "1"
					},
					"t_mapping(t_address,t_bool)": {
						"encoding": "mapping",
						"key": "t_address",
						"label": "mapping(address => bool)",
						"numberOfBytes": "32",
						"value": "t_bool"
					},
					"t_mapping(t_address,t_uint256)": {
						"encoding": "mapping",
						"key": "t_address",
						"label": "mapping(address => uint256)",
						"numberOfBytes": "32",
						"value": "t_uint256"
					},
					"t_mapping(t_uint256,t_struct(Requests)175_storage)": {
						"encoding": "mapping",
						"key": "t_uint256",
						"label": "mapping(uint256 => struct main.Requests)",
						"numberOfBytes": "32",
						"value": "t_struct(Requests)175_storage"
					},
					"t_string_storage": {
						"encoding": "bytes",
						"label": "string",
						"numberOfBytes": "32"
					},
					"t_struct(Requests)175_storage": {
						"encoding": "inplace",
						"label": "struct main.Requests",
						"members": [
							{
								"astId": 162,
								"contract": "CrowdFunding.sol:main",
								"label": "description",
								"offset": 0,
								"slot": "0",
								"type": "t_string_storage"
							},
							{
								"astId": 164,
								"contract": "CrowdFunding.sol:main",
								"label": "amount",
								"offset": 0,
								"slot": "1",
								"type": "t_uint256"
							},
							{
								"astId": 166,
								"contract": "CrowdFunding.sol:main",
								"label": "receiver",
								"offset": 0,
								"slot": "2",
								"type": "t_address_payable"
							},
							{
								"astId": 168,
								"contract": "CrowdFunding.sol:main",
								"label": "noOfVotes",
								"offset": 0,
								"slot": "3",
								"type": "t_uint256"
							},
							{
								"astId": 172,
								"contract": "CrowdFunding.sol:main",
								"label": "votes",
								"offset": 0,
								"slot": "4",
								"type": "t_mapping(t_address,t_bool)"
							},
							{
								"astId": 174,
								"contract": "CrowdFunding.sol:main",
								"label": "completed",
								"offset": 0,
								"slot": "5",
								"type": "t_bool"
							}
						],
						"numberOfBytes": "192"
					},
					"t_uint256": {
						"encoding": "inplace",
						"label": "uint256",
						"numberOfBytes": "32"
					}
				}
			},
			"userdoc": {
				"kind": "user",
				"methods": {},
				"version": 1
			}
		}
	}
}