{
	"CrowdFunding.sol": {
		"main": {
			"abi": [
				{
					"inputs": [
						{
							"internalType": "uint256",
							"name": "_goal",
							"type": "uint256"
						},
						{
							"internalType": "uint256",
							"name": "_timePeriod",
							"type": "uint256"
						}
					],
					"stateMutability": "nonpayable",
					"type": "constructor"
				},
				{
					"inputs": [
						{
							"internalType": "uint256",
							"name": "",
							"type": "uint256"
						}
					],
					"name": "AllRequests",
					"outputs": [
						{
							"internalType": "string",
							"name": "description",
							"type": "string"
						},
						{
							"internalType": "uint256",
							"name": "amount",
							"type": "uint256"
						},
						{
							"internalType": "address payable",
							"name": "receiver",
							"type": "address"
						},
						{
							"internalType": "uint256",
							"name": "noOfVotes",
							"type": "uint256"
						},
						{
							"internalType": "bool",
							"name": "completed",
							"type": "bool"
						}
					],
					"stateMutability": "view",
					"type": "function"
				},
				{
					"inputs": [],
					"name": "contribution",
					"outputs": [],
					"stateMutability": "payable",
					"type": "function"
				},
				{
					"inputs": [
						{
							"internalType": "string",
							"name": "_description",
							"type": "string"
						},
						{
							"internalType": "uint256",
							"name": "_amount",
							"type": "uint256"
						},
						{
							"internalType": "address payable",
							"name": "_receiver",
							"type": "address"
						}
					],
					"name": "createRequests",
					"outputs": [],
					"stateMutability": "nonpayable",
					"type": "function"
				},
				{
					"inputs": [
						{
							"internalType": "address",
							"name": "",
							"type": "address"
						}
					],
					"name": "funders",
					"outputs": [
						{
							"internalType": "uint256",
							"name": "",
							"type": "uint256"
						}
					],
					"stateMutability": "view",
					"type": "function"
				},
				{
					"inputs": [],
					"name": "fundsRaised",
					"outputs": [
						{
							"internalType": "uint256",
							"name": "",
							"type": "uint256"
						}
					],
					"stateMutability": "view",
					"type": "function"
				},
				{
					"inputs": [],
					"name": "getRefund",
					"outputs": [],
					"stateMutability": "nonpayable",
					"type": "function"
				},
				{
					"inputs": [],
					"name": "goal",
					"outputs": [
						{
							"internalType": "uint256",
							"name": "",
							"type": "uint256"
						}
					],
					"stateMutability": "view",
					"type": "function"
				},
				{
					"inputs": [
						{
							"internalType": "uint256",
							"name": "_reqNum",
							"type": "uint256"
						}
					],
					"name": "makePayment",
					"outputs": [],
					"stateMutability": "nonpayable",
					"type": "function"
				},
				{
					"inputs": [],
					"name": "minAmount",
					"outputs": [
						{
							"internalType": "uint256",
							"name": "",
							"type": "uint256"
						}
					],
					"stateMutability": "view",
					"type": "function"
				},
				{
					"inputs": [],
					"name": "noOfFounders",
					"outputs": [
						{
							"internalType": "uint256",
							"name": "",
							"type": "uint256"
						}
					],
					"stateMutability": "view",
					"type": "function"
				},
				{
					"inputs": [],
					"name": "numReq",
					"outputs": [
						{
							"internalType": "uint256",
							"name": "",
							"type": "uint256"
						}
					],
					"stateMutability": "view",
					"type": "function"
				},
				{
					"inputs": [],
					"name": "owner",
					"outputs": [
						{
							"internalType": "address",
							"name": "",
							"type": "address"
						}
					],
					"stateMutability": "view",
					"type": "function"
				},
				{
					"inputs": [],
					"name": "timePeriod",
					"outputs": [
						{
							"internalType": "uint256",
							"name": "",
							"type": "uint256"
						}
					],
					"stateMutability": "view",
					"type": "function"
				},
				{
					"inputs": [
						{
							"internalType": "uint256",
							"name": "_reqNum",
							"type": "uint256"
						}
					],
					"name": "votingForRequest",
					"outputs": [],
					"stateMutability": "nonpayable",
					"type": "function"
				},
				{
					"stateMutability": "payable",
					"type": "receive"
				}
			],
			"devdoc": {
				"kind": "dev",
				"methods": {},
				"version": 1
			},
			"evm": {
				"assembly": "    /* \"CrowdFunding.sol\":59:2629  contract main {\r... */\n  mstore(0x40, 0x80)\n    /* \"CrowdFunding.sol\":311:496  constructor(uint _goal, uint _timePeriod){\r... */\n  callvalue\n  dup1\n  iszero\n  tag_1\n  jumpi\n  0x00\n  dup1\n  revert\ntag_1:\n  pop\n  mload(0x40)\n  sub(codesize, bytecodeSize)\n  dup1\n  bytecodeSize\n  dup4\n  codecopy\n  dup2\n  dup2\n  add\n  0x40\n  mstore\n  dup2\n  add\n  swap1\n  tag_2\n  swap2\n  swap1\n  tag_3\n  jump\t// in\ntag_2:\n    /* \"CrowdFunding.sol\":370:375  _goal */\n  dup2\n    /* \"CrowdFunding.sol\":363:367  goal */\n  0x02\n    /* \"CrowdFunding.sol\":363:375  goal = _goal */\n  dup2\n  swap1\n  sstore\n  pop\n    /* \"CrowdFunding.sol\":417:428  _timePeriod */\n  dup1\n    /* \"CrowdFunding.sol\":399:414  block.timestamp */\n  timestamp\n    /* \"CrowdFunding.sol\":399:428  block.timestamp + _timePeriod */\n  tag_6\n  swap2\n  swap1\n  tag_7\n  jump\t// in\ntag_6:\n    /* \"CrowdFunding.sol\":386:396  timePeriod */\n  0x06\n    /* \"CrowdFunding.sol\":386:428  timePeriod = block.timestamp + _timePeriod */\n  dup2\n  swap1\n  sstore\n  pop\n    /* \"CrowdFunding.sol\":447:457  msg.sender */\n  caller\n    /* \"CrowdFunding.sol\":439:444  owner */\n  0x00\n  dup1\n    /* \"CrowdFunding.sol\":439:457  owner = msg.sender */\n  0x0100\n  exp\n  dup2\n  sload\n  dup2\n  0xffffffffffffffffffffffffffffffffffffffff\n  mul\n  not\n  and\n  swap1\n  dup4\n  0xffffffffffffffffffffffffffffffffffffffff\n  and\n  mul\n  or\n  swap1\n  sstore\n  pop\n    /* \"CrowdFunding.sol\":480:488  1000 wei */\n  0x03e8\n    /* \"CrowdFunding.sol\":468:477  minAmount */\n  0x03\n    /* \"CrowdFunding.sol\":468:488  minAmount = 1000 wei */\n  dup2\n  swap1\n  sstore\n  pop\n    /* \"CrowdFunding.sol\":311:496  constructor(uint _goal, uint _timePeriod){\r... */\n  pop\n  pop\n    /* \"CrowdFunding.sol\":59:2629  contract main {\r... */\n  jump(tag_8)\n    /* \"#utility.yul\":7:150   */\ntag_10:\n    /* \"#utility.yul\":64:69   */\n  0x00\n    /* \"#utility.yul\":95:101   */\n  dup2\n    /* \"#utility.yul\":89:102   */\n  mload\n    /* \"#utility.yul\":80:102   */\n  swap1\n  pop\n    /* \"#utility.yul\":111:144   */\n  tag_12\n    /* \"#utility.yul\":138:143   */\n  dup2\n    /* \"#utility.yul\":111:144   */\n  tag_13\n  jump\t// in\ntag_12:\n    /* \"#utility.yul\":7:150   */\n  swap3\n  swap2\n  pop\n  pop\n  jump\t// out\n    /* \"#utility.yul\":156:663   */\ntag_3:\n    /* \"#utility.yul\":235:241   */\n  0x00\n    /* \"#utility.yul\":243:249   */\n  dup1\n    /* \"#utility.yul\":292:294   */\n  0x40\n    /* \"#utility.yul\":280:289   */\n  dup4\n    /* \"#utility.yul\":271:278   */\n  dup6\n    /* \"#utility.yul\":267:290   */\n  sub\n    /* \"#utility.yul\":263:295   */\n  slt\n    /* \"#utility.yul\":260:379   */\n  iszero\n  tag_15\n  jumpi\n    /* \"#utility.yul\":298:377   */\n  tag_16\n  tag_17\n  jump\t// in\ntag_16:\n    /* \"#utility.yul\":260:379   */\ntag_15:\n    /* \"#utility.yul\":418:419   */\n  0x00\n    /* \"#utility.yul\":443:507   */\n  tag_18\n    /* \"#utility.yul\":499:506   */\n  dup6\n    /* \"#utility.yul\":490:496   */\n  dup3\n    /* \"#utility.yul\":479:488   */\n  dup7\n    /* \"#utility.yul\":475:497   */\n  add\n    /* \"#utility.yul\":443:507   */\n  tag_10\n  jump\t// in\ntag_18:\n    /* \"#utility.yul\":433:507   */\n  swap3\n  pop\n    /* \"#utility.yul\":389:517   */\n  pop\n    /* \"#utility.yul\":556:558   */\n  0x20\n    /* \"#utility.yul\":582:646   */\n  tag_19\n    /* \"#utility.yul\":638:645   */\n  dup6\n    /* \"#utility.yul\":629:635   */\n  dup3\n    /* \"#utility.yul\":618:627   */\n  dup7\n    /* \"#utility.yul\":614:636   */\n  add\n    /* \"#utility.yul\":582:646   */\n  tag_10\n  jump\t// in\ntag_19:\n    /* \"#utility.yul\":572:646   */\n  swap2\n  pop\n    /* \"#utility.yul\":527:656   */\n  pop\n    /* \"#utility.yul\":156:663   */\n  swap3\n  pop\n  swap3\n  swap1\n  pop\n  jump\t// out\n    /* \"#utility.yul\":750:1055   */\ntag_7:\n    /* \"#utility.yul\":790:793   */\n  0x00\n    /* \"#utility.yul\":809:829   */\n  tag_23\n    /* \"#utility.yul\":827:828   */\n  dup3\n    /* \"#utility.yul\":809:829   */\n  tag_24\n  jump\t// in\ntag_23:\n    /* \"#utility.yul\":804:829   */\n  swap2\n  pop\n    /* \"#utility.yul\":843:863   */\n  tag_25\n    /* \"#utility.yul\":861:862   */\n  dup4\n    /* \"#utility.yul\":843:863   */\n  tag_24\n  jump\t// in\ntag_25:\n    /* \"#utility.yul\":838:863   */\n  swap3\n  pop\n    /* \"#utility.yul\":997:998   */\n  dup3\n    /* \"#utility.yul\":929:995   */\n  0xffffffffffffffffffffffffffffffffffffffffffffffffffffffffffffffff\n    /* \"#utility.yul\":925:999   */\n  sub\n    /* \"#utility.yul\":922:923   */\n  dup3\n    /* \"#utility.yul\":919:1000   */\n  gt\n    /* \"#utility.yul\":916:1023   */\n  iszero\n  tag_26\n  jumpi\n    /* \"#utility.yul\":1003:1021   */\n  tag_27\n  tag_28\n  jump\t// in\ntag_27:\n    /* \"#utility.yul\":916:1023   */\ntag_26:\n    /* \"#utility.yul\":1047:1048   */\n  dup3\n    /* \"#utility.yul\":1044:1045   */\n  dup3\n    /* \"#utility.yul\":1040:1049   */\n  add\n    /* \"#utility.yul\":1033:1049   */\n  swap1\n  pop\n    /* \"#utility.yul\":750:1055   */\n  swap3\n  swap2\n  pop\n  pop\n  jump\t// out\n    /* \"#utility.yul\":1061:1138   */\ntag_24:\n    /* \"#utility.yul\":1098:1105   */\n  0x00\n    /* \"#utility.yul\":1127:1132   */\n  dup2\n    /* \"#utility.yul\":1116:1132   */\n  swap1\n  pop\n    /* \"#utility.yul\":1061:1138   */\n  swap2\n  swap1\n  pop\n  jump\t// out\n    /* \"#utility.yul\":1144:1324   */\ntag_28:\n    /* \"#utility.yul\":1192:1269   */\n  0x4e487b7100000000000000000000000000000000000000000000000000000000\n    /* \"#utility.yul\":1189:1190   */\n  0x00\n    /* \"#utility.yul\":1182:1270   */\n  mstore\n    /* \"#utility.yul\":1289:1293   */\n  0x11\n    /* \"#utility.yul\":1286:1287   */\n  0x04\n    /* \"#utility.yul\":1279:1294   */\n  mstore\n    /* \"#utility.yul\":1313:1317   */\n  0x24\n    /* \"#utility.yul\":1310:1311   */\n  0x00\n    /* \"#utility.yul\":1303:1318   */\n  revert\n    /* \"#utility.yul\":1453:1570   */\ntag_17:\n    /* \"#utility.yul\":1562:1563   */\n  0x00\n    /* \"#utility.yul\":1559:1560   */\n  dup1\n    /* \"#utility.yul\":1552:1564   */\n  revert\n    /* \"#utility.yul\":1576:1698   */\ntag_13:\n    /* \"#utility.yul\":1649:1673   */\n  tag_35\n    /* \"#utility.yul\":1667:1672   */\n  dup2\n    /* \"#utility.yul\":1649:1673   */\n  tag_24\n  jump\t// in\ntag_35:\n    /* \"#utility.yul\":1642:1647   */\n  dup2\n    /* \"#utility.yul\":1639:1674   */\n  eq\n    /* \"#utility.yul\":1629:1692   */\n  tag_36\n  jumpi\n    /* \"#utility.yul\":1688:1689   */\n  0x00\n    /* \"#utility.yul\":1685:1686   */\n  dup1\n    /* \"#utility.yul\":1678:1690   */\n  revert\n    /* \"#utility.yul\":1629:1692   */\ntag_36:\n    /* \"#utility.yul\":1576:1698   */\n  pop\n  jump\t// out\n    /* \"CrowdFunding.sol\":59:2629  contract main {\r... */\ntag_8:\n  dataSize(sub_0)\n  dup1\n  dataOffset(sub_0)\n  0x00\n  codecopy\n  0x00\n  return\nstop\n\nsub_0: assembly {\n        /* \"CrowdFunding.sol\":59:2629  contract main {\r... */\n      mstore(0x40, 0x80)\n      jumpi(tag_1, lt(calldatasize, 0x04))\n      shr(0xe0, calldataload(0x00))\n      dup1\n      0x5114cb52\n      gt\n      tag_17\n      jumpi\n      dup1\n      0x9b2cb5d8\n      gt\n      tag_18\n      jumpi\n      dup1\n      0x9b2cb5d8\n      eq\n      tag_13\n      jumpi\n      dup1\n      0xb0636556\n      eq\n      tag_14\n      jumpi\n      dup1\n      0xb2d5ae44\n      eq\n      tag_15\n      jumpi\n      dup1\n      0xe89b7c55\n      eq\n      tag_16\n      jumpi\n      jump(tag_2)\n    tag_18:\n      dup1\n      0x5114cb52\n      eq\n      tag_10\n      jumpi\n      dup1\n      0x6681b9fd\n      eq\n      tag_11\n      jumpi\n      dup1\n      0x8da5cb5b\n      eq\n      tag_12\n      jumpi\n      jump(tag_2)\n    tag_17:\n      dup1\n      0x3c2ed32d\n      gt\n      tag_19\n      jumpi\n      dup1\n      0x3c2ed32d\n      eq\n      tag_6\n      jumpi\n      dup1\n      0x3e79d1e1\n      eq\n      tag_7\n      jumpi\n      dup1\n      0x40193883\n      eq\n      tag_8\n      jumpi\n      dup1\n      0x50520b1f\n      eq\n      tag_9\n      jumpi\n      jump(tag_2)\n    tag_19:\n      dup1\n      0x0114bd3f\n      eq\n      tag_3\n      jumpi\n      dup1\n      0x031b3677\n      eq\n      tag_4\n      jumpi\n      dup1\n      0x277c3da4\n      eq\n      tag_5\n      jumpi\n      jump(tag_2)\n    tag_1:\n      jumpi(tag_2, calldatasize)\n      stop\n    tag_2:\n      0x00\n      dup1\n      revert\n        /* \"CrowdFunding.sol\":1607:1652  mapping (uint => Requests) public AllRequests */\n    tag_3:\n      callvalue\n      dup1\n      iszero\n      tag_22\n      jumpi\n      0x00\n      dup1\n      revert\n    tag_22:\n      pop\n      tag_23\n      0x04\n      dup1\n      calldatasize\n      sub\n      dup2\n      add\n      swap1\n      tag_24\n      swap2\n      swap1\n      tag_25\n      jump\t// in\n    tag_24:\n      tag_26\n      jump\t// in\n    tag_23:\n      mload(0x40)\n      tag_27\n      swap6\n      swap5\n      swap4\n      swap3\n      swap2\n      swap1\n      tag_28\n      jump\t// in\n    tag_27:\n      mload(0x40)\n      dup1\n      swap2\n      sub\n      swap1\n      return\n        /* \"CrowdFunding.sol\":109:149  mapping (address => uint) public funders */\n    tag_4:\n      callvalue\n      dup1\n      iszero\n      tag_29\n      jumpi\n      0x00\n      dup1\n      revert\n    tag_29:\n      pop\n      tag_30\n      0x04\n      dup1\n      calldatasize\n      sub\n      dup2\n      add\n      swap1\n      tag_31\n      swap2\n      swap1\n      tag_32\n      jump\t// in\n    tag_31:\n      tag_33\n      jump\t// in\n    tag_30:\n      mload(0x40)\n      tag_34\n      swap2\n      swap1\n      tag_35\n      jump\t// in\n    tag_34:\n      mload(0x40)\n      dup1\n      swap2\n      sub\n      swap1\n      return\n        /* \"CrowdFunding.sol\":1686:2084  function createRequests(string memory _description, uint _amount, address payable _receiver) public isOwner{\r... */\n    tag_5:\n      callvalue\n      dup1\n      iszero\n      tag_36\n      jumpi\n      0x00\n      dup1\n      revert\n    tag_36:\n      pop\n      tag_37\n      0x04\n      dup1\n      calldatasize\n      sub\n      dup2\n      add\n      swap1\n      tag_38\n      swap2\n      swap1\n      tag_39\n      jump\t// in\n    tag_38:\n      tag_40\n      jump\t// in\n    tag_37:\n      stop\n        /* \"CrowdFunding.sol\":1659:1677  uint public numReq */\n    tag_6:\n      callvalue\n      dup1\n      iszero\n      tag_41\n      jumpi\n      0x00\n      dup1\n      revert\n    tag_41:\n      pop\n      tag_42\n      tag_43\n      jump\t// in\n    tag_42:\n      mload(0x40)\n      tag_44\n      swap2\n      swap1\n      tag_35\n      jump\t// in\n    tag_44:\n      mload(0x40)\n      dup1\n      swap2\n      sub\n      swap1\n      return\n        /* \"CrowdFunding.sol\":268:290  uint public timePeriod */\n    tag_7:\n      callvalue\n      dup1\n      iszero\n      tag_45\n      jumpi\n      0x00\n      dup1\n      revert\n    tag_45:\n      pop\n      tag_46\n      tag_47\n      jump\t// in\n    tag_46:\n      mload(0x40)\n      tag_48\n      swap2\n      swap1\n      tag_35\n      jump\t// in\n    tag_48:\n      mload(0x40)\n      dup1\n      swap2\n      sub\n      swap1\n      return\n        /* \"CrowdFunding.sol\":156:172  uint public goal */\n    tag_8:\n      callvalue\n      dup1\n      iszero\n      tag_49\n      jumpi\n      0x00\n      dup1\n      revert\n    tag_49:\n      pop\n      tag_50\n      tag_51\n      jump\t// in\n    tag_50:\n      mload(0x40)\n      tag_52\n      swap2\n      swap1\n      tag_35\n      jump\t// in\n    tag_52:\n      mload(0x40)\n      dup1\n      swap2\n      sub\n      swap1\n      return\n        /* \"CrowdFunding.sol\":647:1011  function contribution() public payable{\r... */\n    tag_9:\n      tag_53\n      tag_54\n      jump\t// in\n    tag_53:\n      stop\n        /* \"CrowdFunding.sol\":2431:2624  function makePayment(uint _reqNum) public {\r... */\n    tag_10:\n      callvalue\n      dup1\n      iszero\n      tag_55\n      jumpi\n      0x00\n      dup1\n      revert\n    tag_55:\n      pop\n      tag_56\n      0x04\n      dup1\n      calldatasize\n      sub\n      dup2\n      add\n      swap1\n      tag_57\n      swap2\n      swap1\n      tag_25\n      jump\t// in\n    tag_57:\n      tag_58\n      jump\t// in\n    tag_56:\n      stop\n        /* \"CrowdFunding.sol\":238:261  uint public fundsRaised */\n    tag_11:\n      callvalue\n      dup1\n      iszero\n      tag_59\n      jumpi\n      0x00\n      dup1\n      revert\n    tag_59:\n      pop\n      tag_60\n      tag_61\n      jump\t// in\n    tag_60:\n      mload(0x40)\n      tag_62\n      swap2\n      swap1\n      tag_35\n      jump\t// in\n    tag_62:\n      mload(0x40)\n      dup1\n      swap2\n      sub\n      swap1\n      return\n        /* \"CrowdFunding.sol\":82:102  address public owner */\n    tag_12:\n      callvalue\n      dup1\n      iszero\n      tag_63\n      jumpi\n      0x00\n      dup1\n      revert\n    tag_63:\n      pop\n      tag_64\n      tag_65\n      jump\t// in\n    tag_64:\n      mload(0x40)\n      tag_66\n      swap2\n      swap1\n      tag_67\n      jump\t// in\n    tag_66:\n      mload(0x40)\n      dup1\n      swap2\n      sub\n      swap1\n      return\n        /* \"CrowdFunding.sol\":179:200  uint public minAmount */\n    tag_13:\n      callvalue\n      dup1\n      iszero\n      tag_68\n      jumpi\n      0x00\n      dup1\n      revert\n    tag_68:\n      pop\n      tag_69\n      tag_70\n      jump\t// in\n    tag_69:\n      mload(0x40)\n      tag_71\n      swap2\n      swap1\n      tag_35\n      jump\t// in\n    tag_71:\n      mload(0x40)\n      dup1\n      swap2\n      sub\n      swap1\n      return\n        /* \"CrowdFunding.sol\":2092:2423  function votingForRequest(uint _reqNum) public{\r... */\n    tag_14:\n      callvalue\n      dup1\n      iszero\n      tag_72\n      jumpi\n      0x00\n      dup1\n      revert\n    tag_72:\n      pop\n      tag_73\n      0x04\n      dup1\n      calldatasize\n      sub\n      dup2\n      add\n      swap1\n      tag_74\n      swap2\n      swap1\n      tag_25\n      jump\t// in\n    tag_74:\n      tag_75\n      jump\t// in\n    tag_73:\n      stop\n        /* \"CrowdFunding.sol\":1019:1391  function getRefund() public {\r... */\n    tag_15:\n      callvalue\n      dup1\n      iszero\n      tag_76\n      jumpi\n      0x00\n      dup1\n      revert\n    tag_76:\n      pop\n      tag_77\n      tag_78\n      jump\t// in\n    tag_77:\n      stop\n        /* \"CrowdFunding.sol\":207:231  uint public noOfFounders */\n    tag_16:\n      callvalue\n      dup1\n      iszero\n      tag_79\n      jumpi\n      0x00\n      dup1\n      revert\n    tag_79:\n      pop\n      tag_80\n      tag_81\n      jump\t// in\n    tag_80:\n      mload(0x40)\n      tag_82\n      swap2\n      swap1\n      tag_35\n      jump\t// in\n    tag_82:\n      mload(0x40)\n      dup1\n      swap2\n      sub\n      swap1\n      return\n        /* \"CrowdFunding.sol\":1607:1652  mapping (uint => Requests) public AllRequests */\n    tag_26:\n      mstore(0x20, 0x07)\n      dup1\n      0x00\n      mstore\n      keccak256(0x00, 0x40)\n      0x00\n      swap2\n      pop\n      swap1\n      pop\n      dup1\n      0x00\n      add\n      dup1\n      sload\n      tag_83\n      swap1\n      tag_84\n      jump\t// in\n    tag_83:\n      dup1\n      0x1f\n      add\n      0x20\n      dup1\n      swap2\n      div\n      mul\n      0x20\n      add\n      mload(0x40)\n      swap1\n      dup2\n      add\n      0x40\n      mstore\n      dup1\n      swap3\n      swap2\n      swap1\n      dup2\n      dup2\n      mstore\n      0x20\n      add\n      dup3\n      dup1\n      sload\n      tag_85\n      swap1\n      tag_84\n      jump\t// in\n    tag_85:\n      dup1\n      iszero\n      tag_86\n      jumpi\n      dup1\n      0x1f\n      lt\n      tag_87\n      jumpi\n      0x0100\n      dup1\n      dup4\n      sload\n      div\n      mul\n      dup4\n      mstore\n      swap2\n      0x20\n      add\n      swap2\n      jump(tag_86)\n    tag_87:\n      dup3\n      add\n      swap2\n      swap1\n      0x00\n      mstore\n      keccak256(0x00, 0x20)\n      swap1\n    tag_88:\n      dup2\n      sload\n      dup2\n      mstore\n      swap1\n      0x01\n      add\n      swap1\n      0x20\n      add\n      dup1\n      dup4\n      gt\n      tag_88\n      jumpi\n      dup3\n      swap1\n      sub\n      0x1f\n      and\n      dup3\n      add\n      swap2\n    tag_86:\n      pop\n      pop\n      pop\n      pop\n      pop\n      swap1\n      dup1\n      0x01\n      add\n      sload\n      swap1\n      dup1\n      0x02\n      add\n      0x00\n      swap1\n      sload\n      swap1\n      0x0100\n      exp\n      swap1\n      div\n      0xffffffffffffffffffffffffffffffffffffffff\n      and\n      swap1\n      dup1\n      0x03\n      add\n      sload\n      swap1\n      dup1\n      0x05\n      add\n      0x00\n      swap1\n      sload\n      swap1\n      0x0100\n      exp\n      swap1\n      div\n      0xff\n      and\n      swap1\n      pop\n      dup6\n      jump\t// out\n        /* \"CrowdFunding.sol\":109:149  mapping (address => uint) public funders */\n    tag_33:\n      mstore(0x20, 0x01)\n      dup1\n      0x00\n      mstore\n      keccak256(0x00, 0x40)\n      0x00\n      swap2\n      pop\n      swap1\n      pop\n      sload\n      dup2\n      jump\t// out\n        /* \"CrowdFunding.sol\":1686:2084  function createRequests(string memory _description, uint _amount, address payable _receiver) public isOwner{\r... */\n    tag_40:\n        /* \"CrowdFunding.sol\":587:597  msg.sender */\n      caller\n        /* \"CrowdFunding.sol\":578:597  owner == msg.sender */\n      0xffffffffffffffffffffffffffffffffffffffff\n      and\n        /* \"CrowdFunding.sol\":578:583  owner */\n      0x00\n      dup1\n      sload\n      swap1\n      0x0100\n      exp\n      swap1\n      div\n      0xffffffffffffffffffffffffffffffffffffffff\n      and\n        /* \"CrowdFunding.sol\":578:597  owner == msg.sender */\n      0xffffffffffffffffffffffffffffffffffffffff\n      and\n      eq\n        /* \"CrowdFunding.sol\":570:619  require(owner == msg.sender, \"You are not owner\") */\n      tag_90\n      jumpi\n      mload(0x40)\n      0x08c379a000000000000000000000000000000000000000000000000000000000\n      dup2\n      mstore\n      0x04\n      add\n      tag_91\n      swap1\n      tag_92\n      jump\t// in\n    tag_91:\n      mload(0x40)\n      dup1\n      swap2\n      sub\n      swap1\n      revert\n    tag_90:\n        /* \"CrowdFunding.sol\":1804:1831  Requests storage newRequest */\n      0x00\n        /* \"CrowdFunding.sol\":1834:1845  AllRequests */\n      0x07\n        /* \"CrowdFunding.sol\":1834:1853  AllRequests[numReq] */\n      0x00\n        /* \"CrowdFunding.sol\":1846:1852  numReq */\n      sload(0x08)\n        /* \"CrowdFunding.sol\":1834:1853  AllRequests[numReq] */\n      dup2\n      mstore\n      0x20\n      add\n      swap1\n      dup2\n      mstore\n      0x20\n      add\n      0x00\n      keccak256\n        /* \"CrowdFunding.sol\":1804:1853  Requests storage newRequest = AllRequests[numReq] */\n      swap1\n      pop\n        /* \"CrowdFunding.sol\":1864:1870  numReq */\n      0x08\n      0x00\n        /* \"CrowdFunding.sol\":1864:1872  numReq++ */\n      dup2\n      sload\n      dup1\n      swap3\n      swap2\n      swap1\n      tag_94\n      swap1\n      tag_95\n      jump\t// in\n    tag_94:\n      swap2\n      swap1\n      pop\n      sstore\n      pop\n        /* \"CrowdFunding.sol\":1910:1922  _description */\n      dup4\n        /* \"CrowdFunding.sol\":1885:1895  newRequest */\n      dup2\n        /* \"CrowdFunding.sol\":1885:1907  newRequest.description */\n      0x00\n      add\n        /* \"CrowdFunding.sol\":1885:1922  newRequest.description = _description */\n      swap1\n      dup1\n      mload\n      swap1\n      0x20\n      add\n      swap1\n      tag_96\n      swap3\n      swap2\n      swap1\n      tag_97\n      jump\t// in\n    tag_96:\n      pop\n        /* \"CrowdFunding.sol\":1953:1960  _amount */\n      dup3\n        /* \"CrowdFunding.sol\":1933:1943  newRequest */\n      dup2\n        /* \"CrowdFunding.sol\":1933:1950  newRequest.amount */\n      0x01\n      add\n        /* \"CrowdFunding.sol\":1933:1960  newRequest.amount = _amount */\n      dup2\n      swap1\n      sstore\n      pop\n        /* \"CrowdFunding.sol\":1994:1999  false */\n      0x00\n        /* \"CrowdFunding.sol\":1971:1981  newRequest */\n      dup2\n        /* \"CrowdFunding.sol\":1971:1991  newRequest.completed */\n      0x05\n      add\n      0x00\n        /* \"CrowdFunding.sol\":1971:1999  newRequest.completed = false */\n      0x0100\n      exp\n      dup2\n      sload\n      dup2\n      0xff\n      mul\n      not\n      and\n      swap1\n      dup4\n      iszero\n      iszero\n      mul\n      or\n      swap1\n      sstore\n      pop\n        /* \"CrowdFunding.sol\":2033:2034  0 */\n      0x00\n        /* \"CrowdFunding.sol\":2010:2020  newRequest */\n      dup2\n        /* \"CrowdFunding.sol\":2010:2030  newRequest.noOfVotes */\n      0x03\n      add\n        /* \"CrowdFunding.sol\":2010:2034  newRequest.noOfVotes = 0 */\n      dup2\n      swap1\n      sstore\n      pop\n        /* \"CrowdFunding.sol\":2067:2076  _receiver */\n      dup2\n        /* \"CrowdFunding.sol\":2045:2055  newRequest */\n      dup2\n        /* \"CrowdFunding.sol\":2045:2064  newRequest.receiver */\n      0x02\n      add\n      0x00\n        /* \"CrowdFunding.sol\":2045:2076  newRequest.receiver = _receiver */\n      0x0100\n      exp\n      dup2\n      sload\n      dup2\n      0xffffffffffffffffffffffffffffffffffffffff\n      mul\n      not\n      and\n      swap1\n      dup4\n      0xffffffffffffffffffffffffffffffffffffffff\n      and\n      mul\n      or\n      swap1\n      sstore\n      pop\n        /* \"CrowdFunding.sol\":1793:2084  {\r... */\n      pop\n        /* \"CrowdFunding.sol\":1686:2084  function createRequests(string memory _description, uint _amount, address payable _receiver) public isOwner{\r... */\n      pop\n      pop\n      pop\n      jump\t// out\n        /* \"CrowdFunding.sol\":1659:1677  uint public numReq */\n    tag_43:\n      sload(0x08)\n      dup2\n      jump\t// out\n        /* \"CrowdFunding.sol\":268:290  uint public timePeriod */\n    tag_47:\n      sload(0x06)\n      dup2\n      jump\t// out\n        /* \"CrowdFunding.sol\":156:172  uint public goal */\n    tag_51:\n      sload(0x02)\n      dup2\n      jump\t// out\n        /* \"CrowdFunding.sol\":647:1011  function contribution() public payable{\r... */\n    tag_54:\n        /* \"CrowdFunding.sol\":722:732  timePeriod */\n      sload(0x06)\n        /* \"CrowdFunding.sol\":704:719  block.timestamp */\n      timestamp\n        /* \"CrowdFunding.sol\":704:732  block.timestamp < timePeriod */\n      lt\n        /* \"CrowdFunding.sol\":696:753  require(block.timestamp < timePeriod, \"Funding is over!\") */\n      tag_99\n      jumpi\n      mload(0x40)\n      0x08c379a000000000000000000000000000000000000000000000000000000000\n      dup2\n      mstore\n      0x04\n      add\n      tag_100\n      swap1\n      tag_101\n      jump\t// in\n    tag_100:\n      mload(0x40)\n      dup1\n      swap2\n      sub\n      swap1\n      revert\n    tag_99:\n        /* \"CrowdFunding.sol\":785:794  minAmount */\n      sload(0x03)\n        /* \"CrowdFunding.sol\":772:781  msg.value */\n      callvalue\n        /* \"CrowdFunding.sol\":772:794  msg.value >= minAmount */\n      lt\n      iszero\n        /* \"CrowdFunding.sol\":764:834  require(msg.value >= minAmount, \"Minimum amount criteria not satisfy\") */\n      tag_102\n      jumpi\n      mload(0x40)\n      0x08c379a000000000000000000000000000000000000000000000000000000000\n      dup2\n      mstore\n      0x04\n      add\n      tag_103\n      swap1\n      tag_104\n      jump\t// in\n    tag_103:\n      mload(0x40)\n      dup1\n      swap2\n      sub\n      swap1\n      revert\n    tag_102:\n        /* \"CrowdFunding.sol\":873:874  0 */\n      0x00\n        /* \"CrowdFunding.sol\":850:857  funders */\n      0x01\n        /* \"CrowdFunding.sol\":850:869  funders[msg.sender] */\n      0x00\n        /* \"CrowdFunding.sol\":858:868  msg.sender */\n      caller\n        /* \"CrowdFunding.sol\":850:869  funders[msg.sender] */\n      0xffffffffffffffffffffffffffffffffffffffff\n      and\n      0xffffffffffffffffffffffffffffffffffffffff\n      and\n      dup2\n      mstore\n      0x20\n      add\n      swap1\n      dup2\n      mstore\n      0x20\n      add\n      0x00\n      keccak256\n      sload\n        /* \"CrowdFunding.sol\":850:874  funders[msg.sender] == 0 */\n      eq\n        /* \"CrowdFunding.sol\":847:916  if(funders[msg.sender] == 0){\r... */\n      iszero\n      tag_105\n      jumpi\n        /* \"CrowdFunding.sol\":890:902  noOfFounders */\n      0x04\n      0x00\n        /* \"CrowdFunding.sol\":890:904  noOfFounders++ */\n      dup2\n      sload\n      dup1\n      swap3\n      swap2\n      swap1\n      tag_106\n      swap1\n      tag_95\n      jump\t// in\n    tag_106:\n      swap2\n      swap1\n      pop\n      sstore\n      pop\n        /* \"CrowdFunding.sol\":847:916  if(funders[msg.sender] == 0){\r... */\n    tag_105:\n        /* \"CrowdFunding.sol\":959:968  msg.value */\n      callvalue\n        /* \"CrowdFunding.sol\":936:943  funders */\n      0x01\n        /* \"CrowdFunding.sol\":936:955  funders[msg.sender] */\n      0x00\n        /* \"CrowdFunding.sol\":944:954  msg.sender */\n      caller\n        /* \"CrowdFunding.sol\":936:955  funders[msg.sender] */\n      0xffffffffffffffffffffffffffffffffffffffff\n      and\n      0xffffffffffffffffffffffffffffffffffffffff\n      and\n      dup2\n      mstore\n      0x20\n      add\n      swap1\n      dup2\n      mstore\n      0x20\n      add\n      0x00\n      keccak256\n      0x00\n        /* \"CrowdFunding.sol\":936:968  funders[msg.sender] += msg.value */\n      dup3\n      dup3\n      sload\n      tag_107\n      swap2\n      swap1\n      tag_108\n      jump\t// in\n    tag_107:\n      swap3\n      pop\n      pop\n      dup2\n      swap1\n      sstore\n      pop\n        /* \"CrowdFunding.sol\":994:1003  msg.value */\n      callvalue\n        /* \"CrowdFunding.sol\":979:990  fundsRaised */\n      0x05\n      0x00\n        /* \"CrowdFunding.sol\":979:1003  fundsRaised += msg.value */\n      dup3\n      dup3\n      sload\n      tag_109\n      swap2\n      swap1\n      tag_108\n      jump\t// in\n    tag_109:\n      swap3\n      pop\n      pop\n      dup2\n      swap1\n      sstore\n      pop\n        /* \"CrowdFunding.sol\":647:1011  function contribution() public payable{\r... */\n      jump\t// out\n        /* \"CrowdFunding.sol\":2431:2624  function makePayment(uint _reqNum) public {\r... */\n    tag_58:\n        /* \"CrowdFunding.sol\":2484:2512  Requests storage thisRequest */\n      0x00\n        /* \"CrowdFunding.sol\":2515:2526  AllRequests */\n      0x07\n        /* \"CrowdFunding.sol\":2515:2535  AllRequests[_reqNum] */\n      0x00\n        /* \"CrowdFunding.sol\":2527:2534  _reqNum */\n      dup4\n        /* \"CrowdFunding.sol\":2515:2535  AllRequests[_reqNum] */\n      dup2\n      mstore\n      0x20\n      add\n      swap1\n      dup2\n      mstore\n      0x20\n      add\n      0x00\n      keccak256\n        /* \"CrowdFunding.sol\":2484:2535  Requests storage thisRequest = AllRequests[_reqNum] */\n      swap1\n      pop\n        /* \"CrowdFunding.sol\":2579:2584  false */\n      0x00\n        /* \"CrowdFunding.sol\":2554:2584  thisRequest.completed == false */\n      iszero\n      iszero\n        /* \"CrowdFunding.sol\":2554:2565  thisRequest */\n      dup2\n        /* \"CrowdFunding.sol\":2554:2575  thisRequest.completed */\n      0x05\n      add\n      0x00\n      swap1\n      sload\n      swap1\n      0x0100\n      exp\n      swap1\n      div\n      0xff\n      and\n        /* \"CrowdFunding.sol\":2554:2584  thisRequest.completed == false */\n      iszero\n      iszero\n      eq\n        /* \"CrowdFunding.sol\":2546:2606  require(thisRequest.completed == false, \"Completed Already\") */\n      tag_111\n      jumpi\n      mload(0x40)\n      0x08c379a000000000000000000000000000000000000000000000000000000000\n      dup2\n      mstore\n      0x04\n      add\n      tag_112\n      swap1\n      tag_113\n      jump\t// in\n    tag_112:\n      mload(0x40)\n      dup1\n      swap2\n      sub\n      swap1\n      revert\n    tag_111:\n        /* \"CrowdFunding.sol\":2473:2624  {\r... */\n      pop\n        /* \"CrowdFunding.sol\":2431:2624  function makePayment(uint _reqNum) public {\r... */\n      pop\n      jump\t// out\n        /* \"CrowdFunding.sol\":238:261  uint public fundsRaised */\n    tag_61:\n      sload(0x05)\n      dup2\n      jump\t// out\n        /* \"CrowdFunding.sol\":82:102  address public owner */\n    tag_65:\n      0x00\n      dup1\n      sload\n      swap1\n      0x0100\n      exp\n      swap1\n      div\n      0xffffffffffffffffffffffffffffffffffffffff\n      and\n      dup2\n      jump\t// out\n        /* \"CrowdFunding.sol\":179:200  uint public minAmount */\n    tag_70:\n      sload(0x03)\n      dup2\n      jump\t// out\n        /* \"CrowdFunding.sol\":2092:2423  function votingForRequest(uint _reqNum) public{\r... */\n    tag_75:\n        /* \"CrowdFunding.sol\":2179:2180  0 */\n      0x00\n        /* \"CrowdFunding.sol\":2157:2164  funders */\n      0x01\n        /* \"CrowdFunding.sol\":2157:2176  funders[msg.sender] */\n      0x00\n        /* \"CrowdFunding.sol\":2165:2175  msg.sender */\n      caller\n        /* \"CrowdFunding.sol\":2157:2176  funders[msg.sender] */\n      0xffffffffffffffffffffffffffffffffffffffff\n      and\n      0xffffffffffffffffffffffffffffffffffffffff\n      and\n      dup2\n      mstore\n      0x20\n      add\n      swap1\n      dup2\n      mstore\n      0x20\n      add\n      0x00\n      keccak256\n      sload\n        /* \"CrowdFunding.sol\":2157:2180  funders[msg.sender] > 0 */\n      gt\n        /* \"CrowdFunding.sol\":2149:2197  require(funders[msg.sender] > 0, \"Not a funder\") */\n      tag_115\n      jumpi\n      mload(0x40)\n      0x08c379a000000000000000000000000000000000000000000000000000000000\n      dup2\n      mstore\n      0x04\n      add\n      tag_116\n      swap1\n      tag_117\n      jump\t// in\n    tag_116:\n      mload(0x40)\n      dup1\n      swap2\n      sub\n      swap1\n      revert\n    tag_115:\n        /* \"CrowdFunding.sol\":2208:2236  Requests storage thisRequest */\n      0x00\n        /* \"CrowdFunding.sol\":2239:2250  AllRequests */\n      0x07\n        /* \"CrowdFunding.sol\":2239:2259  AllRequests[_reqNum] */\n      0x00\n        /* \"CrowdFunding.sol\":2251:2258  _reqNum */\n      dup4\n        /* \"CrowdFunding.sol\":2239:2259  AllRequests[_reqNum] */\n      dup2\n      mstore\n      0x20\n      add\n      swap1\n      dup2\n      mstore\n      0x20\n      add\n      0x00\n      keccak256\n        /* \"CrowdFunding.sol\":2208:2259  Requests storage thisRequest = AllRequests[_reqNum] */\n      swap1\n      pop\n        /* \"CrowdFunding.sol\":2311:2316  false */\n      0x00\n        /* \"CrowdFunding.sol\":2278:2316  thisRequest.votes[msg.sender] == false */\n      iszero\n      iszero\n        /* \"CrowdFunding.sol\":2278:2289  thisRequest */\n      dup2\n        /* \"CrowdFunding.sol\":2278:2295  thisRequest.votes */\n      0x04\n      add\n        /* \"CrowdFunding.sol\":2278:2307  thisRequest.votes[msg.sender] */\n      0x00\n        /* \"CrowdFunding.sol\":2296:2306  msg.sender */\n      caller\n        /* \"CrowdFunding.sol\":2278:2307  thisRequest.votes[msg.sender] */\n      0xffffffffffffffffffffffffffffffffffffffff\n      and\n      0xffffffffffffffffffffffffffffffffffffffff\n      and\n      dup2\n      mstore\n      0x20\n      add\n      swap1\n      dup2\n      mstore\n      0x20\n      add\n      0x00\n      keccak256\n      0x00\n      swap1\n      sload\n      swap1\n      0x0100\n      exp\n      swap1\n      div\n      0xff\n      and\n        /* \"CrowdFunding.sol\":2278:2316  thisRequest.votes[msg.sender] == false */\n      iszero\n      iszero\n      eq\n        /* \"CrowdFunding.sol\":2270:2334  require(thisRequest.votes[msg.sender] == false, \"Already voted\") */\n      tag_118\n      jumpi\n      mload(0x40)\n      0x08c379a000000000000000000000000000000000000000000000000000000000\n      dup2\n      mstore\n      0x04\n      add\n      tag_119\n      swap1\n      tag_120\n      jump\t// in\n    tag_119:\n      mload(0x40)\n      dup1\n      swap2\n      sub\n      swap1\n      revert\n    tag_118:\n        /* \"CrowdFunding.sol\":2377:2381  true */\n      0x01\n        /* \"CrowdFunding.sol\":2345:2356  thisRequest */\n      dup2\n        /* \"CrowdFunding.sol\":2345:2362  thisRequest.votes */\n      0x04\n      add\n        /* \"CrowdFunding.sol\":2345:2374  thisRequest.votes[msg.sender] */\n      0x00\n        /* \"CrowdFunding.sol\":2363:2373  msg.sender */\n      caller\n        /* \"CrowdFunding.sol\":2345:2374  thisRequest.votes[msg.sender] */\n      0xffffffffffffffffffffffffffffffffffffffff\n      and\n      0xffffffffffffffffffffffffffffffffffffffff\n      and\n      dup2\n      mstore\n      0x20\n      add\n      swap1\n      dup2\n      mstore\n      0x20\n      add\n      0x00\n      keccak256\n      0x00\n        /* \"CrowdFunding.sol\":2345:2381  thisRequest.votes[msg.sender] = true */\n      0x0100\n      exp\n      dup2\n      sload\n      dup2\n      0xff\n      mul\n      not\n      and\n      swap1\n      dup4\n      iszero\n      iszero\n      mul\n      or\n      swap1\n      sstore\n      pop\n        /* \"CrowdFunding.sol\":2392:2403  thisRequest */\n      dup1\n        /* \"CrowdFunding.sol\":2392:2413  thisRequest.noOfVotes */\n      0x03\n      add\n      0x00\n        /* \"CrowdFunding.sol\":2392:2415  thisRequest.noOfVotes++ */\n      dup2\n      sload\n      dup1\n      swap3\n      swap2\n      swap1\n      tag_121\n      swap1\n      tag_95\n      jump\t// in\n    tag_121:\n      swap2\n      swap1\n      pop\n      sstore\n      pop\n        /* \"CrowdFunding.sol\":2138:2423  {\r... */\n      pop\n        /* \"CrowdFunding.sol\":2092:2423  function votingForRequest(uint _reqNum) public{\r... */\n      pop\n      jump\t// out\n        /* \"CrowdFunding.sol\":1019:1391  function getRefund() public {\r... */\n    tag_78:\n        /* \"CrowdFunding.sol\":1084:1094  timePeriod */\n      sload(0x06)\n        /* \"CrowdFunding.sol\":1066:1081  block.timestamp */\n      timestamp\n        /* \"CrowdFunding.sol\":1066:1094  block.timestamp > timePeriod */\n      gt\n        /* \"CrowdFunding.sol\":1058:1119  require(block.timestamp > timePeriod, \"Funding is still on!\") */\n      tag_123\n      jumpi\n      mload(0x40)\n      0x08c379a000000000000000000000000000000000000000000000000000000000\n      dup2\n      mstore\n      0x04\n      add\n      tag_124\n      swap1\n      tag_125\n      jump\t// in\n    tag_124:\n      mload(0x40)\n      dup1\n      swap2\n      sub\n      swap1\n      revert\n    tag_123:\n        /* \"CrowdFunding.sol\":1152:1156  goal */\n      sload(0x02)\n        /* \"CrowdFunding.sol\":1138:1149  fundsRaised */\n      sload(0x05)\n        /* \"CrowdFunding.sol\":1138:1156  fundsRaised < goal */\n      lt\n        /* \"CrowdFunding.sol\":1130:1183  require(fundsRaised < goal, \"Funding was successful\") */\n      tag_126\n      jumpi\n      mload(0x40)\n      0x08c379a000000000000000000000000000000000000000000000000000000000\n      dup2\n      mstore\n      0x04\n      add\n      tag_127\n      swap1\n      tag_128\n      jump\t// in\n    tag_127:\n      mload(0x40)\n      dup1\n      swap2\n      sub\n      swap1\n      revert\n    tag_126:\n        /* \"CrowdFunding.sol\":1224:1225  0 */\n      0x00\n        /* \"CrowdFunding.sol\":1202:1209  funders */\n      0x01\n        /* \"CrowdFunding.sol\":1202:1221  funders[msg.sender] */\n      0x00\n        /* \"CrowdFunding.sol\":1210:1220  msg.sender */\n      caller\n        /* \"CrowdFunding.sol\":1202:1221  funders[msg.sender] */\n      0xffffffffffffffffffffffffffffffffffffffff\n      and\n      0xffffffffffffffffffffffffffffffffffffffff\n      and\n      dup2\n      mstore\n      0x20\n      add\n      swap1\n      dup2\n      mstore\n      0x20\n      add\n      0x00\n      keccak256\n      sload\n        /* \"CrowdFunding.sol\":1202:1225  funders[msg.sender] > 0 */\n      gt\n        /* \"CrowdFunding.sol\":1194:1242  require(funders[msg.sender] > 0, \"Not a funder\") */\n      tag_129\n      jumpi\n      mload(0x40)\n      0x08c379a000000000000000000000000000000000000000000000000000000000\n      dup2\n      mstore\n      0x04\n      add\n      tag_130\n      swap1\n      tag_117\n      jump\t// in\n    tag_130:\n      mload(0x40)\n      dup1\n      swap2\n      sub\n      swap1\n      revert\n    tag_129:\n        /* \"CrowdFunding.sol\":1263:1273  msg.sender */\n      caller\n        /* \"CrowdFunding.sol\":1255:1283  payable(msg.sender).transfer */\n      0xffffffffffffffffffffffffffffffffffffffff\n      and\n        /* \"CrowdFunding.sol\":1255:1304  payable(msg.sender).transfer(funders[msg.sender]) */\n      0x08fc\n        /* \"CrowdFunding.sol\":1284:1291  funders */\n      0x01\n        /* \"CrowdFunding.sol\":1284:1303  funders[msg.sender] */\n      0x00\n        /* \"CrowdFunding.sol\":1292:1302  msg.sender */\n      caller\n        /* \"CrowdFunding.sol\":1284:1303  funders[msg.sender] */\n      0xffffffffffffffffffffffffffffffffffffffff\n      and\n      0xffffffffffffffffffffffffffffffffffffffff\n      and\n      dup2\n      mstore\n      0x20\n      add\n      swap1\n      dup2\n      mstore\n      0x20\n      add\n      0x00\n      keccak256\n      sload\n        /* \"CrowdFunding.sol\":1255:1304  payable(msg.sender).transfer(funders[msg.sender]) */\n      swap1\n      dup2\n      iszero\n      mul\n      swap1\n      mload(0x40)\n      0x00\n      mload(0x40)\n      dup1\n      dup4\n      sub\n      dup2\n      dup6\n      dup9\n      dup9\n      call\n      swap4\n      pop\n      pop\n      pop\n      pop\n      iszero\n      dup1\n      iszero\n      tag_132\n      jumpi\n      returndatasize\n      0x00\n      dup1\n      returndatacopy\n      revert(0x00, returndatasize)\n    tag_132:\n      pop\n        /* \"CrowdFunding.sol\":1330:1337  funders */\n      0x01\n        /* \"CrowdFunding.sol\":1330:1349  funders[msg.sender] */\n      0x00\n        /* \"CrowdFunding.sol\":1338:1348  msg.sender */\n      caller\n        /* \"CrowdFunding.sol\":1330:1349  funders[msg.sender] */\n      0xffffffffffffffffffffffffffffffffffffffff\n      and\n      0xffffffffffffffffffffffffffffffffffffffff\n      and\n      dup2\n      mstore\n      0x20\n      add\n      swap1\n      dup2\n      mstore\n      0x20\n      add\n      0x00\n      keccak256\n      sload\n        /* \"CrowdFunding.sol\":1315:1326  fundsRaised */\n      0x05\n      0x00\n        /* \"CrowdFunding.sol\":1315:1349  fundsRaised -= funders[msg.sender] */\n      dup3\n      dup3\n      sload\n      tag_133\n      swap2\n      swap1\n      tag_134\n      jump\t// in\n    tag_133:\n      swap3\n      pop\n      pop\n      dup2\n      swap1\n      sstore\n      pop\n        /* \"CrowdFunding.sol\":1382:1383  0 */\n      0x00\n        /* \"CrowdFunding.sol\":1360:1367  funders */\n      0x01\n        /* \"CrowdFunding.sol\":1360:1379  funders[msg.sender] */\n      0x00\n        /* \"CrowdFunding.sol\":1368:1378  msg.sender */\n      caller\n        /* \"CrowdFunding.sol\":1360:1379  funders[msg.sender] */\n      0xffffffffffffffffffffffffffffffffffffffff\n      and\n      0xffffffffffffffffffffffffffffffffffffffff\n      and\n      dup2\n      mstore\n      0x20\n      add\n      swap1\n      dup2\n      mstore\n      0x20\n      add\n      0x00\n      keccak256\n        /* \"CrowdFunding.sol\":1360:1383  funders[msg.sender] = 0 */\n      dup2\n      swap1\n      sstore\n      pop\n        /* \"CrowdFunding.sol\":1019:1391  function getRefund() public {\r... */\n      jump\t// out\n        /* \"CrowdFunding.sol\":207:231  uint public noOfFounders */\n    tag_81:\n      sload(0x04)\n      dup2\n      jump\t// out\n    tag_97:\n      dup3\n      dup1\n      sload\n      tag_135\n      swap1\n      tag_84\n      jump\t// in\n    tag_135:\n      swap1\n      0x00\n      mstore\n      keccak256(0x00, 0x20)\n      swap1\n      0x1f\n      add\n      0x20\n      swap1\n      div\n      dup2\n      add\n      swap3\n      dup3\n      tag_137\n      jumpi\n      0x00\n      dup6\n      sstore\n      jump(tag_136)\n    tag_137:\n      dup3\n      0x1f\n      lt\n      tag_138\n      jumpi\n      dup1\n      mload\n      not(0xff)\n      and\n      dup4\n      dup1\n      add\n      or\n      dup6\n      sstore\n      jump(tag_136)\n    tag_138:\n      dup3\n      dup1\n      add\n      0x01\n      add\n      dup6\n      sstore\n      dup3\n      iszero\n      tag_136\n      jumpi\n      swap2\n      dup3\n      add\n    tag_139:\n      dup3\n      dup2\n      gt\n      iszero\n      tag_140\n      jumpi\n      dup3\n      mload\n      dup3\n      sstore\n      swap2\n      0x20\n      add\n      swap2\n      swap1\n      0x01\n      add\n      swap1\n      jump(tag_139)\n    tag_140:\n    tag_136:\n      pop\n      swap1\n      pop\n      tag_141\n      swap2\n      swap1\n      tag_142\n      jump\t// in\n    tag_141:\n      pop\n      swap1\n      jump\t// out\n    tag_142:\n    tag_143:\n      dup1\n      dup3\n      gt\n      iszero\n      tag_144\n      jumpi\n      0x00\n      dup2\n      0x00\n      swap1\n      sstore\n      pop\n      0x01\n      add\n      jump(tag_143)\n    tag_144:\n      pop\n      swap1\n      jump\t// out\n        /* \"#utility.yul\":7:419   */\n    tag_146:\n        /* \"#utility.yul\":85:90   */\n      0x00\n        /* \"#utility.yul\":110:176   */\n      tag_148\n        /* \"#utility.yul\":126:175   */\n      tag_149\n        /* \"#utility.yul\":168:174   */\n      dup5\n        /* \"#utility.yul\":126:175   */\n      tag_150\n      jump\t// in\n    tag_149:\n        /* \"#utility.yul\":110:176   */\n      tag_151\n      jump\t// in\n    tag_148:\n        /* \"#utility.yul\":101:176   */\n      swap1\n      pop\n        /* \"#utility.yul\":199:205   */\n      dup3\n        /* \"#utility.yul\":192:197   */\n      dup2\n        /* \"#utility.yul\":185:206   */\n      mstore\n        /* \"#utility.yul\":237:241   */\n      0x20\n        /* \"#utility.yul\":230:235   */\n      dup2\n        /* \"#utility.yul\":226:242   */\n      add\n        /* \"#utility.yul\":275:278   */\n      dup5\n        /* \"#utility.yul\":266:272   */\n      dup5\n        /* \"#utility.yul\":261:264   */\n      dup5\n        /* \"#utility.yul\":257:273   */\n      add\n        /* \"#utility.yul\":254:279   */\n      gt\n        /* \"#utility.yul\":251:363   */\n      iszero\n      tag_152\n      jumpi\n        /* \"#utility.yul\":282:361   */\n      tag_153\n      tag_154\n      jump\t// in\n    tag_153:\n        /* \"#utility.yul\":251:363   */\n    tag_152:\n        /* \"#utility.yul\":372:413   */\n      tag_155\n        /* \"#utility.yul\":406:412   */\n      dup5\n        /* \"#utility.yul\":401:404   */\n      dup3\n        /* \"#utility.yul\":396:399   */\n      dup6\n        /* \"#utility.yul\":372:413   */\n      tag_156\n      jump\t// in\n    tag_155:\n        /* \"#utility.yul\":91:419   */\n      pop\n        /* \"#utility.yul\":7:419   */\n      swap4\n      swap3\n      pop\n      pop\n      pop\n      jump\t// out\n        /* \"#utility.yul\":425:564   */\n    tag_157:\n        /* \"#utility.yul\":471:476   */\n      0x00\n        /* \"#utility.yul\":509:515   */\n      dup2\n        /* \"#utility.yul\":496:516   */\n      calldataload\n        /* \"#utility.yul\":487:516   */\n      swap1\n      pop\n        /* \"#utility.yul\":525:558   */\n      tag_159\n        /* \"#utility.yul\":552:557   */\n      dup2\n        /* \"#utility.yul\":525:558   */\n      tag_160\n      jump\t// in\n    tag_159:\n        /* \"#utility.yul\":425:564   */\n      swap3\n      swap2\n      pop\n      pop\n      jump\t// out\n        /* \"#utility.yul\":570:725   */\n    tag_161:\n        /* \"#utility.yul\":624:629   */\n      0x00\n        /* \"#utility.yul\":662:668   */\n      dup2\n        /* \"#utility.yul\":649:669   */\n      calldataload\n        /* \"#utility.yul\":640:669   */\n      swap1\n      pop\n        /* \"#utility.yul\":678:719   */\n      tag_163\n        /* \"#utility.yul\":713:718   */\n      dup2\n        /* \"#utility.yul\":678:719   */\n      tag_164\n      jump\t// in\n    tag_163:\n        /* \"#utility.yul\":570:725   */\n      swap3\n      swap2\n      pop\n      pop\n      jump\t// out\n        /* \"#utility.yul\":745:1085   */\n    tag_165:\n        /* \"#utility.yul\":801:806   */\n      0x00\n        /* \"#utility.yul\":850:853   */\n      dup3\n        /* \"#utility.yul\":843:847   */\n      0x1f\n        /* \"#utility.yul\":835:841   */\n      dup4\n        /* \"#utility.yul\":831:848   */\n      add\n        /* \"#utility.yul\":827:854   */\n      slt\n        /* \"#utility.yul\":817:939   */\n      tag_167\n      jumpi\n        /* \"#utility.yul\":858:937   */\n      tag_168\n      tag_169\n      jump\t// in\n    tag_168:\n        /* \"#utility.yul\":817:939   */\n    tag_167:\n        /* \"#utility.yul\":975:981   */\n      dup2\n        /* \"#utility.yul\":962:982   */\n      calldataload\n        /* \"#utility.yul\":1000:1079   */\n      tag_170\n        /* \"#utility.yul\":1075:1078   */\n      dup5\n        /* \"#utility.yul\":1067:1073   */\n      dup3\n        /* \"#utility.yul\":1060:1064   */\n      0x20\n        /* \"#utility.yul\":1052:1058   */\n      dup7\n        /* \"#utility.yul\":1048:1065   */\n      add\n        /* \"#utility.yul\":1000:1079   */\n      tag_146\n      jump\t// in\n    tag_170:\n        /* \"#utility.yul\":991:1079   */\n      swap2\n      pop\n        /* \"#utility.yul\":807:1085   */\n      pop\n        /* \"#utility.yul\":745:1085   */\n      swap3\n      swap2\n      pop\n      pop\n      jump\t// out\n        /* \"#utility.yul\":1091:1230   */\n    tag_171:\n        /* \"#utility.yul\":1137:1142   */\n      0x00\n        /* \"#utility.yul\":1175:1181   */\n      dup2\n        /* \"#utility.yul\":1162:1182   */\n      calldataload\n        /* \"#utility.yul\":1153:1182   */\n      swap1\n      pop\n        /* \"#utility.yul\":1191:1224   */\n      tag_173\n        /* \"#utility.yul\":1218:1223   */\n      dup2\n        /* \"#utility.yul\":1191:1224   */\n      tag_174\n      jump\t// in\n    tag_173:\n        /* \"#utility.yul\":1091:1230   */\n      swap3\n      swap2\n      pop\n      pop\n      jump\t// out\n        /* \"#utility.yul\":1236:1565   */\n    tag_32:\n        /* \"#utility.yul\":1295:1301   */\n      0x00\n        /* \"#utility.yul\":1344:1346   */\n      0x20\n        /* \"#utility.yul\":1332:1341   */\n      dup3\n        /* \"#utility.yul\":1323:1330   */\n      dup5\n        /* \"#utility.yul\":1319:1342   */\n      sub\n        /* \"#utility.yul\":1315:1347   */\n      slt\n        /* \"#utility.yul\":1312:1431   */\n      iszero\n      tag_176\n      jumpi\n        /* \"#utility.yul\":1350:1429   */\n      tag_177\n      tag_178\n      jump\t// in\n    tag_177:\n        /* \"#utility.yul\":1312:1431   */\n    tag_176:\n        /* \"#utility.yul\":1470:1471   */\n      0x00\n        /* \"#utility.yul\":1495:1548   */\n      tag_179\n        /* \"#utility.yul\":1540:1547   */\n      dup5\n        /* \"#utility.yul\":1531:1537   */\n      dup3\n        /* \"#utility.yul\":1520:1529   */\n      dup6\n        /* \"#utility.yul\":1516:1538   */\n      add\n        /* \"#utility.yul\":1495:1548   */\n      tag_157\n      jump\t// in\n    tag_179:\n        /* \"#utility.yul\":1485:1548   */\n      swap2\n      pop\n        /* \"#utility.yul\":1441:1558   */\n      pop\n        /* \"#utility.yul\":1236:1565   */\n      swap3\n      swap2\n      pop\n      pop\n      jump\t// out\n        /* \"#utility.yul\":1571:2386   */\n    tag_39:\n        /* \"#utility.yul\":1666:1672   */\n      0x00\n        /* \"#utility.yul\":1674:1680   */\n      dup1\n        /* \"#utility.yul\":1682:1688   */\n      0x00\n        /* \"#utility.yul\":1731:1733   */\n      0x60\n        /* \"#utility.yul\":1719:1728   */\n      dup5\n        /* \"#utility.yul\":1710:1717   */\n      dup7\n        /* \"#utility.yul\":1706:1729   */\n      sub\n        /* \"#utility.yul\":1702:1734   */\n      slt\n        /* \"#utility.yul\":1699:1818   */\n      iszero\n      tag_181\n      jumpi\n        /* \"#utility.yul\":1737:1816   */\n      tag_182\n      tag_178\n      jump\t// in\n    tag_182:\n        /* \"#utility.yul\":1699:1818   */\n    tag_181:\n        /* \"#utility.yul\":1885:1886   */\n      0x00\n        /* \"#utility.yul\":1874:1883   */\n      dup5\n        /* \"#utility.yul\":1870:1887   */\n      add\n        /* \"#utility.yul\":1857:1888   */\n      calldataload\n        /* \"#utility.yul\":1915:1933   */\n      0xffffffffffffffff\n        /* \"#utility.yul\":1907:1913   */\n      dup2\n        /* \"#utility.yul\":1904:1934   */\n      gt\n        /* \"#utility.yul\":1901:2018   */\n      iszero\n      tag_183\n      jumpi\n        /* \"#utility.yul\":1937:2016   */\n      tag_184\n      tag_185\n      jump\t// in\n    tag_184:\n        /* \"#utility.yul\":1901:2018   */\n    tag_183:\n        /* \"#utility.yul\":2042:2105   */\n      tag_186\n        /* \"#utility.yul\":2097:2104   */\n      dup7\n        /* \"#utility.yul\":2088:2094   */\n      dup3\n        /* \"#utility.yul\":2077:2086   */\n      dup8\n        /* \"#utility.yul\":2073:2095   */\n      add\n        /* \"#utility.yul\":2042:2105   */\n      tag_165\n      jump\t// in\n    tag_186:\n        /* \"#utility.yul\":2032:2105   */\n      swap4\n      pop\n        /* \"#utility.yul\":1828:2115   */\n      pop\n        /* \"#utility.yul\":2154:2156   */\n      0x20\n        /* \"#utility.yul\":2180:2233   */\n      tag_187\n        /* \"#utility.yul\":2225:2232   */\n      dup7\n        /* \"#utility.yul\":2216:2222   */\n      dup3\n        /* \"#utility.yul\":2205:2214   */\n      dup8\n        /* \"#utility.yul\":2201:2223   */\n      add\n        /* \"#utility.yul\":2180:2233   */\n      tag_171\n      jump\t// in\n    tag_187:\n        /* \"#utility.yul\":2170:2233   */\n      swap3\n      pop\n        /* \"#utility.yul\":2125:2243   */\n      pop\n        /* \"#utility.yul\":2282:2284   */\n      0x40\n        /* \"#utility.yul\":2308:2369   */\n      tag_188\n        /* \"#utility.yul\":2361:2368   */\n      dup7\n        /* \"#utility.yul\":2352:2358   */\n      dup3\n        /* \"#utility.yul\":2341:2350   */\n      dup8\n        /* \"#utility.yul\":2337:2359   */\n      add\n        /* \"#utility.yul\":2308:2369   */\n      tag_161\n      jump\t// in\n    tag_188:\n        /* \"#utility.yul\":2298:2369   */\n      swap2\n      pop\n        /* \"#utility.yul\":2253:2379   */\n      pop\n        /* \"#utility.yul\":1571:2386   */\n      swap3\n      pop\n      swap3\n      pop\n      swap3\n      jump\t// out\n        /* \"#utility.yul\":2392:2721   */\n    tag_25:\n        /* \"#utility.yul\":2451:2457   */\n      0x00\n        /* \"#utility.yul\":2500:2502   */\n      0x20\n        /* \"#utility.yul\":2488:2497   */\n      dup3\n        /* \"#utility.yul\":2479:2486   */\n      dup5\n        /* \"#utility.yul\":2475:2498   */\n      sub\n        /* \"#utility.yul\":2471:2503   */\n      slt\n        /* \"#utility.yul\":2468:2587   */\n      iszero\n      tag_190\n      jumpi\n        /* \"#utility.yul\":2506:2585   */\n      tag_191\n      tag_178\n      jump\t// in\n    tag_191:\n        /* \"#utility.yul\":2468:2587   */\n    tag_190:\n        /* \"#utility.yul\":2626:2627   */\n      0x00\n        /* \"#utility.yul\":2651:2704   */\n      tag_192\n        /* \"#utility.yul\":2696:2703   */\n      dup5\n        /* \"#utility.yul\":2687:2693   */\n      dup3\n        /* \"#utility.yul\":2676:2685   */\n      dup6\n        /* \"#utility.yul\":2672:2694   */\n      add\n        /* \"#utility.yul\":2651:2704   */\n      tag_171\n      jump\t// in\n    tag_192:\n        /* \"#utility.yul\":2641:2704   */\n      swap2\n      pop\n        /* \"#utility.yul\":2597:2714   */\n      pop\n        /* \"#utility.yul\":2392:2721   */\n      swap3\n      swap2\n      pop\n      pop\n      jump\t// out\n        /* \"#utility.yul\":2727:2869   */\n    tag_193:\n        /* \"#utility.yul\":2830:2862   */\n      tag_195\n        /* \"#utility.yul\":2856:2861   */\n      dup2\n        /* \"#utility.yul\":2830:2862   */\n      tag_196\n      jump\t// in\n    tag_195:\n        /* \"#utility.yul\":2825:2828   */\n      dup3\n        /* \"#utility.yul\":2818:2863   */\n      mstore\n        /* \"#utility.yul\":2727:2869   */\n      pop\n      pop\n      jump\t// out\n        /* \"#utility.yul\":2875:2993   */\n    tag_197:\n        /* \"#utility.yul\":2962:2986   */\n      tag_199\n        /* \"#utility.yul\":2980:2985   */\n      dup2\n        /* \"#utility.yul\":2962:2986   */\n      tag_200\n      jump\t// in\n    tag_199:\n        /* \"#utility.yul\":2957:2960   */\n      dup3\n        /* \"#utility.yul\":2950:2987   */\n      mstore\n        /* \"#utility.yul\":2875:2993   */\n      pop\n      pop\n      jump\t// out\n        /* \"#utility.yul\":2999:3108   */\n    tag_201:\n        /* \"#utility.yul\":3080:3101   */\n      tag_203\n        /* \"#utility.yul\":3095:3100   */\n      dup2\n        /* \"#utility.yul\":3080:3101   */\n      tag_204\n      jump\t// in\n    tag_203:\n        /* \"#utility.yul\":3075:3078   */\n      dup3\n        /* \"#utility.yul\":3068:3102   */\n      mstore\n        /* \"#utility.yul\":2999:3108   */\n      pop\n      pop\n      jump\t// out\n        /* \"#utility.yul\":3114:3478   */\n    tag_205:\n        /* \"#utility.yul\":3202:3205   */\n      0x00\n        /* \"#utility.yul\":3230:3269   */\n      tag_207\n        /* \"#utility.yul\":3263:3268   */\n      dup3\n        /* \"#utility.yul\":3230:3269   */\n      tag_208\n      jump\t// in\n    tag_207:\n        /* \"#utility.yul\":3285:3356   */\n      tag_209\n        /* \"#utility.yul\":3349:3355   */\n      dup2\n        /* \"#utility.yul\":3344:3347   */\n      dup6\n        /* \"#utility.yul\":3285:3356   */\n      tag_210\n      jump\t// in\n    tag_209:\n        /* \"#utility.yul\":3278:3356   */\n      swap4\n      pop\n        /* \"#utility.yul\":3365:3417   */\n      tag_211\n        /* \"#utility.yul\":3410:3416   */\n      dup2\n        /* \"#utility.yul\":3405:3408   */\n      dup6\n        /* \"#utility.yul\":3398:3402   */\n      0x20\n        /* \"#utility.yul\":3391:3396   */\n      dup7\n        /* \"#utility.yul\":3387:3403   */\n      add\n        /* \"#utility.yul\":3365:3417   */\n      tag_212\n      jump\t// in\n    tag_211:\n        /* \"#utility.yul\":3442:3471   */\n      tag_213\n        /* \"#utility.yul\":3464:3470   */\n      dup2\n        /* \"#utility.yul\":3442:3471   */\n      tag_214\n      jump\t// in\n    tag_213:\n        /* \"#utility.yul\":3437:3440   */\n      dup5\n        /* \"#utility.yul\":3433:3472   */\n      add\n        /* \"#utility.yul\":3426:3472   */\n      swap2\n      pop\n        /* \"#utility.yul\":3206:3478   */\n      pop\n        /* \"#utility.yul\":3114:3478   */\n      swap3\n      swap2\n      pop\n      pop\n      jump\t// out\n        /* \"#utility.yul\":3484:3850   */\n    tag_215:\n        /* \"#utility.yul\":3626:3629   */\n      0x00\n        /* \"#utility.yul\":3647:3714   */\n      tag_217\n        /* \"#utility.yul\":3711:3713   */\n      0x16\n        /* \"#utility.yul\":3706:3709   */\n      dup4\n        /* \"#utility.yul\":3647:3714   */\n      tag_210\n      jump\t// in\n    tag_217:\n        /* \"#utility.yul\":3640:3714   */\n      swap2\n      pop\n        /* \"#utility.yul\":3723:3816   */\n      tag_218\n        /* \"#utility.yul\":3812:3815   */\n      dup3\n        /* \"#utility.yul\":3723:3816   */\n      tag_219\n      jump\t// in\n    tag_218:\n        /* \"#utility.yul\":3841:3843   */\n      0x20\n        /* \"#utility.yul\":3836:3839   */\n      dup3\n        /* \"#utility.yul\":3832:3844   */\n      add\n        /* \"#utility.yul\":3825:3844   */\n      swap1\n      pop\n        /* \"#utility.yul\":3484:3850   */\n      swap2\n      swap1\n      pop\n      jump\t// out\n        /* \"#utility.yul\":3856:4222   */\n    tag_220:\n        /* \"#utility.yul\":3998:4001   */\n      0x00\n        /* \"#utility.yul\":4019:4086   */\n      tag_222\n        /* \"#utility.yul\":4083:4085   */\n      0x0d\n        /* \"#utility.yul\":4078:4081   */\n      dup4\n        /* \"#utility.yul\":4019:4086   */\n      tag_210\n      jump\t// in\n    tag_222:\n        /* \"#utility.yul\":4012:4086   */\n      swap2\n      pop\n        /* \"#utility.yul\":4095:4188   */\n      tag_223\n        /* \"#utility.yul\":4184:4187   */\n      dup3\n        /* \"#utility.yul\":4095:4188   */\n      tag_224\n      jump\t// in\n    tag_223:\n        /* \"#utility.yul\":4213:4215   */\n      0x20\n        /* \"#utility.yul\":4208:4211   */\n      dup3\n        /* \"#utility.yul\":4204:4216   */\n      add\n        /* \"#utility.yul\":4197:4216   */\n      swap1\n      pop\n        /* \"#utility.yul\":3856:4222   */\n      swap2\n      swap1\n      pop\n      jump\t// out\n        /* \"#utility.yul\":4228:4594   */\n    tag_225:\n        /* \"#utility.yul\":4370:4373   */\n      0x00\n        /* \"#utility.yul\":4391:4458   */\n      tag_227\n        /* \"#utility.yul\":4455:4457   */\n      0x10\n        /* \"#utility.yul\":4450:4453   */\n      dup4\n        /* \"#utility.yul\":4391:4458   */\n      tag_210\n      jump\t// in\n    tag_227:\n        /* \"#utility.yul\":4384:4458   */\n      swap2\n      pop\n        /* \"#utility.yul\":4467:4560   */\n      tag_228\n        /* \"#utility.yul\":4556:4559   */\n      dup3\n        /* \"#utility.yul\":4467:4560   */\n      tag_229\n      jump\t// in\n    tag_228:\n        /* \"#utility.yul\":4585:4587   */\n      0x20\n        /* \"#utility.yul\":4580:4583   */\n      dup3\n        /* \"#utility.yul\":4576:4588   */\n      add\n        /* \"#utility.yul\":4569:4588   */\n      swap1\n      pop\n        /* \"#utility.yul\":4228:4594   */\n      swap2\n      swap1\n      pop\n      jump\t// out\n        /* \"#utility.yul\":4600:4966   */\n    tag_230:\n        /* \"#utility.yul\":4742:4745   */\n      0x00\n        /* \"#utility.yul\":4763:4830   */\n      tag_232\n        /* \"#utility.yul\":4827:4829   */\n      0x14\n        /* \"#utility.yul\":4822:4825   */\n      dup4\n        /* \"#utility.yul\":4763:4830   */\n      tag_210\n      jump\t// in\n    tag_232:\n        /* \"#utility.yul\":4756:4830   */\n      swap2\n      pop\n        /* \"#utility.yul\":4839:4932   */\n      tag_233\n        /* \"#utility.yul\":4928:4931   */\n      dup3\n        /* \"#utility.yul\":4839:4932   */\n      tag_234\n      jump\t// in\n    tag_233:\n        /* \"#utility.yul\":4957:4959   */\n      0x20\n        /* \"#utility.yul\":4952:4955   */\n      dup3\n        /* \"#utility.yul\":4948:4960   */\n      add\n        /* \"#utility.yul\":4941:4960   */\n      swap1\n      pop\n        /* \"#utility.yul\":4600:4966   */\n      swap2\n      swap1\n      pop\n      jump\t// out\n        /* \"#utility.yul\":4972:5338   */\n    tag_235:\n        /* \"#utility.yul\":5114:5117   */\n      0x00\n        /* \"#utility.yul\":5135:5202   */\n      tag_237\n        /* \"#utility.yul\":5199:5201   */\n      0x0c\n        /* \"#utility.yul\":5194:5197   */\n      dup4\n        /* \"#utility.yul\":5135:5202   */\n      tag_210\n      jump\t// in\n    tag_237:\n        /* \"#utility.yul\":5128:5202   */\n      swap2\n      pop\n        /* \"#utility.yul\":5211:5304   */\n      tag_238\n        /* \"#utility.yul\":5300:5303   */\n      dup3\n        /* \"#utility.yul\":5211:5304   */\n      tag_239\n      jump\t// in\n    tag_238:\n        /* \"#utility.yul\":5329:5331   */\n      0x20\n        /* \"#utility.yul\":5324:5327   */\n      dup3\n        /* \"#utility.yul\":5320:5332   */\n      add\n        /* \"#utility.yul\":5313:5332   */\n      swap1\n      pop\n        /* \"#utility.yul\":4972:5338   */\n      swap2\n      swap1\n      pop\n      jump\t// out\n        /* \"#utility.yul\":5344:5710   */\n    tag_240:\n        /* \"#utility.yul\":5486:5489   */\n      0x00\n        /* \"#utility.yul\":5507:5574   */\n      tag_242\n        /* \"#utility.yul\":5571:5573   */\n      0x11\n        /* \"#utility.yul\":5566:5569   */\n      dup4\n        /* \"#utility.yul\":5507:5574   */\n      tag_210\n      jump\t// in\n    tag_242:\n        /* \"#utility.yul\":5500:5574   */\n      swap2\n      pop\n        /* \"#utility.yul\":5583:5676   */\n      tag_243\n        /* \"#utility.yul\":5672:5675   */\n      dup3\n        /* \"#utility.yul\":5583:5676   */\n      tag_244\n      jump\t// in\n    tag_243:\n        /* \"#utility.yul\":5701:5703   */\n      0x20\n        /* \"#utility.yul\":5696:5699   */\n      dup3\n        /* \"#utility.yul\":5692:5704   */\n      add\n        /* \"#utility.yul\":5685:5704   */\n      swap1\n      pop\n        /* \"#utility.yul\":5344:5710   */\n      swap2\n      swap1\n      pop\n      jump\t// out\n        /* \"#utility.yul\":5716:6082   */\n    tag_245:\n        /* \"#utility.yul\":5858:5861   */\n      0x00\n        /* \"#utility.yul\":5879:5946   */\n      tag_247\n        /* \"#utility.yul\":5943:5945   */\n      0x23\n        /* \"#utility.yul\":5938:5941   */\n      dup4\n        /* \"#utility.yul\":5879:5946   */\n      tag_210\n      jump\t// in\n    tag_247:\n        /* \"#utility.yul\":5872:5946   */\n      swap2\n      pop\n        /* \"#utility.yul\":5955:6048   */\n      tag_248\n        /* \"#utility.yul\":6044:6047   */\n      dup3\n        /* \"#utility.yul\":5955:6048   */\n      tag_249\n      jump\t// in\n    tag_248:\n        /* \"#utility.yul\":6073:6075   */\n      0x40\n        /* \"#utility.yul\":6068:6071   */\n      dup3\n        /* \"#utility.yul\":6064:6076   */\n      add\n        /* \"#utility.yul\":6057:6076   */\n      swap1\n      pop\n        /* \"#utility.yul\":5716:6082   */\n      swap2\n      swap1\n      pop\n      jump\t// out\n        /* \"#utility.yul\":6088:6454   */\n    tag_250:\n        /* \"#utility.yul\":6230:6233   */\n      0x00\n        /* \"#utility.yul\":6251:6318   */\n      tag_252\n        /* \"#utility.yul\":6315:6317   */\n      0x11\n        /* \"#utility.yul\":6310:6313   */\n      dup4\n        /* \"#utility.yul\":6251:6318   */\n      tag_210\n      jump\t// in\n    tag_252:\n        /* \"#utility.yul\":6244:6318   */\n      swap2\n      pop\n        /* \"#utility.yul\":6327:6420   */\n      tag_253\n        /* \"#utility.yul\":6416:6419   */\n      dup3\n        /* \"#utility.yul\":6327:6420   */\n      tag_254\n      jump\t// in\n    tag_253:\n        /* \"#utility.yul\":6445:6447   */\n      0x20\n        /* \"#utility.yul\":6440:6443   */\n      dup3\n        /* \"#utility.yul\":6436:6448   */\n      add\n        /* \"#utility.yul\":6429:6448   */\n      swap1\n      pop\n        /* \"#utility.yul\":6088:6454   */\n      swap2\n      swap1\n      pop\n      jump\t// out\n        /* \"#utility.yul\":6460:6578   */\n    tag_255:\n        /* \"#utility.yul\":6547:6571   */\n      tag_257\n        /* \"#utility.yul\":6565:6570   */\n      dup2\n        /* \"#utility.yul\":6547:6571   */\n      tag_258\n      jump\t// in\n    tag_257:\n        /* \"#utility.yul\":6542:6545   */\n      dup3\n        /* \"#utility.yul\":6535:6572   */\n      mstore\n        /* \"#utility.yul\":6460:6578   */\n      pop\n      pop\n      jump\t// out\n        /* \"#utility.yul\":6584:6806   */\n    tag_67:\n        /* \"#utility.yul\":6677:6681   */\n      0x00\n        /* \"#utility.yul\":6715:6717   */\n      0x20\n        /* \"#utility.yul\":6704:6713   */\n      dup3\n        /* \"#utility.yul\":6700:6718   */\n      add\n        /* \"#utility.yul\":6692:6718   */\n      swap1\n      pop\n        /* \"#utility.yul\":6728:6799   */\n      tag_260\n        /* \"#utility.yul\":6796:6797   */\n      0x00\n        /* \"#utility.yul\":6785:6794   */\n      dup4\n        /* \"#utility.yul\":6781:6798   */\n      add\n        /* \"#utility.yul\":6772:6778   */\n      dup5\n        /* \"#utility.yul\":6728:6799   */\n      tag_197\n      jump\t// in\n    tag_260:\n        /* \"#utility.yul\":6584:6806   */\n      swap3\n      swap2\n      pop\n      pop\n      jump\t// out\n        /* \"#utility.yul\":6812:7587   */\n    tag_28:\n        /* \"#utility.yul\":7047:7051   */\n      0x00\n        /* \"#utility.yul\":7085:7088   */\n      0xa0\n        /* \"#utility.yul\":7074:7083   */\n      dup3\n        /* \"#utility.yul\":7070:7089   */\n      add\n        /* \"#utility.yul\":7062:7089   */\n      swap1\n      pop\n        /* \"#utility.yul\":7135:7144   */\n      dup2\n        /* \"#utility.yul\":7129:7133   */\n      dup2\n        /* \"#utility.yul\":7125:7145   */\n      sub\n        /* \"#utility.yul\":7121:7122   */\n      0x00\n        /* \"#utility.yul\":7110:7119   */\n      dup4\n        /* \"#utility.yul\":7106:7123   */\n      add\n        /* \"#utility.yul\":7099:7146   */\n      mstore\n        /* \"#utility.yul\":7163:7241   */\n      tag_262\n        /* \"#utility.yul\":7236:7240   */\n      dup2\n        /* \"#utility.yul\":7227:7233   */\n      dup9\n        /* \"#utility.yul\":7163:7241   */\n      tag_205\n      jump\t// in\n    tag_262:\n        /* \"#utility.yul\":7155:7241   */\n      swap1\n      pop\n        /* \"#utility.yul\":7251:7323   */\n      tag_263\n        /* \"#utility.yul\":7319:7321   */\n      0x20\n        /* \"#utility.yul\":7308:7317   */\n      dup4\n        /* \"#utility.yul\":7304:7322   */\n      add\n        /* \"#utility.yul\":7295:7301   */\n      dup8\n        /* \"#utility.yul\":7251:7323   */\n      tag_255\n      jump\t// in\n    tag_263:\n        /* \"#utility.yul\":7333:7421   */\n      tag_264\n        /* \"#utility.yul\":7417:7419   */\n      0x40\n        /* \"#utility.yul\":7406:7415   */\n      dup4\n        /* \"#utility.yul\":7402:7420   */\n      add\n        /* \"#utility.yul\":7393:7399   */\n      dup7\n        /* \"#utility.yul\":7333:7421   */\n      tag_193\n      jump\t// in\n    tag_264:\n        /* \"#utility.yul\":7431:7503   */\n      tag_265\n        /* \"#utility.yul\":7499:7501   */\n      0x60\n        /* \"#utility.yul\":7488:7497   */\n      dup4\n        /* \"#utility.yul\":7484:7502   */\n      add\n        /* \"#utility.yul\":7475:7481   */\n      dup6\n        /* \"#utility.yul\":7431:7503   */\n      tag_255\n      jump\t// in\n    tag_265:\n        /* \"#utility.yul\":7513:7580   */\n      tag_266\n        /* \"#utility.yul\":7575:7578   */\n      0x80\n        /* \"#utility.yul\":7564:7573   */\n      dup4\n        /* \"#utility.yul\":7560:7579   */\n      add\n        /* \"#utility.yul\":7551:7557   */\n      dup5\n        /* \"#utility.yul\":7513:7580   */\n      tag_201\n      jump\t// in\n    tag_266:\n        /* \"#utility.yul\":6812:7587   */\n      swap7\n      swap6\n      pop\n      pop\n      pop\n      pop\n      pop\n      pop\n      jump\t// out\n        /* \"#utility.yul\":7593:8012   */\n    tag_128:\n        /* \"#utility.yul\":7759:7763   */\n      0x00\n        /* \"#utility.yul\":7797:7799   */\n      0x20\n        /* \"#utility.yul\":7786:7795   */\n      dup3\n        /* \"#utility.yul\":7782:7800   */\n      add\n        /* \"#utility.yul\":7774:7800   */\n      swap1\n      pop\n        /* \"#utility.yul\":7846:7855   */\n      dup2\n        /* \"#utility.yul\":7840:7844   */\n      dup2\n        /* \"#utility.yul\":7836:7856   */\n      sub\n        /* \"#utility.yul\":7832:7833   */\n      0x00\n        /* \"#utility.yul\":7821:7830   */\n      dup4\n        /* \"#utility.yul\":7817:7834   */\n      add\n        /* \"#utility.yul\":7810:7857   */\n      mstore\n        /* \"#utility.yul\":7874:8005   */\n      tag_268\n        /* \"#utility.yul\":8000:8004   */\n      dup2\n        /* \"#utility.yul\":7874:8005   */\n      tag_215\n      jump\t// in\n    tag_268:\n        /* \"#utility.yul\":7866:8005   */\n      swap1\n      pop\n        /* \"#utility.yul\":7593:8012   */\n      swap2\n      swap1\n      pop\n      jump\t// out\n        /* \"#utility.yul\":8018:8437   */\n    tag_120:\n        /* \"#utility.yul\":8184:8188   */\n      0x00\n        /* \"#utility.yul\":8222:8224   */\n      0x20\n        /* \"#utility.yul\":8211:8220   */\n      dup3\n        /* \"#utility.yul\":8207:8225   */\n      add\n        /* \"#utility.yul\":8199:8225   */\n      swap1\n      pop\n        /* \"#utility.yul\":8271:8280   */\n      dup2\n        /* \"#utility.yul\":8265:8269   */\n      dup2\n        /* \"#utility.yul\":8261:8281   */\n      sub\n        /* \"#utility.yul\":8257:8258   */\n      0x00\n        /* \"#utility.yul\":8246:8255   */\n      dup4\n        /* \"#utility.yul\":8242:8259   */\n      add\n        /* \"#utility.yul\":8235:8282   */\n      mstore\n        /* \"#utility.yul\":8299:8430   */\n      tag_270\n        /* \"#utility.yul\":8425:8429   */\n      dup2\n        /* \"#utility.yul\":8299:8430   */\n      tag_220\n      jump\t// in\n    tag_270:\n        /* \"#utility.yul\":8291:8430   */\n      swap1\n      pop\n        /* \"#utility.yul\":8018:8437   */\n      swap2\n      swap1\n      pop\n      jump\t// out\n        /* \"#utility.yul\":8443:8862   */\n    tag_101:\n        /* \"#utility.yul\":8609:8613   */\n      0x00\n        /* \"#utility.yul\":8647:8649   */\n      0x20\n        /* \"#utility.yul\":8636:8645   */\n      dup3\n        /* \"#utility.yul\":8632:8650   */\n      add\n        /* \"#utility.yul\":8624:8650   */\n      swap1\n      pop\n        /* \"#utility.yul\":8696:8705   */\n      dup2\n        /* \"#utility.yul\":8690:8694   */\n      dup2\n        /* \"#utility.yul\":8686:8706   */\n      sub\n        /* \"#utility.yul\":8682:8683   */\n      0x00\n        /* \"#utility.yul\":8671:8680   */\n      dup4\n        /* \"#utility.yul\":8667:8684   */\n      add\n        /* \"#utility.yul\":8660:8707   */\n      mstore\n        /* \"#utility.yul\":8724:8855   */\n      tag_272\n        /* \"#utility.yul\":8850:8854   */\n      dup2\n        /* \"#utility.yul\":8724:8855   */\n      tag_225\n      jump\t// in\n    tag_272:\n        /* \"#utility.yul\":8716:8855   */\n      swap1\n      pop\n        /* \"#utility.yul\":8443:8862   */\n      swap2\n      swap1\n      pop\n      jump\t// out\n        /* \"#utility.yul\":8868:9287   */\n    tag_125:\n        /* \"#utility.yul\":9034:9038   */\n      0x00\n        /* \"#utility.yul\":9072:9074   */\n      0x20\n        /* \"#utility.yul\":9061:9070   */\n      dup3\n        /* \"#utility.yul\":9057:9075   */\n      add\n        /* \"#utility.yul\":9049:9075   */\n      swap1\n      pop\n        /* \"#utility.yul\":9121:9130   */\n      dup2\n        /* \"#utility.yul\":9115:9119   */\n      dup2\n        /* \"#utility.yul\":9111:9131   */\n      sub\n        /* \"#utility.yul\":9107:9108   */\n      0x00\n        /* \"#utility.yul\":9096:9105   */\n      dup4\n        /* \"#utility.yul\":9092:9109   */\n      add\n        /* \"#utility.yul\":9085:9132   */\n      mstore\n        /* \"#utility.yul\":9149:9280   */\n      tag_274\n        /* \"#utility.yul\":9275:9279   */\n      dup2\n        /* \"#utility.yul\":9149:9280   */\n      tag_230\n      jump\t// in\n    tag_274:\n        /* \"#utility.yul\":9141:9280   */\n      swap1\n      pop\n        /* \"#utility.yul\":8868:9287   */\n      swap2\n      swap1\n      pop\n      jump\t// out\n        /* \"#utility.yul\":9293:9712   */\n    tag_117:\n        /* \"#utility.yul\":9459:9463   */\n      0x00\n        /* \"#utility.yul\":9497:9499   */\n      0x20\n        /* \"#utility.yul\":9486:9495   */\n      dup3\n        /* \"#utility.yul\":9482:9500   */\n      add\n        /* \"#utility.yul\":9474:9500   */\n      swap1\n      pop\n        /* \"#utility.yul\":9546:9555   */\n      dup2\n        /* \"#utility.yul\":9540:9544   */\n      dup2\n        /* \"#utility.yul\":9536:9556   */\n      sub\n        /* \"#utility.yul\":9532:9533   */\n      0x00\n        /* \"#utility.yul\":9521:9530   */\n      dup4\n        /* \"#utility.yul\":9517:9534   */\n      add\n        /* \"#utility.yul\":9510:9557   */\n      mstore\n        /* \"#utility.yul\":9574:9705   */\n      tag_276\n        /* \"#utility.yul\":9700:9704   */\n      dup2\n        /* \"#utility.yul\":9574:9705   */\n      tag_235\n      jump\t// in\n    tag_276:\n        /* \"#utility.yul\":9566:9705   */\n      swap1\n      pop\n        /* \"#utility.yul\":9293:9712   */\n      swap2\n      swap1\n      pop\n      jump\t// out\n        /* \"#utility.yul\":9718:10137   */\n    tag_113:\n        /* \"#utility.yul\":9884:9888   */\n      0x00\n        /* \"#utility.yul\":9922:9924   */\n      0x20\n        /* \"#utility.yul\":9911:9920   */\n      dup3\n        /* \"#utility.yul\":9907:9925   */\n      add\n        /* \"#utility.yul\":9899:9925   */\n      swap1\n      pop\n        /* \"#utility.yul\":9971:9980   */\n      dup2\n        /* \"#utility.yul\":9965:9969   */\n      dup2\n        /* \"#utility.yul\":9961:9981   */\n      sub\n        /* \"#utility.yul\":9957:9958   */\n      0x00\n        /* \"#utility.yul\":9946:9955   */\n      dup4\n        /* \"#utility.yul\":9942:9959   */\n      add\n        /* \"#utility.yul\":9935:9982   */\n      mstore\n        /* \"#utility.yul\":9999:10130   */\n      tag_278\n        /* \"#utility.yul\":10125:10129   */\n      dup2\n        /* \"#utility.yul\":9999:10130   */\n      tag_240\n      jump\t// in\n    tag_278:\n        /* \"#utility.yul\":9991:10130   */\n      swap1\n      pop\n        /* \"#utility.yul\":9718:10137   */\n      swap2\n      swap1\n      pop\n      jump\t// out\n        /* \"#utility.yul\":10143:10562   */\n    tag_104:\n        /* \"#utility.yul\":10309:10313   */\n      0x00\n        /* \"#utility.yul\":10347:10349   */\n      0x20\n        /* \"#utility.yul\":10336:10345   */\n      dup3\n        /* \"#utility.yul\":10332:10350   */\n      add\n        /* \"#utility.yul\":10324:10350   */\n      swap1\n      pop\n        /* \"#utility.yul\":10396:10405   */\n      dup2\n        /* \"#utility.yul\":10390:10394   */\n      dup2\n        /* \"#utility.yul\":10386:10406   */\n      sub\n        /* \"#utility.yul\":10382:10383   */\n      0x00\n        /* \"#utility.yul\":10371:10380   */\n      dup4\n        /* \"#utility.yul\":10367:10384   */\n      add\n        /* \"#utility.yul\":10360:10407   */\n      mstore\n        /* \"#utility.yul\":10424:10555   */\n      tag_280\n        /* \"#utility.yul\":10550:10554   */\n      dup2\n        /* \"#utility.yul\":10424:10555   */\n      tag_245\n      jump\t// in\n    tag_280:\n        /* \"#utility.yul\":10416:10555   */\n      swap1\n      pop\n        /* \"#utility.yul\":10143:10562   */\n      swap2\n      swap1\n      pop\n      jump\t// out\n        /* \"#utility.yul\":10568:10987   */\n    tag_92:\n        /* \"#utility.yul\":10734:10738   */\n      0x00\n        /* \"#utility.yul\":10772:10774   */\n      0x20\n        /* \"#utility.yul\":10761:10770   */\n      dup3\n        /* \"#utility.yul\":10757:10775   */\n      add\n        /* \"#utility.yul\":10749:10775   */\n      swap1\n      pop\n        /* \"#utility.yul\":10821:10830   */\n      dup2\n        /* \"#utility.yul\":10815:10819   */\n      dup2\n        /* \"#utility.yul\":10811:10831   */\n      sub\n        /* \"#utility.yul\":10807:10808   */\n      0x00\n        /* \"#utility.yul\":10796:10805   */\n      dup4\n        /* \"#utility.yul\":10792:10809   */\n      add\n        /* \"#utility.yul\":10785:10832   */\n      mstore\n        /* \"#utility.yul\":10849:10980   */\n      tag_282\n        /* \"#utility.yul\":10975:10979   */\n      dup2\n        /* \"#utility.yul\":10849:10980   */\n      tag_250\n      jump\t// in\n    tag_282:\n        /* \"#utility.yul\":10841:10980   */\n      swap1\n      pop\n        /* \"#utility.yul\":10568:10987   */\n      swap2\n      swap1\n      pop\n      jump\t// out\n        /* \"#utility.yul\":10993:11215   */\n    tag_35:\n        /* \"#utility.yul\":11086:11090   */\n      0x00\n        /* \"#utility.yul\":11124:11126   */\n      0x20\n        /* \"#utility.yul\":11113:11122   */\n      dup3\n        /* \"#utility.yul\":11109:11127   */\n      add\n        /* \"#utility.yul\":11101:11127   */\n      swap1\n      pop\n        /* \"#utility.yul\":11137:11208   */\n      tag_284\n        /* \"#utility.yul\":11205:11206   */\n      0x00\n        /* \"#utility.yul\":11194:11203   */\n      dup4\n        /* \"#utility.yul\":11190:11207   */\n      add\n        /* \"#utility.yul\":11181:11187   */\n      dup5\n        /* \"#utility.yul\":11137:11208   */\n      tag_255\n      jump\t// in\n    tag_284:\n        /* \"#utility.yul\":10993:11215   */\n      swap3\n      swap2\n      pop\n      pop\n      jump\t// out\n        /* \"#utility.yul\":11221:11350   */\n    tag_151:\n        /* \"#utility.yul\":11255:11261   */\n      0x00\n        /* \"#utility.yul\":11282:11302   */\n      tag_286\n      tag_287\n      jump\t// in\n    tag_286:\n        /* \"#utility.yul\":11272:11302   */\n      swap1\n      pop\n        /* \"#utility.yul\":11311:11344   */\n      tag_288\n        /* \"#utility.yul\":11339:11343   */\n      dup3\n        /* \"#utility.yul\":11331:11337   */\n      dup3\n        /* \"#utility.yul\":11311:11344   */\n      tag_289\n      jump\t// in\n    tag_288:\n        /* \"#utility.yul\":11221:11350   */\n      swap2\n      swap1\n      pop\n      jump\t// out\n        /* \"#utility.yul\":11356:11431   */\n    tag_287:\n        /* \"#utility.yul\":11389:11395   */\n      0x00\n        /* \"#utility.yul\":11422:11424   */\n      0x40\n        /* \"#utility.yul\":11416:11425   */\n      mload\n        /* \"#utility.yul\":11406:11425   */\n      swap1\n      pop\n        /* \"#utility.yul\":11356:11431   */\n      swap1\n      jump\t// out\n        /* \"#utility.yul\":11437:11745   */\n    tag_150:\n        /* \"#utility.yul\":11499:11503   */\n      0x00\n        /* \"#utility.yul\":11589:11607   */\n      0xffffffffffffffff\n        /* \"#utility.yul\":11581:11587   */\n      dup3\n        /* \"#utility.yul\":11578:11608   */\n      gt\n        /* \"#utility.yul\":11575:11631   */\n      iszero\n      tag_292\n      jumpi\n        /* \"#utility.yul\":11611:11629   */\n      tag_293\n      tag_294\n      jump\t// in\n    tag_293:\n        /* \"#utility.yul\":11575:11631   */\n    tag_292:\n        /* \"#utility.yul\":11649:11678   */\n      tag_295\n        /* \"#utility.yul\":11671:11677   */\n      dup3\n        /* \"#utility.yul\":11649:11678   */\n      tag_214\n      jump\t// in\n    tag_295:\n        /* \"#utility.yul\":11641:11678   */\n      swap1\n      pop\n        /* \"#utility.yul\":11733:11737   */\n      0x20\n        /* \"#utility.yul\":11727:11731   */\n      dup2\n        /* \"#utility.yul\":11723:11738   */\n      add\n        /* \"#utility.yul\":11715:11738   */\n      swap1\n      pop\n        /* \"#utility.yul\":11437:11745   */\n      swap2\n      swap1\n      pop\n      jump\t// out\n        /* \"#utility.yul\":11751:11850   */\n    tag_208:\n        /* \"#utility.yul\":11803:11809   */\n      0x00\n        /* \"#utility.yul\":11837:11842   */\n      dup2\n        /* \"#utility.yul\":11831:11843   */\n      mload\n        /* \"#utility.yul\":11821:11843   */\n      swap1\n      pop\n        /* \"#utility.yul\":11751:11850   */\n      swap2\n      swap1\n      pop\n      jump\t// out\n        /* \"#utility.yul\":11856:12025   */\n    tag_210:\n        /* \"#utility.yul\":11940:11951   */\n      0x00\n        /* \"#utility.yul\":11974:11980   */\n      dup3\n        /* \"#utility.yul\":11969:11972   */\n      dup3\n        /* \"#utility.yul\":11962:11981   */\n      mstore\n        /* \"#utility.yul\":12014:12018   */\n      0x20\n        /* \"#utility.yul\":12009:12012   */\n      dup3\n        /* \"#utility.yul\":12005:12019   */\n      add\n        /* \"#utility.yul\":11990:12019   */\n      swap1\n      pop\n        /* \"#utility.yul\":11856:12025   */\n      swap3\n      swap2\n      pop\n      pop\n      jump\t// out\n        /* \"#utility.yul\":12031:12336   */\n    tag_108:\n        /* \"#utility.yul\":12071:12074   */\n      0x00\n        /* \"#utility.yul\":12090:12110   */\n      tag_299\n        /* \"#utility.yul\":12108:12109   */\n      dup3\n        /* \"#utility.yul\":12090:12110   */\n      tag_258\n      jump\t// in\n    tag_299:\n        /* \"#utility.yul\":12085:12110   */\n      swap2\n      pop\n        /* \"#utility.yul\":12124:12144   */\n      tag_300\n        /* \"#utility.yul\":12142:12143   */\n      dup4\n        /* \"#utility.yul\":12124:12144   */\n      tag_258\n      jump\t// in\n    tag_300:\n        /* \"#utility.yul\":12119:12144   */\n      swap3\n      pop\n        /* \"#utility.yul\":12278:12279   */\n      dup3\n        /* \"#utility.yul\":12210:12276   */\n      0xffffffffffffffffffffffffffffffffffffffffffffffffffffffffffffffff\n        /* \"#utility.yul\":12206:12280   */\n      sub\n        /* \"#utility.yul\":12203:12204   */\n      dup3\n        /* \"#utility.yul\":12200:12281   */\n      gt\n        /* \"#utility.yul\":12197:12304   */\n      iszero\n      tag_301\n      jumpi\n        /* \"#utility.yul\":12284:12302   */\n      tag_302\n      tag_303\n      jump\t// in\n    tag_302:\n        /* \"#utility.yul\":12197:12304   */\n    tag_301:\n        /* \"#utility.yul\":12328:12329   */\n      dup3\n        /* \"#utility.yul\":12325:12326   */\n      dup3\n        /* \"#utility.yul\":12321:12330   */\n      add\n        /* \"#utility.yul\":12314:12330   */\n      swap1\n      pop\n        /* \"#utility.yul\":12031:12336   */\n      swap3\n      swap2\n      pop\n      pop\n      jump\t// out\n        /* \"#utility.yul\":12342:12533   */\n    tag_134:\n        /* \"#utility.yul\":12382:12386   */\n      0x00\n        /* \"#utility.yul\":12402:12422   */\n      tag_305\n        /* \"#utility.yul\":12420:12421   */\n      dup3\n        /* \"#utility.yul\":12402:12422   */\n      tag_258\n      jump\t// in\n    tag_305:\n        /* \"#utility.yul\":12397:12422   */\n      swap2\n      pop\n        /* \"#utility.yul\":12436:12456   */\n      tag_306\n        /* \"#utility.yul\":12454:12455   */\n      dup4\n        /* \"#utility.yul\":12436:12456   */\n      tag_258\n      jump\t// in\n    tag_306:\n        /* \"#utility.yul\":12431:12456   */\n      swap3\n      pop\n        /* \"#utility.yul\":12475:12476   */\n      dup3\n        /* \"#utility.yul\":12472:12473   */\n      dup3\n        /* \"#utility.yul\":12469:12477   */\n      lt\n        /* \"#utility.yul\":12466:12500   */\n      iszero\n      tag_307\n      jumpi\n        /* \"#utility.yul\":12480:12498   */\n      tag_308\n      tag_303\n      jump\t// in\n    tag_308:\n        /* \"#utility.yul\":12466:12500   */\n    tag_307:\n        /* \"#utility.yul\":12525:12526   */\n      dup3\n        /* \"#utility.yul\":12522:12523   */\n      dup3\n        /* \"#utility.yul\":12518:12527   */\n      sub\n        /* \"#utility.yul\":12510:12527   */\n      swap1\n      pop\n        /* \"#utility.yul\":12342:12533   */\n      swap3\n      swap2\n      pop\n      pop\n      jump\t// out\n        /* \"#utility.yul\":12539:12635   */\n    tag_200:\n        /* \"#utility.yul\":12576:12583   */\n      0x00\n        /* \"#utility.yul\":12605:12629   */\n      tag_310\n        /* \"#utility.yul\":12623:12628   */\n      dup3\n        /* \"#utility.yul\":12605:12629   */\n      tag_311\n      jump\t// in\n    tag_310:\n        /* \"#utility.yul\":12594:12629   */\n      swap1\n      pop\n        /* \"#utility.yul\":12539:12635   */\n      swap2\n      swap1\n      pop\n      jump\t// out\n        /* \"#utility.yul\":12641:12745   */\n    tag_196:\n        /* \"#utility.yul\":12686:12693   */\n      0x00\n        /* \"#utility.yul\":12715:12739   */\n      tag_313\n        /* \"#utility.yul\":12733:12738   */\n      dup3\n        /* \"#utility.yul\":12715:12739   */\n      tag_311\n      jump\t// in\n    tag_313:\n        /* \"#utility.yul\":12704:12739   */\n      swap1\n      pop\n        /* \"#utility.yul\":12641:12745   */\n      swap2\n      swap1\n      pop\n      jump\t// out\n        /* \"#utility.yul\":12751:12841   */\n    tag_204:\n        /* \"#utility.yul\":12785:12792   */\n      0x00\n        /* \"#utility.yul\":12828:12833   */\n      dup2\n        /* \"#utility.yul\":12821:12834   */\n      iszero\n        /* \"#utility.yul\":12814:12835   */\n      iszero\n        /* \"#utility.yul\":12803:12835   */\n      swap1\n      pop\n        /* \"#utility.yul\":12751:12841   */\n      swap2\n      swap1\n      pop\n      jump\t// out\n        /* \"#utility.yul\":12847:12973   */\n    tag_311:\n        /* \"#utility.yul\":12884:12891   */\n      0x00\n        /* \"#utility.yul\":12924:12966   */\n      0xffffffffffffffffffffffffffffffffffffffff\n        /* \"#utility.yul\":12917:12922   */\n      dup3\n        /* \"#utility.yul\":12913:12967   */\n      and\n        /* \"#utility.yul\":12902:12967   */\n      swap1\n      pop\n        /* \"#utility.yul\":12847:12973   */\n      swap2\n      swap1\n      pop\n      jump\t// out\n        /* \"#utility.yul\":12979:13056   */\n    tag_258:\n        /* \"#utility.yul\":13016:13023   */\n      0x00\n        /* \"#utility.yul\":13045:13050   */\n      dup2\n        /* \"#utility.yul\":13034:13050   */\n      swap1\n      pop\n        /* \"#utility.yul\":12979:13056   */\n      swap2\n      swap1\n      pop\n      jump\t// out\n        /* \"#utility.yul\":13062:13216   */\n    tag_156:\n        /* \"#utility.yul\":13146:13152   */\n      dup3\n        /* \"#utility.yul\":13141:13144   */\n      dup2\n        /* \"#utility.yul\":13136:13139   */\n      dup4\n        /* \"#utility.yul\":13123:13153   */\n      calldatacopy\n        /* \"#utility.yul\":13208:13209   */\n      0x00\n        /* \"#utility.yul\":13199:13205   */\n      dup4\n        /* \"#utility.yul\":13194:13197   */\n      dup4\n        /* \"#utility.yul\":13190:13206   */\n      add\n        /* \"#utility.yul\":13183:13210   */\n      mstore\n        /* \"#utility.yul\":13062:13216   */\n      pop\n      pop\n      pop\n      jump\t// out\n        /* \"#utility.yul\":13222:13529   */\n    tag_212:\n        /* \"#utility.yul\":13290:13291   */\n      0x00\n        /* \"#utility.yul\":13300:13413   */\n    tag_319:\n        /* \"#utility.yul\":13314:13320   */\n      dup4\n        /* \"#utility.yul\":13311:13312   */\n      dup2\n        /* \"#utility.yul\":13308:13321   */\n      lt\n        /* \"#utility.yul\":13300:13413   */\n      iszero\n      tag_321\n      jumpi\n        /* \"#utility.yul\":13399:13400   */\n      dup1\n        /* \"#utility.yul\":13394:13397   */\n      dup3\n        /* \"#utility.yul\":13390:13401   */\n      add\n        /* \"#utility.yul\":13384:13402   */\n      mload\n        /* \"#utility.yul\":13380:13381   */\n      dup2\n        /* \"#utility.yul\":13375:13378   */\n      dup5\n        /* \"#utility.yul\":13371:13382   */\n      add\n        /* \"#utility.yul\":13364:13403   */\n      mstore\n        /* \"#utility.yul\":13336:13338   */\n      0x20\n        /* \"#utility.yul\":13333:13334   */\n      dup2\n        /* \"#utility.yul\":13329:13339   */\n      add\n        /* \"#utility.yul\":13324:13339   */\n      swap1\n      pop\n        /* \"#utility.yul\":13300:13413   */\n      jump(tag_319)\n    tag_321:\n        /* \"#utility.yul\":13431:13437   */\n      dup4\n        /* \"#utility.yul\":13428:13429   */\n      dup2\n        /* \"#utility.yul\":13425:13438   */\n      gt\n        /* \"#utility.yul\":13422:13523   */\n      iszero\n      tag_322\n      jumpi\n        /* \"#utility.yul\":13511:13512   */\n      0x00\n        /* \"#utility.yul\":13502:13508   */\n      dup5\n        /* \"#utility.yul\":13497:13500   */\n      dup5\n        /* \"#utility.yul\":13493:13509   */\n      add\n        /* \"#utility.yul\":13486:13513   */\n      mstore\n        /* \"#utility.yul\":13422:13523   */\n    tag_322:\n        /* \"#utility.yul\":13271:13529   */\n      pop\n        /* \"#utility.yul\":13222:13529   */\n      pop\n      pop\n      pop\n      jump\t// out\n        /* \"#utility.yul\":13535:13855   */\n    tag_84:\n        /* \"#utility.yul\":13579:13585   */\n      0x00\n        /* \"#utility.yul\":13616:13617   */\n      0x02\n        /* \"#utility.yul\":13610:13614   */\n      dup3\n        /* \"#utility.yul\":13606:13618   */\n      div\n        /* \"#utility.yul\":13596:13618   */\n      swap1\n      pop\n        /* \"#utility.yul\":13663:13664   */\n      0x01\n        /* \"#utility.yul\":13657:13661   */\n      dup3\n        /* \"#utility.yul\":13653:13665   */\n      and\n        /* \"#utility.yul\":13684:13702   */\n      dup1\n        /* \"#utility.yul\":13674:13755   */\n      tag_324\n      jumpi\n        /* \"#utility.yul\":13740:13744   */\n      0x7f\n        /* \"#utility.yul\":13732:13738   */\n      dup3\n        /* \"#utility.yul\":13728:13745   */\n      and\n        /* \"#utility.yul\":13718:13745   */\n      swap2\n      pop\n        /* \"#utility.yul\":13674:13755   */\n    tag_324:\n        /* \"#utility.yul\":13802:13804   */\n      0x20\n        /* \"#utility.yul\":13794:13800   */\n      dup3\n        /* \"#utility.yul\":13791:13805   */\n      lt\n        /* \"#utility.yul\":13771:13789   */\n      dup2\n        /* \"#utility.yul\":13768:13806   */\n      eq\n        /* \"#utility.yul\":13765:13849   */\n      iszero\n      tag_325\n      jumpi\n        /* \"#utility.yul\":13821:13839   */\n      tag_326\n      tag_327\n      jump\t// in\n    tag_326:\n        /* \"#utility.yul\":13765:13849   */\n    tag_325:\n        /* \"#utility.yul\":13586:13855   */\n      pop\n        /* \"#utility.yul\":13535:13855   */\n      swap2\n      swap1\n      pop\n      jump\t// out\n        /* \"#utility.yul\":13861:14142   */\n    tag_289:\n        /* \"#utility.yul\":13944:13971   */\n      tag_329\n        /* \"#utility.yul\":13966:13970   */\n      dup3\n        /* \"#utility.yul\":13944:13971   */\n      tag_214\n      jump\t// in\n    tag_329:\n        /* \"#utility.yul\":13936:13942   */\n      dup2\n        /* \"#utility.yul\":13932:13972   */\n      add\n        /* \"#utility.yul\":14074:14080   */\n      dup2\n        /* \"#utility.yul\":14062:14072   */\n      dup2\n        /* \"#utility.yul\":14059:14081   */\n      lt\n        /* \"#utility.yul\":14038:14056   */\n      0xffffffffffffffff\n        /* \"#utility.yul\":14026:14036   */\n      dup3\n        /* \"#utility.yul\":14023:14057   */\n      gt\n        /* \"#utility.yul\":14020:14082   */\n      or\n        /* \"#utility.yul\":14017:14105   */\n      iszero\n      tag_330\n      jumpi\n        /* \"#utility.yul\":14085:14103   */\n      tag_331\n      tag_294\n      jump\t// in\n    tag_331:\n        /* \"#utility.yul\":14017:14105   */\n    tag_330:\n        /* \"#utility.yul\":14125:14135   */\n      dup1\n        /* \"#utility.yul\":14121:14123   */\n      0x40\n        /* \"#utility.yul\":14114:14136   */\n      mstore\n        /* \"#utility.yul\":13904:14142   */\n      pop\n        /* \"#utility.yul\":13861:14142   */\n      pop\n      pop\n      jump\t// out\n        /* \"#utility.yul\":14148:14381   */\n    tag_95:\n        /* \"#utility.yul\":14187:14190   */\n      0x00\n        /* \"#utility.yul\":14210:14234   */\n      tag_333\n        /* \"#utility.yul\":14228:14233   */\n      dup3\n        /* \"#utility.yul\":14210:14234   */\n      tag_258\n      jump\t// in\n    tag_333:\n        /* \"#utility.yul\":14201:14234   */\n      swap2\n      pop\n        /* \"#utility.yul\":14256:14322   */\n      0xffffffffffffffffffffffffffffffffffffffffffffffffffffffffffffffff\n        /* \"#utility.yul\":14249:14254   */\n      dup3\n        /* \"#utility.yul\":14246:14323   */\n      eq\n        /* \"#utility.yul\":14243:14346   */\n      iszero\n      tag_334\n      jumpi\n        /* \"#utility.yul\":14326:14344   */\n      tag_335\n      tag_303\n      jump\t// in\n    tag_335:\n        /* \"#utility.yul\":14243:14346   */\n    tag_334:\n        /* \"#utility.yul\":14373:14374   */\n      0x01\n        /* \"#utility.yul\":14366:14371   */\n      dup3\n        /* \"#utility.yul\":14362:14375   */\n      add\n        /* \"#utility.yul\":14355:14375   */\n      swap1\n      pop\n        /* \"#utility.yul\":14148:14381   */\n      swap2\n      swap1\n      pop\n      jump\t// out\n        /* \"#utility.yul\":14387:14567   */\n    tag_303:\n        /* \"#utility.yul\":14435:14512   */\n      0x4e487b7100000000000000000000000000000000000000000000000000000000\n        /* \"#utility.yul\":14432:14433   */\n      0x00\n        /* \"#utility.yul\":14425:14513   */\n      mstore\n        /* \"#utility.yul\":14532:14536   */\n      0x11\n        /* \"#utility.yul\":14529:14530   */\n      0x04\n        /* \"#utility.yul\":14522:14537   */\n      mstore\n        /* \"#utility.yul\":14556:14560   */\n      0x24\n        /* \"#utility.yul\":14553:14554   */\n      0x00\n        /* \"#utility.yul\":14546:14561   */\n      revert\n        /* \"#utility.yul\":14573:14753   */\n    tag_327:\n        /* \"#utility.yul\":14621:14698   */\n      0x4e487b7100000000000000000000000000000000000000000000000000000000\n        /* \"#utility.yul\":14618:14619   */\n      0x00\n        /* \"#utility.yul\":14611:14699   */\n      mstore\n        /* \"#utility.yul\":14718:14722   */\n      0x22\n        /* \"#utility.yul\":14715:14716   */\n      0x04\n        /* \"#utility.yul\":14708:14723   */\n      mstore\n        /* \"#utility.yul\":14742:14746   */\n      0x24\n        /* \"#utility.yul\":14739:14740   */\n      0x00\n        /* \"#utility.yul\":14732:14747   */\n      revert\n        /* \"#utility.yul\":14759:14939   */\n    tag_294:\n        /* \"#utility.yul\":14807:14884   */\n      0x4e487b7100000000000000000000000000000000000000000000000000000000\n        /* \"#utility.yul\":14804:14805   */\n      0x00\n        /* \"#utility.yul\":14797:14885   */\n      mstore\n        /* \"#utility.yul\":14904:14908   */\n      0x41\n        /* \"#utility.yul\":14901:14902   */\n      0x04\n        /* \"#utility.yul\":14894:14909   */\n      mstore\n        /* \"#utility.yul\":14928:14932   */\n      0x24\n        /* \"#utility.yul\":14925:14926   */\n      0x00\n        /* \"#utility.yul\":14918:14933   */\n      revert\n        /* \"#utility.yul\":14945:15062   */\n    tag_169:\n        /* \"#utility.yul\":15054:15055   */\n      0x00\n        /* \"#utility.yul\":15051:15052   */\n      dup1\n        /* \"#utility.yul\":15044:15056   */\n      revert\n        /* \"#utility.yul\":15068:15185   */\n    tag_154:\n        /* \"#utility.yul\":15177:15178   */\n      0x00\n        /* \"#utility.yul\":15174:15175   */\n      dup1\n        /* \"#utility.yul\":15167:15179   */\n      revert\n        /* \"#utility.yul\":15191:15308   */\n    tag_185:\n        /* \"#utility.yul\":15300:15301   */\n      0x00\n        /* \"#utility.yul\":15297:15298   */\n      dup1\n        /* \"#utility.yul\":15290:15302   */\n      revert\n        /* \"#utility.yul\":15314:15431   */\n    tag_178:\n        /* \"#utility.yul\":15423:15424   */\n      0x00\n        /* \"#utility.yul\":15420:15421   */\n      dup1\n        /* \"#utility.yul\":15413:15425   */\n      revert\n        /* \"#utility.yul\":15437:15539   */\n    tag_214:\n        /* \"#utility.yul\":15478:15484   */\n      0x00\n        /* \"#utility.yul\":15529:15531   */\n      0x1f\n        /* \"#utility.yul\":15525:15532   */\n      not\n        /* \"#utility.yul\":15520:15522   */\n      0x1f\n        /* \"#utility.yul\":15513:15518   */\n      dup4\n        /* \"#utility.yul\":15509:15523   */\n      add\n        /* \"#utility.yul\":15505:15533   */\n      and\n        /* \"#utility.yul\":15495:15533   */\n      swap1\n      pop\n        /* \"#utility.yul\":15437:15539   */\n      swap2\n      swap1\n      pop\n      jump\t// out\n        /* \"#utility.yul\":15545:15717   */\n    tag_219:\n        /* \"#utility.yul\":15685:15709   */\n      0x46756e64696e6720776173207375636365737366756c00000000000000000000\n        /* \"#utility.yul\":15681:15682   */\n      0x00\n        /* \"#utility.yul\":15673:15679   */\n      dup3\n        /* \"#utility.yul\":15669:15683   */\n      add\n        /* \"#utility.yul\":15662:15710   */\n      mstore\n        /* \"#utility.yul\":15545:15717   */\n      pop\n      jump\t// out\n        /* \"#utility.yul\":15723:15886   */\n    tag_224:\n        /* \"#utility.yul\":15863:15878   */\n      0x416c726561647920766f74656400000000000000000000000000000000000000\n        /* \"#utility.yul\":15859:15860   */\n      0x00\n        /* \"#utility.yul\":15851:15857   */\n      dup3\n        /* \"#utility.yul\":15847:15861   */\n      add\n        /* \"#utility.yul\":15840:15879   */\n      mstore\n        /* \"#utility.yul\":15723:15886   */\n      pop\n      jump\t// out\n        /* \"#utility.yul\":15892:16058   */\n    tag_229:\n        /* \"#utility.yul\":16032:16050   */\n      0x46756e64696e67206973206f7665722100000000000000000000000000000000\n        /* \"#utility.yul\":16028:16029   */\n      0x00\n        /* \"#utility.yul\":16020:16026   */\n      dup3\n        /* \"#utility.yul\":16016:16030   */\n      add\n        /* \"#utility.yul\":16009:16051   */\n      mstore\n        /* \"#utility.yul\":15892:16058   */\n      pop\n      jump\t// out\n        /* \"#utility.yul\":16064:16234   */\n    tag_234:\n        /* \"#utility.yul\":16204:16226   */\n      0x46756e64696e67206973207374696c6c206f6e21000000000000000000000000\n        /* \"#utility.yul\":16200:16201   */\n      0x00\n        /* \"#utility.yul\":16192:16198   */\n      dup3\n        /* \"#utility.yul\":16188:16202   */\n      add\n        /* \"#utility.yul\":16181:16227   */\n      mstore\n        /* \"#utility.yul\":16064:16234   */\n      pop\n      jump\t// out\n        /* \"#utility.yul\":16240:16402   */\n    tag_239:\n        /* \"#utility.yul\":16380:16394   */\n      0x4e6f7420612066756e6465720000000000000000000000000000000000000000\n        /* \"#utility.yul\":16376:16377   */\n      0x00\n        /* \"#utility.yul\":16368:16374   */\n      dup3\n        /* \"#utility.yul\":16364:16378   */\n      add\n        /* \"#utility.yul\":16357:16395   */\n      mstore\n        /* \"#utility.yul\":16240:16402   */\n      pop\n      jump\t// out\n        /* \"#utility.yul\":16408:16575   */\n    tag_244:\n        /* \"#utility.yul\":16548:16567   */\n      0x436f6d706c6574656420416c7265616479000000000000000000000000000000\n        /* \"#utility.yul\":16544:16545   */\n      0x00\n        /* \"#utility.yul\":16536:16542   */\n      dup3\n        /* \"#utility.yul\":16532:16546   */\n      add\n        /* \"#utility.yul\":16525:16568   */\n      mstore\n        /* \"#utility.yul\":16408:16575   */\n      pop\n      jump\t// out\n        /* \"#utility.yul\":16581:16803   */\n    tag_249:\n        /* \"#utility.yul\":16721:16755   */\n      0x4d696e696d756d20616d6f756e74206372697465726961206e6f742073617469\n        /* \"#utility.yul\":16717:16718   */\n      0x00\n        /* \"#utility.yul\":16709:16715   */\n      dup3\n        /* \"#utility.yul\":16705:16719   */\n      add\n        /* \"#utility.yul\":16698:16756   */\n      mstore\n        /* \"#utility.yul\":16790:16795   */\n      0x7366790000000000000000000000000000000000000000000000000000000000\n        /* \"#utility.yul\":16785:16787   */\n      0x20\n        /* \"#utility.yul\":16777:16783   */\n      dup3\n        /* \"#utility.yul\":16773:16788   */\n      add\n        /* \"#utility.yul\":16766:16796   */\n      mstore\n        /* \"#utility.yul\":16581:16803   */\n      pop\n      jump\t// out\n        /* \"#utility.yul\":16809:16976   */\n    tag_254:\n        /* \"#utility.yul\":16949:16968   */\n      0x596f7520617265206e6f74206f776e6572000000000000000000000000000000\n        /* \"#utility.yul\":16945:16946   */\n      0x00\n        /* \"#utility.yul\":16937:16943   */\n      dup3\n        /* \"#utility.yul\":16933:16947   */\n      add\n        /* \"#utility.yul\":16926:16969   */\n      mstore\n        /* \"#utility.yul\":16809:16976   */\n      pop\n      jump\t// out\n        /* \"#utility.yul\":16982:17104   */\n    tag_160:\n        /* \"#utility.yul\":17055:17079   */\n      tag_353\n        /* \"#utility.yul\":17073:17078   */\n      dup2\n        /* \"#utility.yul\":17055:17079   */\n      tag_200\n      jump\t// in\n    tag_353:\n        /* \"#utility.yul\":17048:17053   */\n      dup2\n        /* \"#utility.yul\":17045:17080   */\n      eq\n        /* \"#utility.yul\":17035:17098   */\n      tag_354\n      jumpi\n        /* \"#utility.yul\":17094:17095   */\n      0x00\n        /* \"#utility.yul\":17091:17092   */\n      dup1\n        /* \"#utility.yul\":17084:17096   */\n      revert\n        /* \"#utility.yul\":17035:17098   */\n    tag_354:\n        /* \"#utility.yul\":16982:17104   */\n      pop\n      jump\t// out\n        /* \"#utility.yul\":17110:17248   */\n    tag_164:\n        /* \"#utility.yul\":17191:17223   */\n      tag_356\n        /* \"#utility.yul\":17217:17222   */\n      dup2\n        /* \"#utility.yul\":17191:17223   */\n      tag_196\n      jump\t// in\n    tag_356:\n        /* \"#utility.yul\":17184:17189   */\n      dup2\n        /* \"#utility.yul\":17181:17224   */\n      eq\n        /* \"#utility.yul\":17171:17242   */\n      tag_357\n      jumpi\n        /* \"#utility.yul\":17238:17239   */\n      0x00\n        /* \"#utility.yul\":17235:17236   */\n      dup1\n        /* \"#utility.yul\":17228:17240   */\n      revert\n        /* \"#utility.yul\":17171:17242   */\n    tag_357:\n        /* \"#utility.yul\":17110:17248   */\n      pop\n      jump\t// out\n        /* \"#utility.yul\":17254:17376   */\n    tag_174:\n        /* \"#utility.yul\":17327:17351   */\n      tag_359\n        /* \"#utility.yul\":17345:17350   */\n      dup2\n        /* \"#utility.yul\":17327:17351   */\n      tag_258\n      jump\t// in\n    tag_359:\n        /* \"#utility.yul\":17320:17325   */\n      dup2\n        /* \"#utility.yul\":17317:17352   */\n      eq\n        /* \"#utility.yul\":17307:17370   */\n      tag_360\n      jumpi\n        /* \"#utility.yul\":17366:17367   */\n      0x00\n        /* \"#utility.yul\":17363:17364   */\n      dup1\n        /* \"#utility.yul\":17356:17368   */\n      revert\n        /* \"#utility.yul\":17307:17370   */\n    tag_360:\n        /* \"#utility.yul\":17254:17376   */\n      pop\n      jump\t// out\n\n    auxdata: 0xa264697066735822122049c04f7a7226974d4ad8a53eac773c053ba41b710010d14e1000dcf6686f1a6f64736f6c63430008070033\n}\n",
				"bytecode": {
					"linkReferences": {},
					"object": "60806040523480156200001157600080fd5b5060405162001752380380620017528339818101604052810190620000379190620000ba565b8160028190555080426200004c919062000101565b600681905550336000806101000a81548173ffffffffffffffffffffffffffffffffffffffff021916908373ffffffffffffffffffffffffffffffffffffffff1602179055506103e86003819055505050620001b6565b600081519050620000b4816200019c565b92915050565b60008060408385031215620000d457620000d362000197565b5b6000620000e485828601620000a3565b9250506020620000f785828601620000a3565b9150509250929050565b60006200010e826200015e565b91506200011b836200015e565b9250827fffffffffffffffffffffffffffffffffffffffffffffffffffffffffffffffff0382111562000153576200015262000168565b5b828201905092915050565b6000819050919050565b7f4e487b7100000000000000000000000000000000000000000000000000000000600052601160045260246000fd5b600080fd5b620001a7816200015e565b8114620001b357600080fd5b50565b61158c80620001c66000396000f3fe6080604052600436106100e15760003560e01c80635114cb521161007f5780639b2cb5d8116100595780639b2cb5d81461029e578063b0636556146102c9578063b2d5ae44146102f2578063e89b7c5514610309576100e8565b80635114cb521461021f5780636681b9fd146102485780638da5cb5b14610273576100e8565b80633c2ed32d116100bb5780633c2ed32d146101945780633e79d1e1146101bf57806340193883146101ea57806350520b1f14610215576100e8565b80630114bd3f146100ed578063031b36771461012e578063277c3da41461016b576100e8565b366100e857005b600080fd5b3480156100f957600080fd5b50610114600480360381019061010f9190610d63565b610334565b604051610125959493929190610f38565b60405180910390f35b34801561013a57600080fd5b5061015560048036038101906101509190610cc7565b61041f565b6040516101629190611092565b60405180910390f35b34801561017757600080fd5b50610192600480360381019061018d9190610cf4565b610437565b005b3480156101a057600080fd5b506101a9610588565b6040516101b69190611092565b60405180910390f35b3480156101cb57600080fd5b506101d461058e565b6040516101e19190611092565b60405180910390f35b3480156101f657600080fd5b506101ff610594565b60405161020c9190611092565b60405180910390f35b61021d61059a565b005b34801561022b57600080fd5b5061024660048036038101906102419190610d63565b6106f5565b005b34801561025457600080fd5b5061025d610768565b60405161026a9190611092565b60405180910390f35b34801561027f57600080fd5b5061028861076e565b6040516102959190610f1d565b60405180910390f35b3480156102aa57600080fd5b506102b3610792565b6040516102c09190611092565b60405180910390f35b3480156102d557600080fd5b506102f060048036038101906102eb9190610d63565b610798565b005b3480156102fe57600080fd5b5061030761093e565b005b34801561031557600080fd5b5061031e610b6f565b60405161032b9190611092565b60405180910390f35b600760205280600052604060002060009150905080600001805461035790611245565b80601f016020809104026020016040519081016040528092919081815260200182805461038390611245565b80156103d05780601f106103a5576101008083540402835291602001916103d0565b820191906000526020600020905b8154815290600101906020018083116103b357829003601f168201915b5050505050908060010154908060020160009054906101000a900473ffffffffffffffffffffffffffffffffffffffff16908060030154908060050160009054906101000a900460ff16905085565b60016020528060005260406000206000915090505481565b3373ffffffffffffffffffffffffffffffffffffffff1660008054906101000a900473ffffffffffffffffffffffffffffffffffffffff1673ffffffffffffffffffffffffffffffffffffffff16146104c5576040517f08c379a00000000000000000000000000000000000000000000000000000000081526004016104bc90611072565b60405180910390fd5b60006007600060085481526020019081526020016000209050600860008154809291906104f1906112a8565b91905055508381600001908051906020019061050e929190610b75565b5082816001018190555060008160050160006101000a81548160ff02191690831515021790555060008160030181905550818160020160006101000a81548173ffffffffffffffffffffffffffffffffffffffff021916908373ffffffffffffffffffffffffffffffffffffffff16021790555050505050565b60085481565b60065481565b60025481565b60065442106105de576040517f08c379a00000000000000000000000000000000000000000000000000000000081526004016105d590610fd2565b60405180910390fd5b600354341015610623576040517f08c379a000000000000000000000000000000000000000000000000000000000815260040161061a90611052565b60405180910390fd5b6000600160003373ffffffffffffffffffffffffffffffffffffffff1673ffffffffffffffffffffffffffffffffffffffff168152602001908152602001600020541415610684576004600081548092919061067e906112a8565b91905055505b34600160003373ffffffffffffffffffffffffffffffffffffffff1673ffffffffffffffffffffffffffffffffffffffff16815260200190815260200160002060008282546106d3919061111f565b9250508190555034600560008282546106ec919061111f565b92505081905550565b6000600760008381526020019081526020016000209050600015158160050160009054906101000a900460ff16151514610764576040517f08c379a000000000000000000000000000000000000000000000000000000000815260040161075b90611032565b60405180910390fd5b5050565b60055481565b60008054906101000a900473ffffffffffffffffffffffffffffffffffffffff1681565b60035481565b6000600160003373ffffffffffffffffffffffffffffffffffffffff1673ffffffffffffffffffffffffffffffffffffffff168152602001908152602001600020541161081a576040517f08c379a000000000000000000000000000000000000000000000000000000000815260040161081190611012565b60405180910390fd5b6000600760008381526020019081526020016000209050600015158160040160003373ffffffffffffffffffffffffffffffffffffffff1673ffffffffffffffffffffffffffffffffffffffff16815260200190815260200160002060009054906101000a900460ff161515146108c6576040517f08c379a00000000000000000000000000000000000000000000000000000000081526004016108bd90610fb2565b60405180910390fd5b60018160040160003373ffffffffffffffffffffffffffffffffffffffff1673ffffffffffffffffffffffffffffffffffffffff16815260200190815260200160002060006101000a81548160ff021916908315150217905550806003016000815480929190610935906112a8565b91905055505050565b6006544211610982576040517f08c379a000000000000000000000000000000000000000000000000000000000815260040161097990610ff2565b60405180910390fd5b600254600554106109c8576040517f08c379a00000000000000000000000000000000000000000000000000000000081526004016109bf90610f92565b60405180910390fd5b6000600160003373ffffffffffffffffffffffffffffffffffffffff1673ffffffffffffffffffffffffffffffffffffffff1681526020019081526020016000205411610a4a576040517f08c379a0000000000000000000000000000000000000000000000000000000008152600401610a4190611012565b60405180910390fd5b3373ffffffffffffffffffffffffffffffffffffffff166108fc600160003373ffffffffffffffffffffffffffffffffffffffff1673ffffffffffffffffffffffffffffffffffffffff168152602001908152602001600020549081150290604051600060405180830381858888f19350505050158015610acf573d6000803e3d6000fd5b50600160003373ffffffffffffffffffffffffffffffffffffffff1673ffffffffffffffffffffffffffffffffffffffff1681526020019081526020016000205460056000828254610b219190611175565b925050819055506000600160003373ffffffffffffffffffffffffffffffffffffffff1673ffffffffffffffffffffffffffffffffffffffff16815260200190815260200160002081905550565b60045481565b828054610b8190611245565b90600052602060002090601f016020900481019282610ba35760008555610bea565b82601f10610bbc57805160ff1916838001178555610bea565b82800160010185558215610bea579182015b82811115610be9578251825591602001919060010190610bce565b5b509050610bf79190610bfb565b5090565b5b80821115610c14576000816000905550600101610bfc565b5090565b6000610c2b610c26846110d2565b6110ad565b905082815260208101848484011115610c4757610c46611383565b5b610c52848285611203565b509392505050565b600081359050610c6981611511565b92915050565b600081359050610c7e81611528565b92915050565b600082601f830112610c9957610c9861137e565b5b8135610ca9848260208601610c18565b91505092915050565b600081359050610cc18161153f565b92915050565b600060208284031215610cdd57610cdc61138d565b5b6000610ceb84828501610c5a565b91505092915050565b600080600060608486031215610d0d57610d0c61138d565b5b600084013567ffffffffffffffff811115610d2b57610d2a611388565b5b610d3786828701610c84565b9350506020610d4886828701610cb2565b9250506040610d5986828701610c6f565b9150509250925092565b600060208284031215610d7957610d7861138d565b5b6000610d8784828501610cb2565b91505092915050565b610d99816111bb565b82525050565b610da8816111a9565b82525050565b610db7816111cd565b82525050565b6000610dc882611103565b610dd2818561110e565b9350610de2818560208601611212565b610deb81611392565b840191505092915050565b6000610e0360168361110e565b9150610e0e826113a3565b602082019050919050565b6000610e26600d8361110e565b9150610e31826113cc565b602082019050919050565b6000610e4960108361110e565b9150610e54826113f5565b602082019050919050565b6000610e6c60148361110e565b9150610e778261141e565b602082019050919050565b6000610e8f600c8361110e565b9150610e9a82611447565b602082019050919050565b6000610eb260118361110e565b9150610ebd82611470565b602082019050919050565b6000610ed560238361110e565b9150610ee082611499565b604082019050919050565b6000610ef860118361110e565b9150610f03826114e8565b602082019050919050565b610f17816111f9565b82525050565b6000602082019050610f326000830184610d9f565b92915050565b600060a0820190508181036000830152610f528188610dbd565b9050610f616020830187610f0e565b610f6e6040830186610d90565b610f7b6060830185610f0e565b610f886080830184610dae565b9695505050505050565b60006020820190508181036000830152610fab81610df6565b9050919050565b60006020820190508181036000830152610fcb81610e19565b9050919050565b60006020820190508181036000830152610feb81610e3c565b9050919050565b6000602082019050818103600083015261100b81610e5f565b9050919050565b6000602082019050818103600083015261102b81610e82565b9050919050565b6000602082019050818103600083015261104b81610ea5565b9050919050565b6000602082019050818103600083015261106b81610ec8565b9050919050565b6000602082019050818103600083015261108b81610eeb565b9050919050565b60006020820190506110a76000830184610f0e565b92915050565b60006110b76110c8565b90506110c38282611277565b919050565b6000604051905090565b600067ffffffffffffffff8211156110ed576110ec61134f565b5b6110f682611392565b9050602081019050919050565b600081519050919050565b600082825260208201905092915050565b600061112a826111f9565b9150611135836111f9565b9250827fffffffffffffffffffffffffffffffffffffffffffffffffffffffffffffffff0382111561116a576111696112f1565b5b828201905092915050565b6000611180826111f9565b915061118b836111f9565b92508282101561119e5761119d6112f1565b5b828203905092915050565b60006111b4826111d9565b9050919050565b60006111c6826111d9565b9050919050565b60008115159050919050565b600073ffffffffffffffffffffffffffffffffffffffff82169050919050565b6000819050919050565b82818337600083830152505050565b60005b83811015611230578082015181840152602081019050611215565b8381111561123f576000848401525b50505050565b6000600282049050600182168061125d57607f821691505b6020821081141561127157611270611320565b5b50919050565b61128082611392565b810181811067ffffffffffffffff8211171561129f5761129e61134f565b5b80604052505050565b60006112b3826111f9565b91507fffffffffffffffffffffffffffffffffffffffffffffffffffffffffffffffff8214156112e6576112e56112f1565b5b600182019050919050565b7f4e487b7100000000000000000000000000000000000000000000000000000000600052601160045260246000fd5b7f4e487b7100000000000000000000000000000000000000000000000000000000600052602260045260246000fd5b7f4e487b7100000000000000000000000000000000000000000000000000000000600052604160045260246000fd5b600080fd5b600080fd5b600080fd5b600080fd5b6000601f19601f8301169050919050565b7f46756e64696e6720776173207375636365737366756c00000000000000000000600082015250565b7f416c726561647920766f74656400000000000000000000000000000000000000600082015250565b7f46756e64696e67206973206f7665722100000000000000000000000000000000600082015250565b7f46756e64696e67206973207374696c6c206f6e21000000000000000000000000600082015250565b7f4e6f7420612066756e6465720000000000000000000000000000000000000000600082015250565b7f436f6d706c6574656420416c7265616479000000000000000000000000000000600082015250565b7f4d696e696d756d20616d6f756e74206372697465726961206e6f74207361746960008201527f7366790000000000000000000000000000000000000000000000000000000000602082015250565b7f596f7520617265206e6f74206f776e6572000000000000000000000000000000600082015250565b61151a816111a9565b811461152557600080fd5b50565b611531816111bb565b811461153c57600080fd5b50565b611548816111f9565b811461155357600080fd5b5056fea264697066735822122049c04f7a7226974d4ad8a53eac773c053ba41b710010d14e1000dcf6686f1a6f64736f6c63430008070033",
					"opcodes": "PUSH1 0x80 PUSH1 0x40 MSTORE CALLVALUE DUP1 ISZERO PUSH3 0x11 JUMPI PUSH1 0x0 DUP1 REVERT JUMPDEST POP PUSH1 0x40 MLOAD PUSH3 0x1752 CODESIZE SUB DUP1 PUSH3 0x1752 DUP4 CODECOPY DUP2 DUP2 ADD PUSH1 0x40 MSTORE DUP2 ADD SWAP1 PUSH3 0x37 SWAP2 SWAP1 PUSH3 0xBA JUMP JUMPDEST DUP2 PUSH1 0x2 DUP2 SWAP1 SSTORE POP DUP1 TIMESTAMP PUSH3 0x4C SWAP2 SWAP1 PUSH3 0x101 JUMP JUMPDEST PUSH1 0x6 DUP2 SWAP1 SSTORE POP CALLER PUSH1 0x0 DUP1 PUSH2 0x100 EXP DUP2 SLOAD DUP2 PUSH20 0xFFFFFFFFFFFFFFFFFFFFFFFFFFFFFFFFFFFFFFFF MUL NOT AND SWAP1 DUP4 PUSH20 0xFFFFFFFFFFFFFFFFFFFFFFFFFFFFFFFFFFFFFFFF AND MUL OR SWAP1 SSTORE POP PUSH2 0x3E8 PUSH1 0x3 DUP2 SWAP1 SSTORE POP POP POP PUSH3 0x1B6 JUMP JUMPDEST PUSH1 0x0 DUP2 MLOAD SWAP1 POP PUSH3 0xB4 DUP2 PUSH3 0x19C JUMP JUMPDEST SWAP3 SWAP2 POP POP JUMP JUMPDEST PUSH1 0x0 DUP1 PUSH1 0x40 DUP4 DUP6 SUB SLT ISZERO PUSH3 0xD4 JUMPI PUSH3 0xD3 PUSH3 0x197 JUMP JUMPDEST JUMPDEST PUSH1 0x0 PUSH3 0xE4 DUP6 DUP3 DUP7 ADD PUSH3 0xA3 JUMP JUMPDEST SWAP3 POP POP PUSH1 0x20 PUSH3 0xF7 DUP6 DUP3 DUP7 ADD PUSH3 0xA3 JUMP JUMPDEST SWAP2 POP POP SWAP3 POP SWAP3 SWAP1 POP JUMP JUMPDEST PUSH1 0x0 PUSH3 0x10E DUP3 PUSH3 0x15E JUMP JUMPDEST SWAP2 POP PUSH3 0x11B DUP4 PUSH3 0x15E JUMP JUMPDEST SWAP3 POP DUP3 PUSH32 0xFFFFFFFFFFFFFFFFFFFFFFFFFFFFFFFFFFFFFFFFFFFFFFFFFFFFFFFFFFFFFFFF SUB DUP3 GT ISZERO PUSH3 0x153 JUMPI PUSH3 0x152 PUSH3 0x168 JUMP JUMPDEST JUMPDEST DUP3 DUP3 ADD SWAP1 POP SWAP3 SWAP2 POP POP JUMP JUMPDEST PUSH1 0x0 DUP2 SWAP1 POP SWAP2 SWAP1 POP JUMP JUMPDEST PUSH32 0x4E487B7100000000000000000000000000000000000000000000000000000000 PUSH1 0x0 MSTORE PUSH1 0x11 PUSH1 0x4 MSTORE PUSH1 0x24 PUSH1 0x0 REVERT JUMPDEST PUSH1 0x0 DUP1 REVERT JUMPDEST PUSH3 0x1A7 DUP2 PUSH3 0x15E JUMP JUMPDEST DUP2 EQ PUSH3 0x1B3 JUMPI PUSH1 0x0 DUP1 REVERT JUMPDEST POP JUMP JUMPDEST PUSH2 0x158C DUP1 PUSH3 0x1C6 PUSH1 0x0 CODECOPY PUSH1 0x0 RETURN INVALID PUSH1 0x80 PUSH1 0x40 MSTORE PUSH1 0x4 CALLDATASIZE LT PUSH2 0xE1 JUMPI PUSH1 0x0 CALLDATALOAD PUSH1 0xE0 SHR DUP1 PUSH4 0x5114CB52 GT PUSH2 0x7F JUMPI DUP1 PUSH4 0x9B2CB5D8 GT PUSH2 0x59 JUMPI DUP1 PUSH4 0x9B2CB5D8 EQ PUSH2 0x29E JUMPI DUP1 PUSH4 0xB0636556 EQ PUSH2 0x2C9 JUMPI DUP1 PUSH4 0xB2D5AE44 EQ PUSH2 0x2F2 JUMPI DUP1 PUSH4 0xE89B7C55 EQ PUSH2 0x309 JUMPI PUSH2 0xE8 JUMP JUMPDEST DUP1 PUSH4 0x5114CB52 EQ PUSH2 0x21F JUMPI DUP1 PUSH4 0x6681B9FD EQ PUSH2 0x248 JUMPI DUP1 PUSH4 0x8DA5CB5B EQ PUSH2 0x273 JUMPI PUSH2 0xE8 JUMP JUMPDEST DUP1 PUSH4 0x3C2ED32D GT PUSH2 0xBB JUMPI DUP1 PUSH4 0x3C2ED32D EQ PUSH2 0x194 JUMPI DUP1 PUSH4 0x3E79D1E1 EQ PUSH2 0x1BF JUMPI DUP1 PUSH4 0x40193883 EQ PUSH2 0x1EA JUMPI DUP1 PUSH4 0x50520B1F EQ PUSH2 0x215 JUMPI PUSH2 0xE8 JUMP JUMPDEST DUP1 PUSH4 0x114BD3F EQ PUSH2 0xED JUMPI DUP1 PUSH4 0x31B3677 EQ PUSH2 0x12E JUMPI DUP1 PUSH4 0x277C3DA4 EQ PUSH2 0x16B JUMPI PUSH2 0xE8 JUMP JUMPDEST CALLDATASIZE PUSH2 0xE8 JUMPI STOP JUMPDEST PUSH1 0x0 DUP1 REVERT JUMPDEST CALLVALUE DUP1 ISZERO PUSH2 0xF9 JUMPI PUSH1 0x0 DUP1 REVERT JUMPDEST POP PUSH2 0x114 PUSH1 0x4 DUP1 CALLDATASIZE SUB DUP2 ADD SWAP1 PUSH2 0x10F SWAP2 SWAP1 PUSH2 0xD63 JUMP JUMPDEST PUSH2 0x334 JUMP JUMPDEST PUSH1 0x40 MLOAD PUSH2 0x125 SWAP6 SWAP5 SWAP4 SWAP3 SWAP2 SWAP1 PUSH2 0xF38 JUMP JUMPDEST PUSH1 0x40 MLOAD DUP1 SWAP2 SUB SWAP1 RETURN JUMPDEST CALLVALUE DUP1 ISZERO PUSH2 0x13A JUMPI PUSH1 0x0 DUP1 REVERT JUMPDEST POP PUSH2 0x155 PUSH1 0x4 DUP1 CALLDATASIZE SUB DUP2 ADD SWAP1 PUSH2 0x150 SWAP2 SWAP1 PUSH2 0xCC7 JUMP JUMPDEST PUSH2 0x41F JUMP JUMPDEST PUSH1 0x40 MLOAD PUSH2 0x162 SWAP2 SWAP1 PUSH2 0x1092 JUMP JUMPDEST PUSH1 0x40 MLOAD DUP1 SWAP2 SUB SWAP1 RETURN JUMPDEST CALLVALUE DUP1 ISZERO PUSH2 0x177 JUMPI PUSH1 0x0 DUP1 REVERT JUMPDEST POP PUSH2 0x192 PUSH1 0x4 DUP1 CALLDATASIZE SUB DUP2 ADD SWAP1 PUSH2 0x18D SWAP2 SWAP1 PUSH2 0xCF4 JUMP JUMPDEST PUSH2 0x437 JUMP JUMPDEST STOP JUMPDEST CALLVALUE DUP1 ISZERO PUSH2 0x1A0 JUMPI PUSH1 0x0 DUP1 REVERT JUMPDEST POP PUSH2 0x1A9 PUSH2 0x588 JUMP JUMPDEST PUSH1 0x40 MLOAD PUSH2 0x1B6 SWAP2 SWAP1 PUSH2 0x1092 JUMP JUMPDEST PUSH1 0x40 MLOAD DUP1 SWAP2 SUB SWAP1 RETURN JUMPDEST CALLVALUE DUP1 ISZERO PUSH2 0x1CB JUMPI PUSH1 0x0 DUP1 REVERT JUMPDEST POP PUSH2 0x1D4 PUSH2 0x58E JUMP JUMPDEST PUSH1 0x40 MLOAD PUSH2 0x1E1 SWAP2 SWAP1 PUSH2 0x1092 JUMP JUMPDEST PUSH1 0x40 MLOAD DUP1 SWAP2 SUB SWAP1 RETURN JUMPDEST CALLVALUE DUP1 ISZERO PUSH2 0x1F6 JUMPI PUSH1 0x0 DUP1 REVERT JUMPDEST POP PUSH2 0x1FF PUSH2 0x594 JUMP JUMPDEST PUSH1 0x40 MLOAD PUSH2 0x20C SWAP2 SWAP1 PUSH2 0x1092 JUMP JUMPDEST PUSH1 0x40 MLOAD DUP1 SWAP2 SUB SWAP1 RETURN JUMPDEST PUSH2 0x21D PUSH2 0x59A JUMP JUMPDEST STOP JUMPDEST CALLVALUE DUP1 ISZERO PUSH2 0x22B JUMPI PUSH1 0x0 DUP1 REVERT JUMPDEST POP PUSH2 0x246 PUSH1 0x4 DUP1 CALLDATASIZE SUB DUP2 ADD SWAP1 PUSH2 0x241 SWAP2 SWAP1 PUSH2 0xD63 JUMP JUMPDEST PUSH2 0x6F5 JUMP JUMPDEST STOP JUMPDEST CALLVALUE DUP1 ISZERO PUSH2 0x254 JUMPI PUSH1 0x0 DUP1 REVERT JUMPDEST POP PUSH2 0x25D PUSH2 0x768 JUMP JUMPDEST PUSH1 0x40 MLOAD PUSH2 0x26A SWAP2 SWAP1 PUSH2 0x1092 JUMP JUMPDEST PUSH1 0x40 MLOAD DUP1 SWAP2 SUB SWAP1 RETURN JUMPDEST CALLVALUE DUP1 ISZERO PUSH2 0x27F JUMPI PUSH1 0x0 DUP1 REVERT JUMPDEST POP PUSH2 0x288 PUSH2 0x76E JUMP JUMPDEST PUSH1 0x40 MLOAD PUSH2 0x295 SWAP2 SWAP1 PUSH2 0xF1D JUMP JUMPDEST PUSH1 0x40 MLOAD DUP1 SWAP2 SUB SWAP1 RETURN JUMPDEST CALLVALUE DUP1 ISZERO PUSH2 0x2AA JUMPI PUSH1 0x0 DUP1 REVERT JUMPDEST POP PUSH2 0x2B3 PUSH2 0x792 JUMP JUMPDEST PUSH1 0x40 MLOAD PUSH2 0x2C0 SWAP2 SWAP1 PUSH2 0x1092 JUMP JUMPDEST PUSH1 0x40 MLOAD DUP1 SWAP2 SUB SWAP1 RETURN JUMPDEST CALLVALUE DUP1 ISZERO PUSH2 0x2D5 JUMPI PUSH1 0x0 DUP1 REVERT JUMPDEST POP PUSH2 0x2F0 PUSH1 0x4 DUP1 CALLDATASIZE SUB DUP2 ADD SWAP1 PUSH2 0x2EB SWAP2 SWAP1 PUSH2 0xD63 JUMP JUMPDEST PUSH2 0x798 JUMP JUMPDEST STOP JUMPDEST CALLVALUE DUP1 ISZERO PUSH2 0x2FE JUMPI PUSH1 0x0 DUP1 REVERT JUMPDEST POP PUSH2 0x307 PUSH2 0x93E JUMP JUMPDEST STOP JUMPDEST CALLVALUE DUP1 ISZERO PUSH2 0x315 JUMPI PUSH1 0x0 DUP1 REVERT JUMPDEST POP PUSH2 0x31E PUSH2 0xB6F JUMP JUMPDEST PUSH1 0x40 MLOAD PUSH2 0x32B SWAP2 SWAP1 PUSH2 0x1092 JUMP JUMPDEST PUSH1 0x40 MLOAD DUP1 SWAP2 SUB SWAP1 RETURN JUMPDEST PUSH1 0x7 PUSH1 0x20 MSTORE DUP1 PUSH1 0x0 MSTORE PUSH1 0x40 PUSH1 0x0 KECCAK256 PUSH1 0x0 SWAP2 POP SWAP1 POP DUP1 PUSH1 0x0 ADD DUP1 SLOAD PUSH2 0x357 SWAP1 PUSH2 0x1245 JUMP JUMPDEST DUP1 PUSH1 0x1F ADD PUSH1 0x20 DUP1 SWAP2 DIV MUL PUSH1 0x20 ADD PUSH1 0x40 MLOAD SWAP1 DUP2 ADD PUSH1 0x40 MSTORE DUP1 SWAP3 SWAP2 SWAP1 DUP2 DUP2 MSTORE PUSH1 0x20 ADD DUP3 DUP1 SLOAD PUSH2 0x383 SWAP1 PUSH2 0x1245 JUMP JUMPDEST DUP1 ISZERO PUSH2 0x3D0 JUMPI DUP1 PUSH1 0x1F LT PUSH2 0x3A5 JUMPI PUSH2 0x100 DUP1 DUP4 SLOAD DIV MUL DUP4 MSTORE SWAP2 PUSH1 0x20 ADD SWAP2 PUSH2 0x3D0 JUMP JUMPDEST DUP3 ADD SWAP2 SWAP1 PUSH1 0x0 MSTORE PUSH1 0x20 PUSH1 0x0 KECCAK256 SWAP1 JUMPDEST DUP2 SLOAD DUP2 MSTORE SWAP1 PUSH1 0x1 ADD SWAP1 PUSH1 0x20 ADD DUP1 DUP4 GT PUSH2 0x3B3 JUMPI DUP3 SWAP1 SUB PUSH1 0x1F AND DUP3 ADD SWAP2 JUMPDEST POP POP POP POP POP SWAP1 DUP1 PUSH1 0x1 ADD SLOAD SWAP1 DUP1 PUSH1 0x2 ADD PUSH1 0x0 SWAP1 SLOAD SWAP1 PUSH2 0x100 EXP SWAP1 DIV PUSH20 0xFFFFFFFFFFFFFFFFFFFFFFFFFFFFFFFFFFFFFFFF AND SWAP1 DUP1 PUSH1 0x3 ADD SLOAD SWAP1 DUP1 PUSH1 0x5 ADD PUSH1 0x0 SWAP1 SLOAD SWAP1 PUSH2 0x100 EXP SWAP1 DIV PUSH1 0xFF AND SWAP1 POP DUP6 JUMP JUMPDEST PUSH1 0x1 PUSH1 0x20 MSTORE DUP1 PUSH1 0x0 MSTORE PUSH1 0x40 PUSH1 0x0 KECCAK256 PUSH1 0x0 SWAP2 POP SWAP1 POP SLOAD DUP2 JUMP JUMPDEST CALLER PUSH20 0xFFFFFFFFFFFFFFFFFFFFFFFFFFFFFFFFFFFFFFFF AND PUSH1 0x0 DUP1 SLOAD SWAP1 PUSH2 0x100 EXP SWAP1 DIV PUSH20 0xFFFFFFFFFFFFFFFFFFFFFFFFFFFFFFFFFFFFFFFF AND PUSH20 0xFFFFFFFFFFFFFFFFFFFFFFFFFFFFFFFFFFFFFFFF AND EQ PUSH2 0x4C5 JUMPI PUSH1 0x40 MLOAD PUSH32 0x8C379A000000000000000000000000000000000000000000000000000000000 DUP2 MSTORE PUSH1 0x4 ADD PUSH2 0x4BC SWAP1 PUSH2 0x1072 JUMP JUMPDEST PUSH1 0x40 MLOAD DUP1 SWAP2 SUB SWAP1 REVERT JUMPDEST PUSH1 0x0 PUSH1 0x7 PUSH1 0x0 PUSH1 0x8 SLOAD DUP2 MSTORE PUSH1 0x20 ADD SWAP1 DUP2 MSTORE PUSH1 0x20 ADD PUSH1 0x0 KECCAK256 SWAP1 POP PUSH1 0x8 PUSH1 0x0 DUP2 SLOAD DUP1 SWAP3 SWAP2 SWAP1 PUSH2 0x4F1 SWAP1 PUSH2 0x12A8 JUMP JUMPDEST SWAP2 SWAP1 POP SSTORE POP DUP4 DUP2 PUSH1 0x0 ADD SWAP1 DUP1 MLOAD SWAP1 PUSH1 0x20 ADD SWAP1 PUSH2 0x50E SWAP3 SWAP2 SWAP1 PUSH2 0xB75 JUMP JUMPDEST POP DUP3 DUP2 PUSH1 0x1 ADD DUP2 SWAP1 SSTORE POP PUSH1 0x0 DUP2 PUSH1 0x5 ADD PUSH1 0x0 PUSH2 0x100 EXP DUP2 SLOAD DUP2 PUSH1 0xFF MUL NOT AND SWAP1 DUP4 ISZERO ISZERO MUL OR SWAP1 SSTORE POP PUSH1 0x0 DUP2 PUSH1 0x3 ADD DUP2 SWAP1 SSTORE POP DUP2 DUP2 PUSH1 0x2 ADD PUSH1 0x0 PUSH2 0x100 EXP DUP2 SLOAD DUP2 PUSH20 0xFFFFFFFFFFFFFFFFFFFFFFFFFFFFFFFFFFFFFFFF MUL NOT AND SWAP1 DUP4 PUSH20 0xFFFFFFFFFFFFFFFFFFFFFFFFFFFFFFFFFFFFFFFF AND MUL OR SWAP1 SSTORE POP POP POP POP POP JUMP JUMPDEST PUSH1 0x8 SLOAD DUP2 JUMP JUMPDEST PUSH1 0x6 SLOAD DUP2 JUMP JUMPDEST PUSH1 0x2 SLOAD DUP2 JUMP JUMPDEST PUSH1 0x6 SLOAD TIMESTAMP LT PUSH2 0x5DE JUMPI PUSH1 0x40 MLOAD PUSH32 0x8C379A000000000000000000000000000000000000000000000000000000000 DUP2 MSTORE PUSH1 0x4 ADD PUSH2 0x5D5 SWAP1 PUSH2 0xFD2 JUMP JUMPDEST PUSH1 0x40 MLOAD DUP1 SWAP2 SUB SWAP1 REVERT JUMPDEST PUSH1 0x3 SLOAD CALLVALUE LT ISZERO PUSH2 0x623 JUMPI PUSH1 0x40 MLOAD PUSH32 0x8C379A000000000000000000000000000000000000000000000000000000000 DUP2 MSTORE PUSH1 0x4 ADD PUSH2 0x61A SWAP1 PUSH2 0x1052 JUMP JUMPDEST PUSH1 0x40 MLOAD DUP1 SWAP2 SUB SWAP1 REVERT JUMPDEST PUSH1 0x0 PUSH1 0x1 PUSH1 0x0 CALLER PUSH20 0xFFFFFFFFFFFFFFFFFFFFFFFFFFFFFFFFFFFFFFFF AND PUSH20 0xFFFFFFFFFFFFFFFFFFFFFFFFFFFFFFFFFFFFFFFF AND DUP2 MSTORE PUSH1 0x20 ADD SWAP1 DUP2 MSTORE PUSH1 0x20 ADD PUSH1 0x0 KECCAK256 SLOAD EQ ISZERO PUSH2 0x684 JUMPI PUSH1 0x4 PUSH1 0x0 DUP2 SLOAD DUP1 SWAP3 SWAP2 SWAP1 PUSH2 0x67E SWAP1 PUSH2 0x12A8 JUMP JUMPDEST SWAP2 SWAP1 POP SSTORE POP JUMPDEST CALLVALUE PUSH1 0x1 PUSH1 0x0 CALLER PUSH20 0xFFFFFFFFFFFFFFFFFFFFFFFFFFFFFFFFFFFFFFFF AND PUSH20 0xFFFFFFFFFFFFFFFFFFFFFFFFFFFFFFFFFFFFFFFF AND DUP2 MSTORE PUSH1 0x20 ADD SWAP1 DUP2 MSTORE PUSH1 0x20 ADD PUSH1 0x0 KECCAK256 PUSH1 0x0 DUP3 DUP3 SLOAD PUSH2 0x6D3 SWAP2 SWAP1 PUSH2 0x111F JUMP JUMPDEST SWAP3 POP POP DUP2 SWAP1 SSTORE POP CALLVALUE PUSH1 0x5 PUSH1 0x0 DUP3 DUP3 SLOAD PUSH2 0x6EC SWAP2 SWAP1 PUSH2 0x111F JUMP JUMPDEST SWAP3 POP POP DUP2 SWAP1 SSTORE POP JUMP JUMPDEST PUSH1 0x0 PUSH1 0x7 PUSH1 0x0 DUP4 DUP2 MSTORE PUSH1 0x20 ADD SWAP1 DUP2 MSTORE PUSH1 0x20 ADD PUSH1 0x0 KECCAK256 SWAP1 POP PUSH1 0x0 ISZERO ISZERO DUP2 PUSH1 0x5 ADD PUSH1 0x0 SWAP1 SLOAD SWAP1 PUSH2 0x100 EXP SWAP1 DIV PUSH1 0xFF AND ISZERO ISZERO EQ PUSH2 0x764 JUMPI PUSH1 0x40 MLOAD PUSH32 0x8C379A000000000000000000000000000000000000000000000000000000000 DUP2 MSTORE PUSH1 0x4 ADD PUSH2 0x75B SWAP1 PUSH2 0x1032 JUMP JUMPDEST PUSH1 0x40 MLOAD DUP1 SWAP2 SUB SWAP1 REVERT JUMPDEST POP POP JUMP JUMPDEST PUSH1 0x5 SLOAD DUP2 JUMP JUMPDEST PUSH1 0x0 DUP1 SLOAD SWAP1 PUSH2 0x100 EXP SWAP1 DIV PUSH20 0xFFFFFFFFFFFFFFFFFFFFFFFFFFFFFFFFFFFFFFFF AND DUP2 JUMP JUMPDEST PUSH1 0x3 SLOAD DUP2 JUMP JUMPDEST PUSH1 0x0 PUSH1 0x1 PUSH1 0x0 CALLER PUSH20 0xFFFFFFFFFFFFFFFFFFFFFFFFFFFFFFFFFFFFFFFF AND PUSH20 0xFFFFFFFFFFFFFFFFFFFFFFFFFFFFFFFFFFFFFFFF AND DUP2 MSTORE PUSH1 0x20 ADD SWAP1 DUP2 MSTORE PUSH1 0x20 ADD PUSH1 0x0 KECCAK256 SLOAD GT PUSH2 0x81A JUMPI PUSH1 0x40 MLOAD PUSH32 0x8C379A000000000000000000000000000000000000000000000000000000000 DUP2 MSTORE PUSH1 0x4 ADD PUSH2 0x811 SWAP1 PUSH2 0x1012 JUMP JUMPDEST PUSH1 0x40 MLOAD DUP1 SWAP2 SUB SWAP1 REVERT JUMPDEST PUSH1 0x0 PUSH1 0x7 PUSH1 0x0 DUP4 DUP2 MSTORE PUSH1 0x20 ADD SWAP1 DUP2 MSTORE PUSH1 0x20 ADD PUSH1 0x0 KECCAK256 SWAP1 POP PUSH1 0x0 ISZERO ISZERO DUP2 PUSH1 0x4 ADD PUSH1 0x0 CALLER PUSH20 0xFFFFFFFFFFFFFFFFFFFFFFFFFFFFFFFFFFFFFFFF AND PUSH20 0xFFFFFFFFFFFFFFFFFFFFFFFFFFFFFFFFFFFFFFFF AND DUP2 MSTORE PUSH1 0x20 ADD SWAP1 DUP2 MSTORE PUSH1 0x20 ADD PUSH1 0x0 KECCAK256 PUSH1 0x0 SWAP1 SLOAD SWAP1 PUSH2 0x100 EXP SWAP1 DIV PUSH1 0xFF AND ISZERO ISZERO EQ PUSH2 0x8C6 JUMPI PUSH1 0x40 MLOAD PUSH32 0x8C379A000000000000000000000000000000000000000000000000000000000 DUP2 MSTORE PUSH1 0x4 ADD PUSH2 0x8BD SWAP1 PUSH2 0xFB2 JUMP JUMPDEST PUSH1 0x40 MLOAD DUP1 SWAP2 SUB SWAP1 REVERT JUMPDEST PUSH1 0x1 DUP2 PUSH1 0x4 ADD PUSH1 0x0 CALLER PUSH20 0xFFFFFFFFFFFFFFFFFFFFFFFFFFFFFFFFFFFFFFFF AND PUSH20 0xFFFFFFFFFFFFFFFFFFFFFFFFFFFFFFFFFFFFFFFF AND DUP2 MSTORE PUSH1 0x20 ADD SWAP1 DUP2 MSTORE PUSH1 0x20 ADD PUSH1 0x0 KECCAK256 PUSH1 0x0 PUSH2 0x100 EXP DUP2 SLOAD DUP2 PUSH1 0xFF MUL NOT AND SWAP1 DUP4 ISZERO ISZERO MUL OR SWAP1 SSTORE POP DUP1 PUSH1 0x3 ADD PUSH1 0x0 DUP2 SLOAD DUP1 SWAP3 SWAP2 SWAP1 PUSH2 0x935 SWAP1 PUSH2 0x12A8 JUMP JUMPDEST SWAP2 SWAP1 POP SSTORE POP POP POP JUMP JUMPDEST PUSH1 0x6 SLOAD TIMESTAMP GT PUSH2 0x982 JUMPI PUSH1 0x40 MLOAD PUSH32 0x8C379A000000000000000000000000000000000000000000000000000000000 DUP2 MSTORE PUSH1 0x4 ADD PUSH2 0x979 SWAP1 PUSH2 0xFF2 JUMP JUMPDEST PUSH1 0x40 MLOAD DUP1 SWAP2 SUB SWAP1 REVERT JUMPDEST PUSH1 0x2 SLOAD PUSH1 0x5 SLOAD LT PUSH2 0x9C8 JUMPI PUSH1 0x40 MLOAD PUSH32 0x8C379A000000000000000000000000000000000000000000000000000000000 DUP2 MSTORE PUSH1 0x4 ADD PUSH2 0x9BF SWAP1 PUSH2 0xF92 JUMP JUMPDEST PUSH1 0x40 MLOAD DUP1 SWAP2 SUB SWAP1 REVERT JUMPDEST PUSH1 0x0 PUSH1 0x1 PUSH1 0x0 CALLER PUSH20 0xFFFFFFFFFFFFFFFFFFFFFFFFFFFFFFFFFFFFFFFF AND PUSH20 0xFFFFFFFFFFFFFFFFFFFFFFFFFFFFFFFFFFFFFFFF AND DUP2 MSTORE PUSH1 0x20 ADD SWAP1 DUP2 MSTORE PUSH1 0x20 ADD PUSH1 0x0 KECCAK256 SLOAD GT PUSH2 0xA4A JUMPI PUSH1 0x40 MLOAD PUSH32 0x8C379A000000000000000000000000000000000000000000000000000000000 DUP2 MSTORE PUSH1 0x4 ADD PUSH2 0xA41 SWAP1 PUSH2 0x1012 JUMP JUMPDEST PUSH1 0x40 MLOAD DUP1 SWAP2 SUB SWAP1 REVERT JUMPDEST CALLER PUSH20 0xFFFFFFFFFFFFFFFFFFFFFFFFFFFFFFFFFFFFFFFF AND PUSH2 0x8FC PUSH1 0x1 PUSH1 0x0 CALLER PUSH20 0xFFFFFFFFFFFFFFFFFFFFFFFFFFFFFFFFFFFFFFFF AND PUSH20 0xFFFFFFFFFFFFFFFFFFFFFFFFFFFFFFFFFFFFFFFF AND DUP2 MSTORE PUSH1 0x20 ADD SWAP1 DUP2 MSTORE PUSH1 0x20 ADD PUSH1 0x0 KECCAK256 SLOAD SWAP1 DUP2 ISZERO MUL SWAP1 PUSH1 0x40 MLOAD PUSH1 0x0 PUSH1 0x40 MLOAD DUP1 DUP4 SUB DUP2 DUP6 DUP9 DUP9 CALL SWAP4 POP POP POP POP ISZERO DUP1 ISZERO PUSH2 0xACF JUMPI RETURNDATASIZE PUSH1 0x0 DUP1 RETURNDATACOPY RETURNDATASIZE PUSH1 0x0 REVERT JUMPDEST POP PUSH1 0x1 PUSH1 0x0 CALLER PUSH20 0xFFFFFFFFFFFFFFFFFFFFFFFFFFFFFFFFFFFFFFFF AND PUSH20 0xFFFFFFFFFFFFFFFFFFFFFFFFFFFFFFFFFFFFFFFF AND DUP2 MSTORE PUSH1 0x20 ADD SWAP1 DUP2 MSTORE PUSH1 0x20 ADD PUSH1 0x0 KECCAK256 SLOAD PUSH1 0x5 PUSH1 0x0 DUP3 DUP3 SLOAD PUSH2 0xB21 SWAP2 SWAP1 PUSH2 0x1175 JUMP JUMPDEST SWAP3 POP POP DUP2 SWAP1 SSTORE POP PUSH1 0x0 PUSH1 0x1 PUSH1 0x0 CALLER PUSH20 0xFFFFFFFFFFFFFFFFFFFFFFFFFFFFFFFFFFFFFFFF AND PUSH20 0xFFFFFFFFFFFFFFFFFFFFFFFFFFFFFFFFFFFFFFFF AND DUP2 MSTORE PUSH1 0x20 ADD SWAP1 DUP2 MSTORE PUSH1 0x20 ADD PUSH1 0x0 KECCAK256 DUP2 SWAP1 SSTORE POP JUMP JUMPDEST PUSH1 0x4 SLOAD DUP2 JUMP JUMPDEST DUP3 DUP1 SLOAD PUSH2 0xB81 SWAP1 PUSH2 0x1245 JUMP JUMPDEST SWAP1 PUSH1 0x0 MSTORE PUSH1 0x20 PUSH1 0x0 KECCAK256 SWAP1 PUSH1 0x1F ADD PUSH1 0x20 SWAP1 DIV DUP2 ADD SWAP3 DUP3 PUSH2 0xBA3 JUMPI PUSH1 0x0 DUP6 SSTORE PUSH2 0xBEA JUMP JUMPDEST DUP3 PUSH1 0x1F LT PUSH2 0xBBC JUMPI DUP1 MLOAD PUSH1 0xFF NOT AND DUP4 DUP1 ADD OR DUP6 SSTORE PUSH2 0xBEA JUMP JUMPDEST DUP3 DUP1 ADD PUSH1 0x1 ADD DUP6 SSTORE DUP3 ISZERO PUSH2 0xBEA JUMPI SWAP2 DUP3 ADD JUMPDEST DUP3 DUP2 GT ISZERO PUSH2 0xBE9 JUMPI DUP3 MLOAD DUP3 SSTORE SWAP2 PUSH1 0x20 ADD SWAP2 SWAP1 PUSH1 0x1 ADD SWAP1 PUSH2 0xBCE JUMP JUMPDEST JUMPDEST POP SWAP1 POP PUSH2 0xBF7 SWAP2 SWAP1 PUSH2 0xBFB JUMP JUMPDEST POP SWAP1 JUMP JUMPDEST JUMPDEST DUP1 DUP3 GT ISZERO PUSH2 0xC14 JUMPI PUSH1 0x0 DUP2 PUSH1 0x0 SWAP1 SSTORE POP PUSH1 0x1 ADD PUSH2 0xBFC JUMP JUMPDEST POP SWAP1 JUMP JUMPDEST PUSH1 0x0 PUSH2 0xC2B PUSH2 0xC26 DUP5 PUSH2 0x10D2 JUMP JUMPDEST PUSH2 0x10AD JUMP JUMPDEST SWAP1 POP DUP3 DUP2 MSTORE PUSH1 0x20 DUP2 ADD DUP5 DUP5 DUP5 ADD GT ISZERO PUSH2 0xC47 JUMPI PUSH2 0xC46 PUSH2 0x1383 JUMP JUMPDEST JUMPDEST PUSH2 0xC52 DUP5 DUP3 DUP6 PUSH2 0x1203 JUMP JUMPDEST POP SWAP4 SWAP3 POP POP POP JUMP JUMPDEST PUSH1 0x0 DUP2 CALLDATALOAD SWAP1 POP PUSH2 0xC69 DUP2 PUSH2 0x1511 JUMP JUMPDEST SWAP3 SWAP2 POP POP JUMP JUMPDEST PUSH1 0x0 DUP2 CALLDATALOAD SWAP1 POP PUSH2 0xC7E DUP2 PUSH2 0x1528 JUMP JUMPDEST SWAP3 SWAP2 POP POP JUMP JUMPDEST PUSH1 0x0 DUP3 PUSH1 0x1F DUP4 ADD SLT PUSH2 0xC99 JUMPI PUSH2 0xC98 PUSH2 0x137E JUMP JUMPDEST JUMPDEST DUP2 CALLDATALOAD PUSH2 0xCA9 DUP5 DUP3 PUSH1 0x20 DUP7 ADD PUSH2 0xC18 JUMP JUMPDEST SWAP2 POP POP SWAP3 SWAP2 POP POP JUMP JUMPDEST PUSH1 0x0 DUP2 CALLDATALOAD SWAP1 POP PUSH2 0xCC1 DUP2 PUSH2 0x153F JUMP JUMPDEST SWAP3 SWAP2 POP POP JUMP JUMPDEST PUSH1 0x0 PUSH1 0x20 DUP3 DUP5 SUB SLT ISZERO PUSH2 0xCDD JUMPI PUSH2 0xCDC PUSH2 0x138D JUMP JUMPDEST JUMPDEST PUSH1 0x0 PUSH2 0xCEB DUP5 DUP3 DUP6 ADD PUSH2 0xC5A JUMP JUMPDEST SWAP2 POP POP SWAP3 SWAP2 POP POP JUMP JUMPDEST PUSH1 0x0 DUP1 PUSH1 0x0 PUSH1 0x60 DUP5 DUP7 SUB SLT ISZERO PUSH2 0xD0D JUMPI PUSH2 0xD0C PUSH2 0x138D JUMP JUMPDEST JUMPDEST PUSH1 0x0 DUP5 ADD CALLDATALOAD PUSH8 0xFFFFFFFFFFFFFFFF DUP2 GT ISZERO PUSH2 0xD2B JUMPI PUSH2 0xD2A PUSH2 0x1388 JUMP JUMPDEST JUMPDEST PUSH2 0xD37 DUP7 DUP3 DUP8 ADD PUSH2 0xC84 JUMP JUMPDEST SWAP4 POP POP PUSH1 0x20 PUSH2 0xD48 DUP7 DUP3 DUP8 ADD PUSH2 0xCB2 JUMP JUMPDEST SWAP3 POP POP PUSH1 0x40 PUSH2 0xD59 DUP7 DUP3 DUP8 ADD PUSH2 0xC6F JUMP JUMPDEST SWAP2 POP POP SWAP3 POP SWAP3 POP SWAP3 JUMP JUMPDEST PUSH1 0x0 PUSH1 0x20 DUP3 DUP5 SUB SLT ISZERO PUSH2 0xD79 JUMPI PUSH2 0xD78 PUSH2 0x138D JUMP JUMPDEST JUMPDEST PUSH1 0x0 PUSH2 0xD87 DUP5 DUP3 DUP6 ADD PUSH2 0xCB2 JUMP JUMPDEST SWAP2 POP POP SWAP3 SWAP2 POP POP JUMP JUMPDEST PUSH2 0xD99 DUP2 PUSH2 0x11BB JUMP JUMPDEST DUP3 MSTORE POP POP JUMP JUMPDEST PUSH2 0xDA8 DUP2 PUSH2 0x11A9 JUMP JUMPDEST DUP3 MSTORE POP POP JUMP JUMPDEST PUSH2 0xDB7 DUP2 PUSH2 0x11CD JUMP JUMPDEST DUP3 MSTORE POP POP JUMP JUMPDEST PUSH1 0x0 PUSH2 0xDC8 DUP3 PUSH2 0x1103 JUMP JUMPDEST PUSH2 0xDD2 DUP2 DUP6 PUSH2 0x110E JUMP JUMPDEST SWAP4 POP PUSH2 0xDE2 DUP2 DUP6 PUSH1 0x20 DUP7 ADD PUSH2 0x1212 JUMP JUMPDEST PUSH2 0xDEB DUP2 PUSH2 0x1392 JUMP JUMPDEST DUP5 ADD SWAP2 POP POP SWAP3 SWAP2 POP POP JUMP JUMPDEST PUSH1 0x0 PUSH2 0xE03 PUSH1 0x16 DUP4 PUSH2 0x110E JUMP JUMPDEST SWAP2 POP PUSH2 0xE0E DUP3 PUSH2 0x13A3 JUMP JUMPDEST PUSH1 0x20 DUP3 ADD SWAP1 POP SWAP2 SWAP1 POP JUMP JUMPDEST PUSH1 0x0 PUSH2 0xE26 PUSH1 0xD DUP4 PUSH2 0x110E JUMP JUMPDEST SWAP2 POP PUSH2 0xE31 DUP3 PUSH2 0x13CC JUMP JUMPDEST PUSH1 0x20 DUP3 ADD SWAP1 POP SWAP2 SWAP1 POP JUMP JUMPDEST PUSH1 0x0 PUSH2 0xE49 PUSH1 0x10 DUP4 PUSH2 0x110E JUMP JUMPDEST SWAP2 POP PUSH2 0xE54 DUP3 PUSH2 0x13F5 JUMP JUMPDEST PUSH1 0x20 DUP3 ADD SWAP1 POP SWAP2 SWAP1 POP JUMP JUMPDEST PUSH1 0x0 PUSH2 0xE6C PUSH1 0x14 DUP4 PUSH2 0x110E JUMP JUMPDEST SWAP2 POP PUSH2 0xE77 DUP3 PUSH2 0x141E JUMP JUMPDEST PUSH1 0x20 DUP3 ADD SWAP1 POP SWAP2 SWAP1 POP JUMP JUMPDEST PUSH1 0x0 PUSH2 0xE8F PUSH1 0xC DUP4 PUSH2 0x110E JUMP JUMPDEST SWAP2 POP PUSH2 0xE9A DUP3 PUSH2 0x1447 JUMP JUMPDEST PUSH1 0x20 DUP3 ADD SWAP1 POP SWAP2 SWAP1 POP JUMP JUMPDEST PUSH1 0x0 PUSH2 0xEB2 PUSH1 0x11 DUP4 PUSH2 0x110E JUMP JUMPDEST SWAP2 POP PUSH2 0xEBD DUP3 PUSH2 0x1470 JUMP JUMPDEST PUSH1 0x20 DUP3 ADD SWAP1 POP SWAP2 SWAP1 POP JUMP JUMPDEST PUSH1 0x0 PUSH2 0xED5 PUSH1 0x23 DUP4 PUSH2 0x110E JUMP JUMPDEST SWAP2 POP PUSH2 0xEE0 DUP3 PUSH2 0x1499 JUMP JUMPDEST PUSH1 0x40 DUP3 ADD SWAP1 POP SWAP2 SWAP1 POP JUMP JUMPDEST PUSH1 0x0 PUSH2 0xEF8 PUSH1 0x11 DUP4 PUSH2 0x110E JUMP JUMPDEST SWAP2 POP PUSH2 0xF03 DUP3 PUSH2 0x14E8 JUMP JUMPDEST PUSH1 0x20 DUP3 ADD SWAP1 POP SWAP2 SWAP1 POP JUMP JUMPDEST PUSH2 0xF17 DUP2 PUSH2 0x11F9 JUMP JUMPDEST DUP3 MSTORE POP POP JUMP JUMPDEST PUSH1 0x0 PUSH1 0x20 DUP3 ADD SWAP1 POP PUSH2 0xF32 PUSH1 0x0 DUP4 ADD DUP5 PUSH2 0xD9F JUMP JUMPDEST SWAP3 SWAP2 POP POP JUMP JUMPDEST PUSH1 0x0 PUSH1 0xA0 DUP3 ADD SWAP1 POP DUP2 DUP2 SUB PUSH1 0x0 DUP4 ADD MSTORE PUSH2 0xF52 DUP2 DUP9 PUSH2 0xDBD JUMP JUMPDEST SWAP1 POP PUSH2 0xF61 PUSH1 0x20 DUP4 ADD DUP8 PUSH2 0xF0E JUMP JUMPDEST PUSH2 0xF6E PUSH1 0x40 DUP4 ADD DUP7 PUSH2 0xD90 JUMP JUMPDEST PUSH2 0xF7B PUSH1 0x60 DUP4 ADD DUP6 PUSH2 0xF0E JUMP JUMPDEST PUSH2 0xF88 PUSH1 0x80 DUP4 ADD DUP5 PUSH2 0xDAE JUMP JUMPDEST SWAP7 SWAP6 POP POP POP POP POP POP JUMP JUMPDEST PUSH1 0x0 PUSH1 0x20 DUP3 ADD SWAP1 POP DUP2 DUP2 SUB PUSH1 0x0 DUP4 ADD MSTORE PUSH2 0xFAB DUP2 PUSH2 0xDF6 JUMP JUMPDEST SWAP1 POP SWAP2 SWAP1 POP JUMP JUMPDEST PUSH1 0x0 PUSH1 0x20 DUP3 ADD SWAP1 POP DUP2 DUP2 SUB PUSH1 0x0 DUP4 ADD MSTORE PUSH2 0xFCB DUP2 PUSH2 0xE19 JUMP JUMPDEST SWAP1 POP SWAP2 SWAP1 POP JUMP JUMPDEST PUSH1 0x0 PUSH1 0x20 DUP3 ADD SWAP1 POP DUP2 DUP2 SUB PUSH1 0x0 DUP4 ADD MSTORE PUSH2 0xFEB DUP2 PUSH2 0xE3C JUMP JUMPDEST SWAP1 POP SWAP2 SWAP1 POP JUMP JUMPDEST PUSH1 0x0 PUSH1 0x20 DUP3 ADD SWAP1 POP DUP2 DUP2 SUB PUSH1 0x0 DUP4 ADD MSTORE PUSH2 0x100B DUP2 PUSH2 0xE5F JUMP JUMPDEST SWAP1 POP SWAP2 SWAP1 POP JUMP JUMPDEST PUSH1 0x0 PUSH1 0x20 DUP3 ADD SWAP1 POP DUP2 DUP2 SUB PUSH1 0x0 DUP4 ADD MSTORE PUSH2 0x102B DUP2 PUSH2 0xE82 JUMP JUMPDEST SWAP1 POP SWAP2 SWAP1 POP JUMP JUMPDEST PUSH1 0x0 PUSH1 0x20 DUP3 ADD SWAP1 POP DUP2 DUP2 SUB PUSH1 0x0 DUP4 ADD MSTORE PUSH2 0x104B DUP2 PUSH2 0xEA5 JUMP JUMPDEST SWAP1 POP SWAP2 SWAP1 POP JUMP JUMPDEST PUSH1 0x0 PUSH1 0x20 DUP3 ADD SWAP1 POP DUP2 DUP2 SUB PUSH1 0x0 DUP4 ADD MSTORE PUSH2 0x106B DUP2 PUSH2 0xEC8 JUMP JUMPDEST SWAP1 POP SWAP2 SWAP1 POP JUMP JUMPDEST PUSH1 0x0 PUSH1 0x20 DUP3 ADD SWAP1 POP DUP2 DUP2 SUB PUSH1 0x0 DUP4 ADD MSTORE PUSH2 0x108B DUP2 PUSH2 0xEEB JUMP JUMPDEST SWAP1 POP SWAP2 SWAP1 POP JUMP JUMPDEST PUSH1 0x0 PUSH1 0x20 DUP3 ADD SWAP1 POP PUSH2 0x10A7 PUSH1 0x0 DUP4 ADD DUP5 PUSH2 0xF0E JUMP JUMPDEST SWAP3 SWAP2 POP POP JUMP JUMPDEST PUSH1 0x0 PUSH2 0x10B7 PUSH2 0x10C8 JUMP JUMPDEST SWAP1 POP PUSH2 0x10C3 DUP3 DUP3 PUSH2 0x1277 JUMP JUMPDEST SWAP2 SWAP1 POP JUMP JUMPDEST PUSH1 0x0 PUSH1 0x40 MLOAD SWAP1 POP SWAP1 JUMP JUMPDEST PUSH1 0x0 PUSH8 0xFFFFFFFFFFFFFFFF DUP3 GT ISZERO PUSH2 0x10ED JUMPI PUSH2 0x10EC PUSH2 0x134F JUMP JUMPDEST JUMPDEST PUSH2 0x10F6 DUP3 PUSH2 0x1392 JUMP JUMPDEST SWAP1 POP PUSH1 0x20 DUP2 ADD SWAP1 POP SWAP2 SWAP1 POP JUMP JUMPDEST PUSH1 0x0 DUP2 MLOAD SWAP1 POP SWAP2 SWAP1 POP JUMP JUMPDEST PUSH1 0x0 DUP3 DUP3 MSTORE PUSH1 0x20 DUP3 ADD SWAP1 POP SWAP3 SWAP2 POP POP JUMP JUMPDEST PUSH1 0x0 PUSH2 0x112A DUP3 PUSH2 0x11F9 JUMP JUMPDEST SWAP2 POP PUSH2 0x1135 DUP4 PUSH2 0x11F9 JUMP JUMPDEST SWAP3 POP DUP3 PUSH32 0xFFFFFFFFFFFFFFFFFFFFFFFFFFFFFFFFFFFFFFFFFFFFFFFFFFFFFFFFFFFFFFFF SUB DUP3 GT ISZERO PUSH2 0x116A JUMPI PUSH2 0x1169 PUSH2 0x12F1 JUMP JUMPDEST JUMPDEST DUP3 DUP3 ADD SWAP1 POP SWAP3 SWAP2 POP POP JUMP JUMPDEST PUSH1 0x0 PUSH2 0x1180 DUP3 PUSH2 0x11F9 JUMP JUMPDEST SWAP2 POP PUSH2 0x118B DUP4 PUSH2 0x11F9 JUMP JUMPDEST SWAP3 POP DUP3 DUP3 LT ISZERO PUSH2 0x119E JUMPI PUSH2 0x119D PUSH2 0x12F1 JUMP JUMPDEST JUMPDEST DUP3 DUP3 SUB SWAP1 POP SWAP3 SWAP2 POP POP JUMP JUMPDEST PUSH1 0x0 PUSH2 0x11B4 DUP3 PUSH2 0x11D9 JUMP JUMPDEST SWAP1 POP SWAP2 SWAP1 POP JUMP JUMPDEST PUSH1 0x0 PUSH2 0x11C6 DUP3 PUSH2 0x11D9 JUMP JUMPDEST SWAP1 POP SWAP2 SWAP1 POP JUMP JUMPDEST PUSH1 0x0 DUP2 ISZERO ISZERO SWAP1 POP SWAP2 SWAP1 POP JUMP JUMPDEST PUSH1 0x0 PUSH20 0xFFFFFFFFFFFFFFFFFFFFFFFFFFFFFFFFFFFFFFFF DUP3 AND SWAP1 POP SWAP2 SWAP1 POP JUMP JUMPDEST PUSH1 0x0 DUP2 SWAP1 POP SWAP2 SWAP1 POP JUMP JUMPDEST DUP3 DUP2 DUP4 CALLDATACOPY PUSH1 0x0 DUP4 DUP4 ADD MSTORE POP POP POP JUMP JUMPDEST PUSH1 0x0 JUMPDEST DUP4 DUP2 LT ISZERO PUSH2 0x1230 JUMPI DUP1 DUP3 ADD MLOAD DUP2 DUP5 ADD MSTORE PUSH1 0x20 DUP2 ADD SWAP1 POP PUSH2 0x1215 JUMP JUMPDEST DUP4 DUP2 GT ISZERO PUSH2 0x123F JUMPI PUSH1 0x0 DUP5 DUP5 ADD MSTORE JUMPDEST POP POP POP POP JUMP JUMPDEST PUSH1 0x0 PUSH1 0x2 DUP3 DIV SWAP1 POP PUSH1 0x1 DUP3 AND DUP1 PUSH2 0x125D JUMPI PUSH1 0x7F DUP3 AND SWAP2 POP JUMPDEST PUSH1 0x20 DUP3 LT DUP2 EQ ISZERO PUSH2 0x1271 JUMPI PUSH2 0x1270 PUSH2 0x1320 JUMP JUMPDEST JUMPDEST POP SWAP2 SWAP1 POP JUMP JUMPDEST PUSH2 0x1280 DUP3 PUSH2 0x1392 JUMP JUMPDEST DUP2 ADD DUP2 DUP2 LT PUSH8 0xFFFFFFFFFFFFFFFF DUP3 GT OR ISZERO PUSH2 0x129F JUMPI PUSH2 0x129E PUSH2 0x134F JUMP JUMPDEST JUMPDEST DUP1 PUSH1 0x40 MSTORE POP POP POP JUMP JUMPDEST PUSH1 0x0 PUSH2 0x12B3 DUP3 PUSH2 0x11F9 JUMP JUMPDEST SWAP2 POP PUSH32 0xFFFFFFFFFFFFFFFFFFFFFFFFFFFFFFFFFFFFFFFFFFFFFFFFFFFFFFFFFFFFFFFF DUP3 EQ ISZERO PUSH2 0x12E6 JUMPI PUSH2 0x12E5 PUSH2 0x12F1 JUMP JUMPDEST JUMPDEST PUSH1 0x1 DUP3 ADD SWAP1 POP SWAP2 SWAP1 POP JUMP JUMPDEST PUSH32 0x4E487B7100000000000000000000000000000000000000000000000000000000 PUSH1 0x0 MSTORE PUSH1 0x11 PUSH1 0x4 MSTORE PUSH1 0x24 PUSH1 0x0 REVERT JUMPDEST PUSH32 0x4E487B7100000000000000000000000000000000000000000000000000000000 PUSH1 0x0 MSTORE PUSH1 0x22 PUSH1 0x4 MSTORE PUSH1 0x24 PUSH1 0x0 REVERT JUMPDEST PUSH32 0x4E487B7100000000000000000000000000000000000000000000000000000000 PUSH1 0x0 MSTORE PUSH1 0x41 PUSH1 0x4 MSTORE PUSH1 0x24 PUSH1 0x0 REVERT JUMPDEST PUSH1 0x0 DUP1 REVERT JUMPDEST PUSH1 0x0 DUP1 REVERT JUMPDEST PUSH1 0x0 DUP1 REVERT JUMPDEST PUSH1 0x0 DUP1 REVERT JUMPDEST PUSH1 0x0 PUSH1 0x1F NOT PUSH1 0x1F DUP4 ADD AND SWAP1 POP SWAP2 SWAP1 POP JUMP JUMPDEST PUSH32 0x46756E64696E6720776173207375636365737366756C00000000000000000000 PUSH1 0x0 DUP3 ADD MSTORE POP JUMP JUMPDEST PUSH32 0x416C726561647920766F74656400000000000000000000000000000000000000 PUSH1 0x0 DUP3 ADD MSTORE POP JUMP JUMPDEST PUSH32 0x46756E64696E67206973206F7665722100000000000000000000000000000000 PUSH1 0x0 DUP3 ADD MSTORE POP JUMP JUMPDEST PUSH32 0x46756E64696E67206973207374696C6C206F6E21000000000000000000000000 PUSH1 0x0 DUP3 ADD MSTORE POP JUMP JUMPDEST PUSH32 0x4E6F7420612066756E6465720000000000000000000000000000000000000000 PUSH1 0x0 DUP3 ADD MSTORE POP JUMP JUMPDEST PUSH32 0x436F6D706C6574656420416C7265616479000000000000000000000000000000 PUSH1 0x0 DUP3 ADD MSTORE POP JUMP JUMPDEST PUSH32 0x4D696E696D756D20616D6F756E74206372697465726961206E6F742073617469 PUSH1 0x0 DUP3 ADD MSTORE PUSH32 0x7366790000000000000000000000000000000000000000000000000000000000 PUSH1 0x20 DUP3 ADD MSTORE POP JUMP JUMPDEST PUSH32 0x596F7520617265206E6F74206F776E6572000000000000000000000000000000 PUSH1 0x0 DUP3 ADD MSTORE POP JUMP JUMPDEST PUSH2 0x151A DUP2 PUSH2 0x11A9 JUMP JUMPDEST DUP2 EQ PUSH2 0x1525 JUMPI PUSH1 0x0 DUP1 REVERT JUMPDEST POP JUMP JUMPDEST PUSH2 0x1531 DUP2 PUSH2 0x11BB JUMP JUMPDEST DUP2 EQ PUSH2 0x153C JUMPI PUSH1 0x0 DUP1 REVERT JUMPDEST POP JUMP JUMPDEST PUSH2 0x1548 DUP2 PUSH2 0x11F9 JUMP JUMPDEST DUP2 EQ PUSH2 0x1553 JUMPI PUSH1 0x0 DUP1 REVERT JUMPDEST POP JUMP INVALID LOG2 PUSH5 0x6970667358 0x22 SLT KECCAK256 0x49 0xC0 0x4F PUSH27 0x7226974D4AD8A53EAC773C053BA41B710010D14E1000DCF6686F1A PUSH16 0x64736F6C634300080700330000000000 "
				},
				"gasEstimates": {
					"creation": {
						"codeDepositCost": "1103200",
						"executionCost": "infinite",
						"totalCost": "infinite"
					},
					"external": {
						"AllRequests(uint256)": "infinite",
						"contribution()": "infinite",
						"createRequests(string,uint256,address)": "infinite",
						"funders(address)": "2860",
						"fundsRaised()": "2474",
						"getRefund()": "infinite",
						"goal()": "2496",
						"makePayment(uint256)": "2982",
						"minAmount()": "2451",
						"noOfFounders()": "2517",
						"numReq()": "2452",
						"owner()": "2578",
						"timePeriod()": "2474",
						"votingForRequest(uint256)": "infinite"
					}
				},
				"methodIdentifiers": {
					"AllRequests(uint256)": "0114bd3f",
					"contribution()": "50520b1f",
					"createRequests(string,uint256,address)": "277c3da4",
					"funders(address)": "031b3677",
					"fundsRaised()": "6681b9fd",
					"getRefund()": "b2d5ae44",
					"goal()": "40193883",
					"makePayment(uint256)": "5114cb52",
					"minAmount()": "9b2cb5d8",
					"noOfFounders()": "e89b7c55",
					"numReq()": "3c2ed32d",
					"owner()": "8da5cb5b",
					"timePeriod()": "3e79d1e1",
					"votingForRequest(uint256)": "b0636556"
				}
			},
			"storageLayout": {
				"storage": [
					{
						"astId": 3,
						"contract": "CrowdFunding.sol:main",
						"label": "owner",
						"offset": 0,
						"slot": "0",
						"type": "t_address"
					},
					{
						"astId": 7,
						"contract": "CrowdFunding.sol:main",
						"label": "funders",
						"offset": 0,
						"slot": "1",
						"type": "t_mapping(t_address,t_uint256)"
					},
					{
						"astId": 9,
						"contract": "CrowdFunding.sol:main",
						"label": "goal",
						"offset": 0,
						"slot": "2",
						"type": "t_uint256"
					},
					{
						"astId": 11,
						"contract": "CrowdFunding.sol:main",
						"label": "minAmount",
						"offset": 0,
						"slot": "3",
						"type": "t_uint256"
					},
					{
						"astId": 13,
						"contract": "CrowdFunding.sol:main",
						"label": "noOfFounders",
						"offset": 0,
						"slot": "4",
						"type": "t_uint256"
					},
					{
						"astId": 15,
						"contract": "CrowdFunding.sol:main",
						"label": "fundsRaised",
						"offset": 0,
						"slot": "5",
						"type": "t_uint256"
					},
					{
						"astId": 17,
						"contract": "CrowdFunding.sol:main",
						"label": "timePeriod",
						"offset": 0,
						"slot": "6",
						"type": "t_uint256"
					},
					{
						"astId": 180,
						"contract": "CrowdFunding.sol:main",
						"label": "AllRequests",
						"offset": 0,
						"slot": "7",
						"type": "t_mapping(t_uint256,t_struct(Requests)175_storage)"
					},
					{
						"astId": 182,
						"contract": "CrowdFunding.sol:main",
						"label": "numReq",
						"offset": 0,
						"slot": "8",
						"type": "t_uint256"
					}
				],
				"types": {
					"t_address": {
						"encoding": "inplace",
						"label": "address",
						"numberOfBytes": "20"
					},
					"t_address_payable": {
						"encoding": "inplace",
						"label": "address payable",
						"numberOfBytes": "20"
					},
					"t_bool": {
						"encoding": "inplace",
						"label": "bool",
						"numberOfBytes": "1"
					},
					"t_mapping(t_address,t_bool)": {
						"encoding": "mapping",
						"key": "t_address",
						"label": "mapping(address => bool)",
						"numberOfBytes": "32",
						"value": "t_bool"
					},
					"t_mapping(t_address,t_uint256)": {
						"encoding": "mapping",
						"key": "t_address",
						"label": "mapping(address => uint256)",
						"numberOfBytes": "32",
						"value": "t_uint256"
					},
					"t_mapping(t_uint256,t_struct(Requests)175_storage)": {
						"encoding": "mapping",
						"key": "t_uint256",
						"label": "mapping(uint256 => struct main.Requests)",
						"numberOfBytes": "32",
						"value": "t_struct(Requests)175_storage"
					},
					"t_string_storage": {
						"encoding": "bytes",
						"label": "string",
						"numberOfBytes": "32"
					},
					"t_struct(Requests)175_storage": {
						"encoding": "inplace",
						"label": "struct main.Requests",
						"members": [
							{
								"astId": 162,
								"contract": "CrowdFunding.sol:main",
								"label": "description",
								"offset": 0,
								"slot": "0",
								"type": "t_string_storage"
							},
							{
								"astId": 164,
								"contract": "CrowdFunding.sol:main",
								"label": "amount",
								"offset": 0,
								"slot": "1",
								"type": "t_uint256"
							},
							{
								"astId": 166,
								"contract": "CrowdFunding.sol:main",
								"label": "receiver",
								"offset": 0,
								"slot": "2",
								"type": "t_address_payable"
							},
							{
								"astId": 168,
								"contract": "CrowdFunding.sol:main",
								"label": "noOfVotes",
								"offset": 0,
								"slot": "3",
								"type": "t_uint256"
							},
							{
								"astId": 172,
								"contract": "CrowdFunding.sol:main",
								"label": "votes",
								"offset": 0,
								"slot": "4",
								"type": "t_mapping(t_address,t_bool)"
							},
							{
								"astId": 174,
								"contract": "CrowdFunding.sol:main",
								"label": "completed",
								"offset": 0,
								"slot": "5",
								"type": "t_bool"
							}
						],
						"numberOfBytes": "192"
					},
					"t_uint256": {
						"encoding": "inplace",
						"label": "uint256",
						"numberOfBytes": "32"
					}
				}
			},
			"userdoc": {
				"kind": "user",
				"methods": {},
				"version": 1
			}
		}
	}
}